:100000000EC028C027C026C025C024C023C022C0DF
:1000100021C020C0BDC01EC0D6C01CC01BC0112442
:100020001FBECFE5D2E0DEBFCDBF10E0A0E6B0E05E
:10003000EEE2FAE102C005900D92AC36B107D9F7B5
:1000400011E0ACE6B0E001C01D92A63CB107E1F7BB
:10005000BBD0EBCCD5CFA895019728F0E0EAFFE024
:100060003197F1F7F8CF089572E07A95F1F701979B
:10007000D9F7A895089588E08DB9C19A089584E0CC
:1000800086BB86BB86BB86BB86BB86BB86BB86BB68
:1000900086BB86BB86BB86BB86BB86BB86BB86BB58
:1000A00000008FB1089594E068B378E087FB61F9B0
:1000B00068BB880F96BB96BB7A95C1F7C19A089525
:1000C000DC01FB0122E032E02E1B3F0B241B350B31
:1000D00084E0319788F086BB86BB86BB86BB86BB37
:1000E00086BB86BB86BB86BB86BB86BB86BB86BB08
:1000F00086BB86BB86BBEDCF109731F0C0DF8D93FA
:1001000041505040D9F72FC08C9956958C994795FE
:10011000899956958999479560916E00A8E8B0E055
:10012000A60FB11D809198018C3FE0F78C99A7DF55
:10013000A6DF8C998058E82F899B07C08C999FDF98
:100140009EDF8C998058E80FE795ED93F8948091A5
:10015000980183958093980178946395415050401D
:10016000E9F660936E0084E086BB86BB86BB86BBE7
:1001700086BB86BB86BB86BB86BB86BB86BB86BB77
:1001800086BB86BB86BB86BB2150304069F708958D
:100190008F938FB78F93EF93FF93E0916F00FF27BB
:1001A000E857FF4F80919801815038F08093980173
:1001B00081918BBDE858E0936F00FF91EF918F9193
:1001C0008FBF8F91189518953F924F925F926F92C3
:1001D0007F928F929F92AF92BF92CF92DF92EF92D7
:1001E000FF920F931F93CF93DF9314BE8EE081BDD8
:1001F00089E288BB8EE387BB789489E991E091DA44
:10020000882309F0EDC1A89588E891E060E670E0E8
:1002100075D8282F843029F0E0E6AE2EE0E0BE2E1F
:10022000DAC188E891E064E670E068D8282F74E6C7
:10023000A72E70E0B72ECFC1812C62E0962E33241A
:10024000339456E0552E40E6442E88E891E060E075
:1002500070E059D6282F32E0C32E90E1692EB8C144
:10026000A89588E891E060E770E04DD6282F8823B4
:1002700009F0B3C180917900882339F38091780027
:10028000827171F789E790E065E670E0B4DB009772
:1002900039F388E890E0B501A7DB88E890E06AE6EA
:1002A00070E097DB88E890E069E770E092DBA89562
:1002B00088E890E077D8282F882309F083C188E860
:1002C00090E06CE070E046E850E0D2D8882309F076
:1002D00087C180918600909187000C9709F080C1BA
:1002E0008091900090919100A0919200B091930024
:1002F00087559144A645B54409F072C1DD24A895FF
:1003000088E890E068E070E046E850E0B1D880917D
:10031000860090918700089709F062C1E0908C00F8
:10032000F0908D0000918E0010918F0080918800D8
:1003300090918900A0918A00B0918B008C3469E47F
:10034000960763E5A60764E5B60709F4B6C08D34E1
:1003500029E4920723E5A20724E5B20778F486365C
:100360006DE6960764E7A60760E2B607B9F0845425
:100370009944A345B04509F033C19FC0843661E676
:10038000960764E7A60761E6B60709F463C08656D8
:100390009146A346B44709F023C18FC0C7018170BD
:1003A0009070892B29F00894E11CF11C011D111D8E
:1003B000D801C7014097A109B10985359105A1056B
:1003C000B10508F00DC188E890E0B70146E850E0BB
:1003D0004FD88091860090918700A0E0B0E08E1504
:1003E0009F05A007B10709F0FBC08091880081300C
:1003F00009F0F6C0D0908A008D2D8150823008F02F
:10040000EFC0D1BA90919600983019F0903109F070
:10041000E7C081B3892B81BB94FDDD0C20918C005A
:1004200030918D0040918E0050918F00DA01C9010A
:1004300080549F41A040B04081549C49A040B040AE
:1004400008F0CEC060E472E48FE090E0A0DA2150C2
:1004500029BD55CFDD2009F4C3C080E0E81684E053
:10046000F80680E0080780E0180708F4B9C08D2D71
:1004700090E001979C01442737FD4095542FDA0105
:10048000C9018E219F21A023B1230097A105B105A9
:1004900009F0A6C08091B1019091B201A091B30181
:1004A000B091B401282339234A235B232115310558
:1004B0004105510509F094C01AC0C70181709070C0
:1004C000892B29F00894E11CF11C011D111D80915C
:1004D000B1019091B201A091B301B091B401E80EC5
:1004E000F91E0A1F1B1FC801B701D6D308CF9FEF03
:1004F000E916F1040105110509F008F471C080B78F
:10050000882381F457BC4CBC30BECABCC3BE69BE94
:10051000DD24D394DEBCDBBC84E690E0A5DDA0E85E
:10052000DA16B9F71092980110926F0010926E00CF
:100530008091B1019091B2019170B401681B790B67
:1005400080E090E046E850E093D78091860090915B
:100550008700A0E0B0E0E81AF90A0A0B1B0BDD24C3
:10056000D394A895B1E0EB16B4E0FB06B0E00B071E
:10057000B0E01B0718F0C0E0D4E001C0E70180E064
:1005800090E0BE0146E850E073D7282F8823D1F4CD
:100590008091860090918700C817D90799F4DD0CE7
:1005A000B09904C0D39461E0D61661F0C050D44035
:1005B00049F480E09CEFAFEFBFEFE80EF91E0A1F91
:1005C0001B1FCFCF809198018823E1F77EBC7BBCB5
:1005D000222331F445CE80E8782E222309F42CCE54
:1005E000A89513BE1ABC80B7882359F010E81150A3
:1005F0001EBD1BBD84E690E037DD1123C1F710BEA0
:100600001CBC8DE481BD85B7877E806185BF85B7C1
:10061000806285BF889585B78F7D85BFA8958EE060
:1006200081BDEBCDDF92EF92FF920F931F93D82EF7
:100630007A018B0187FF0AC087E740E050E060E065
:1006400070E0F0DF823050F58FE7D822C39A17DDD3
:10065000C39815DD8D2D27DD812F9927AA27BB276C
:1006600022DDC801AA27BB271EDDBB27A12F902FA3
:100670008F2D19DD8E2D17DD80E4D81611F485E954
:1006800006C088E4D81611F487E801C081E00BDDCC
:100690001AE0F5DC87FF02C01150D9F71F910F91C6
:1006A000FF90EF90DF900895CF92DF92EF92FF924C
:1006B0000F931F93CF93DF936C0179018091C50154
:1006C00083FD07C039E0440F551F661F771F3A9519
:1006D000D1F781E5A7DF882381F4C0E3D5E7CFDC3C
:1006E0008F3F19F42197D9F708C08E3F31F4C60126
:1006F000B701A801E5DC10E001C011E0C39ABFDC3E
:10070000812FDF91CF911F910F91FF90EF90DF909C
:10071000CF900895CF92DF92EF92FF920F931F93A5
:10072000DF93CF9300D000D0CDB7DEB7A4DC0AE0D2
:1007300010E0A5DC01501040E1F7C39808E512E095
:100740009EDC01501040E1F780E440E050E060E0C2
:1007500070E068DF813009F05EC088E44AEA51E069
:1007600060E070E05FDF8130B1F56E010894C11C7C
:10077000D11C76018E010B5F1F4F81DCF701819345
:100780007F01E017F107C9F78B81813009F043C081
:100790008C818A3A09F03FC008EA11E603C0015093
:1007A0001040C9F189EE40E050E060E070E43ADFCB
:1007B0008823A9F746C063DCF60181936F01EE152B
:1007C000FF05C9F7898186FD03C0E4E0FE2E24C041
:1007D0007CE0F72E21C089EE40E050E060E070E060
:1007E00021DF823028F061E4E62EFF24F39404C078
:1007F00059EEE52E42E0F42E08EA11E603C001505E
:10080000104049F08E2D40E050E060E070E00ADFDB
:100810008823A9F720C0FF24F092C501C39A2FDCDA
:1008200080E0FF2009F481E00F900F900F900F906F
:10083000CF91DF911F910F91FF90EF90DF90CF90BC
:1008400008958AE740E050E060E070E0EBDE882346
:1008500009F4B1CFE0CF80E540E052E060E070E025
:10086000E1DE8823C1F6D8CFCF92DF92EF92FF92DC
:100870000F931F93CF93DF936C01C0916C00D091C5
:100880006D00FC01118210822481358146815781DF
:10089000213031054105510509F45AC088859985F3
:1008A000AA85BB85281739074A075B0708F050C09F
:1008B000211531054105510539F48881833021F432
:1008C000288939894A895B89F601208731874287DF
:1008D0005387211531054105510579F18EEFE82E39
:1008E0008FEFF82E8FEF082F8FEF182FE20EF31EE9
:1008F000041F151F88859985AA85BB850297A109C4
:10090000B109E816F9060A071B0728F020E030E0D5
:1009100040E050E016C0298130E040E050E0C801DE
:10092000B7011CD89B01AC018C899D89AE89BF8918
:10093000280F391F4A1F5B1F04C0288939894A893B
:100940005B89F601248735874687578780E001C099
:1009500081E0DF91CF911F910F91FF90EF90DF9099
:10096000CF9008956F927F928F929F92AF92BF9295
:10097000CF92DF92EF92FF920F931F93DF93CF936B
:1009800000D000D0CDB7DEB74B015C0160906C00A9
:1009900070906D0082E088169104A104B10408F4FF
:1009A000B0C0F30180859185A285B385881699062C
:1009B000AA06BB0608F0A5C08081823009F45DC09C
:1009C000833009F478C0813009F09BC0C40196954A
:1009D0008795880D991D9C013170892F99278695DF
:1009E0006C01EE24FF24F3014485558566857785E7
:1009F000CE010196F1E02F3F3F0749F0C40ED51E0E
:100A0000E61EF71EB701A60102E010E01DC04C0D66
:100A10005D1D6E1D7F1D2FEF31E001E010E044DE13
:100A2000882309F06EC0F301448555856685778576
:100A30004F5F5F4F6F4F7F4F4C0D5D1D6E1D7F1DD4
:100A4000CE01029620E030E02FDE882309F059C065
:100A500069817A81C40181709070892B39F0A4E09A
:100A600076956795AA95E1F79B0122C09B0140E02E
:100A700050E03F704070507048C077276B2D5A2D62
:100A8000492DF30184859585A685B785480F591FA3
:100A90006A1F7B1F94013070220F331FCE01019615
:100AA00002E010E001DE882361F589819A819C01D2
:100AB00040E050E02AC0B501A40127E07695679593
:100AC000579547952A95D1F7F30184859585A68595
:100AD000B785480F591F6A1F7B1F94012F7730700D
:100AE000220F331F220F331FCE01019604E010E0C6
:100AF000DBDD882331F429813A814B815C815F7091
:100B000004C021E030E040E050E0B901CA010F909C
:100B10000F900F900F90CF91DF911F910F91FF9049
:100B2000EF90DF90CF90BF90AF909F908F907F908D
:100B30006F900895AF92BF92CF92DF92EF92FF92A3
:100B40000F931F93CF93DF935C01C0916C00D09102
:100B50006D00FC01C080D1800894C11CD11CC1145F
:100B6000D10409F48DC02485358546855785211526
:100B700031054105510509F483C0C6018F7090709D
:100B8000892B09F078C02F5F3F4F4F4F5F4F24876D
:100B9000358746875787408551856285738541151E
:100BA00051056105710539F48C819D81C816D906FE
:100BB00008F461C065C0898190E001979601E4E086
:100BC00036952795EA95E1F782239323892B09F03F
:100BD00052C0CB01BA01C6DE9B01AC016230710587
:100BE0008105910510F481E04CC088859985AA851E
:100BF000BB85281739074A075B0708F041C0F50194
:100C00002087318742875387C0916C00D0916D0057
:100C10008EEFE82E8FEFF82E8FEF082F8FEF182F23
:100C2000E20EF31E041F151F88859985AA85BB85D2
:100C30000297A109B109E816F9060A071B0728F06F
:100C400020E030E040E050E011C0298130E040E099
:100C500050E0C801B70182D69B01AC018C899D8907
:100C6000AE89BF89280F391F4A1F5B1FF5012487F2
:100C7000358746875787F501D182C08280E001C061
:100C800083E0DF91CF911F910F91FF90EF90DF9064
:100C9000CF90BF90AF9008952F923F924F925F9266
:100CA0006F927F928F929F92AF92BF92CF92DF927C
:100CB000EF92FF920F931F93CF93DF93E82FC09192
:100CC0006C00D0916D00209711F486E009C18A81F3
:100CD00080FD02C085E004C1AC8CBD8CCE8CDF8C65
:100CE0004E2F592FCB01DA013C014D01A614B70458
:100CF000C804D90410F435014601288D398D4A8D78
:100D00005B8D188E198E1A8E1B8E611471048104EE
:100D1000910409F4E4C08981A82EBB24CC24DD24ED
:100D200099E0AA0CBB1CCC1CDD1C9A95D1F72115AF
:100D3000310541055105A1F119012A010894210845
:100D4000310841085108C401B3016150704080402E
:100D50009040A60195011BD679018A01C201B1011B
:100D6000A601950114D6E216F30604071507C0F094
:100D700088279927DC018A199B09AC09BD098221C2
:100D80009321A421B521888F998FAA8FBB8F681AD0
:100D9000790A8A0A9B0A2CA13DA14EA15FA132C00B
:100DA00028A139A14AA15BA12CA33DA34EA35FA317
:100DB00029C0CA01B901D6DD9B01AC0162307105C1
:100DC0008105910508F488C088859985AA85BB8529
:100DD000281739074A075B0708F07EC02CA33DA3FC
:100DE0004EA35FA3888D998DAA8DBB8D8A0D9B1D07
:100DF000AC1DBD1D888F998FAA8FBB8F6A187B0889
:100E00008C089D08A614B704C804D90490F2888DF4
:100E1000998DAA8DBB8D860D971DA81DB91D888F34
:100E2000998FAA8FBB8F00916C0010916D008EEF8F
:100E3000A82E8FEFB82E8FEFC82E8FEFD82EA20ED0
:100E4000B31EC41ED51EF80180859185A285B38589
:100E50000297A109B109A816B906CA06DB06E0F592
:100E6000218130E040E050E0C601B50177D59B011B
:100E7000AC01F80184899589A689B789280F391FA3
:100E80004A1F5B1F211531054105510529F1D40188
:100E9000C30119E0B695A795979587951A95D1F74F
:100EA000982F8B83FFEFEF2EF1E0FF2E012D112DF8
:100EB0006E207F20802291226114710481049104AC
:100EC00071F0280F311D411D511D28A739A74AA7D0
:100ED0005BA79F5F9B8303C01A8281E001C080E013
:100EE000DF91CF911F910F91FF90EF90DF90CF9006
:100EF000BF90AF909F908F907F906F905F904F903A
:100F00003F902F900895AF92BF92CF92DF92EF92D1
:100F1000FF920F931F93DF93CF93CDB7DEB7AC97BC
:100F20000FB6F894DEBF0FBECDBF7C015B01E09130
:100F30006C00F0916D00309711F486E0C2C0CE01D4
:100F40000D9697838683CE010196D70113969C93C5
:100F50008E9312976115710519F4C70185DCB1C034
:100F6000C680D78083E024C0F701208131812F70B3
:100F70003070E5E0220F331FEA95E1F7C60100E289
:100F800010E092DB882311F081E01EC0D6019C9115
:100F9000992309F4A7C01B968C91953E29F09E32A7
:100FA00019F08F7383FF1CC0C701C4DD882361F46F
:100FB000F70144855585668577854115510561059D
:100FC000710591F6882361F0D7011C961D921D9240
:100FD0001D921C921F97833019F0882309F071C06D
:100FE0009501275F3F4FF70184859585A685B785D5
:100FF0000097A105B10509F456C0E0916C00F0918D
:101000006D004681578180E090E0FA01E80FF91FFA
:10101000E081E03251F0E53009F4E5EED901ED93DD
:101020009D0101968830910581F7FA018085803213
:1010300011F4F90110C0F9018EE28193DA012C5FFD
:101040003F4F18968C911897803229F08193119612
:10105000E217F307B1F7DA011B968C91D5011896C8
:101060008C93DA015C960D911D912D913C915F97C7
:10107000D5010D931D932D933C931397DA01589648
:101080008D919C915997D50115969C938E931497A9
:10109000DA0156968D919C915797D50117969C939E
:1010A0008E9316979F01F9011082C70143DD8330AB
:1010B00041F4D7011C961D921D921D921C921F9700
:1010C00080E0AC960FB6F894DEBF0FBECDBFCF91D7
:1010D000DF911F910F91FF90EF90DF90CF90BF9025
:1010E000AF90089583E070CF8F929F92AF92BF929E
:1010F000CF92DF92EF92FF920F931F93CF93DF93E4
:10110000EC016B0103C00894C11CD11CF601808165
:101110008032C9F38F3219F40894C11CD11C1C828F
:101120001D821E821F82F6018081813260F4CE0111
:101130009BDBB82EE0916C00F0916D000680F7818A
:10114000E02D1082C4C080E2882E992493944A81B5
:101150005B81FA018BE090E001C0819201972FEF53
:101160008F3F9207D1F730E0AA2468E002C038E050
:101170006BE0F601EA0DF11D2081A3942132A8F164
:101180002F3299F12E3211F0361728F0683069F5B8
:101190002E3269F32AC0822F81588F3118F08F5573
:1011A0008D31C0F4A32FB0E0862F90E00197A817EF
:1011B000B90784F4F601EA0DF11D9081A394A40F00
:1011C000B51F2C93832F8F5FFA01E80FF11D9083D9
:1011D0003E5FCFCF822F81568A3108F42052FA0128
:1011E000E30FF11D20833F5FC4CFFA011386213244
:1011F00008F49386CE0138DBB82E8823E9F5E09118
:101200006C00F0916D00E680F7804C855D856E8501
:101210007F85288139812F70307005E0220F331FC0
:101220000A95E1F7C70100E210E03EDA882311F0E9
:1012300081E021C0F7018081882309F456C08385AD
:1012400083FD15C0D7018A819B819C01F9012BE0A8
:1012500030E0215030408FEF2F3F380709F448C06D
:101260009C918081981719F411963196F2CFCE0196
:1012700061DC882351F2B82EE3E0BE1641F5EA8125
:10128000FB818385882309F122C0E0916C00F091F5
:101290006D000680F781E02D838584FF16C0CA0C9F
:1012A000D11C84899589A0E0B0E0DC0199278827CA
:1012B000228D338D40E050E0822B932BA42BB52B55
:1012C0008C839D83AE83BF8342CFA4E0BA2E8B2D47
:1012D000DF91CF911F910F91FF90EF90DF90CF9012
:1012E000BF90AF909F908F900895F3E0BF2EC7CF2F
:1012F000EA81FB818385882341F2E9CFEF92FF9257
:101300000F931F93DF93CF93CDB7DEB7AC970FB694
:10131000F894DEBF0FBECDBF8C01E0916C00F09160
:101320006D00309711F486E030C03DE0E32EF12CE3
:10133000EC0EFD1EF782E682CE010196F801938342
:101340008283C801D1DE8823E9F48D858823C1F02A
:10135000888D84FF19C0F70184899589A0E0B0E0E9
:10136000DC0199278827228D338D40E050E0822BC5
:10137000932BA42BB52BF80184839583A683B78385
:10138000C80172DA833009F484E0AC960FB6F894A1
:10139000DEBF0FBECDBFCF91DF911F910F91FF90A8
:1013A000EF900895EF92FF920F931F93DF93CF93E7
:1013B000CDB7DEB7EC970FB6F894DEBF0FBECDBF4A
:1013C000BC0100916C0010916D000115110511F424
:1013D00066E040C0F80112825DE1E52EF12CEC0ED2
:1013E000FD1EF782E682CE010196988B8F87CE0193
:1013F0000D967ADE682F882369F58D8D882349F153
:1014000088A584FD26C0F70184899589A0E0B0E015
:10141000DC0199278827228D338D40E050E0822B14
:10142000932BA42BB52BF80180A391A3A2A3B3A364
:10143000F701848D958DA68DB78DF801848F958FDA
:10144000A68FB78F108E118E128E138E81E082833D
:1014500001C063E0862FEC960FB6F894DEBF0FBE96
:10146000CDBFCF91DF911F910F91FF90EF90089525
:101470004F925F926F927F928F929F92AF92BF92A4
:10148000CF92DF92EF92FF920F931F93CF93DF9350
:101490003C016B014A01C0916C00D0916D00FA01D2
:1014A00011821082209711F486E0D6C08A8180FDD7
:1014B00002C085E0D1C02C8D3D8D4E8D5F8D888D15
:1014C000998DAA8DBB8D281B390B4A0B5B0BCB0169
:1014D000A0E0B0E0281739074A075B0708F4690164
:1014E0005301412CF2E05F2EAFC0E88CF98C0A8DDD
:1014F0001B8DD801C7019170A070B0700097A10535
:10150000B10509F068C0C801B701E9E09695879573
:1015100077956795EA95D1F7298130E040E050E072
:1015200036D26115710581059105D1F4E114F104FC
:101530000105110529F468A179A18AA19BA105C023
:101540006CA17DA18EA19FA10DDA6230710581058C
:10155000910508F47FC06CA37DA38EA39FA31B827B
:1015600000916C0010916D002CA13DA14EA15FA1D6
:101570002250304040405040F80180859185A2853E
:10158000B3850297A109B109281739074A075B07F4
:1015900008F060C0618170E080E090E0DFD19B01E5
:1015A000AC01F80184899589A689B789280F391F6C
:1015B0004A1F5B1F211531054105510509F44AC039
:1015C0008B81280F311D411D511D28A739A74AA71E
:1015D0005BA78F5F8B83088D198D2A8D3B8DC8018A
:1015E0009170A201481B590B76014C155D0508F45A
:1015F0007A016114710419F480E090E001C0C50122
:1016000048A559A56AA57BA59801317087014CD8DA
:10161000882301F5C701A0E0B0E0288D398D4A8DFF
:101620005B8D280F391F4A1F5B1F288F398F4A8F08
:101630005B8FAE0CBF1CCE18DF08F4018081918156
:101640008E0D9F1D91838083C114D10409F04DCF6D
:1016500080E002C01A8281E0DF91CF911F910F914B
:10166000FF90EF90DF90CF90BF90AF909F908F90C2
:101670007F906F905F904F900895AF92BF92CF92FE
:10168000DF92EF92FF920F931F93CF93DF93B82EC9
:10169000A92E6A017B012EEF31E002E010E004D8B0
:1016A000882311F023E031C0CB2DDA2D8881998178
:1016B00085559A4A11F022E028C08B2D9A2DB7014A
:1016C000A60126E330E002E010E0EED7882339F4EB
:1016D000888199818654914411F420E016C08B2DA5
:1016E0009A2DB701A60122E530E002E010E0DCD738
:1016F000882311F021E009C020E088819981865477
:10170000914409F421E081E02827822FDF91CF91D5
:101710001F910F91FF90EF90DF90CF90BF90AF900F
:1017200008956F927F928F929F92AF92BF92CF92C5
:10173000DF92EF92FF920F931F93DF93CF93CDB77A
:10174000DEB7A4970FB6F894DEBF0FBECDBF5C0125
:1017500010926D0010926C00009709F4E5C0DAD782
:1017600080FF02C082E0E5C04E010894811C911CFC
:10177000C40140E050E060E070E07FDF813021F0A4
:10178000CC24DD24760119C0C40140E050E060E0C3
:1017900070E02EEB31E000E110E086D7882309F0FD
:1017A000C5C08D81882309F4C3C0C984DA84EB8461
:1017B000FC84C401B701A60160DF833009F4B6C020
:1017C000882309F0B5C0CE010196B701A6012DE02E
:1017D00030E004E210E068D7882309F0A7C08A85CA
:1017E0009B85BC0180E090E0611571058105910544
:1017F00021F4688D798D8A8D9B8D2C8130E040E0BD
:1018000050E0ACD03B014C018A819B81A0E0B0E06C
:10181000C80ED91EEA1EFB1EF501C486D586E686D3
:10182000F786898181832D813E81358324838F8151
:1018300098857C0100E010E0E114F1040105110538
:1018400021F4EC88FD880E891F898A819B81A0E0A4
:10185000B0E0E81AF90A0A0B1B0BE618F7080809AA
:101860001909B4E036952795BA95E1F7C901A0E0CA
:10187000B0E0E81AF90A0A0B1B0BF501218130E0F0
:1018800040E050E0C801B70182D02E5F3F4F4F4F7C
:101890005F4FF5012087318742875387273FFFE05D
:1018A0003F07F0E04F07F0E05F0710F481E001C070
:1018B00082E0275F3F4F4040504008F083E0F50151
:1018C0008083833029F488A199A1AAA1BBA109C072
:1018D000F50184859585A685B785860D971DA81D7C
:1018E000B91D808B918BA28BB38BF501848195817F
:1018F000A4E096958795AA95E1F7A0E0B0E024854D
:10190000358546855785820F931FA41FB51F860D09
:10191000971DA81DB91D848B958BA68BB78B128242
:10192000B0926D00A0926C0080E003C081E001C025
:1019300087E0A4960FB6F894DEBF0FBECDBFCF915F
:10194000DF911F910F91FF90EF90DF90CF90BF90AC
:10195000AF909F908F907F906F900895FF27EE2714
:10196000BB27AA2760FF04C0A20FB31FE41FF51F07
:10197000220F331F441F551F9695879577956795BE
:1019800089F70097760771F7CF01BD010895A1E2AD
:101990001A2EAA1BBB1BFD010DC0AA1FBB1FEE1FE9
:1019A000FF1FA217B307E407F50720F0A21BB30B34
:1019B000E40BF50B661F771F881F991F1A9469F7B0
:1019C00060957095809590959B01AC01BD01CF010C
:1019D0000895FB01DC010D900020E9F711970190BB
:1019E0000D920020E1F70895FB01DC0101900D92BA
:1019F0000020E1F70895FB0151915523A9F0BF01A3
:101A0000DC014D9145174111E1F759F4CD010190E9
:101A1000002049F04D9140154111C9F3FB014111DE
:0E1A2000EFCF81E090E001970895F894FFCF9A
:0C1A2E0077617600002E574156002F0013
:00000001FF
