:100000000EC028C027C026C026C024C023C022C0DE
:1000100021C020C01FC01EC01DC01CC01BC0112499
:100020001FBECFE5D2E0DEBFCDBF10E0A0E6B0E05E
:10003000E6EFF0E002C005900D92A036B107D9F7C7
:1000400010E0A0E6B0E001C01D92A336B107E1F7D1
:1000500040D04FC0D5CF1F920F920FB60F921124F0
:100060008F939F9380916000882319F08130F1F481
:1000700010C080916100909162000196909362009F
:10008000809361008F3F910589F481E08093600047
:100090000DC0809161009091620001979093620081
:1000A00080936100892B11F41092600080916100AF
:1000B0008EBD9F918F910F900FBE0F901F9018953E
:1000C00084E680BF1EBC83E087BB84E089BF789450
:1000D000089584E680BF1EBC83E087BB84E089BFAF
:1000E000789485B7806285BF889585B78F7D85BFF9
:0600F000F8CFF894FFCFE9
:00000001FF
