:1000000012C02AC029C028C027C026C025C024C0CD
:1000100023C022C021C020C01FC01EC01DC01CC0E4
:100020001BC01AC05DC011241FBECFEDCDBF10E0B4
:10003000A0E6B0E0E2E8F7E002C005900D92A63637
:10004000B107D9F710E0A6E6B0E001C01D92A437D1
:10005000B107E1F790D193C3D3CF939A9298939835
:1000600040E050E030E061E097FF02C0949A01C0A8
:100070009498262F2A95F1F7440F551F85994160D2
:10008000939A262F2A95F1F793983F5F303119F014
:10009000880F991FE9CF81E08A95F1F7929ACA01FA
:1000A0000895892B19F081E09AE0D7DF8DE381BBB9
:1000B0009098949A939A929A959A08958DE181BB1B
:1000C000929A909A94989398959880E09AE0C5DFD8
:1000D000089580E895E1C1DF80E094E1BEDF0895F6
:1000E0001F920F920FB60F9211248F939F93F89443
:1000F00081B5806481BD8091660090916700019612
:10010000909367008093660078949F918F910F90F1
:100110000FBE0F901F901895E0E0F0E93197F1F7CE
:1001200089B988E08AB986E083B908955D9BFECFDE
:100130008CB980E090E90197F1F70895FF920F9351
:100140001F93FC016AE070E0C9D2062FF72E862FBC
:10015000972F6AE070E0C2D2462F172F862F972F75
:100160006AE070E0BBD29B015D9BFECFC9016AE0F3
:1001700070E0B4D2CB016AE070E0B0D2805D8CB99F
:1001800080E090E90197F1F75D9BFECFC9016AE03D
:1001900070E0A4D2805D8CB980E090E90197F1F71E
:1001A0005D9BFECF842F912F6AE070E097D2805D37
:1001B0008CB980E090E90197F1F75D9BFECF802F2D
:1001C0009F2D6AE070E08AD2805D8CB980E090E972
:1001D0000197F1F75D9BFECFCF016AE070E07ED220
:1001E000805D8CB980E090E90197F1F75D9BFECFCF
:1001F00080E28CB980E090E90197F1F71F910F91AF
:10020000FF900895CF92EF920F931F93DF93CF93B8
:10021000CDB7DEB760970FB6F894DEBF0FBECDBF87
:1002200087E6898340916800509169005B834A8327
:1002300020916C0030916D003D832C8380916A0089
:1002400090916B009F838E8318865A8749873C87DD
:100250002B879E878D871F8654D18BE796E064E0BD
:1002600041E024E00AE912E0EE2436E0C32E5FD13B
:10027000CE0101966FE00DD281E092E826D180E0B8
:1002800090E023D160960FB6F894DEBF0FBECDBFCD
:10029000CF91DF911F910F91EF90CF900895EF9242
:1002A000FF920F931F9380E092E8D7DE7C0146DF38
:1002B000F6E0F594E794FA95E1F780E093E8CDDE77
:1002C0008C01C7013BDF000F111F000F111F0E290A
:1002D0001F29109369000093680080E094E8BDDE58
:1002E0008C0180E095E8B9DE880F991F880F991F6F
:1002F00066E0169507956A95E1F7802B912B909310
:100300006D0080936C0080E096E8A7DE8C0180E0B1
:1003100097E8A3DE880F991F880F991F46E016956E
:1003200007954A95E1F7802B912B90936B00809372
:100330006A00209168003091690031FF05C03E6F6E
:10034000309369002093680020916C0030916D001B
:1003500031FF05C03E6F30936D0020936C0091FF1C
:1003600005C09E6F90936B0080936A001F910F9160
:10037000FF90EF900895AF92BF92CF92DF92EF92ED
:10038000FF920F931F93CF93DF9380E090E9019743
:10039000F1F78FE589B988E08AB986E083B980E012
:1003A00090E07FDE10926F0010926E0080E690E089
:1003B00082D1F894A89581B5806481BD789402E0DB
:1003C00010E0C0E7D1E085E0A82EB12CB4E0CB2E40
:1003D000D12CA3E0EA2EF12C80916E0090916F0059
:1003E000892B59F4809166009091670084369105BD
:1003F00020F010936F0000936E0080916E0090913A
:100400006F008230910531F459DEF0926F00E09276
:100410006E0028C08330910531F45BDED0926F000E
:10042000C0926E001FC00497E9F439DF88EE93E0B4
:10043000FE013197F1F70197D9F731DF88EE93E0AC
:10044000FE013197F1F70197D9F729DF81E090E0BC
:1004500028DEB0926F00A0926E00809168009091AB
:1004600069006CDE80916E0090916F00059759F4E1
:10047000C9DE81E090E090936F0080936E0010924F
:1004800067001092660080916E0090916F00019756
:1004900079F480916600909167008858934140F00C
:1004A00010936F0000936E00109267001092660028
:1004B000A89585B7806585BF85B7806285BF88951B
:1004C00085B78F7D85BFA89587CFC09820E030E0A5
:1004D00050E061E097FF02C0C29A01C0C298220FAB
:1004E000331FB3992160C19A462F4A95F1F7C198FD
:1004F0005F5F503119F0880F991FECCFC09AC90186
:10050000089580EE90ECE1DF87EE90E8DEDF8BEA85
:1005100092ECDBDF81E89AECD8DF80E090EED5DF6B
:1005200080E098ECD2DF87EF94ECCFDF0895BF92A4
:10053000CF92DF92EF92FF920F931F93F62EB42E7D
:10054000D22E8036910518F480E690E006C02FE0A8
:100550008034920710F08FE39FE0906AB6DF8F2D12
:1005600090E0A5E0880F991FAA95E1F790702D2DD6
:1005700030E027703070822B932B94692B2D30E064
:1005800023703070F3E0220F331FFA95E1F7822BCE
:10059000932B9BDF980140E050E060E678EA80E032
:1005A00090E0B0D0DA01C90101978068966C8DDFC8
:1005B0008E2D90E08770907098692C2D30E0E4E0EB
:1005C000220F331FEA95E1F73070822B932B7DDFEA
:1005D0001F910F91FF90EF90DF90CF90BF90089503
:1005E000C298C0980000000024E630E046E65EE0D5
:1005F00005C021503040CA010197F1F7B39903C0FB
:1006000021153105B1F7C09A08950F931F938C01FE
:10061000E7DFC8015ADF1F910F910895CF93DF9351
:1006200080E090E052DF88E392E8EFDF80E090E046
:10063000ECDFC0E0D0E08AEA98EBE7DF2196C53036
:10064000D105C9F78DE298EBE0DF84ED98EBDDDFB3
:1006500080E090E0DADFDF91CF9108950F931F9350
:10066000CF93DF93182F062F282F392FE90104C0CD
:10067000899190E0986BC9DF9E01211B2017C0F380
:10068000DF91CF911F910F91089588E092E8BDDF2F
:100690000895FF920F931F938C01F62EBFDF80E722
:1006A00090E064E0DBDFC8016F2DD8DFEEDF1F9143
:1006B0000F91FF900895FC0180819181A281B38107
:1006C0008093700090937100A0937200B0937300B8
:1006D00087E187BB81E088BBC49A0895AA1BBB1B36
:1006E00051E107C0AA1FBB1FA617B70710F0A61B32
:1006F000B70B881F991F5A95A9F780959095BC0153
:10070000CD01089597FB092E05260ED057FD04D084
:1007100014D00AD0001C38F450954095309521959E
:100720003F4F4F4F5F4F0895F6F790958095709526
:1007300061957F4F8F4F9F4F0895A1E21A2EAA1BFC
:10074000BB1BFD010DC0AA1FBB1FEE1FFF1FA21781
:10075000B307E407F50720F0A21BB30BE40BF50B7E
:10076000661F771F881F991F1A9469F76095709507
:10077000809590959B01AC01BD01CF010895F8943F
:02078000FFCFA9
:06078200303130310000AF
:00000001FF
