:1000000012C02AC029C028C027C026C025C024C0CD
:1000100023C022C021C020C01FC01EC01DC01CC0E4
:100020001BC01AC07EC011241FBECFEDCDBF10E093
:10003000A0E6B0E0E0E7F7E002C005900D92A6363A
:10004000B107D9F710E0A6E6B0E001C01D92AC36CA
:10005000B107E1F7E9D18AC3D3CF939A92989398E5
:1000600040E050E030E061E097FF02C0949A01C0A8
:100070009498262F2A95F1F7440F551F85994160D2
:10008000939A262F2A95F1F793983F5F303119F014
:10009000880F991FE9CF81E08A95F1F7929ACA01FA
:1000A000089581E09AE0D9DF8EE381BB9198949A1C
:1000B000939A929A959A08950F931F938EE181BB1C
:1000C000929A919A94989398959800E21EE4C801A8
:1000D0000197F1F780E09AE0C0DFC8010197F1F7DE
:1000E00080E895E1BADF1F910F910895CF93DF93D8
:1000F000E3DFC0E2DEE480E092E8AFDF80E093E897
:10010000ACDF80E094E8A9DF80E095E8A6DF80E03E
:1001100096E8A3DF80E097E8A0DFCE010197F1F732
:10012000EACF1F920F920FB60F9211248F939F93D5
:10013000F89481B5876481BD8091660090916700D5
:100140000196909367008093660078949F918F91B9
:100150000F900FBE0F901F9018952F923F924F92C5
:100160005F926F927F928F929F92AF92BF92CF9247
:10017000DF92EF92FF920F931F93DF93CF93CDB750
:10018000DEB7AE970FB6F894DEBF0FBECDBF1982B3
:100190001A821B821C821D821E821F82188619866B
:1001A0001A861B861C8688DF80ED97E00197F1F7A1
:1001B0001EA61DA680E092E850DFE82E80E093E8BE
:1001C0004CDF582E80E094E848DFA82E80E095E8C8
:1001D00044DF482E80E096E840DF682E80E097E814
:1001E0003CDF352C2224FF24E228F32816E0F59486
:1001F000E7941A95E1F70027F7FC0095102F298165
:100200003A814B815C812E0D3F1D401F511F298378
:100210003A834B835C83F42CEE24BB24AE28BF28A6
:10022000B6E0B594A794BA95E1F7CC24B7FCC09496
:10023000DC2C2D813E814F8158852A0D3B1D4C1DA4
:100240005D1D2D833E834F835887182F00E0772450
:10025000602A712AA6E075946794AA95E1F788242C
:1002600077FC8094982C89859A85AB85BC85860D12
:10027000971DA81DB91D89879A87AB87BC8780ED1C
:1002800097E00197F1F78DA59EA501969EA78DA7F2
:100290008038910509F08ECF04DF29813A814B81A6
:1002A0005C81211531054105510589F48D819E81BF
:1002B000AF81B8850097A105B10549F489859A8574
:1002C000AB85BC850097A105B10509F494C07901FF
:1002D0008A01F7E015950795F794E794FA95D1F719
:1002E000E982FA820B831C832D813E814F815885E0
:1002F000E7E05595479537952795EA95D1F72D83F2
:100300003E834F83588789859A85AB85BC8577E086
:10031000B595A795979587957A95D1F789879A8707
:10032000AB87BC87F1FE0DC0A12C6EEFB62EC12CA1
:10033000D12CEA28FB280C291D29E982FA820B839B
:100340001C8331FF05C03E6F2D833E834F8358874A
:1003500091FF05C09E6F89879A87AB87BC8789818B
:100360009A81AB81BC818497A109B109BC018983C1
:100370009A83AB83BC838D819E81AF81B885809643
:10038000A11DB11DAC018D839E83AF83B887898584
:100390009A85AB85BC850897A109B1099C0189871D
:1003A0009A87AB87BC8787E68D876E877F87488B68
:1003B000598B2A8B3B8B1C8A6D8B7E8B4F8B588F76
:1003C000298F3A8F1B8E77D08BE796E0A3D084E0FD
:1003D00061E044E086D08AE992E0ABD080E066E05C
:1003E000B7D0CE010D966FE01BD181E092E847D0E7
:1003F00080E090E044D0AE960FB6F894DEBF0FBE1A
:10040000CDBFCF91DF911F910F91FF90EF90DF90C3
:10041000CF90BF90AF909F908F907F906F905F90A4
:100420004F903F902F90089580E690E044D195DE64
:10043000F894A8958EE028E130E00FB6F894A895DE
:1004400021BD0FBE81BD81B5876481BD7894809147
:100450006600909167004E9728F07FDE109267004B
:1004600010926600A89585B7806585BF85B78062C4
:1004700085BF889585B78F7D85BFA895E8CFC09843
:1004800020E030E050E061E097FF02C0C29A01C076
:10049000C298220F331FB3992160C19A462F4A9503
:1004A000F1F7C1985F5F503119F0880F991FECCFB9
:1004B000C09AC901089580EE90ECE1DF87EE90E8E4
:1004C000DEDF8BEA92ECDBDF81E89AECD8DF80E0BC
:1004D00090EED5DF80E098ECD2DF87EF94ECCFDFB1
:1004E000089590E0F5E0880F991FFA95E1F7907074
:1004F00050E047705070842B952B946970E06370C6
:100500007070E3E0660F771FEA95E1F7862B972B73
:10051000B6DF08958036910518F480E690E006C0B5
:100520002FE08034920710F08FE39FE0906AA7DFFE
:1005300008959C0140E050E060E678EA80E090E0B9
:10054000D8D0DA01C90101978068966C98DF0895C8
:1005500090E087709070986970E0A4E0660F771F54
:10056000AA95E1F77070862B972B89DF0895C298C2
:10057000C0980000000024E630E040ED57E005C0E0
:1005800021503040CA010197F1F7B39903C02115FA
:100590003105B1F7C09A08950F931F938C01E7DFDF
:1005A000C8016DDF1F910F910895CF93DF9380E015
:1005B00090E065DF88E392E8EFDF80E090E0ECDF39
:1005C000C0E0D0E08AEA98EBE7DF2196C530D1059C
:1005D000C9F78DE298EBE0DF84ED98EBDDDF80E09A
:1005E00090E0DADFDF91CF9108950F931F93CF93BF
:1005F000DF93182F062F282F392FE90104C0899186
:1006000090E0986BC9DF9E01211B2017C0F3DF919A
:10061000CF911F910F91089588E092E8BDDF089572
:10062000FF920F931F938C01F62EBFDF88E690E0B8
:1006300064E0DBDFC8016F2DD8DFEEDF1F910F9183
:10064000FF900895DF92EF92FF920F931F938C011A
:100650007B01D42EAADFC80164E0C7DFC7016D2D7E
:10066000C4DFDADF1F910F91FF90EF90DF900895C4
:10067000FF920F931F93CF93DF938C01F62E88EC9C
:1006800092E8FDDE81E89AECFADE83E89AECF7DE88
:10069000E80104C080E090EB7FDF89939E01201B7E
:1006A0002F15C0F388E092E8EADEDF91CF911F9129
:1006B0000F91FF900895FC0180819181A281B38107
:1006C0008093680090936900A0936A00B0936B00D8
:1006D00087E187BB81E088BBC49A80E090E020E29C
:1006E0003EE4F9013197F1F7019684369105C9F797
:1006F000089597FB092E05260ED057FD04D014D07F
:100700000AD0001C38F450954095309521953F4F04
:100710004F4F5F4F0895F6F79095809570956195CE
:100720007F4F8F4F9F4F0895A1E21A2EAA1BBB1B2C
:10073000FD010DC0AA1FBB1FEE1FFF1FA217B307AD
:10074000E407F50720F0A21BB30BE40BF50B661FC3
:10075000771F881F991F1A9469F760957095809587
:1007600090959B01AC01BD01CF010895F894FFCF96
:06077000303130310000C1
:00000001FF
