:1000000012C02AC029C028C027C026C025C024C0CD
:1000100023C022C021C020C01FC01EC01DC01CC0E4
:100020001BC01AC076C011241FBECFEDCDBF10E09B
:10003000A0E6B0E0EAEBF5E002C005900D92A6362E
:10004000B107D9F710E0A6E6B0E001C01D92AC36CA
:10005000B107E1F724D1AFC2D3CF939A9298939886
:1000600040E050E030E061E097FF02C0949A01C0A8
:100070009498262F2A95F1F7440F551F85994160D2
:10008000939A262F2A95F1F793983F5F303119F014
:10009000880F991FE9CF81E08A95F1F7929ACA01FA
:1000A000089581E09AE0D9DF8EE381BB9198949A1C
:1000B000939A929A959A08958EE181BB929A919A19
:1000C00094989398959880E09AE0C7DF80E29EE448
:1000D0000197F1F780E895E1C0DF0895CF93DF93B2
:1000E000EBDFC0E2DEE480E092E8B7DF80E093E897
:1000F000B4DF80E094E8B1DF80E095E8AEDF80E037
:1001000096E8ABDF80E097E8A8DFCE010197F1F732
:10011000EACF1F920F920FB60F9211248F939F93E5
:10012000F89481B5876481BD8091660090916700E5
:100130000196909367008093660078949F918F91C9
:100140000F900FBE0F901F901895CF92DF92EF92F5
:10015000FF920F931F93DF93CF93CDB7DEB7A69790
:100160000FB6F894DEBF0FBECDBFA6DF80E092E8E9
:1001700074DFE82E80E093E870DF182F80E094E8C9
:100180006CDFD82E80E095E868DF082F80E096E8E5
:1001900064DFC82E80E097E860DFF82E82DF912FC1
:1001A00080E06E2D70E0682B792B26E075956795C1
:1001B0002A95E1F77A836983902F80E04D2D50E0F6
:1001C000482B592B96E0559547959A95E1F75C8316
:1001D0004B839F2D80E02C2D30E0282B392B86E09F
:1001E000359527958A95E1F73E832D8371FF03C0EE
:1001F0007E6F7A83698351FF03C05E6F5C834B839C
:1002000031FF03C03E6F3E832D8369817A81645242
:1002100070407A8369838B819C8180969C838B83D9
:100220002D813E81285030403E832D8347E64F8309
:1002300079876887AC018A875B87C9012C879D878E
:100240001E86788B6F87498B5A8B2B8B9C8B1D8AD4
:100250006DD08BE796E099D084E061E044E07CD0FB
:100260008AE992E0A1D080E066E0ADD0CE010796A9
:100270006FE011D181E092E83DD080E090E03AD08B
:10028000A6960FB6F894DEBF0FBECDBFCF91DF911B
:100290001F910F91FF90EF90DF90CF90089580E62F
:1002A00090E02ED152DFF894A8958EE028E130E05E
:1002B0000FB6F894A89521BD0FBE81BD81B58764A6
:1002C00081BD789480916600909167004E9728F0E8
:1002D0003CDF1092670010926600A89585B7806594
:1002E00085BF85B7806285BF889585B78F7D85BFBF
:1002F000A895E8CFC09820E030E050E061E097FF9B
:1003000002C0C29A01C0C298220F331FB399216064
:10031000C19A462F4A95F1F7C1985F5F503119F0A5
:10032000880F991FECCFC09AC901089580EE90EC18
:10033000E1DF87EE90E8DEDF8BEA92ECDBDF81E83D
:100340009AECD8DF80E090EED5DF80E098ECD2DF49
:1003500087EF94ECCFDF089590E0F5E0880F991FC8
:10036000FA95E1F7907050E047705070842B952B10
:10037000946970E063707070E3E0660F771FEA9530
:10038000E1F7862B972BB6DF08958036910518F498
:1003900080E690E006C02FE08034920710F08FE3F3
:1003A0009FE0906AA7DF08959C0140E050E060E67E
:1003B00078EA80E090E0C2D0DA01C9010197806854
:1003C000966C98DF089590E087709070986970E05F
:1003D000A4E0660F771FAA95E1F77070862B972B24
:1003E00089DF0895C298C0980000000024E630E03C
:1003F00040ED57E005C021503040CA010197F1F7A8
:10040000B39903C021153105B1F7C09A08950F9330
:100410001F938C01E7DFC8016DDF1F910F910895D5
:10042000CF93DF9380E090E065DF88E392E8EFDF31
:1004300080E090E0ECDFC0E0D0E08AEA98EBE7DF14
:100440002196C530D105C9F78DE298EBE0DF84ED48
:1004500098EBDDDF80E090E0DADFDF91CF91089567
:100460000F931F93CF93DF93182F062F282F392F29
:10047000E90104C0899190E0986BC9DF9E01211BBE
:100480002017C0F3DF91CF911F910F91089588E05D
:1004900092E8BDDF0895FF920F931F938C01F62E13
:1004A000BFDF88E690E064E0DBDFC8016F2DD8DFB6
:1004B000EEDF1F910F91FF900895FF920F931F930E
:1004C000CF93DF938C01F62E88EC92E813DF81E85E
:1004D0009AEC10DF83E89AEC0DDFE80104C080E0BD
:1004E00090EB95DF89939E01201B2F15C0F388E0C8
:1004F00092E800DFDF91CF911F910F91FF90089557
:10050000FC0180819181A281B381809368009093E6
:100510006900A0936A00B0936B0087E187BB81E01C
:1005200088BBC49A80E090E020E23EE4F901319774
:10053000F1F7019684369105C9F7089597FB092EC6
:1005400005260ED057FD04D014D00AD0001C38F474
:1005500050954095309521953F4F4F4F5F4F0895EF
:10056000F6F790958095709561957F4F8F4F9F4FCF
:100570000895A1E21A2EAA1BBB1BFD010DC0AA1FE4
:10058000BB1FEE1FFF1FA217B307E407F50720F0FC
:10059000A21BB30BE40BF50B661F771F881F991F77
:1005A0001A9469F760957095809590959B01AC01C0
:0A05B000BD01CF010895F894FFCFBC
:0605BA0030313031000079
:00000001FF
