:1000000012C02AC029C028C027C026C025C024C0CD
:1000100023C022C021C020C01FC01EC01DC01CC0E4
:100020001BC01AC019C011241FBECFEDCDBF10E0F8
:10003000A0E6B0E0EEE8F0E002C005900D92A03638
:10004000B107D9F710E0A0E6B0E001C01D92A036DC
:10005000B107E1F710D019C0D3CF089508950895DE
:10006000089581B3886281BB98E082B3892782BBFF
:10007000959A9598FACF81B3886281BB98E082B354
:0E008000892782BB959A9598FACFF894FFCF06
:00000001FF
