:1000000033C04DC04CC04BC0C2C549C0EAC547C093
:1000100046C045C044C043C042C041C040C03FC0CC
:100020003EC03DC03CC00D0A576F7264436C6F63A5
:100030006B2056312E302E302C2044657A2E3230F3
:100040003039204D617274696E205374657070751B
:10005000686E20287777772E656D73797374656382
:10006000682E6465290D0A0011241FBECFE5D4E077
:10007000DEBFCDBF10E0A0E6B0E0E2EEFDE002C0E2
:1000800005900D92A838B107D9F710E0A8E8B0E0C4
:1000900001C01D92AF3AB107E1F7EFD5A0C6B0CFCE
:1000A00080918B00823009F061C02091A900822FDD
:1000B0006AE089D6E82FEE0FEE0FF0E0A0E9B0E09D
:1000C000E05AFF4F808180939000109291008181CF
:1000D0008093920013961C921397828180939400D0
:1000E00015961C92159783818093960017961C9203
:1000F00017971092990010929800822F64D6E92FDA
:10010000EE0FEE0FF0E0E05AFF4F808180939A00EF
:100110001B961C921B97818180939C001D961C92BC
:100120001D97828180939E001F961C921F9783814A
:100130008093A00051961C921092A3001092A200EE
:1001400080918C0080FF0BC084E490E09093A50028
:100150008093A4001092A7001092A6000895109218
:10016000A5001092A40084E490E074C4813009F0EA
:1001700065C080918C0080FF0BC084E490E0909378
:1001800091008093900010929300109292000AC008
:10019000109291001092900084E490E0909393006C
:1001A00080939200109295001092940020918E00FE
:1001B000822F6AE008D6E82FEE0FEE0FF0E0A6E9F6
:1001C000B0E0E05AFF4F8081809396001092970034
:1001D00081818093980013961C921397828180935B
:1001E0009A0015961C921597838180939C00179610
:1001F0001C92179710929F0010929E00822FE3D5B9
:10020000E92FEE0FEE0FF0E0E05AFF4F8081809370
:10021000A0001B961C921B9781818093A2001D96C3
:100220001C921D9782818093A4001F961C921F9799
:1002300083818093A60051961C9208951092950098
:1002400010929400109297001092960010929F00C6
:1002500010929E001092A1001092A00021E030E0C8
:10026000309391002093900030939300209392005C
:10027000309399002093980030939B0020939A002C
:1002800030939D0020939C0080E091E09093A30028
:100290008093A2009093A5008093A4009093A70060
:1002A0008093A600A0918E00A530F0F0AA30F8F45B
:1002B00083E090E0909399008093980089E090E02B
:1002C00090939100809390008BE090E09093930046
:1002D000809392008AE090E0909395008093940040
:1002E00090939700809396002091A900F1C1AF30C0
:1002F00038F43093A1002093A00081E091E018C071
:10030000A43178F585E090E090939B0080939A006B
:1003100090939D0080939C0084E090E090939F00D8
:1003200080939E009093A1008093A00084E091E0D0
:100330009093A3008093A2009093A5008093A400C3
:100340009093A7008093A60089E090E0909391009D
:1003500080939000909393008093920088E090E0C7
:10036000BBCFA931A8F483E090E090939D008093E7
:100370009C0082E090E090939F0080939E008BE031
:1003800090E09093A1008093A00089E091E02BC0C1
:10039000AE31F8F423E030E03093930020939200E4
:1003A00082E090E090939500809394009093970062
:1003B00080939600309399002093980030939D008D
:1003C00020939C0090939F0080939E008AE090E091
:1003D00004C0A33288F488E090E09093A100809359
:1003E000A00088E091E09093A3008093A2009093F6
:1003F000A5008093A40050C0A83208F052C02091FC
:10040000920030919300409194005091950060913A
:100410009600709197008091980090919900826069
:100420009093990080939800809190009091910012
:10043000886090939100809390002A60309393009D
:10044000209392004A6050939500409394006A6014
:1004500070939700609396008091A0009091A10006
:1004600088609093A1008093A0008091A200909159
:10047000A30088609093A3008093A2008091A400C1
:100480009091A50088609093A5008093A40080912E
:10049000A6009091A70088609093A7008093A60083
:1004A00014C1AD3208F049C02091A0003091A100E4
:1004B0004091A2005091A3006091A4007091A5000A
:1004C000E091A600F091A70080919000909191009A
:1004D0008860909391008093900080919200909119
:1004E0009300886090939300809392008091940091
:1004F00090919500886090939500809394008091EE
:100500009600909197008860909397008093960052
:1005100029603093A1002093A00049605093A3006C
:100520004093A20069607093A5006093A400E96005
:10053000F093A700E093A600C8C0A23308F049C01A
:1005400020919A0030919B0040919C0050919D0019
:1005500080919E0090919F00846090939F00809373
:100560009E008091A0009091A10084609093A100D2
:100570008093A0008091A2009091A300846090934A
:10058000A3008093A2008091A4009091A5008460B4
:100590009093A5008093A4008091A6009091A7005D
:1005A00084609093A7008093A6008091980090911A
:1005B0009900886090939900809398002C60309304
:1005C0009B0020939A004C6050939D0040939C00A8
:1005D0007CC0A733B8F52091A0003091A100809194
:1005E000A2009091A30081609093A3008093A20049
:1005F0008091A4009091A50081609093A5008093C4
:10060000A4008091A6009091A70081609093A7001C
:100610008093A60080919C0090919D0082609093B1
:100620009D0080939C0080919E0090919F0082602D
:1006300090939F0080939E0023603093A1002093AD
:10064000A00043C0AC3310F020E042C08091920083
:100650009091930082609093930080939200809198
:1006600094009091950082609093950080939400FF
:10067000809196009091970082609093970080936C
:1006800096008091980090919900826090939900D3
:100690008093980080919C0090919D00826090933F
:1006A0009D0080939C0080919E0090919F008260AD
:1006B00090939F0080939E008091A0009091A10054
:1006C00082609093A1008093A0002091A9002F5FE9
:1006D0008A2F65E078D39230F9F0933020F491308E
:1006E00009F052C006C0933051F1943009F04CC06B
:1006F00039C0809190009091910092609093910008
:1007000080939000809192009091930092609093DA
:1007100093008093920038C080919600909197004A
:1007200092609093970080939600809198009091AA
:1007300099009260909399008093980025C08091D1
:100740009C0090919D00926090939D0080939C00EE
:1007500080919E0090919F00926090939F00809363
:100760009E0012C08091A2009091A300926090938D
:10077000A3008093A2008091A4009091A5009260B4
:100780009093A5008093A400222351F580919200BC
:100790009091930091609093930080939200809148
:1007A00094009091950091609093950080939400AF
:1007B000809196009091970091609093970080931C
:1007C0009600809198009091990091609093990083
:1007D0008093980080919A0090919B00916013C142
:1007E000213009F58091A0009091A1008061909343
:1007F000A1008093A0008091A2009091A30080614D
:100800009093A3008093A2008091A4009091A500F2
:1008100080619093A5008093A4008091A6009091A0
:10082000A700806117C1223029F580919C0090912A
:100830009D00806190939D0080939C0080919E001C
:1008400090919F00806190939F0080939E00809183
:10085000A0009091A10080619093A1008093A000DE
:100860008091A2009091A30080619093A300809357
:10087000A2000895233009F5809190009091910095
:100880008068909391008093900080919200909165
:1008900093008068909393008093920080919400DD
:1008A000909195008068909395008093940080913A
:1008B000960090919700806817C1243009F58091C7
:1008C000A0009091A10080649093A1008093A0006B
:1008D0008091A2009091A30080649093A3008093E4
:1008E000A2008091A4009091A50080649093A5003F
:1008F0008093A4008091A6009091A7008064AAC074
:10090000253009F58091900090919100806190933D
:10091000910080939000809192009091930080616B
:100920009093930080939200809194009091950011
:1009300080619093950080939400809196009091AF
:1009400097008061D1C0263051F580919E00909132
:100950009F00806290939F0080939E008091A000F2
:100960009091A10080629093A1008093A00080915B
:10097000A2009091A30080629093A3008093A200B4
:100980008091A4009091A50080629093A50080932F
:10099000A4008091A6009091A70080625BC02730E0
:1009A000B9F58091900090919100806290939100B0
:1009B0008093900080919200909193008062909338
:1009C00093008093920080919400909195008062B2
:1009D0009093950080939400809196009091970059
:1009E00080629093970080939600809198009091F8
:1009F00099008062909399008093980080919A006A
:100A000090919B00806290939B0080939A00089540
:100A1000283029F58091A0009091A10080689093E2
:100A2000A1008093A0008091A2009091A300806813
:100A30009093A3008093A2008091A4009091A500C0
:100A400080689093A5008093A4008091A600909167
:100A5000A70080689093A7008093A600089529308E
:100A600009F580919600909197008064909397008B
:100A70008093960080919800909199008064909363
:100A800099008093980080919A0090919B008064D7
:100A900090939B0080939A0080919C0090919D0080
:100AA000806440C02A3029F5809190009091910097
:100AB0008064909391008093900080919200909137
:100AC00093008064909393008093920080919400AF
:100AD000909195008064909395008093940080910C
:100AE0009600909197008064909397008093960071
:100AF00008952B30E1F480919800909199008068DE
:100B0000909399008093980080919A0090919B0017
:100B1000806890939B0080939A0080919C009091B4
:100B20009D00806890939D0080939C0008952C30D8
:100B300069F5809192009091930091609093930059
:100B40008093920080919400909195009160909391
:100B50009500809394008091960090919700916009
:100B600090939700809396008091980090919900BF
:100B70009160909399008093980080919A00909151
:100B80009B00916090939B0080939A0008951F9220
:100B90000F920FB60F9211248F9380918C008F5F6C
:100BA00080938C008C33A0F010928C0080918E008A
:100BB0008F5F80938E008C3358F010928E0080915E
:100BC000A9008F5F8093A9008C3010F01092A900CB
:100BD00081E0809388008F910F900FBE0F901F903F
:100BE00018951F920F920FB60F9211242F933F93D7
:100BF0008F939F93EF93FF9380918D008F5F8093EE
:100C00008D008C3038F081E08093890010928D0047
:100C1000C49801C0C49AC39AC39885B3807F85BB2A
:100C200082B38F7082BB88B38C7F88BBC29AC29814
:100C3000E0918D00F0E0EE0FFF1FE057FF4F908135
:100C400021819093AA002093AB0035B3892F8F7038
:100C5000832B85BB82B3907F982B92BB88B3237084
:100C6000282B28BBFF91EF919F918F913F912F915E
:100C70000F900FBE0F901F9018951F938FE084BBAD
:100C800080EF81BB8FE187BB929A80B7847080BF71
:100C900082B5886082BD85E085BD1FBC89E08EBDC0
:100CA0008BE09AE19BBD8ABD80E589BF60D086E27A
:100CB00090E07BD01092A90010928E0010928C00D0
:100CC00010928B00789411E0809188008823E9F0DD
:100CD0001092880082990FC08091AE008F5F809340
:100CE000AE00843088F080918B008F5F80938B0002
:100CF000833050F007C080918A008F5F80938A0014
:100D0000863010F010928B00CBD980918900882317
:100D1000D9F210928900829B1FC080918F00882396
:100D2000D9F010928F0080918B00813051F4809126
:100D30008E008B3310F080E001C08F5F80938E00B7
:100D40000BC0823049F48091A9008B3010F080E014
:100D500001C08F5F8093A900829905C010938F0016
:100D600010928A0002C01092AE009AD9ADCF80B521
:100D7000866880BD8AB188618AB980B5866880BD81
:100D800010BC8CE089B908958BB1807808955D9B83
:100D9000FECF8CB90895FC0104C05D9BFECF8CB9D9
:100DA000319680818823C9F7089503C05D9BFECFEB
:100DB0002CB9FC01019624912223C1F708955F9B71
:100DC000FECF8CB10895991B79E004C0991F961746
:100DD00008F0961B881F7A95C9F780950895F894B6
:020DE000FFCF43
:100DE200FE8282FE0804FE00C4A2928C8292927C51
:100DF2001E10F8109E9292627894926002F20A0695
:080E0200FE9292FE9E9292FE08
:00000001FF
