:1000000033C04DC04CC04BC0C5C549C0EDC547C08D
:1000100046C045C044C043C042C041C040C03FC0CC
:100020003EC03DC03CC00D0A576F7264436C6F63A5
:100030006B2056312E302E302C2044657A2E3230F3
:100040003039204D617274696E205374657070751B
:10005000686E20287777772E656D73797374656382
:10006000682E6465290D0A0011241FBECFE5D4E077
:10007000DEBFCDBF10E0A0E6B0E0ECE1FEE002C0E4
:1000800005900D92A838B107D9F710E0A8E8B0E0C4
:1000900001C01D92AF3AB107E1F7F2D5BDC6B0CFAE
:1000A0009091AD00892F8150823008F061C020917D
:1000B000A800822F6AE0A4D6E82FEE0FEE0FF0E042
:1000C000AFE8B0E0E05AFF4F808180938F0010923C
:1000D000900081818093910013961C9213978281E6
:1000E0008093930015961C921597838180939500B9
:1000F00017961C9217971092980010929700822FD3
:100100007FD6E92FEE0FEE0FF0E0E05AFF4F80812F
:10011000809399001B961C921B97818180939B0072
:100120001D961C921D97828180939D001F961C92A4
:100130001F97838180939F0051961C921092A2007A
:100140001092A10080918B0080FF0BC084E490E0AE
:100150009093A4008093A3001092A6001092A50093
:1001600008951092A4001092A30084E490E075C456
:100170009350923008F065C080918B0080FF0BC0D7
:1001800084E490E09093900080938F00109292000E
:10019000109291000AC01092900010928F0084E497
:1001A00090E09093920080939100109294001092AE
:1001B000930020918D00822F6AE022D6E82FEE0F67
:1001C000EE0FF0E0A5E9B0E0E05AFF4F80818093A8
:1001D00095001092960081818093970013961C924F
:1001E000139782818093990015961C9215978381AD
:1001F00080939B0017961C92179710929E00109266
:100200009D00822FFDD5E92FEE0FEE0FF0E0E05AB2
:10021000FF4F808180939F001B961C921B978181CA
:100220008093A1001D961C921D9782818093A3004C
:100230001F961C921F9783818093A50051961C9254
:1002400008951092940010929300109296001092CC
:10025000950010929E0010929D001092A0001092A6
:100260009F0021E030E03093900020938F00309386
:100270009200209391003093980020939700309340
:100280009A002093990030939C0020939B0080E07B
:1002900091E09093A2008093A1009093A40080939A
:1002A000A3009093A6008093A500A0918D00A53097
:1002B000F0F0AA30F8F483E090E0909398008093F7
:1002C000970089E090E09093900080938F008BE0FE
:1002D00090E090939200809391008AE090E0909358
:1002E00094008093930090939600809395002091C2
:1002F000A800F1C1AF3038F43093A00020939F00E4
:1003000081E091E018C0A43178F585E090E0909309
:100310009A008093990090939C0080939B0084E0C6
:1003200090E090939E0080939D009093A000809316
:100330009F0084E091E09093A2008093A1009093AD
:10034000A4008093A3009093A6008093A50089E069
:1003500090E09093900080938F0090939200809310
:10036000910088E090E0BBCFA931A8F483E090E051
:1003700090939C0080939B0082E090E090939E007D
:1003800080939D008BE090E09093A00080939F006D
:1003900089E091E02BC0AE31F8F423E030E03093F7
:1003A00092002093910082E090E0909394008093DB
:1003B000930090939600809395003093980020933B
:1003C000970030939C0020939B0090939E00809315
:1003D0009D008AE090E004C0A33288F488E090E0B9
:1003E0009093A00080939F0088E091E09093A200FA
:1003F0008093A1009093A4008093A30050C0A832E2
:1004000008F052C0209191003091920040919300E9
:1004100050919400609195007091960080919700A2
:1004200090919800826090939800809397008091BB
:100430008F009091900088609093900080938F003F
:100440002A6030939200209391004A605093940068
:10045000409393006A60709396006093950080913A
:100460009F009091A00088609093A00080939F00CF
:100470008091A1009091A20088609093A200809347
:10048000A1008091A3009091A40088609093A400A3
:100490008093A3008091A5009091A600886090931E
:1004A000A6008093A50014C1AD3208F049C0209188
:1004B0009F003091A0004091A1005091A200609156
:1004C000A3007091A400E091A500F091A600809196
:1004D0008F009091900088609093900080938F009F
:1004E0008091910090919200886090939200809307
:1004F0009100809193009091940088609093940073
:1005000080939300809195009091960088609093DD
:1005100096008093950029603093A00020939F005F
:1005200049605093A2004093A10069607093A400B9
:100530006093A300E960F093A600E093A500C8C013
:10054000A23308F049C02091990030919A0040915F
:100550009B0050919C0080919D0090919E00846032
:1005600090939E0080939D0080919F009091A000A9
:1005700084609093A00080939F008091A10090914F
:10058000A20084609093A2008093A1008091A300B8
:100590009091A40084609093A4008093A300809124
:1005A000A5009091A60084609093A6008093A5007A
:1005B0008091970090919800886090939800809324
:1005C00097002C6030939A00209399004C605093D0
:1005D0009C0040939B007CC0A733B8F520919F00FE
:1005E0003091A0008091A1009091A2008160909331
:1005F000A2008093A1008091A3009091A40081604B
:100600009093A4008093A3008091A5009091A600F0
:1006100081609093A6008093A50080919B009091AB
:100620009C00826090939C0080939B0080919D0031
:1006300090919E00826090939E0080939D00236025
:100640003093A00020939F0043C0AC3310F020E013
:1006500042C08091910090919200826090939200AC
:100660008093910080919300909194008260909388
:100670009400809393008091950090919600826001
:1006800090939600809395008091970090919800A8
:100690008260909398008093970080919B00909146
:1006A0009C00826090939C0080939B0080919D00B1
:1006B00090919E00826090939E0080939D00809117
:1006C0009F009091A00082609093A00080939F0073
:1006D0002091A8002F5F8A2F65E092D39230F9F025
:1006E000933020F4913009F052C006C0933051F19C
:1006F000943009F04CC039C080918F0090919000E7
:1007000092609093900080938F00809191009091DF
:1007100092009260909392008093910038C08091F3
:10072000950090919600926090939600809395002A
:100730008091970090919800926090939800809398
:10074000970025C080919B0090919C0092609093AF
:100750009C0080939B0080919D0090919E009260F0
:1007600090939E0080939D0012C08091A100909173
:10077000A20092609093A2008093A1008091A300B8
:100780009091A40092609093A4008093A3002223F0
:1007900051F5809191009091920091609093920018
:1007A0008093910080919300909194009160909338
:1007B00094008093930080919500909196009160B1
:1007C0009093960080939500809197009091980067
:1007D00091609093980080939700809199009091F8
:1007E0009A00916013C1213009F580919F0090918A
:1007F000A00080619093A00080939F008091A10051
:100800009091A20080619093A2008093A1008091BA
:10081000A3009091A40080619093A4008093A30012
:100820008091A5009091A600806117C1223029F522
:1008300080919B0090919C00806190939C0080939C
:100840009B0080919D0090919E00806190939E00FE
:1008500080939D0080919F009091A0008061909373
:10086000A00080939F008091A1009091A2008061E0
:100870009093A2008093A1000895233009F5809100
:100880008F009091900080689093900080938F00EB
:100890008091910090919200806890939200809353
:1008A00091008091930090919400806890939400BF
:1008B000809393008091950090919600806817C175
:1008C000243009F580919F009091A000806490935E
:1008D000A00080939F008091A1009091A20080646D
:1008E0009093A2008093A1008091A3009091A40016
:1008F00080649093A4008093A3008091A5009091C0
:10090000A6008064AAC0253009F580918F009091DF
:10091000900080619093900080938F00809191006F
:1009200090919200806190939200809391008091C9
:100930009300909194008061909394008093930031
:1009400080919500909196008061D1C0263051F53C
:1009500080919D0090919E00806290939E00809374
:100960009D0080919F009091A00080629093A000D4
:1009700080939F008091A1009091A200806290934B
:10098000A2008093A1008091A3009091A4008062B6
:100990009093A4008093A3008091A5009091A6005D
:1009A00080625BC02730B9F580918F0090919000F4
:1009B00080629093900080938F008091910090913D
:1009C00092008062909392008093910080919300B6
:1009D0009091940080629093940080939300809112
:1009E0009500909196008062909396008093950078
:1009F00080919700909198008062909398008093E6
:100A000097008091990090919A00806290939A004B
:100A1000809399000895283029F580919F00909146
:100A2000A00080689093A00080939F008091A10017
:100A30009091A20080689093A2008093A100809181
:100A4000A3009091A40080689093A4008093A300D9
:100A50008091A5009091A60080689093A600809355
:100A6000A5000895293009F5809195009091960090
:100A70008064909396008093950080919700909168
:100A800098008064909398008093970080919900DB
:100A900090919A00806490939A008093990080913D
:100AA0009B0090919C00806440C02A3029F5809181
:100AB0008F009091900080649093900080938F00BD
:100AC0008091910090919200806490939200809325
:100AD0009100809193009091940080649093940091
:100AE00080939300809195009091960080649093FC
:100AF00096008093950008952B30E1F48091970043
:100B000090919800806890939800809397008091CE
:100B1000990090919A00806890939A008093990030
:100B200080919B0090919C00806890939C008093A2
:100B30009B0008952C3069F580919100909192006E
:100B40009160909392008093910080919300909196
:100B5000940091609093940080939300809195000D
:100B6000909196009160909396008093950080916B
:100B700097009091980091609093980080939700CF
:100B80008091990090919A00916090939A0080933F
:100B9000990008951F920F920FB60F9211248F9310
:100BA00080918B008F5F80938B008C33A0F010922C
:100BB0008B0080918D008F5F80938D008C3358F077
:100BC00010928D008091A8008F5F8093A8008C30D8
:100BD00010F01092A80081E0809388008F910F9010
:100BE0000FBE0F901F9018951F920F920FB60F9285
:100BF00011242F933F938F939F93EF93FF938091B3
:100C00008C008F5F80938C008C3038F081E0809373
:100C1000890010928C00C49801C0C49AC39AC398EA
:100C200085B3807F85BB82B38F7082BB88B38C7F96
:100C300088BBC29AC298E0918C00F0E0EE0FFF1FD3
:100C4000E157FF4F908121819093A9002093AA0042
:100C500035B3892F8F70832B85BB82B3907F982B00
:100C600092BB88B32370282B28BBFF91EF919F91F3
:100C70008F913F912F910F900FBE0F901F9018955D
:100C8000EF92FF920F931F938FE084BB80EF81BBA5
:100C90008FE187BB929A80B7847080BF82B58860ED
:100CA00082BD85E085BD1FBC89E08EBD8BE09AE1E9
:100CB0009BBD8ABD80E589BF77D086E290E092D067
:100CC0001092A80010928D0010928B00789423E06F
:100CD000E22E11E094E0F92E02E080918800882352
:100CE00019F110928800829915C08091AE008F5F33
:100CF0008093AE008430B8F08091AD00823039F03E
:100D0000843079F0882379F41093AD000CC0E09220
:100D1000AD0009C080918A008F5F80938A00863081
:100D200010F01092AD00BCD9809189008823A9F2FF
:100D300010928900829B2DC080918E00882349F1FA
:100D400010928E008091AD00823081F0833018F4D3
:100D50008130F9F405C0833031F08430D1F410C013
:100D60000093AD0016C0F092AD0013C08091A800B2
:100D70008B3010F080E001C08F5F8093A80009C025
:100D800080918D008B3310F080E001C08F5F8093E5
:100D90008D00829905C010938E0010928A0002C0C7
:100DA0001092AE007DD999CF80B5866880BD8AB19A
:100DB00088618AB980B5866880BD10BC8CE089B92D
:100DC00008958BB1807808955D9BFECF8CB908950E
:100DD000FC0104C05D9BFECF8CB9319680818823D5
:100DE000C9F7089503C05D9BFECF2CB9FC010196A5
:100DF00024912223C1F708955F9BFECF8CB1089503
:100E0000991B79E004C0991F961708F0961B881F5C
:0C0E10007A95C9F780950895F894FFCFFB
:100E1C00FE8282FE0804FE00C4A2928C8292927C16
:100E2C001E10F8109E9292627894926002F20A065A
:080E3C00FE9292FE9E9292FECE
:00000001FF
