:1000000033C04DC04CC04BC0C0C549C005C647C079
:1000100046C045C044C043C042C041C040C03FC0CC
:100020003EC03DC03CC00D0A576F7264436C6F63A5
:100030006B2056312E302E302C2044657A2E3230F3
:100040003039204D617274696E205374657070751B
:10005000686E20287777772E656D73797374656382
:10006000682E6465290D0A0011241FBECFE5D4E077
:10007000DEBFCDBF10E0A0E6B0E0ECE4FEE002C0E1
:1000800005900D92A838B107D9F710E0A8E8B0E0C4
:1000900001C01D92A13BB107E1F70AD6D5C6B0CF8A
:1000A0009091AF00892F8150823008F061C020917B
:1000B000AA00822F6AE0BCD6E82FEE0FEE0FF0E028
:1000C000A1E9B0E0E05AFF4F808180939100109247
:1000D000920081818093930013961C9213978281E2
:1000E0008093950015961C921597838180939700B5
:1000F00017961C92179710929A0010929900822FCF
:1001000097D6E92FEE0FEE0FF0E0E05AFF4F808117
:1001100080939B001B961C921B97818180939D006E
:100120001D961C921D97828180939F001F961C92A2
:100130001F9783818093A10051961C921092A40076
:100140001092A30080918D0080FF0BC084E490E0AA
:100150009093A6008093A5001092A8001092A7008B
:1001600008951092A6001092A50084E490E070C457
:100170009350923008F065C080918D0080FF0BC0D5
:1001800084E490E090939200809391001092940008
:10019000109293000AC0109292001092910084E491
:1001A00090E09093940080939300109296001092A8
:1001B000950020918F00822F6AE03AD6E82FEE0F4B
:1001C000EE0FF0E0A7E9B0E0E05AFF4F80818093A6
:1001D00097001092980081818093990013961C9249
:1001E0001397828180939B0015961C9215978381AB
:1001F00080939D0017961C9217971092A000109262
:100200009F00822F15D6E92FEE0FEE0FF0E0E05A97
:10021000FF4F80818093A1001B961C921B978181C8
:100220008093A3001D961C921D9782818093A50048
:100230001F961C921F9783818093A70051961C9252
:1002400008951092960010929500109298001092C6
:1002500097001092A00010929F001092A20010929E
:10026000A10021E030E03093920020939100309380
:1002700094002093930030939A0020939900309338
:100280009C0020939B0030939E0020939D0080E073
:1002900091E09093A4008093A3009093A600809394
:1002A000A5009093A8008093A700A0918F00A5308F
:1002B000F0F0AA30F8F483E090E090939A008093F5
:1002C000990089E090E090939200809391008BE0F8
:1002D00090E090939400809393008AE090E0909354
:1002E00096008093950090939800809397002091BA
:1002F000AA00F1C1AF3038F43093A2002093A100DE
:1003000081E091E018C0A43178F585E090E0909309
:100310009C0080939B0090939E0080939D0084E0BE
:1003200090E09093A00080939F009093A200809310
:10033000A10084E091E09093A4008093A3009093A7
:10034000A6008093A5009093A8008093A70089E061
:1003500090E090939200809391009093940080930A
:10036000930088E090E0BBCFA931A8F483E090E04F
:1003700090939E0080939D0082E090E09093A00077
:1003800080939F008BE090E09093A2008093A10067
:1003900089E091E02BC0AE31F8F423E030E03093F7
:1003A00094002093930082E090E0909396008093D5
:1003B0009500909398008093970030939A00209333
:1003C000990030939E0020939D009093A00080930D
:1003D0009F008AE090E004C0A33288F488E090E0B7
:1003E0009093A2008093A10088E091E09093A400F4
:1003F0008093A3009093A6008093A50050C0A832DC
:1004000008F052C0209193003091940040919500E3
:10041000509196006091970070919800809199009A
:1004200090919A00826090939A00809399008091B5
:100430009100909192008860909392008093910037
:100440002A6030939400209393004A605093960062
:10045000409395006A607093980060939700809134
:10046000A1009091A20088609093A2008093A100C7
:100470008091A3009091A40088609093A400809341
:10048000A3008091A5009091A60088609093A6009B
:100490008093A5008091A7009091A8008860909318
:1004A000A8008093A70014C1AD3208F049C0209184
:1004B000A1003091A2004091A3005091A40060914E
:1004C000A5007091A600E091A700F091A80080918E
:1004D0009100909192008860909392008093910097
:1004E0008091930090919400886090939400809301
:1004F000930080919500909196008860909396006B
:1005000080939500809197009091980088609093D7
:1005100098008093970029603093A2002093A10057
:1005200049605093A4004093A30069607093A600B3
:100530006093A500E960F093A800E093A700C8C00D
:10054000A23308F049C020919B0030919C0040915B
:100550009D0050919E0080919F009091A00084602A
:100560009093A00080939F008091A1009091A200A1
:1005700084609093A2008093A1008091A300909149
:10058000A40084609093A4008093A3008091A500B0
:100590009091A60084609093A6008093A50080911E
:1005A000A7009091A80084609093A8008093A70072
:1005B0008091990090919A00886090939A0080931E
:1005C00099002C6030939C0020939B004C605093CA
:1005D0009E0040939D007CC0A733B8F52091A100F8
:1005E0003091A2008091A3009091A400816090932B
:1005F000A4008093A3008091A5009091A600816043
:100600009093A6008093A5008091A7009091A800E8
:1006100081609093A8008093A70080919D009091A5
:100620009E00826090939E0080939D0080919F0029
:100630009091A00082609093A00080939F0023601F
:100640003093A2002093A10043C0AC3310F020E00F
:1006500042C08091930090919400826090939400A6
:100660008093930080919500909196008260909382
:1006700096008093950080919700909198008260F9
:1006800090939800809397008091990090919A00A0
:10069000826090939A008093990080919D00909140
:1006A0009E00826090939E0080939D0080919F00A9
:1006B0009091A00082609093A00080939F00809111
:1006C000A1009091A20082609093A2008093A1006B
:1006D0002091AA002F5F8A2F65E0AAD39230F9F00B
:1006E000933020F4913009F052C006C0933051F19C
:1006F000943009F04CC039C08091910090919200E3
:1007000092609093920080939100809193009091D9
:1007100094009260909394008093930038C08091ED
:100720009700909198009260909398008093970022
:100730008091990090919A00926090939A00809392
:10074000990025C080919D0090919E0092609093A9
:100750009E0080939D0080919F009091A0009260E8
:100760009093A00080939F0012C08091A30090916D
:10077000A40092609093A4008093A3008091A500B0
:100780009091A60092609093A6008093A5002223EA
:1007900051F5809193009091940091609093940012
:1007A0008093930080919500909196009160909332
:1007B00096008093950080919700909198009160A9
:1007C00090939800809397008091990090919A005F
:1007D000916090939A008093990080919B009091F2
:1007E0009C0091600EC12130E1F48091A1009091B4
:1007F000A20080619093A2008093A1008091A30049
:100800009091A40080619093A4008093A3008091B4
:10081000A5009091A60080619093A6008093A5000A
:100820000895223029F580919D0090919E0080616D
:1008300090939E0080939D0080919F009091A000D6
:1008400080619093A00080939F008091A10090917F
:10085000A20080619093A2008093A1008091A300E8
:100860009091A40080619093A4008093A3000895C8
:10087000233009F5809191009091920080689093C7
:1008800092008093910080919300909194008068F1
:10089000909394008093930080919500909196009E
:1008A0008068909396008093950080919700909136
:1008B0009800806817C1243009F58091A1009091BB
:1008C000A20080649093A2008093A1008091A30075
:1008D0009091A40080649093A4008093A3008091E1
:1008E000A5009091A60080649093A6008093A50037
:1008F0008091A7009091A8008064AAC0253009F5D6
:1009000080919100909192008061909392008093E9
:100910009100809193009091940080619093940055
:1009200080939300809195009091960080619093C0
:100930009600809395008091970090919800806137
:10094000D1C0263051F580919F009091A000806227
:100950009093A00080939F008091A1009091A200AD
:1009600080629093A2008093A1008091A300909157
:10097000A40080629093A4008093A3008091A500BE
:100980009091A60080629093A6008093A50080912C
:10099000A7009091A80080625BC02730B9F58091D4
:1009A00091009091920080629093920080939100C8
:1009B0008091930090919400806290939400809332
:1009C000930080919500909196008062909396009C
:1009D0008093950080919700909198008062909309
:1009E0009800809397008091990090919A0080627E
:1009F00090939A008093990080919B0090919C0025
:100A0000806290939C0080939B000895283029F584
:100A10008091A1009091A20080689093A2008093A1
:100A2000A1008091A3009091A40080689093A400FD
:100A30008093A3008091A5009091A6008068909378
:100A4000A6008093A5008091A7009091A8008068DF
:100A50009093A8008093A7000895293009F580910C
:100A600097009091980080649093980080939700ED
:100A70008091990090919A00806490939A0080935D
:100A8000990080919B0090919C00806490939C00C1
:100A900080939B0080919D0090919E00806440C057
:100AA0002A3029F580919100909192008064909372
:100AB00092008093910080919300909194008064C3
:100AC000909394008093930080919500909196006C
:100AD0008064909396008093950080919700909108
:100AE00098008064909398008093970008952B302D
:100AF000E1F48091990090919A00806890939A0017
:100B00008093990080919B0090919C0080689093C5
:100B10009C0080939B0080919D0090919E00806836
:100B200090939E0080939D0008952C3069F58091EC
:100B3000930090919400916090939400809393001F
:100B4000809195009091960091609093960080938B
:100B500095008091970090919800916090939800F3
:100B6000809397008091990090919A009160909362
:100B70009A008093990080919B0090919C009160D5
:100B800090939C0080939B0008951F920F920FB644
:100B90000F9211242F938F939F93809188009091AF
:100BA0008900019690938900809388008091880045
:100BB00090918900815197424CF0109289001092D7
:100BC000880080918D008F5F80938D0080918D00D3
:100BD0008F5F80938D008C33A0F010928D008091F8
:100BE0008F008F5F80938F008C3358F010928F00AE
:100BF0008091AA008F5F8093AA008C3010F0109231
:100C0000AA0081E080938A009F918F912F910F908D
:100C10000FBE0F901F9018951F920F920FB60F9254
:100C200011242F933F938F939F93EF93FF93809182
:100C30008E008F5F80938E008C3038F081E080933F
:100C40008B0010928E00C49801C0C49AC39AC398B6
:100C500085B3807F85BB82B38F7082BB88B38C7F66
:100C600088BBC29AC298E0918E00F0E0EE0FFF1FA1
:100C7000EF56FF4F908121819093AB002093AC0001
:100C800035B3892F8F70832B85BB82B3907F982BD0
:100C900092BB88B32370282B28BBFF91EF919F91C3
:100CA0008F913F912F910F900FBE0F901F9018952D
:100CB000EF92FF920F931F938FE084BB80EF81BB75
:100CC0008FE187BB929A80B7847080BF82B58860BD
:100CD00082BD85E085BD1FBC89E08EBD8BE09AE1B9
:100CE0009BBD8ABD80E589BF77D086E290E092D037
:100CF0001092AA0010928F0010928D00789423E039
:100D0000E22E11E094E0F92E02E080918A0088231F
:100D100019F110928A00829915C08091B0008F5FFE
:100D20008093B0008430B8F08091AF00823039F009
:100D3000843079F0882379F41093AF000CC0E092EE
:100D4000AF0009C080918C008F5F80938C0086304B
:100D500010F01092AF00A4D980918B008823A9F2E3
:100D600010928B00829B2DC080919000882349F1C6
:100D7000109290008091AF00823081F0833018F49F
:100D80008130F9F405C0833031F08430D1F410C0E3
:100D90000093AF0016C0F092AF0013C08091AA007C
:100DA0008B3010F080E001C08F5F8093AA0009C0F3
:100DB00080918F008B3310F080E001C08F5F8093B3
:100DC0008F00829905C01093900010928C0002C091
:100DD0001092B00065D999CF80B5866880BD8AB180
:100DE00088618AB980B5866880BD10BC8CE089B9FD
:100DF00008958BB1807808955D9BFECF8CB90895DE
:100E0000FC0104C05D9BFECF8CB9319680818823A4
:100E1000C9F7089503C05D9BFECF2CB9FC01019674
:100E200024912223C1F708955F9BFECF8CB10895D2
:100E3000991B79E004C0991F961708F0961B881F2C
:0C0E40007A95C9F780950895F894FFCFCB
:100E4C00FE8282FE0804FE00C4A2928C8292927CE6
:100E5C001E10F8109E9292627894926002F20A062A
:080E6C00FE9292FE9E9292FE9E
:00000001FF
