:100000003BC07CC254C053C052C051C050C04FC04E
:100010004EC077C44CC004C14AC049C048C047C0A4
:1000200046C045C044C0040309041C0377007700A0
:1000300077002E00660069007300630068006C00A2
:100040002E00640065000E0355005300420061005D
:100050007300700012011001FF000008C016DC05DB
:1000600000010102000109021200010100803C09A7
:10007000040000000000000011241FBECFE5D4E002
:10008000DEBFCDBF10E0A0E6B0E0E2E3F2E102C0E7
:1000900005900D92A837B107D9F711E0A8E7B0E0B5
:1000A00001C01D92A533B107E1F780D0C0C8A8CF29
:1000B000982F8AE080936A0022E020936900809163
:1000C0007800882321F4923661F581E018C08130F0
:1000D00029F49F3631F52093780025C0823021F431
:1000E0009F36F9F483E00BC0833021F49437C9F4D0
:1000F00084E005C0843031F49D3099F485E080932C
:10010000780011C0853069F49D3059F4F89428E0E6
:1001100088E190E00FB6F894A89581BD0FBE21BD8F
:10012000FFCF109278005D9BFECF9CB9089510928E
:10013000650010926100813021F48FEF809365009B
:100140000895833019F482E380936100089588E56F
:1001500090E090939400809393001092690008952A
:100160008FEF809369003091710020E080917000E2
:10017000280F311D40E050E084E0220F331F441F60
:10018000551F8A95D1F760E07BE187EB90E018D8A6
:10019000215030401AB830BD29B988E98AB908958C
:1001A0007BD0089579D0EFD2D8D30895AA9A909AA7
:1001B00080E090E027D880936F008150873018F05E
:1001C00085E080936F008FEF809361006FD48AEF9A
:1001D000BED38AEFBCD38AEFBAD388E590E0909380
:1001E000940080939300C3D787E990E090939200A6
:1001F0008093910084E391E090939800809397001E
:100200001092610087EA90E090939A0080939900A1
:1002100080EB90E09093960080939500C3DFFECF33
:100220001F920F920FB60F9211242F933F934F936B
:100230005F936F937F938F939F93AF93BF93EF934E
:10024000FF938CB190D7FF91EF91BF91AF919F91A8
:100250008F917F916F915F914F913F912F910F906F
:100260000FBE0F901F901895813059F480E090E0F8
:1002700060916F00CFD78EE180936100109265008E
:10028000089580917A0053DF089585B7836085BF14
:100290008BB780648BBF08951F93CF93DF936091DA
:1002A000AD00635067FDA7C08091AA00CCE0D0E00C
:1002B000C81BD109CF54DF4F8091A9008D3209F0BE
:1002C00084C0683009F091C083EC80939D008AE57A
:1002D00080936D00109279008881807639F0CE018C
:1002E00027D6282F8F3F09F45FC065C09A811092EE
:1002F000A6008981882321F41092A70022E04DC036
:10030000853019F49093AE0047C08630B1F58B81EB
:10031000813019F484E590E004C0823041F486E62F
:1003200090E09093AC008093AB0022E122C0833038
:10033000F9F48A81882341F486E290E09093AC003E
:100340008093AB0024E015C0813041F48AE290E054
:100350009093AC008093AB002CE10BC0823041F451
:1003600086E490E09093AC008093AB002EE001C057
:1003700020E080E4809379001EC0883021F421E0E1
:1003800080EB90E00CC0893019F49093B00004C069
:100390008A3011F421E001C020E086EA90E09093D9
:1003A000AC008093AB0007C0888187FD2E8180E878
:1003B0008093790006C08F81882319F48E8182177B
:1003C00008F0822F80936E0010C08091790087FF23
:1003D0000CC0CE0100D58F3F21F48EE180936D00DB
:1003E00004C0882311F010926E008091AD001816A1
:1003F00014F41092AD0080916D0084FF58C080917C
:100400006E008F3F09F453C0182F893008F018E0B0
:10041000811B80936E0080919D0098E889278093CE
:100420009D00112391F18091790087FF08C08EE92A
:1004300090E0612FE7D3182F893098F526C02091DE
:10044000AB003091AC0086FF0DC0AEE9B0E080E0BB
:1004500090E0F901E80FF91FE491ED930196181768
:10046000C1F708C0912FD901EEE9F0E08D91819399
:100470009150E1F71150812F90E01F5F0196820F9C
:10048000931F9093AC008093AB008EE990E0612FB6
:1004900031D0612F6C5F6C3041F08FEF80936E0034
:1004A00004C08FEF80936E006EE160936D0094E165
:1004B00080B3807631F49150D9F71092AE0010924B
:1004C000A800DF91CF911F910895A82FB92F80E048
:1004D00090E041E050EA60956F5F58F42D9138EF5D
:1004E00082279795879510F0842795273F5FC8F35B
:1004F000F3CF0895EADF8D939D930895CF93CFB7FF
:10050000CF93C395869BE9F7869B09C0869B07C05E
:10051000869B05C0869B03C0869B01C0A1C0DF935C
:10052000C091AA00DD27CF54DF4F869B02C0DF9128
:10053000EBCF2F930F931F9300B32FEF06FB20F900
:100540004F933F9310B34FEF012706FB21F93BE098
:1005500031C04E7F012F10B3216028C0102F4D7F76
:100560002260000000B329C04B7F2460012F0000EF
:1005700010B32BC010B3477F28602AC04F7E00B352
:1005800020612CC04F7D10B320622FC04F7B00B381
:10059000206432C0422700B349934FEF0000102778
:1005A00016FB20F910B31076C9F1297F91F20127CB
:1005B00006FB21F900B3237F89F2315058F110274F
:1005C00016FB22F910B3277E79F2012706FB23F9E7
:1005D0002F7C81F200B3102716FB24F92F7971F2DA
:1005E00000C010B3012706FB25F92F7359F200C094
:1005F00000B3102716FB26F9223040F200C010B3DA
:10060000012706FB27F9243028F64F77206810B31E
:100610000000F9CF10E41ABF002717C03B503195F6
:10062000C31BD04010E41ABF0881033CE9F00B342F
:10063000D9F02091A8001981110F1213EDCF0936BE
:1006400041F10D3211F0013E39F70093AF003F91B7
:100650004F911F910F912F91DF91CAB7C6FD51CFD6
:10066000CF91CFBFCF9118952091AF00222379F37E
:100670001091AD00112311F5343012F13093AD001B
:100680002093A9001091AA003BE0311B3093AA00EF
:1006900017C00091AD0001308CF40AE530916D0077
:1006A00034FD10C000936D00CDE9D0E00FC0279558
:1006B000A8F45150A9F4220F0000F9CF4AE503C075
:1006C00042ED01C0432FC4E1D0E032E011B3106627
:1006D000969A11BB02B320E410E65F93012756E01F
:1006E00002BB279520F4515021F4220FF9CF0127A6
:1006F00056E000003B5A02BBD0F2279528F4515037
:1007000029F4220F0000F9CF012756E0279502BBFC
:1007100020F4515021F4220FF9CF012756E02991FE
:10072000332302BB21F60F791091AE00110FC65191
:10073000D04002BB11F01093A80010E41ABF00646F
:1007400011B31F79402F4F795F9100C000C002BBE9
:1007500011BB42BB7CCFA99883E886B981E087B9F9
:1007600087B1806C87B9369A3699FECF84B195B13E
:10077000369A3699FECF84B195B106966CE070E05A
:100780000BD5862F08951F93E6DF8C3110F011E012
:1007900009C0E1DF853128F0DEDF8B3110F413E092
:1007A00001C012E080917A00181751F0E091910099
:1007B000F0919200309711F0812F099510937A00F3
:1007C0001F910895C59A82ED90E0FC013197F1F7F1
:1007D000C5980197F1F70895843091F0853028F499
:1007E000823051F08330D1F409C0863079F0863000
:1007F00048F0873099F40FC083E505C082E503C057
:1008000082E505C081E58DB91EB8089581E58DB9F1
:1008100081E08EB9089580E58DB91EB8089587B33B
:10082000837D87BB88B3837D88BB1DB80895FF9205
:100830000F931F93F82E80916F00813081F410E0A8
:1008400000E0F7FE02C0C39A01C0C398110FB4992B
:100850001F5FB8DF0F5F083051F0FF0CF2CF882325
:1008600011F411E004C0FFB8779BFECF1FB1812FB8
:100870001F910F91FF9008950F931F9300E812C0EE
:100880008CEAD5DF83E5D3DF80E0D1DF182F80E06D
:10089000CEDF133511F480E008C01DB893DF8091DE
:1008A0006F009ADF015060F781E01F910F9108956A
:1008B0008CEABDDF80E8BBDF80E0B9DF80E0B7DF36
:1008C000089580EFB4DF80E0B2DF80E0B0DF80E049
:1008D000AEDF8170089587B38C6287BBC59A85E0CF
:1008E00090E035D0C298C5988EEF91E0FC01319729
:1008F000F1F7C29A0197F1F7C29880916F006CDF0F
:1009000008951F920F920FB60F9211248F93F894AF
:1009100082E382BF8091C70081508093C70080919D
:10092000C700882309F413BE78948F910F900FBEEF
:100930000F901F90189578948093C70082E382BF30
:1009400083B7836083BF89B7816089BF0895F3DF70
:100950008091C7008823E1F70895FF920F931F93BA
:100960008091C800883720F48F5F8093C8009AC0B8
:100970001092C80000916C0010E061E070E0FF246C
:10098000FA948DC0412F50E0DA01AA0FBB1FAA0FC5
:10099000BB1FA05ABF4F11969C911197992309F440
:1009A00073C09F3F49F425B3CB010C9002C0880F60
:1009B000991F0A94E2F756C09230E9F425B3CB01AF
:1009C0000C9002C0880F991F0A94E2F7982F282BE9
:1009D00025BBFA01EE0FFF1FEE0FFF1FEE59FF4F71
:1009E0008081882309F04DC085B39095982395BBED
:1009F0001196FC9253C0440F551F9130D1F485B32A
:100A00009B010C9002C0220F331F0A94E2F7922F31
:100A10009095982395BBFA01EE0FFF1FEE59FF4FFB
:100A20008081882371F585B3282B25BB11961C92F4
:100A300035C0FA01EE0FFF1FEE59FF4F808188236A
:100A400001F5908313968C9113979C91882371F4F0
:100A50001396FC9225B3AB0102C0440F551F9A9523
:100A6000E2F7CA018095822385BB18C013961C92B9
:100A700025B3AB0102C0440F551F9A95E2F7CA0196
:100A80000BC0815080830AC025B3CB010C9002C0FB
:100A9000880F991F0A94E2F7282B25BB1F5F1017B8
:100AA00008F470CF1F910F91FF90089560916C0032
:100AB00090E041E050E013C084B3E92FF0E0EE0F86
:100AC000FF1FEE0FFF1FE05AFF4F9A01008002C088
:100AD000220F331F0A94E2F7822B84BB9F5F961785
:100AE00058F388E78093C80038DF0895FC0110822E
:100AF0001182138212820895FC01778366835583E5
:100B000044830895FC0182819381892B19F42FEF8E
:100B10003FEF1BC04081842F90E0019624813581F6
:100B20008217930711F480E002C0842F8F5F8083C7
:100B3000828193810197938382830680F781E02DE0
:100B4000E40FF11D8081282F30E0C9010895DB01F9
:100B500011969C9111971696ED91FC911797E90FBC
:100B6000F11D808311964C911197842F90E001968E
:100B700014962D913C9115978217930711F480E0FC
:100B800002C0842F8F5F11968C93119712968D91CE
:100B90009C911397019613969C938E9312970895A8
:100BA0000F931F938C0180EA42DE812F40DE802F5D
:100BB0003EDE80E03CDE1F910F910895EF92FF92A0
:100BC0000F931F937B018C01862F8170880F880FF4
:100BD000880F80622CDED801C70129E0B695A79561
:100BE000979587952A95D1F722DE16950795F79464
:100BF000E7948E2D1CDE80E01ADE1F910F91FF908E
:100C0000EF9008950F931F93CF93DF939C01062FCE
:100C100090917B00892F8250823018F4E90110E016
:100C200039C09630D9F31FEF3BC080917B008230F2
:100C300051F46091870070918800809189009091B3
:100C40008A00BCDF11C0833031F48091870090911D
:100C50008800A6DF09C0863041F48DE291E052DFC2
:100C60002FEF8F3F9207C1F088838091870090918A
:100C70008800A0918900B0918A000196A11DB11D44
:100C80008093870090938800A0938900B0938A0096
:100C90001F5F2196101748F2083010F410927B0065
:100CA000812FDF91CF911F910F910895FF920F93A4
:100CB0001F93182F092FF62E80ECB9DD802FB7DD9A
:100CC000812FB5DD8F2DB3DD8AE041DE80E01F91FD
:100CD0000F91FF900895CF92DF92EF92FF921F93B2
:100CE0006B017C01142F8CE4A2DDD701C60149E021
:100CF000B695A795979587954A95D1F798DDD70131
:100D0000C601B695A7959795879591DD80E08FDD13
:100D10001F3F19F485E01BDE08C081E00CDE1EE1F8
:100D2000C701B6014BDF8F3F11F080E009C0809111
:100D3000C7008823A9F781E0FEDD115089F781E023
:100D40001F91FF90EF90DF90CF900895CF92DF92A8
:100D5000EF92FF920F931F936B017C01042F122FD0
:100D6000862F8170880F880F880F806460DDD7011F
:100D7000C60169E0B695A795979587956A95D1F7CD
:100D800056DDD701C601B695A795979587954FDD96
:100D9000802F4DDD1123B9F00F3719F485E0D7DD31
:100DA00012C081E0C8DD1EE1C701B60107DF8F3741
:100DB00051F48091C7008823B9F781E0BCDD115060
:100DC00099F781E001C080E01F910F91FF90EF90B3
:100DD000DF90CF900895FF920F931F93CF93DF93EF
:100DE0009C01F62E80917B00813011F0843021F43B
:100DF000E90110E000E08CC08530D1F38730C1F309
:100E00001FEF8FC0813071F580918B0090918C0025
:100E100020918700309188004091890050918A008C
:100E2000892B29F4CA01B901488121E004C0CA0113
:100E3000B901488120E08ADF80918E008150809343
:100E40008E008823B9F460918700709188008091AA
:100E5000890090918A0048813EDF80918B008093C9
:100E60008E0008C0843081F48091870090918800C2
:100E700068811CDF80917C0090917D0001979093A8
:100E80007D0080937C000EC0853021F4888190E045
:100E90000FD908C0873031F4E02FF0E0E059FF4F60
:100EA0008881808380917C0090917D00892BD9F48A
:100EB00010927B0080918D0081FF14C080918E0084
:100EC00090E020918B0030918C008217930751F0B5
:100ED00060918700709188008091890090918A00CC
:100EE0004881F9DE11E08091870090918800A091FF
:100EF0008900B0918A000196A11DB11D80938700E1
:100F000090938800A0938900B0938A000F5F219688
:100F100080917B000F1508F475CF873011F4109283
:100F20007B00812FDF91CF911F910F91FF9008954A
:100F3000CF93DF93EC0189818E3F11F482E07BC077
:100F40008E3159F4F89428E088E190E00FB6F894D7
:100F5000A89581BD0FBE21BDFFCF813039F410921D
:100F60007E00B9DC8FEF80936100EDC0823021F408
:100F700056DC10926100E7C0833091F48A8157DC1F
:100F800080937F008B8153DC809380008C814FDCC9
:100F9000809381008D814BDC8093820024E0D9C056
:100FA000843011F580917E00882391F49B8180E04C
:100FB0002A8130E0822B932BAA2797FDA095BA2F88
:100FC0008093870090938800A0938900B0938A0053
:100FD0009F8180E02E8130E0822B932B90937D00C7
:100FE00080937C0082E0B2C0873011F580917E0052
:100FF000882391F49B8180E02A8130E0822B932B1F
:10100000AA2797FDA095BA2F809387009093880018
:10101000A0938900B0938A009F8180E02E8130E008
:10102000822B932B90937D0080937C0083E08EC075
:10103000853029F421DC80937F0021E08AC086304E
:10104000D9F580917E00882391F49B8180E02A81EC
:1010500030E0822B932BAA2797FDA095BA2F80937F
:10106000870090938800A0938900B0938A008C81B8
:101070009D81292F2F7020938D00492F50E0407FB4
:10108000507074E0440F551F7A95E1F7480F511DD9
:1010900050938C0040938B0020FF02C040938E0041
:1010A0009F8180E02E8130E0822B932B90937D00F6
:1010B00080937C0081E04AC0883041F580917E00B9
:1010C000882391F49B8180E02A8130E0822B932B4E
:1010D000AA2797FDA095BA2F809387009093880048
:1010E000A0938900B0938A0010928C0010928B001C
:1010F00010928D009F8180E02E8130E0822B932B17
:1011000090937D0080937C0084E020C0893081F43E
:1011100081E080937E008A819B81AC81BD81809338
:10112000870090938800A0938900B0938A000BC039
:101130008881813211F485E009C0803211F486E0A3
:1011400005C08F3111F020E004C087E080937B0060
:101150002FEF8FE790E09093AC008093AB00822F4D
:10116000DF91CF9108956DE271E0F1DC08958E9AE0
:1011700020E040E757E103C0CA010197F1F7215091
:10118000D9F78E9882D878948DE291E069EC70E07E
:1011900044E650E0B1DC0895AA1BBB1B51E107C037
:1011A000AA1FBB1FA617B70710F0A61BB70B881FF7
:1011B000991F5A95A9F780959095BC01CD01089586
:1011C000A1E21A2EAA1BBB1BFD010DC0AA1FBB1F4B
:1011D000EE1FFF1FA217B307E407F50720F0A21BBD
:1011E000B30BE40BF50B661F771F881F991F1A942A
:1011F00069F760957095809590959B01AC01BD0154
:10120000CF010895E199FECF9FBB8EBBE09A99274D
:101210008DB30895262FE199FECF9FBB8EBB2DBBCA
:101220000FB6F894E29AE19A0FBE01960895F894E9
:02123000FFCFEE
:10123200040000000300000005000000035AFF0143
:081242008025000000000800F7
:00000001FF
