:1000000012C02CC02BC042C029C029C034C026C099
:1000100025C024C023C069C492C420C01FC01EC014
:100020001DC01CC01BC011241FBECFE5D4E0DEBF25
:10003000CDBF10E0A0E6B0E0E4E5FBE002C0059033
:100040000D92A037B107D9F710E0A0E7B0E001C0EA
:100050001D92A53FB107E1F7A2D17AC5D1CF1F927A
:100060000F920FB60F9211241DBC1CBC0F900FBE37
:100070000F901F9018951F920F920FB60F92112498
:1000800000000F900FBE0F901F9018951F920F92B7
:100090000FB60F92112400000F900FBE0F901F900B
:1000A0001895CF92DF92EF92FF920F931F9326B590
:1000B00037B5809170009091710001969093710016
:1000C00080937000409724F010927100109270009D
:1000D000C0907000D0907100CC0CDD1C81ED90E0E0
:1000E000C80ED91EE0908A00F0908B0000E010E06E
:1000F00040E050E060E072E18AE790E0ECD4E21A80
:10010000F30A040B150B209188003091890040E020
:1001100050E0C801B701ACD42CE095958795779550
:1001200067952A95D1F7F601718360831F910F912E
:10013000FF90EF90DF90CF9008951F93CF93DF93C0
:10014000182FEB018EEE8FD38FEFB3D3812FB1D366
:10015000AAD380E991E028EC30E0F9013197F1F77A
:100160000197D9F78EEE7FD38DEFA3D38FEE99D37E
:10017000AED3182FB3D3312F20E090E0282B392BAA
:100180003983288390D3DF91CF911F9108958F9267
:100190009F92AF92BF92CF92DF92EF92FF920F9316
:1001A0001F93DF93CF9300D000D0CDB7DEB78C0183
:1001B0004B0188EEBE016D5F7F4FBFDF80EFBE0158
:1001C0006F5F7F4FBADF2B813C8180917E009091E1
:1001D0007F002817390718F4E090850002C0E090EE
:1001E00084005901CC24DD24A0E0B0E0A81AB90AAB
:1001F000CA0ADB0AC601B501A601950139D42E2D24
:1002000030E040E050E034D43EE095958795779516
:1002100067953A95D1F721E030E00090860002C062
:10022000220F331F0A94E2F7442737FD4095542FDD
:1002300074D4A21AB30AC40AD50A2091800030915E
:10024000810040E050E0C601B50112D4BC019927FD
:1002500077FD9095892FA60195010090870004C035
:1002600055954795379527950A94D2F7621B730BDE
:1002700066507F4FF8017183608320917A0030913E
:100280007B0040E050E0C601B501F2D3BAE095959D
:10029000879577956795BA95D1F7E0907600F090BD
:1002A000770000E010E0E60EF71E081F191F2981F5
:1002B0003A8140E050E020503C4140405040C8016D
:1002C000B701D6D37B018C01AEE015950795F79465
:1002D000E794AA95D1F720917C0030917D002050C1
:1002E000344040E050E0C601B501C2D3FEE0959530
:1002F000879577956795FA95D1F720917800309199
:10030000790040E050E0620F731F841F951FE2E008
:10031000660F771F881F991FEA95D1F7E61AF70A2B
:10032000080B190B55E015950795F794E7945A9526
:10033000D1F780918200909183006AE070E0B7D39A
:100340006E0D7F1DF401718360830F900F900F90ED
:100350000F90CF91DF911F910F91FF90EF90DF9061
:10036000CF90BF90AF909F908F900895EF92FF92A3
:100370000F931F9302E710E044E7E42E40E0F42ED1
:10038000C801B70104DF80ED97E00197F1F7C801DC
:10039000B701FDDE1F910F91FF90EF900895EF924E
:1003A000FF920F931F93CF93DF9383E390E0ECD200
:1003B00080E690E02DD3F894A8952FE088E190E0B6
:1003C0000FB6F894A89581BD0FBE21BD89E185BD0A
:1003D00080EA89BF80E288BF8AE783BDBB9AB8986C
:1003E000C098789488E690E0FED1979819D280EA78
:1003F0003AD280E15ED281EA54D2C0E0D0E08E01F0
:10040000000F111F64D20A581F4FF80181835FD279
:10041000F80180832196C730D10589F758D280939F
:10042000840055D28093850052D28093860056D2A4
:100430008093870038D282EA16D28AE03AD283EAE1
:1004400030D245D2182F43D2312F20E090E0282B14
:10045000392B309389002093880039D2182F3ED24F
:10046000312F20E090E0282B392B30938B00209304
:100470008A0019D2979AC0E0D0E000ED17E011DEB3
:10048000C8010197F1F72196C031D105C1F7EE24DB
:10049000FF248701A8950894E11CF11C011D111D82
:1004A000C801B70120E83EE340E050E036D36115D3
:1004B00071058105910541F48DE690E0A9D256DFE2
:1004C000F0DDEE24FF24870185B78F7885BF85B7DF
:1004D000806885BF8895DECFDF93CF93CDB7DEB739
:1004E000A2970FB6F894DEBF0FBECDBFE1EDF0E0EE
:1004F00020E030E040E050E081919191AA2797FD03
:10050000A095BA2F280F391F4A1F5B1F80E0E13FDB
:10051000F80791F7DA01C90164E0B595A7959795B9
:1005200087956A95D1F79A83898327E62B839D83E4
:100530008C8340917200509173005F834E832091B1
:10054000740030917500398728871A869C878B87BD
:100550005E874D87388B2F87198A45D08BE796E0C9
:1005600071D084E061E044E054D08AE992E079D02F
:1005700080E066E085D0CE0103966FE0E9D081E0AF
:1005800092E815D080E090E012D080ED97E028EC62
:1005900030E0F9013197F1F70197D9F7A2960FB63C
:1005A000F894DEBF0FBECDBFCF91DF910895949830
:1005B00020E030E050E061E097FF02C0929A01C075
:1005C0009298220F331F85992160939A462F4A955E
:1005D000F1F793985F5F503119F0880F991FECCFB6
:1005E000949AC901089580EE90ECE1DF87EE90E8DF
:1005F000DEDF8BEA92ECDBDF81E89AECD8DF80E08B
:1006000090EED5DF80E098ECD2DF87EF94ECCFDF7F
:10061000089590E0F5E0880F991FFA95E1F7907042
:1006200050E047705070842B952B946970E0637094
:100630007070E3E0660F771FEA95E1F7862B972B42
:10064000B6DF08958036910518F480E690E006C084
:100650002FE08034920710F08FE39FE0906AA7DFCD
:1006600008959C0140E050E060E678EA80E090E088
:1006700054D2DA01C90101978068966C98DF089519
:1006800090E087709070986970E0A4E0660F771F23
:10069000AA95E1F77070862B972B89DF08959298C1
:1006A00094980000000024E630E040ED57E005C0DB
:1006B00021503040CA010197F1F7859903C02115F7
:1006C0003105B1F7C49A08950F931F938C01E7DFAA
:1006D000C8016DDF1F910F910895CF93DF9380E0E4
:1006E00090E065DF88E392E8EFDF80E090E0ECDF08
:1006F000C0E0D0E08AEA98EBE7DF2196C530D1056B
:10070000C9F78DE298EBE0DF84ED98EBDDDF80E068
:1007100090E0DADFDF91CF9108950F931F93CF938D
:10072000DF93182F062F282F392FE90104C0899154
:1007300090E0986BC9DF9E01211B2017C0F3DF9169
:10074000CF911F910F91089588E092E8BDDF089541
:10075000FF920F931F938C01F62EBFDF81EF90E085
:1007600064E0DBDFC8016F2DD8DFEEDF1F910F9152
:10077000FF900895DF92EF92FF920F931F938C01E9
:100780007B01D42EAADFC80164E0C7DFC7016D2D4D
:10079000C4DFDADF1F910F91FF90EF90DF90089593
:1007A000FF920F931F93CF93DF938C01F62E88EC6B
:1007B00092E8FDDE81E89AECFADE83E89AECF7DE57
:1007C000E80104C080E090EB7FDF89939E01201B4D
:1007D0002F15C0F388E092E8EADEDF91CF911F91F8
:1007E0000F91FF900895FC0180819181A281B381D6
:1007F0008093F1009093F200A093F300B093F40083
:100800008CE181BB80E182BB80E090E020E23EE4AD
:10081000F9013197F1F7019684369105C9F70895EA
:1008200011B880E280B90895982F84EA86BF06B691
:1008300007FEFDCF81B1887F883021F0803111F033
:1008400081E0089593B984E886BF06B607FEFDCF20
:1008500091B1987F983111F480E0089580E0903450
:1008600009F081E0089544EA34E824E946BF06B679
:1008700007FEFDCF91B1987F983011F09031B1F71C
:1008800083B936BF06B607FEFDCF91B1987F90328F
:1008900011F0983529F426BF06B604FCFDCFE6CF4B
:1008A0000895C2DF089584E986BF06B604FCFDCF33
:1008B000089583B984E886BF06B607FEFDCF81B1EF
:1008C00090E0887F883209F091E0892F089584ECC8
:1008D00086BF06B607FEFDCF83B1089584E886BFC4
:1008E00006B607FEFDCF83B108951F920F920FB693
:1008F0000F9211242F938F939F93EF93FF939BB1AC
:100900002CB1E091CE00EF5FEF718091CF00E8173E
:1009100011F482E008C0892F8871E093CE00F0E0E6
:10092000E455FF4F20838093D000FF91EF919F917A
:100930008F912F910F900FBE0F901F9018951F92BF
:100940000F920FB60F9211248F939F93EF93FF9303
:100950009091CC008091CD00981761F0E091CD008E
:10096000EF5FEF71E093CD00F0E0E457FF4F80813F
:100970008CB901C05598FF91EF919F918F910F9085
:100980000FBE0F901F9018959C011092CC001092F2
:10099000CD001092CE001092CF0097FF03C082E0EE
:1009A0008BB93F7730BD29B988E98AB986E880BD1F
:1009B00008959091CE008091CF00981719F420E00F
:1009C00031E012C0E091CF00EF5FEF71E093CF0014
:1009D000F0E0E455FF4F30812091D000922F80E06D
:1009E000AC01430F511D9A01C9010895282F909120
:1009F000CC009F5F9F718091CD009817E1F3E92FA4
:100A0000F0E0E457FF4F20839093CC00559A08956F
:100A1000DC0111C09091CC009F5F9F718091CD004F
:100A20009817E1F31196E92FF0E0E457FF4F208388
:100A30009093CC00559A2C91222361F70895AC0134
:100A400010C02091CC002F5F2F718091CD0028170E
:100A5000E1F3E22FF0E0E457FF4F90832093CC00C6
:100A6000559AFA014F5F5F4F9491992351F708957A
:100A7000629FD001739FF001829FE00DF11D649F82
:100A8000E00DF11D929FF00D839FF00D749FF00D0E
:100A9000659FF00D9927729FB00DE11DF91F639FAF
:100AA000B00DE11DF91FBD01CF0111240895AA1B4E
:100AB000BB1B51E107C0AA1FBB1FA617B70710F049
:100AC000A61BB70B881F991F5A95A9F7809590957B
:100AD000BC01CD010895A1E21A2EAA1BBB1BFD018A
:100AE0000DC0AA1FBB1FEE1FFF1FA217B307E4070D
:100AF000F50720F0A21BB30BE40BF50B661F771F65
:100B0000881F991F1A9469F7609570958095909544
:100B10009B01AC01BD01CF01089597FB092E05266D
:100B20000ED057FD04D0D7DF0AD0001C38F4509502
:100B30004095309521953F4F4F4F5F4F0895F6F701
:100B400090958095709561957F4F8F4F9F4F089539
:040B5000F894FFCF47
:100B5400426F6F742E2E2E0030313032002E000082
:00000001FF
