:100000000C9466000C9483000C9483000C94830081
:100010000C9483000C9483000C9483000C94830054
:100020000C9483000C9483000C9483000C94830044
:100030000C9483000C949C060C9483000C94830015
:100040000C9483000C9483000C9483000C94830024
:100050000C94830001000000020000000400000076
:100060000800000010000000200000004000000018
:1000700080000000000100000002000000040000F9
:100080000018000000300000004000000080000068
:100090000000010000000200000004000000080051
:1000A0000000100000002000000040000000800060
:1000B0000000000100000002000000040000000831
:1000C00000000010000000200000004011241FBEAE
:1000D000CFE5D8E0DEBFCDBF14E0A0E6B0E0E2E9B6
:1000E000FAE202C005900D92AA3EB107D9F715E0D9
:1000F000AAEEB4E001C01D92A833B107E1F70E9457
:1001000020080C9447150C9400008091EA04882381
:1001100031F411B88CE080B981E08093EA0480E08A
:100120000895982FFB0184EA86BF06B607FEFDCF2F
:1001300081B1887F883011F0803161F493B984E80F
:1001400086BF06B607FEFDCF81B1887F883129F0D2
:10015000803419F0808381E0089580E0089544EAB6
:1001600034E824E946BF06B607FEFDCF91B1987F7B
:10017000983011F09031B1F783B936BF06B607FE5B
:10018000FDCF91B1987F903211F0983529F426BFB8
:1001900006B604FCFDCFE6CF08950E9491000895B5
:1001A00084E986BF06B604FCFDCF0895FB0183B940
:1001B00084E886BF06B607FEFDCF81B1887F88320E
:1001C00011F480E00895808381E0089584EC86BF77
:1001D00006B607FEFDCF83B1089584E886BF06B654
:1001E00007FEFDCF83B10895282F22952F709AE046
:1001F000299F900111248F70820F0895382F8DEC64
:10020000389FC0011124292F26952695269586EF23
:100210009FEF289F802D1124830F2295207F822B12
:1002200008958091ED040895FC0180818F5F8083A3
:100230000895FC018081815080830895FC018181B3
:100240008F5F81838D3028F081E0818380818F5F93
:1002500080830895FC01818181508183882329F462
:100260008CE081838081815080830895FC013281FC
:100270003F5F32838181863059F0873028F48230A5
:1002800059F0843039F404C0893011F08B3011F406
:100290008EE112C08FE110C02081822F90E0837028
:1002A0009070892B41F4822F64E60E94FF119923FC
:1002B00011F08DE101C08CE1831728F481E0828385
:1002C000CF010E941E010895FC013281315032831A
:1002D000818190E001978630910571F0873091051A
:1002E00034F48230910561F0049741F405C08930FF
:1002F000910511F00B9711F48EE112C08FE110C03F
:100300002081822F90E083709070892B41F4822F9E
:1003100064E60E94FF11992311F08DE101C08CE188
:10032000332321F48283CF010E942A010895FC0126
:1003300083818F5F8383883120F01382CF010E94F5
:1003400036010895FC018381882331F487E183839A
:10035000CF010E9464010895815083830895FC01B8
:1003600084818F5F84838C3320F01482CF010E94BC
:1003700097010895FC018481882331F48BE3848301
:10038000CF010E94A2010895815084830895EF92C5
:10039000FF920F931F93CF93DF93182FF62EE72E24
:1003A000042F8091EC04882391F1442381F1812F63
:1003B00090E0840F911D813491054CF580ED0E94F1
:1003C000AF00812F6DEE74E00E94D6008823D9F42F
:1003D00081ED6DEE74E00E94CD008823A1F4CF2D55
:1003E000DE2D102F7E0105C00E94E600F7018193EB
:1003F0007F011150C9F70E94ED000150C00FD11DBF
:10040000888311E001C010E00E94D00001C010E01C
:10041000812FDF91CF911F910F91FF90EF90089561
:100420007F928F929F92AF92BF92CF92DF92EF9284
:10043000FF920F931F93DF93CF93CDB7DEB727972C
:100440000FB6F894DEBF0FBECDBF6C01E62E8091D3
:10045000EC04882311F47724B6C180E0BE016F5FFD
:100460007F4F47E00E94C701882311F4772474C0AE
:100470004F81842F82958F703AE0839FC0011124B1
:100480004F70480FD6014C932E81822F82958F702A
:10049000839FC0011124122F1F70180F11961C93F7
:1004A00011972D81822F82958F70839FC001112417
:1004B000022F0F70080F12960C9312972B81822F28
:1004C00082958F70839FC00111242F70280F13967F
:1004D0002C9313972A81822F82958F70839FC0015E
:1004E00011242F70280F14962C9314972981822F92
:1004F00082958F70839FC00111242F70280F15964D
:100500002C93E12FF0E0EC58FF4FE081242F30E0F6
:1005100046954695C901840F911D67E070E00E94E1
:100520001F12482F23703070232B19F4133008F456
:100530004A5F802F67E00E94FF11892F90E00696A6
:100540008E0F911D840F911D67E070E00E941F12B5
:10055000F601868377247394EE2009F434C1D60122
:100560001196EC918E2F90E0FC01EE0FFF1FDF0142
:10057000AF57BF4F0D911C91E356FF4FE080F180C4
:100580005C010894A11CB11CF601228130E0AA0C88
:10059000BB1CF501EF57FF4F80819181801B910BB0
:1005A000AC01429FC001439F900D529F900D1124BA
:1005B0006FE170E00E941F124B01800E911E8DE9C9
:1005C00090E0A80EB91ED5018D919C918E199F09BE
:1005D000FC01E29FC001E39F900DF29F900D11245A
:1005E0006FE170E00E941F12FB01EE0DFF1DC401C0
:1005F00064E670E00E941F12D60119966C93CF0139
:1006000064E670E00E941F12D6011B966C93C40131
:1006100064E670E00E941F122CE330E0AC01429FC0
:10062000C001439F900D529F900D112464E670E02D
:100630000E941F12D6011A966C93CF0164E670E0F7
:100640000E941F12AC01429FC001439F900D529F18
:10065000900D112464E670E00E941F12D6011C96D2
:100660006C931C9714968C9124E6829FC0011124F0
:100670006CE370E00E941F12D60113968C911397C1
:10068000829FC0011124680F791F681579052CF429
:1006900018961C9200E010E043C0C4018C599F4F93
:1006A000681779072CF468197909F6016087F2CF89
:1006B0006E177F0724F4D60118962C93EBCFCF0149
:1006C0008C599F4F681779073CF4E61BF70B8E2F68
:1006D0008C59F6018087DECFD601DACF12166CF482
:1006E000C6010E949701F60181858F5F818783850E
:1006F0008F5F83870F5F1F4F13C0C6010E94A20147
:10070000D60119968C911997815019968C93199747
:100710001B968C911B9781501B968C930150104017
:100720002091EB04822F992787FD909508171907D0
:10073000A9F6F6012181822F83508830C8F4822FD8
:1007400084508630B8F0D60116963C9116971296D2
:100750008C91129790E0831B9109499704F1332300
:1007600021F413968C918330D0F02A3019F4F601DD
:10077000178229C0D60119968C9119978F5F199607
:100780008C9319971B968C911B978F5F1B968C935C
:10079000C6010E94970181E0F601878314C02330CF
:1007A00021F4D60117961C920EC0F60181858F5F49
:1007B000818783858F5F8387C6010E94970181E0CF
:1007C000D60117968C93872D27960FB6F894DEBF27
:1007D0000FBECDBFCF91DF911F910F91FF90EF9092
:1007E000DF90CF90BF90AF909F908F907F900895B3
:1007F000805F41E00E94C7010895EF92FF920F933E
:100800001F93CF93DF93082FF62EE72E142F80919E
:10081000EC04882341F1442331F1802F90E0840FD0
:10082000911D81349105FCF480ED0E94AF00802F72
:100830006DEE74E00E94D600882389F48F2D9E2DE2
:100840009C01E90188816DEE74E00E94D600115090
:10085000882329F421961123A9F711E001C010E0A3
:100860000E94D00001C010E0812FDF91CF911F9135
:100870000F91FF90EF900895EF92FF920F931F93C7
:10088000DF93CF9300D0CDB7DEB78C017B018FEF24
:10089000FB0180830E948500F80180838823C9F4CE
:1008A00081E08093EC0480E88093EE048091EE0474
:1008B0008A8387E0BE016E5F7F4F41E00E94FD03A7
:1008C000882311F583E0F80180838091ED04F7011E
:1008D000808380E010C0898187FF07C08F7789837C
:1008E00080E0B80141E00E94FD0381E06BEE74E01E
:1008F0000E94F80381E00F900F90CF91DF911F913C
:100900000F91FF90EF90089580E08E010F5F1F4FD1
:10091000B80141E00E94C7018823E9F6E6CFDF93E2
:10092000CF93CDB7DEB727970FB6F894DEBF0FBED3
:10093000CDBFFC018091EC04882309F477C0658168
:100940004DEC649FC001112496959695969526EFDF
:100950003FEF929F802D1124860F9295907F892BD7
:1009600089836481649FC00111249695969596951C
:10097000929F802D1124860F9295907F892B8A83D8
:100980006381649FC0011124969596959695929FD8
:10099000802D1124860F9295907F892B8B83668101
:1009A000649FC0011124969596959695929F802DEF
:1009B0001124860F9295907F892B8F5F8C836281A3
:1009C000649FC0011124969596959695929F802DCF
:1009D0001124860F9295907F892B8D836181649F6E
:1009E000C0011124969596959695929F802D11247D
:1009F000860F9295907F892B8E839081949FA00182
:100A00001124852F869586958695829F202D112409
:100A1000290F8295807F282B2F8380E0BE016F5F96
:100A20007F4F47E00E94FD03811181E027960FB6BA
:100A3000F894DEBF0FBECDBFCF91DF910895DF9355
:100A4000CF930F92CDB7DEB76983805FBE016F5F32
:100A50007F4F41E00E94FD030F90CF91DF910895F9
:100A60000F931F93DF93CF93CDB7DEB7C456D0401B
:100A70000FB6F894DEBF0FBECDBF682F282F30E031
:100A80008091EB04992787FD90952817390761F12C
:100A90006093EB0481E00E941F0500D000D000D0DD
:100AA000EDB7FEB731968E010F5F1F4FADB7BEB7E2
:100AB00012961C930E93119780E690E093838283A5
:100AC0008091EB04992787FD9095958384830E94FC
:100AD0006F128DB79EB706960FB6F8949EBF0FBEE5
:100AE0008DBFC8010E945006CC59DF4F0FB6F89455
:100AF000DEBF0FBECDBFCF91DF911F910F91089543
:100B0000DF93CF930F92CDB7DEB780E687B985E844
:100B100086B9369A3699FECF85B1898320E030E0D8
:100B20008981F901E051FB4F80832F5F3F4F2034D3
:100B30003105B1F7898190E09093310580933005BC
:100B4000809130059091310526E0880F991F2A95F4
:100B5000E1F79093310580933005369A0F90CF914D
:100B6000DF910895809130059091310536E096959A
:100B700087953A95E1F780950895369922C045B159
:100B800080913005909131053091EF04E32FF0E032
:100B9000E051FB4F2081821B910990933105809396
:100BA000300540838091300590913105840F911D6F
:100BB00090933105809330053F5F3F733093EF048E
:100BC000369A08958CEF81BB81EA8FBD81E08EBD9E
:100BD00081E685BD8DE783BF89B7837C89BF089592
:100BE000982F853098F085508D3230F4892F65E04C
:100BF0000E94FF11982F0AC0892F90E09C01229F2C
:100C0000C001239F900D329F900D1124892F0895CC
:100C1000DF92EF92FF920F931F93F42ED22E082FA4
:100C200010E0862F0E94F00590E09C01029FC00119
:100C3000039F900D129F900D11246FEF70E00E94A2
:100C40000B12E62E8F2D0E94F00590E09C01029F72
:100C5000C001039F900D129F900D11246FEF70E063
:100C60000E940B12F62E8D2D0E94F00590E09C0143
:100C7000029FC001039F900D129F900D11246FEFF2
:100C800070E00E940B12E8BCFABC63BD1F910F918B
:100C9000FF90EF90DF9008955D9BFECF8CB9089593
:100CA000FC0104C05D9BFECF8CB931968081882306
:100CB000C9F708959B01AC018091320590913305ED
:100CC000A0913405B0913505281739074A075B070D
:100CD00009F1209332053093330540933405509346
:100CE0003505852F9927AA27BB278FB9779BFECF7C
:100CF000CA01AA27BB278FB9779BFECFBB27A52F99
:100D0000942F832F8FB9779BFECF2FB9779BFECF80
:100D1000C498C49A089587B3806B87BBBE9888B384
:100D2000806588BB8BE58DB9709A6FEF7FEF8FEF91
:100D30009FEF0E945A0608951F920F920FB60F92CE
:100D400011248F939F93EF93FF939CB1809136056D
:100D50008823F9F49A3091F09D3081F08091370525
:100D6000833660F4E0913705F0E0EE5AFB4F908354
:100D7000809137058F5F809337050BC0E091370571
:100D8000F0E0EE5AFB4F10821092370581E080931D
:100D90003605FF91EF919F918F910F900FBE0F90AD
:100DA0001F901895982F80538A3028F4292F30E00F
:100DB0002053304014C0892F8154863028F4292FC5
:100DC00030E0275330400BC0892F8156863018F011
:100DD0002FEF3FEF04C0292F30E027553040C901E5
:100DE00008950F931F93CF93DF938C01FC018081B3
:100DF0000E94D206EC01F8018181D7FD0DC00E944E
:100E0000D20697FD09C09E0174E0220F331F7A9528
:100E1000E1F7280F391F02C02FEF3FEFC901DF9123
:100E2000CF911F910F9108952F923F924F925F9211
:100E30006F927F928F929F92AF92BF92CF92DF92EA
:100E4000EF92FF920F931F93DF93CF93CDB7DEB74F
:100E5000C157D0400FB6F894DEBF0FBECDBFFE0124
:100E6000EB59FF4F7C2CC082CD2CD182DE2CE2824C
:100E7000EF2CF382F02E0483A12F15832683132FEA
:100E800037834087352F5187262F6287972F7387A7
:100E900084875A2F642E29011C014091EB04892874
:100EA00009F06EC0112319F429EB30E002C02AEBDF
:100EB00030E08DB79EB746970FB6F8949EBF0FBE31
:100EC0008DBFEDB7FEB731968E010F5F1F4FADB7E7
:100ED000BEB712961C930E9311978EEB90E09383FE
:100EE0008283E4821582F68217825087118680EF12
:100EF00090E093878287D4861586C6861786872DCD
:100F000090E08053984F918B808B842F992787FD99
:100F10009095938B828B358B248B0E946F128DB7AB
:100F20009EB746960FB6F8949EBF0FBE8DBFC80100
:100F30000E945006AB2809F469C0ADB7BEB71E9732
:100F40000FB6F894BEBF0FBEADBFEDB7FEB731967A
:100F500012961C930E93119782EF90E093838283F5
:100F600064821582568217824086118632861386E5
:100F7000248615860E946F128DB79EB70E963EC0CE
:100F8000112319F429EB30E002C02AEB30E0ADB7B1
:100F9000BEB756970FB6F894BEBF0FBEADBFEDB744
:100FA000FEB731968E010F5F1F4F12961C930E9362
:100FB000119784E191E093838283E4821582F68223
:100FC00017825087118680EF90E093878287D486BE
:100FD0001586C6861786872D90E08053984F918B93
:100FE000808B842F992787FD9095938B828B358BEF
:100FF000248B0E946F128DB79EB746960FB6F89459
:101000009EBF0FBE8DBFC8010E945006CF58DF4F54
:101010000FB6F894DEBF0FBECDBFCF91DF911F9109
:101020000F91FF90EF90DF90CF90BF90AF909F9087
:101030008F907F906F905F904F903F902F9008958A
:101040003F924F925F926F927F928F929F92AF9258
:10105000BF92CF92DF92EF92FF920F931F93DF9395
:10106000CF93CDB7DEB7CF52D1400FB6F894DEBFE5
:101070000FBECDBFA895F8948AB188698AB980B5AA
:10108000866880BDAF98A79A10BC88E089B98FE3C5
:1010900091E00E94500680E791E00E94500684B7DC
:1010A00090E08F71907084309105A9F085309105A2
:1010B00034F48130910549F00297B1F409C08830C9
:1010C000910561F0409781F40CC08FE791E00EC06C
:1010D00080E991E00BC081EA91E008C083EB91E0E8
:1010E00005C084EC91E002C081ED91E00E945006C1
:1010F00014BE8BED91E00E94500620E030E040E409
:101100005CE9A895CA010197F1F72F5F3F4F2233A1
:101110003105B9F7AF9A20E030E040E45CE9A895EA
:10112000CA010197F1F72F5F3F4F22333105B9F71D
:101130008FEE91E00E9450068DE081BD789480E0B2
:1011400092E00E9450060E94E2058FE06FEF40E0BF
:1011500020E00E940806A8958AE092E00E945006CE
:101160000E948B068FE06FEF4FEF20E00E94080691
:10117000A89588E192E00E9450060E9480058FE0C9
:1011800060E04FEF2FEF0E940806A89586E292E0FC
:101190000E945006CE010196BE016E5F7F4F0E94F5
:1011A0003C04882309F580E392E00E94500600E9A0
:1011B00011E08FE060E040E020E00E94080688EC4B
:1011C00090E0F8013197F1F70197D9F78FE06FEFD1
:1011D0004FEF2FEF0E94080688EC90E0F80131975E
:1011E000F1F70197D9F7E5CFA895CE01089661E010
:1011F0000E9410028823A9F0C884D984EA84FB8461
:101200000C851D852E853F85488959896A897B898A
:101210008C89AA24BB24E1E08E2E912C0E94140715
:1012200004C08EE392E00E94500682E592E00E94A4
:10123000500660E070E080E090E00E945A068FEF78
:101240006FEF4FEF2FEF0E940806A895E12CF12CCD
:10125000012D30E8132FCC24DD2420E9A22E21E03B
:10126000B22EA895C801B7010E945A061695079597
:10127000F794E79488EC90E0F5013197F1F7019746
:10128000D9F70894C11CD11C20E2C216D10449F739
:1012900060E070E080E090E00E945A0620E030E0DC
:1012A00040E45CE9A895CA010197F1F72F5F3F4F31
:1012B00022333105B9F781E0E82EF12C012D112DF3
:1012C000CC24DD24B0E9AB2EB1E0BB2EA895C8013B
:1012D000B7010E945A06EE0CFF1C001F111F88EC7C
:1012E00090E0F5013197F1F70197D9F70894C11C07
:1012F000D11C30E2C316D10449F7A89582E692E0EA
:101300000E9450066FEF7FEF8FEF9FEF0E945A060B
:101310008FE76FEF40E020E00E94080620E030E019
:1013200040E45CE9A895CA010197F1F72F5F3F4FB0
:1013300024313105B9F78FE760E04FEF20E00E94DC
:10134000080620E030E040E45CE9A895CA01019776
:10135000F1F72F5F3F4F24313105B9F78FE760E098
:1013600040E02FEF0E94080620E030E040E45CE916
:10137000A895CA010197F1F72F5F3F4F243131053E
:10138000B9F780E06FEF4FEF2FEF0E940806A895A6
:1013900081E08B8382E0BE016D5F7F4F0E94F80386
:1013A00000D000D000D0EDB7FEB731968E010C5AB8
:1013B0001F4FADB7BEB712961C930E93119782E7DD
:1013C00092E0938382838B81848315820E946F12C3
:1013D0002DB73EB72A5F3F4F0FB6F8943EBF0FBE02
:1013E0002DBF85E792E00E945006C8010E9450067A
:1013F00084E0BE016C5F7F4F0E94F80385E0BE0170
:101400006B5F7F4F0E94F80386E0BE016A5F7F4FEB
:101410000E94F80383E0BE01695F7F4F0E94F803DA
:101420008F81882361F54DB75EB74A5050400FB6A3
:10143000F8945EBF0FBE4DBFEDB7FEB73196ADB7A6
:10144000BEB712961C930E93119787E892E0938390
:1014500082838C81848315828D81868317828E811D
:10146000808711860E946F122DB73EB7265F3F4FCF
:101470000FB6F8943EBF0FBE2DBFC80102C086EA6A
:1014800092E00E94500685EB92E00E945006C05EFA
:10149000DE4F188219821A821B82C052D140442426
:1014A0004A94542C3201C25EDE4F19821882CE510A
:1014B000D140C45EDE4F19821882CC51D14024E560
:1014C00030E0F90145915591659174912C5F3F4F42
:1014D000F90185919591A591B491CC5DDE4F8883FA
:1014E0009983AA83BB83C452D140ECEAF0E0859192
:1014F0009591A591B491CC5DDE4FA880B980CA804A
:10150000DB80C452D140A42AB52AC62AD72AA82AE9
:10151000B92ACA2ADB2ACC5DDE4FA882B982CA82E8
:10152000DB82C452D140ECE5F0E0C590D590E59067
:10153000F490E4E7F0E085919591A591B491C82AE3
:10154000D92AEA2AFB2AC85DDE4FC882D982EA82FC
:10155000FB82C852D140ECEBF0E0E590F5900591AC
:101560001491C45DDE4FE882F9820A831B83CC525A
:10157000D140E4EBF0E02591359145915491E0EBB9
:10158000F0E0E590F59005911491E8EBF0E085919D
:101590009591A591B491C45DDE4FA880B980CA80B1
:1015A000DB80CC52D140A22AB32AC42AD52ACC5DF2
:1015B000DE4F288139814A815B81C452D140A22A01
:1015C000B32AC42AD52AAE28BF28C02AD12AA82ADD
:1015D000B92ACA2ADB2AC45DDE4FA882B982CA8230
:1015E000DB82CC52D14003C0442455243201A8955B
:1015F00080EA9FE00197F1F70894411C511C611C9F
:10160000711C0E94BD058B81882319F433243A9400
:1016100009C00E94B205382E3FE3381718F03694FF
:1016200040E2340E832D6C814D812E810E9408068C
:10163000C301B2012AE030E040E050E00E943212E3
:10164000611571058105910591F680913605882314
:1016500009F461C3809152048E3309F00DC3809167
:101660005304883609F4E7C18936F8F48D3409F457
:1016700075C28E3480F48F3309F4FEC2803438F49E
:101680008B3209F410C28D3209F0D1C217C28434F2
:1016900009F0CDC232C2823609F4D7C0833609F4CC
:1016A0000BC1893509F0C3C28AC2823709F4C8C0A8
:1016B000833748F48D3609F4EFC1803771F08C36EA
:1016C00009F0B5C288C0853709F42DC18A3709F4FD
:1016D0007FC1843709F0ABC258C182EC92E00E940E
:1016E00050066FEF7FEF8FEF9FEF0E945A06109228
:1016F000360500E911E062C08FEF60E840E020E0CD
:101700000E940806A89588EC90E0F8013197F1F75F
:101710000197D9F78FEF6FEF40E020E00E940806B5
:10172000A89580ED97E0F8013197F1F70197D9F787
:101730008FEF60E040E820E00E940806A89588EC62
:1017400090E0F8013197F1F70197D9F78FEF60E05A
:101750004FEF20E00E940806A89580ED97E0F80181
:101760003197F1F70197D9F78FEF60E040E020E87B
:101770000E940806A89588EC90E0F8013197F1F7EF
:101780000197D9F78FEF60E040E02FEF0E94080645
:10179000A89580ED97E0F8013197F1F70197D9F717
:1017A0008FEF6FEF4FEF2FEF0E940806A89580EDA7
:1017B00097E0F8013197F1F70197D9F78091360555
:1017C000882309F499CFA89580E060E040E020E00C
:1017D0000E94080651C284ED92E00E9450066FEF0D
:1017E0007FEF8FEF9FEF0E945A06109236058FEF22
:1017F0006FEF4FEF2FEF0E94080620E931E008C09D
:10180000A89588EC90E0F9013197F1F70197D9F7A5
:10181000809136058823A1F3A89580E060E040E040
:1018200020E00E9408068FEF9FEFAFEFBFEF80939D
:10183000320590933305A0933405B09335051CC24F
:1018400086EE92E00E945006FFCF809154048B32C6
:1018500019F08D3251F405C081E08B8382E061E0A4
:101860000BC01B8282E060E007C060E08B818823B0
:1018700009F461E06B8382E00E941F058B8188235D
:1018800019F424E033E002C02DE033E000D000D0B2
:1018900000D0EDB7FEB731968E0108541F4FADB79B
:1018A000BEB712961C930E93119784E193E0938335
:1018B000828335832483D2C184E594E00E94F106BB
:1018C0007C0186E594E00E94F1068C0188E594E0B5
:1018D0000E94F1069C01F7FC04C017FD02C097FFAF
:1018E00008C08F81882311F01F8218C081E08F8388
:1018F00015C01F82EC820D838E83832D6E2D402FA9
:101900000E94080684E06C810E941F0585E06D81BD
:101910000E941F0586E06E810E941F0583E06F8193
:101920000E941F05A9C184E594E00E94F1064C01C4
:1019300086E594E00E94F1065C0188E594E00E944F
:10194000F1066C018AE594E00E94F1067C018CE5C9
:1019500094E00E94F1068C018EE594E00E94F1066D
:1019600097FC8AC1B7FC88C1D7FC86C1F7FC84C14B
:1019700017FD82C197FD80C18B86AC86CD86EA8635
:1019800009878887CE01089637C1C05EDE4F48813F
:1019900059816A817B81C052D14041155105610551
:1019A000710569F460E070E080E090E8C05EDE4FB1
:1019B000688379838A839B83C052D1405DC1C05EB6
:1019C000DE4F188219821A821B82C052D14054C144
:1019D000809154048B3219F08D32C9F40BC0809180
:1019E000EB048C301CF083EF8093EB048091EB04CC
:1019F0008F5F0AC08091EB04853F1CF48DE08093DB
:101A0000EB048091EB0481500E94300535C1209198
:101A1000540400D000D000D0EDB7FEB731968E014F
:101A200008541F4FADB7BEB712961C930E93119773
:101A30008FE293E0F7C0809154048B3219F08D321D
:101A4000B9F40BC08E01085F1F4FC80160E00E940F
:101A50001002C8010E949701CEC08E01085F1F4F7F
:101A6000C80160E00E941002C8010E94A201C3C028
:101A70002091540400D000D000D0EDB7FEB73196CD
:101A80008E0108541F4FADB7BEB712961C930E932C
:101A9000119781E593E0C6C0809154048B3219F010
:101AA0008D32B9F40BC08E01085F1F4FC80160E092
:101AB0000E941002C8010E94AF019DC08E01085F04
:101AC0001F4FC80160E00E941002C8010E94BA01C5
:101AD00092C02091540400D000D000D0EDB7FEB7E2
:101AE00031968E0108541F4FADB7BEB712961C93A6
:101AF0000E93119783E793E095C0809154048B3245
:101B000019F08D32B9F40BC08E01085F1F4FC80168
:101B100060E00E941002C8010E9436016CC08E0174
:101B2000085F1F4FC80160E00E941002C8010E94B8
:101B3000640161C02091540400D000D000D0EDB702
:101B4000FEB731968E0108541F4FADB7BEB712963F
:101B50001C930E93119785E993E064C0809154041F
:101B60008B3219F08D32B9F40BC08E01085F1F4F14
:101B7000C80160E00E941002C8010E941E013BC023
:101B80008E01085F1F4FC80160E00E941002C8016B
:101B90000E942A0130C02091540400D000D000D00F
:101BA000EDB7FEB731968E0108541F4FADB7BEB7E3
:101BB00012961C930E93119787EB93E033C080919C
:101BC00054048B3219F08D32D1F40BC08E01085FB2
:101BD0001F4FC80160E00E941002C8010E9414015A
:101BE0000AC08E01085F1F4FC80160E00E9410020A
:101BF000C8010E941901C8010E948F043DC02091B4
:101C0000540400D000D000D0EDB7FEB731968E015D
:101C100008541F4FADB7BEB712961C930E93119781
:101C200089ED93E0938382832483158217C000D0CB
:101C300000D000D0EDB7FEB731968E0108541F4F8B
:101C4000ADB7BEB712961C930E9311978BEF93E02E
:101C50009383828382E594E0958384830E946F124C
:101C60002DB73EB72A5F3F4F0FB6F8943EBF0FBE69
:101C70002DBFC8010E945006CE01089661E00E9467
:101C80001002182FCE01459660E00E941002112329
:101C900011F0882351F58DE194E00E94500600E098
:101CA00010E0F0E9EF2EF1E0FF2E81E061E041E08D
:101CB00021E00E94080684EF91E0F7013197F1F7E7
:101CC0000197D9F78FEF6FEF4FEF2FEF0E940806C4
:101CD00084EF91E0F7013197F1F70197D9F70F5FA2
:101CE0001F4F0832110509F7FFCFC884D984EA8451
:101CF000FB840C851D852E853F85488959896A8915
:101D00007B898C89E1E0AE2EB12C882499240E9435
:101D1000140710923605C301B20124E630E040E01A
:101D200050E00E943212611571058105910509F09C
:101D30005ECCCF9B07C0C25EDE4F19821882CE51A7
:101D4000D1400EC0C25EDE4F48815981CE51D14094
:101D50004F5F5F4FC25EDE4F59834883CE51D14003
:101D6000CE9B07C0C45EDE4F19821882CC51D14091
:101D70000EC0C45EDE4F68817981CC51D1406F5F67
:101D80007F4FC45EDE4F79836883CC51D14089B3E5
:101D9000C25EDE4F88819981CE51D140823091055B
:101DA00008F454C00A966CE070E00E940B12892B74
:101DB00049F0C25EDE4FA881B981CE51D1409597DE
:101DC00008F444C089E294E00E9450068E01085F46
:101DD0001F4FC80160E00E941002882309F4FFCF62
:101DE000C8010E949701C8010E948F040DB71EB759
:101DF0000A5010400FB6F8941EBF0FBE0DBFEDB7CE
:101E0000FEB731968E0108541F4FADB7BEB712967C
:101E10001C930E93119782E394E0938382838B85C6
:101E2000848315828C85868317828D8580871186B1
:101E30000E946F122DB73EB7265F3F4F0FB6F89442
:101E40003EBF0FBE2DBFC8010E945006C45EDE4FCC
:101E500048815981CC51D1404230510508F455C0D8
:101E6000CA010A966CE070E00E940B12892B51F0B7
:101E7000C45EDE4F68817981CC51D14065327105F5
:101E800008F443C08AE494E00E9450068E01085F83
:101E90001F4FC80160E00E941002882309F4FFCFA1
:101EA000C8010E94AF01C8010E948F048DB79EB780
:101EB0000A970FB6F8949EBF0FBE8DBFEDB7FEB761
:101EC00031968E0108541F4FADB7BEB712961C93C2
:101ED0000E93119782E394E0938382838B858483AE
:101EE00015828C85868317828D85808711860E9456
:101EF0006F122DB73EB7265F3F4F0FB6F8943EBF27
:101F00000FBE2DBFC8010E945006C05EDE4F488143
:101F100059816A817B81C052D140411551056105CB
:101F2000710539F17695679557954795C05EDE4FF7
:101F3000488359836A837B83C052D1404115510540
:101F40006105710561F460E070E080E090E8C05EDA
:101F5000DE4F688379838A839B83C052D140C05E01
:101F6000DE4F688179818A819B81C052D1400E9475
:101F70005A06C301B20128EE33E040E050E00E946F
:101F80003212611571058105910509F030CBCE0142
:101F9000089661E00E941002182FCE01459660E07D
:101FA0000E941002082F832D6C814D812E810E948A
:101FB0000806112311F0002351F58DE194E00E94F1
:101FC000500600E010E080E9E82E81E0F82E81E084
:101FD00061E041E021E00E94080684EF91E0F70112
:101FE0003197F1F70197D9F78FEF6FEF4FEF2FEFA1
:101FF0000E94080684EF91E0F7013197F1F701970D
:10200000D9F70F5F1F4F0832110509F7FFCF1C8565
:10201000812F65E00E94FF11923039F1933018F45E
:10202000913039F40FC0933009F438C0943009F47A
:102030005CC0CC5DDE4FA880B980CA80DB80C45212
:10204000D1405BC0ECEBF0E0A590B590C590D4908A
:10205000CC5DDE4F88819981AA81BB81C452D14079
:10206000A82AB92ACA2ADB2A48C0ECEBF0E0A590DE
:10207000B590C590D490E4EBF0E085919591A59151
:10208000B491A82AB92ACA2ADB2ACC5DDE4F28815E
:1020900039814A815B81C452D14022C0ECEBF0E02F
:1020A000A590B590C590D490E4EBF0E08591959122
:1020B000A591B491E0EBF0E02591359145915491D3
:1020C000A82AB92ACA2ADB2ACC5DDE4F6881798129
:1020D0008A819B81C452D140A62AB72AC82AD92A0C
:1020E000A22AB32AC42AD52A08C0C45DDE4FA8801C
:1020F000B980CA80DB80CC52D140153008F4C4C00E
:102100001A3068F4ECE5F0E085919591A591B491D1
:10211000E0E7F0E025913591459154911DC01F30C5
:1021200068F4E0E6F0E085919591A591B491E0E73F
:10213000F0E025913591459154910EC01431A8F4E9
:10214000ECE6F0E085919591A591B491E0E7F0E09F
:102150002591359145915491822B932BA42BB52B2E
:10216000A82AB92ACA2ADB2A8FC0193168F4E4E602
:10217000F0E085919591A591B491E0E7F0E025918B
:10218000359145915491E8CF1E3198F4ECE5F0E09B
:1021900085919591A591B491E4E7F0E02591359171
:1021A00045915491E8E7F0E0E590F59005911491A0
:1021B0001DC0133238F4E8E7F0E085919591A591C0
:1021C000B4915CC01832F8F4ECE5F0E0859195919B
:1021D000A591B491E0E7F0E02591359145915491B6
:1021E000E8E7F0E0E590F59005911491822B932BB0
:1021F000A42BB52BA82AB92ACA2ADB2AAE28BF28C5
:10220000C02AD12A3FC01D3268F4E4E6F0E085918F
:102210009591A591B491E4E7F0E025913591459130
:1022200054911DC0123368F4ECE6F0E0859195916D
:10223000A591B491E4E7F0E0259135914591549151
:102240000EC0173388F4E0E6F0E085919591A591F2
:10225000B491E4E7F0E02591359145915491822BBA
:10226000932BA42BB52B0AC01C3370F4C85DDE4F32
:1022700088819981AA81BB81C852D140A82AB92AF4
:10228000CA2ADB2A81E001C080E0DE019296E7EBFA
:10229000F4E092E301900D929150E1F7EB85F0E0CC
:1022A000E80FF11DEE0FFF1FEC0FFD1F02A0F3A1C1
:1022B000E02DEE0FFF1FEE0FFF1FEC5AFF4F859131
:1022C0009591A591B491C05EDE4FE880F9800A81B6
:1022D0001B81C052D140E114F1040105110541F404
:1022E000A82AB92ACA2ADB2AC601B5010E945A06C1
:1022F0008D85882399F4C884D984EA84FB840C856D
:1023000010E02E853F85488959896A897B898C89A7
:10231000AA24BB24882499240E9414078F8188232F
:1023200009F462C99889992319F481E08C8314C057
:10233000943628F08FEF8C838D8380E80FC0923322
:1023400078F48EEF989FC001112462E370E00E9440
:102350001F126F5F6C8381E08D8383E38E8344C99A
:10236000923309F441C98FEF8C83E92EFF240EECE0
:102370001FEFE00EF11E0027F7FC0095102FC8019B
:10238000B7012CEC30E040E050E00E94E01122E385
:1023900030E040E050E00E9432122D5C2D83C801F5
:1023A000B7012DE430E040E050E00E94E01122E36C
:1023B00030E040E050E00E9432122D5C2E8314C9C0
:1023C000629FD001739FF001829FE00DF11D649F19
:1023D000E00DF11D929FF00D839FF00D749FF00DA5
:1023E000659FF00D9927729FB00DE11DF91F639F46
:1023F000B00DE11DF91FBD01CF0111240895991BF6
:1024000079E004C0991F961708F0961B881F7A95EB
:10241000C9F780950895AA1BBB1B51E107C0AA1FED
:10242000BB1FA617B70710F0A61BB70B881F991F75
:102430005A95A9F780959095BC01CD01089597FB19
:10244000092E07260AD077FD04D0E5DF06D000204C
:102450001AF4709561957F4F0895F6F790958195E0
:102460009F4F089597FB092E05260ED057FD04D0E7
:1024700014D00AD0001C38F4509540953095219521
:102480003F4F4F4F5F4F0895F6F7909580957095A9
:1024900061957F4F8F4F9F4F0895A1E21A2EAA1B7F
:1024A000BB1BFD010DC0AA1FBB1FEE1FFF1FA21704
:1024B000B307E407F50720F0A21BB30BE40BF50B01
:1024C000661F771F881F991F1A9469F7609570958A
:1024D000809590959B01AC01BD01CF010895AEE0C0
:1024E000B0E0E5E7F2E10C941E150D891E8986E047
:1024F0008C831A8309838FEF9FE79E838D839E01D0
:10250000275E3F4FCE0101966F89788DA9010E9409
:1025100093122F813885020F131FF80110822E9617
:10252000E4E00C943A15ABE0B0E0E9E9F2E10C9498
:1025300010153C012B015A01FC0117821682838180
:1025400081FD03C06FEF7FEFC6C19AE0892E1E01A7
:102550000894211C311CF3012381F20123FD859194
:1025600023FF81912F01882309F4B2C1853239F408
:1025700023FD859123FF81912F01853229F490E07D
:10258000B3010E948614E7CF982FFF24EE249924EC
:10259000FFE1FF15D0F09B3269F09C3228F49032B5
:1025A00059F0933291F40EC09D3249F0903369F4A2
:1025B00041E024C052E0F52A84E0F82A28C098E0DF
:1025C000F92A25C0E0E1FE2A22C0F7FC29C0892FA4
:1025D00080538A3070F4F6FE05C0989C902C11242C
:1025E000980E15C0E89CE02C1124E80EF0E2FF2ABA
:1025F0000EC09E3229F4F6FC6BC140E4F42A07C0F9
:102600009C3619F450E8F52A02C0983649F4F201D4
:1026100023FD959123FF91912F01992309F0B8CFC4
:10262000892F8554833018F08052833038F444E089
:1026300050E0A40EB51E5FE359830FC0933631F00E
:10264000933779F0933509F056C020C0F5018081A9
:10265000898342E050E0A40EB51E610101E010E064
:1026600012C0F501C080D180F6FC03C06FEF7FEF90
:1026700002C0692D70E042E050E0A40EB51EC60114
:102680000E947B148C015FE7F52214C0F501C08025
:10269000D180F6FC03C06FEF7FEF02C0692D70E0C0
:1026A00042E050E0A40EB51EC6010E9470148C01D9
:1026B00050E8F52AF3FE07C01AC080E290E0B301AB
:1026C0000E948614EA948E2D90E008171907A8F34B
:1026D0000EC0F601F7FC8591F7FE81916F0190E045
:1026E000B3010E948614E110EA94015010400115D4
:1026F000110579F7EAC0943611F0993669F5F7FEBD
:1027000008C0F501208131814281538184E090E04D
:102710000AC0F501808191819C01442737FD4095D5
:10272000542F82E090E0A80EB91E9FE6F92257FFD1
:1027300009C050954095309521953F4F4F4F5F4FC1
:10274000E0E8FE2ACA01B901A1012AE030E00E94B6
:10275000B214D82ED21840C0953729F41F2D1F7EF1
:102760002AE030E01DC01F2D197F9F3661F09037A1
:1027700020F4983509F0ACC00FC0903739F0983785
:1027800009F0A6C004C028E030E00AC0106114FDC2
:10279000146020E130E004C014FD166020E132E056
:1027A00017FF08C0F501608171818281938144E047
:1027B00050E008C0F50180819181BC0180E090E08B
:1027C00042E050E0A40EB51EA1010E94B214D82E22
:1027D000D2188FE7F82EF122F6FE0BC05EEFF5223D
:1027E000D91438F4F4FE07C0F2FC05C08FEEF822CD
:1027F00002C01D2D01C0192DF4FE0DC0FE01ED0D0E
:10280000F11D8081803319F499EEF92208C01F5F11
:10281000F2FE05C003C08F2D867809F01F5F0F2DD3
:10282000F3FC14C0F0FE0FC01E1510F09D2C0BC061
:102830009D2C9E0C911A1E2D06C080E290E0B301E3
:102840000E9486141F5F1E15C0F304C01E1510F4ED
:10285000E11A01C0EE2404FF0FC080E390E0B30151
:102860000E94861402FF1DC001FD03C088E790E0AE
:102870000EC088E590E00BC0802F867891F001FFB4
:1028800002C08BE201C080E2F7FC8DE290E0B30170
:102890000E94861406C080E390E0B3010E94861473
:1028A0009A94D914C0F3DA94F101ED0DF11D8081F1
:1028B00090E0B3010E948614DD20A9F706C080E2F3
:1028C00090E0B3010E948614EA94EE20C1F743CE53
:1028D000F30166817781CB012B96E2E10C942C15F4
:1028E000FC010590615070400110D8F780959095DB
:1028F0008E0F9F1F0895FC016150704001900110E0
:10290000D8F7809590958E0F9F1F08950F931F9372
:10291000CF93DF938C01EB018B8181FF1BC082FF82
:102920000DC02E813F818C819D812817390764F469
:10293000E881F9810193F983E88306C0E885F98588
:10294000802F0995892B31F48E819F8101969F8379
:102950008E8302C00FEF1FEFC801DF91CF911F914F
:102960000F910895FA01AA27283051F1203181F101
:10297000E8946F936E7F6E5F7F4F8F4F9F4FAF4F87
:10298000B1E03ED0B4E03CD0670F781F891F9A1F9A
:10299000A11D680F791F8A1F911DA11D6A0F711D4E
:1029A000811D911DA11D20D009F468943F912AE05A
:1029B000269F11243019305D3193DEF6CF01089542
:1029C000462F4770405D4193B3E00FD0C9F7F6CF73
:1029D000462F4F70405D4A3318F0495D31FD40523B
:1029E000419302D0A9F7EACFB4E0A69597958795D1
:1029F00077956795BA95C9F70097610571050895B0
:102A00009B01AC010A2E069457954795379527955B
:102A1000BA95C9F7620F731F841F951FA01D0895F3
:102A20002F923F924F925F926F927F928F929F92DE
:102A3000AF92BF92CF92DF92EF92FF920F931F93CC
:102A4000CF93DF93CDB7DEB7CA1BDB0B0FB6F8947D
:102A5000DEBF0FBECDBF09942A88398848885F84BD
:102A60006E847D848C849B84AA84B984C884DF802E
:102A7000EE80FD800C811B81AA81B981CE0FD11D12
:102A80000FB6F894DEBF0FBECDBFED010895F894E8
:022A9000FFCF76
:102A9200727463206F6666736574206E6F773A2076
:102AA20025640D0A00000303060104060205000363
:102AB200050000A3028A023002C2014A01E600F0C8
:102AC200002C019001EA013A028A02A3020000FAF4
:102AD200055406A40608075807B207C60780071C54
:102AE20007A4064006FA05040600445354004E4F5C
:102AF200573A2020253032643A253032643A253064
:102B0200326420257320253032642E253032642E23
:102B120025346420555443252B642025730D0A0067
:102B2200780053756E3A20252525642025303264BD
:102B32003A25303264202D20253032643A25303255
:102B4200640D0A0020253032643A253032643A2579
:102B520030326420257320253032642E25303264D1
:102B62002E25346420555443252B64202573000DF3
:102B72000A0D0A0D0A0D0A0D0A0D0A0D0A576F7287
:102B820064436C6F636B2056302E3120696E69741A
:102B920069616C697A696E672E2E2E0D0A0D0A0024
:102BA2000D0A52657365742D43617573653A005061
:102BB2006F7765722D4F6E2052657365740D0A0032
:102BC20045787465726E616C2052657365740D0A86
:102BD2000042726F776E2D4F757420526573657463
:102BE2000D0A005761746368646F672052657365EC
:102BF200740D0A004A5441472052657365740D0AE8
:102C020000756E6B6E6F776E0D0A000D0A2E2E2EFA
:102C120020737769746368206F6E20525443000DED
:102C22000A2E2E2E2057445420656E61626C650078
:102C32000D0A2E2E2E2050574D000D0A2E2E2E201C
:102C420053686966746572000D0A2E2E2E204C445C
:102C52005220414443000D0A2E2E2E20525443008E
:102C6200204641494C4544202121210D0A00202EB5
:102C72002E2E20525443206572726F722121210D33
:102C82000A000D0A2E2E2E204C454420436865630F
:102C92006B000D0A2E2E2E20524742204368656398
:102CA2006B002564000D0A2E2E2E20427269676881
:102CB200746E6573733A000D0A2E2E2E205247420F
:102CC20020636F6C6F723A202325303278253032C0
:102CD2007825303278000D0A2E2E2E2052474220BF
:102CE2004175746F000D0A52656164792E2E2E0DA6
:102CF2000A000D0A50617274792D4D6F64652E2E93
:102D02002E0D0A000D0A4C696768742D4D6F6465BB
:102D12002E2E2E0D0A000D0A5265626F6F74696EB7
:102D22006720766961205761746368646F672E2E2D
:102D32002E0D0A00696E61637469766500616374C1
:102D4200697665006272696768746E657373206381
:102D52006F6E74726F6C2069732025730D0A007A8E
:102D6200206D61636874206B65696E656E2073699E
:102D72006E6E206D697420272563272E2E2E0D0A74
:102D82000068206D61636874206B65696E656E20F2
:102D920073696E6E206D697420272563272E2E2E8F
:102DA2000D0A006D206D61636874206B65696E6544
:102DB2006E2073696E6E206D697420272563272E3D
:102DC2002E2E0D0A0044206D61636874206B6569C4
:102DD2006E656E2073696E6E206D6974202725639F
:102DE200272E2E2E0D0A004D206D61636874206B14
:102DF20065696E656E2073696E6E206D6974202739
:102E02002563272E2E2E0D0A0059206D61636874EA
:102E1200206B65696E656E2073696E6E206D6974D4
:102E220020272563272E2E2E0D0A0077617320732B
:102E32006F6C6C20696368206D6974202725732785
:102E420020616E66616E67656E3F0D0A00525443E3
:102E5200206572726F720D0A00486F75722B2B0D0E
:102E62000A0074696D65203A20253032643A2530B3
:102E720032643A253032640D0A004D696E2B2B0DF7
:102E82000A00000000000000000000000000000036
:102E92000000000000000000000000000000000030
:102EA2000000000000000000000000000000000020
:102EB2000000000000000000000000000000000010
:102EC2000000000000000000000000000000000000
:102ED20000000000000000000000000000000000F0
:102EE200000000000000000A000C000B000E00129F
:102EF200000F0015000D0013001100140010000A4D
:102F0200000C000B000E0012000F0015000D001344
:0A2F1200001100140010000A000076
:00000001FF
