:100000000C9466000C9483000C9483000C94830081
:100010000C9483000C9483000C9483000C94830054
:100020000C9483000C9483000C9483000C94830044
:100030000C9483000C94D7060C9483000C948300DA
:100040000C9483000C9483000C9483000C94830024
:100050000C9483000000008000000040000000209D
:100060000000001000000008000000040000000272
:10007000000000010000800000004000000020009F
:100080000000180000000C00000002000000010049
:100090000080000000400000002000000010000070
:1000A0000008000000040000000200000001000041
:1000B0008000000040000000200000001000000050
:1000C00008000000040000000200000011241FBE10
:1000D000CFE5D8E0DEBFCDBF13E0A0E6B0E0EEE6AE
:1000E000F7E202C005900D92A238B107D9F713E0EC
:1000F000A2E8B3E001C01D92AC3CB107E1F70E9459
:1001000045080C94B5130C94000080918203882359
:1001100031F411B88CE080B981E08093820380E0F3
:100120000895982FFB0184EA86BF06B607FEFDCF2F
:1001300081B1887F883011F0803161F493B984E80F
:1001400086BF06B607FEFDCF81B1887F883129F0D2
:10015000803419F0808381E0089580E008950E9442
:100160009100089584E986BF06B604FCFDCF08958A
:10017000FB0183B984E886BF06B607FEFDCF81B1D7
:10018000887F883211F480E00895808381E00895AB
:1001900084EC86BF06B607FEFDCF83B1089584E8E0
:1001A00086BF06B607FEFDCF83B108958F929F925A
:1001B000AF92BF92CF92DF92EF92FF920F931F9375
:1001C000DF93CF93CDB7DEB7C456D0400FB6F894C7
:1001D000DEBF0FBECDBFB82E44EA842E34E8932E86
:1001E00024E9A22E8E010F5F1F4F93E7C92E90E0E6
:1001F000D92E80E6E82E80E0F82E86BE06B607FEF1
:10020000FDCF81B1887F883089F0803179F000D0CE
:1002100000D000D0EDB7FEB73196ADB7BEB712969D
:100220001C930E931197F382E2821DC0B3B896BE61
:1002300006B607FEFDCF81B1887F803211F0883588
:1002400011F5A6BE06B604FCFDCF00D000D000D04C
:10025000EDB7FEB73196ADB7BEB712961C930E93AD
:100260001197D382C282848315820E94DD108DB7DC
:100270009EB706960FB6F8949EBF0FBE8DBFC801FD
:100280000E949A06BACFCC59DF4F0FB6F894DEBF62
:100290000FBECDBFCF91DF911F910F91FF90EF90D7
:1002A000DF90CF90BF90AF909F908F900895282FB0
:1002B00022952F709AE0299F900111248F70820F50
:1002C0000895382F8DEC389FC0011124292F2695D1
:1002D0002695269586EF9FEF289F802D1124830F6A
:1002E0002295207F822B0895809185030895FC013B
:1002F00080818F5F80830895FC018081815080839D
:100300000895FC0181818F5F81838D3028F081E029
:10031000818380818F5F80830895FC01818181507A
:100320008183882329F48CE08183808181508083BC
:100330000895FC0132813F5F32838181863059F01C
:10034000873028F4823059F0843039F404C0893081
:1003500011F08B3011F48EE112C08FE110C02081BA
:10036000822F90E083709070892B41F4822F64E695
:100370000E946D10992311F08DE101C08CE183176B
:1003800058F491E0928381818F5F81838D3020F0DA
:10039000918380818F5F80830895FC013281315089
:1003A0003283818190E001978630910571F087302A
:1003B000910534F48230910561F0049741F405C051
:1003C0008930910511F00B9711F48EE112C08FE185
:1003D00010C02081822F90E083709070892B41F4AF
:1003E000822F64E60E946D10992311F08DE101C007
:1003F0008CE1332359F48283818181508183882366
:1004000029F48CE081838081815080830895FC01F0
:1004100083818F5F8383883120F01382CF010E9414
:1004200099010895FC018381882331F487E1838356
:10043000CF010E94CD010895815083830895FC016E
:1004400084818F5F84838C3320F01482CF010E94DB
:1004500007020895FC018481882331F48BE38483AF
:10046000CF010E9412020895815084830895EF9273
:10047000FF920F931F93CF93DF93182FF62EE72E43
:10048000042F80918403882391F1442381F1812FEB
:1004900090E0840F911D813491054CF580ED0E9410
:1004A000D600812F65E873E00E94B8008823D9F454
:1004B00081ED65E873E00E94AF008823A1F4CF2DA1
:1004C000DE2D102F7E0105C00E94C800F701819328
:1004D0007F011150C9F70E94CF000150C00FD11DFC
:1004E000888311E001C010E00E94B20001C010E05A
:1004F000812FDF91CF911F910F91FF90EF90089581
:100500007F928F929F92AF92BF92CF92DF92EF92A3
:10051000FF920F931F93DF93CF93CDB7DEB727974B
:100520000FB6F894DEBF0FBECDBF6C01E62E8091F2
:100530008403882311F47724B2C180E0BE016F5F89
:100540007F4F47E00E943702882311F4772474C05C
:100550004F81842F82958F703AE0839FC0011124D0
:100560004F70480FD6014C932E81822F82958F7049
:10057000839FC0011124122F1F70180F11961C9316
:1005800011972D81822F82958F70839FC001112436
:10059000022F0F70080F12960C9312972B81822F47
:1005A00082958F70839FC00111242F70280F13969E
:1005B0002C9313972A81822F82958F70839FC0017D
:1005C00011242F70280F14962C9314972981822FB1
:1005D00082958F70839FC00111242F70280F15966C
:1005E0002C93E12FF0E0E656FF4FE081242F30E01E
:1005F00046954695C901840F911D67E070E00E9401
:100600008D10482F23703070232B19F4133008F409
:100610004A5F802F67E00E946D10892F90E0069658
:100620008E0F911D840F911D67E070E00E948D1068
:10063000F601868377247394EE2009F430C1D60145
:100640001196EC918E2F90E0FC01EE0FFF1FDF0161
:10065000A955BF4F0D911C91EF53FF4FE080F180E2
:100660005C010894A11CB11CF601228130E0AA0CA7
:10067000BB1CF501E955FF4F80819181801B910BD7
:10068000AC01429FC001439F900D529F900D1124D9
:100690006FE170E00E948D104B01800E911E81EC85
:1006A00090E0A80EB91ED5018D919C918E199F09DD
:1006B000FC01E29FC001E39F900DF29F900D112479
:1006C0006FE170E00E948D10FB01EE0DFF1DC40173
:1006D00064E670E00E948D10D60119966C93CF01EC
:1006E00064E670E00E948D10D6011B966C93C401E5
:1006F00064E670E00E948D102CE330E0AC01429F74
:10070000C001439F900D529F900D112464E670E04C
:100710000E948D10D6011A966C93CF0164E670E0AA
:100720000E948D10AC01429FC001439F900D529FCB
:10073000900D112464E670E00E948D10D6011C9685
:100740006C931C9714968C9124E6829FC00111240F
:100750006CE370E00E948D10D60113968C91139774
:10076000829FC0011124680F791F681579052CF448
:1007700018961C9200E010E03FC0C4018C599F4FB6
:10078000681779071CF4681979090FC06E177F077D
:1007900024F4D60118962C93EDCFCF018C599F4F9E
:1007A000681779072CF46E1B7F0BF6016087E2CF88
:1007B000D601DECF12166CF4C6010E940702F601C4
:1007C00081858F5F818783858F5F83870F5F1F4F51
:1007D00013C0C6010E941202D60119968C91199776
:1007E000815019968C9319971B968C911B97815069
:1007F0001B968C930150104020918303822F9927E0
:1008000087FD909508171907A9F6F6012181822F17
:1008100083508830C8F4822F84508630B8F0D601D7
:1008200016963C91169712968C91129790E0831B26
:100830009109499704F1332321F413968C91833065
:10084000D0F02A3019F4F601178229C0D601199682
:100850008C9119978F5F19968C9319971B968C9191
:100860001B978F5F1B968C93C6010E94070281E045
:10087000F601878314C0233021F4D60117961C9209
:100880000EC0F60181858F5F818783858F5F8387A7
:10089000C6010E94070281E0D60117968C93872D2E
:1008A00027960FB6F894DEBF0FBECDBFCF91DF9174
:1008B0001F910F91FF90EF90DF90CF90BF90AF907E
:1008C0009F908F907F900895805F41E00E94370253
:1008D0000895EF92FF920F931F93CF93DF93082F0A
:1008E000F62EE72E142F80918403882341F14423B0
:1008F00031F1802F90E0840F911D81349105FCF43B
:1009000080ED0E94D600802F65E873E00E94B80059
:10091000882389F48F2D9E2D9C01E901888165E84B
:1009200073E00E94B8001150882329F42196112306
:10093000A9F711E001C010E00E94B20001C010E070
:10094000812FDF91CF911F910F91FF90EF9008952C
:10095000EF92FF920F931F93DF93CF9300D0CDB709
:10096000DEB78C017B018FEFFB0180830E94850045
:10097000F80180838823C9F481E08093840380E8B0
:1009800080938603809186038A8387E0BE016E5F31
:100990007F4F41E00E946904882311F583E0F8014C
:1009A000808380918503F701808380E010C0898176
:1009B00087FF07C08F77898380E0B80141E00E94FC
:1009C000690481E063E873E00E94640481E00F90B1
:1009D0000F90CF91DF911F910F91FF90EF900895AD
:1009E00080E08E010F5F1F4FB80141E00E94370287
:1009F0008823E9F6E6CFDF93CF93CDB7DEB727970D
:100A00000FB6F894DEBF0FBECDBFFC01809184030A
:100A1000882309F477C065814DEC649FC0011124DF
:100A200096959695969526EF3FEF929F802D1124EF
:100A3000860F9295907F892B89836481649FC00182
:100A40001124969596959695929F802D1124860F48
:100A50009295907F892B8A836381649FC0011124C2
:100A6000969596959695929F802D1124860F929536
:100A7000907F892B8B836681649FC001112496959A
:100A800096959695929F802D1124860F9295907F32
:100A9000892B8F5F8C836281649FC001112496959E
:100AA00096959695929F802D1124860F9295907F12
:100AB000892B8D836181649FC00111249695969541
:100AC0009695929F802D1124860F9295907F892B69
:100AD0008E839081949FA0011124852F8695869501
:100AE0008695829F202D1124290F8295807F282BA7
:100AF0002F8380E0BE016F5F7F4F47E00E94690453
:100B0000811181E027960FB6F894DEBF0FBECDBFEE
:100B1000CF91DF910895DF93CF930F92CDB7DEB7DA
:100B20006983805FBE016F5F7F4F41E00E9469046F
:100B30000F90CF91DF9108950F931F93DF93CF9381
:100B4000CDB7DEB7C456D0400FB6F894DEBF0FBEA7
:100B5000CDBF682F282F30E080918303992787FD30
:100B600090952817390761F16093830381E00E9413
:100B70008B0500D000D000D0EDB7FEB731968E01C6
:100B80000F5F1F4FADB7BEB712961C930E93119710
:100B900086E890E09383828380918303992787FD81
:100BA0009095958384830E94DD108DB79EB706963D
:100BB0000FB6F8949EBF0FBE8DBFC8010E949A0663
:100BC000CC59DF4F0FB6F894DEBF0FBECDBFCF912B
:100BD000DF911F910F910895DF93CF930F92CDB7BF
:100BE000DEB780E687B985E886B9369A3699FECFB2
:100BF00085B1898320E030E08981F901E857FC4F15
:100C000080832F5F3F4F20343105B1F7898190E019
:100C10009093C9038093C8038091C8039091C9033E
:100C200026E0880F991F2A95E1F79093C9038093D6
:100C3000C803369A0F90CF91DF9108958091C80331
:100C40009091C90336E0969587953A95E1F780959E
:100C50000895369922C045B18091C8039091C90387
:100C600030918703E32FF0E0E857FC4F2081821B8F
:100C700091099093C9038093C80340838091C8036E
:100C80009091C903840F911D9093C9038093C80369
:100C90003F5F3F7330938703369A08958CEF81BB93
:100CA00081EA8FBD81E08EBD81E685BD8DE783BF82
:100CB00089B7837C89BF08958ABD982F909598BD88
:100CC0008CBF83BD0895FF920F931F93082F10E0F0
:100CD00070E0609FC001619F900D709F900D112486
:100CE0006FEF70E00E947910F62EE42FF0E0E09FA5
:100CF000C001E19F900DF09F900D11246FEF70E007
:100D00000E947910462F30E0209FC001219F900D56
:100D1000309F900D11246FEF70E00E947910F8BCA5
:100D20004ABD63BD1F910F91FF9008955D9BFECF5B
:100D30008CB90895FC0104C05D9BFECF8CB931963F
:100D400080818823C9F708959B01AC01852F9927DD
:100D5000AA27BB278FB9779BFECFCA01AA27BB273B
:100D60008FB9779BFECFBB27A52F942F832F8FB9E9
:100D7000779BFECF2FB9779BFECFC498C49A089576
:100D800087B3806B87BBBE9888B3806588BB8BE5D3
:100D90008DB9709A6FEF7FEF8FEF9FEF0E94A406DF
:100DA0006FEF7FEF8FEF9FEF0E94A40608951F92D1
:100DB0000F920FB60F9211248F939F93EF93FF938F
:100DC0009CB18091CA038823F9F49A3091F09D3048
:100DD00081F08091CB03833660F4E091CB03F0E0A7
:100DE000E651FD4F90838091CB038F5F8093CB03BF
:100DF0000BC0E091CB03F0E0E651FD4F1082109262
:100E0000CB0381E08093CA03FF91EF919F918F9173
:100E10000F900FBE0F901F901895982F80538A3017
:100E200028F4292F30E02053304014C0892F8154FA
:100E3000863028F4292F30E0275330400BC0892F0B
:100E40008156863018F02FEF3FEF04C0292F30E095
:100E500027553040C9010895FC019081892F8053A6
:100E60008A3028F4292F30E02053304014C0892FD5
:100E70008154863028F4292F30E0275330400BC0AE
:100E8000892F8156863018F02FEF3FEF04C0292FAD
:100E900030E0275530409181892F80538A3020F4EB
:100EA000892F90E0C09713C0892F8154863020F499
:100EB000892F90E0C7970BC0892F8156863018F094
:100EC0008FEF9FEF04C0892F90E08755904037FD4A
:100ED0000AC097FD08C074E0220F331F7A95E1F72E
:100EE000280F391F02C02FEF3FEFC90108956F92FD
:100EF0007F928F929F92AF92BF92CF92DF92EF92AA
:100F0000FF920F931F93DF93CF93CDB7DEB7C157F7
:100F1000D0400FB6F894DEBF0FBECDBFFE01EB5937
:100F2000FF4FBC2CC082CD2CD182DE2CE282EF2C74
:100F3000F382F02E0483B12F15832683132F37837A
:100F40004087352F5187262F6287972F7387848795
:100F50005B2FA42E49013C0140918303112319F416
:100F60002BED30E002C02CED30E08DB79EB74697F8
:100F70000FB6F8949EBF0FBE8DBFEDB7FEB731968A
:100F80008E010F5F1F4FADB7BEB712961C930E9325
:100F9000119780EE90E093838283E4821582F6823B
:100FA00017825087118684E191E093878287D486E7
:100FB0001586C68617868B2D90E08053984F918BAF
:100FC000808B842F992787FD9095938B828B358B0F
:100FD000248B0E94DD10F8018DB79EB746960FB6A0
:100FE000F8949EBF0FBE8DBF04C05D9BFECF8CB931
:100FF000319680818823C9F7ADB7BEB71E970FB66B
:10100000F894BEBF0FBEADBFEDB7FEB73196CE01AF
:10101000019612969C938E93119786E191E09383AB
:101020008283A482158296821782808611867286B8
:101030001386648615860E94DD10EDB7FEB73E96D6
:101040000FB6F894FEBF0FBEEDBF05C05D9BFECF8F
:101050008CB90F5F1F4FD8018C918823B9F7CF58F7
:10106000DF4F0FB6F894DEBF0FBECDBFCF91DF913B
:101070001F910F91FF90EF90DF90CF90BF90AF90B6
:101080009F908F907F906F9008952F923F924F92F4
:101090005F926F927F928F929F92AF92BF92CF9208
:1010A000DF92EF92FF920F931F93DF93CF93CDB711
:1010B000DEB7C55DD0400FB6F894DEBF0FBECDBF22
:1010C000F8948AB188698AB980B5866880BD10BCF9
:1010D00088E089B9E8E3F1E004C05D9BFECF8CB9FC
:1010E000319680818823C9F7E9E5F1E004C05D9B72
:1010F000FECF8CB9319680818823C9F78CEF81BBF4
:1011000081EA8FBD81E08EBD81E685BD8DE783BF1D
:1011100089B7837C89BF8FEF6FEF40E020E00E94AA
:101120006306E3E6F1E004C05D9BFECF8CB9319627
:1011300080818823C9F70E94C0068FEF6FEF4FEFC1
:1011400020E00E946306E1E7F1E004C05D9BFECF72
:101150008CB9319680818823C9F70E94EC058FEF06
:1011600060E04FEF2FEF0E946306EFE7F1E004C06D
:101170005D9BFECF8CB9319680818823C9F7CE0163
:101180000196BE016E5F7F4F0E94A804882379F507
:10119000E9E8F1E004C05D9BFECF8CB93196808117
:1011A0008823C9F700E010E080E9E82E81E0F82EFE
:1011B0008FEF60E040E020E00E94630688EC90E062
:1011C000F7013197F1F70197D9F78FEF6FEF4FEFF5
:1011D0002FEF0E94630688EC90E0F7013197F1F75A
:1011E0000197D9F70F5F1F4F0A30110509F78FEFED
:1011F0006FEF4FEF2FEF0E9463067894E7E9F1E07D
:1012000004C05D9BFECF8CB9319680818823C9F7DD
:1012100081E08B8382E0BE016D5F7F4F0E9464049A
:10122000CC53DF4F19821882C45CD040CE53DF4FBD
:1012300019821882C25CD040C054DF4F19821882D4
:10124000C05CD04021E030E0C254DF4F39832883B6
:10125000CE5BD040C654DF4F188219821A821B829F
:10126000CA5BD04022243324C854DF4F198218822D
:10127000C85BD0404AEA5AEA6AEA7AEACC54DF4FBD
:10128000488359836A837B83C45BD04024E530E084
:10129000F90145915591659174912C5F3F4FF9018A
:1012A0004590559065907490ECEAF0E085919591A9
:1012B000A591B491442A552A662A772A482A592AA0
:1012C0006A2A7B2AECE5F0E065917591859194910D
:1012D000CA53DF4F688379838A839B83C65CD0407F
:1012E000E4E7F0E085919591A591B491CA53DF4F61
:1012F000488159816A817B81C65CD040482B592B3B
:101300006A2B7B2BCA53DF4F488359836A837B83C5
:10131000C65CD040E0E6F0E045915591659174914E
:10132000482B592B6A2B7B2BC653DF4F488359839D
:101330006A837B83CA5CD040E4E6F0E065917591F6
:1013400085919491C253DF4F688379838A839B830D
:10135000CE5CD040E0E7F0E085919591A591B49105
:10136000C253DF4F288139814A815B81CE5CD040F6
:10137000282B392B4A2B5B2BC253DF4F2883398311
:101380004A835B83CE5CD040E4EBF0E0459155911D
:10139000659174914429552966297729CE52DF4FEA
:1013A000488359836A837B83C25DD04010C0C65492
:1013B000DF4F88809980AA80BB80CA5BD040C6542A
:1013C000DF4F88829982AA82BB82CA5BD04080E4C8
:1013D0009CE90197F1F70894211C311C0E94290611
:1013E0008B81882319F4BB24BA9409C00E941E067D
:1013F000B82E5FE3581718F0B69460E2B60E8B2D46
:10140000CC53DF4F6881C45CD040CE53DF4F48815E
:10141000C25CD040C054DF4F2881C05CD0400E94E5
:101420006306C1016AE070E00E948D10892B09F00B
:10143000BECF8091CA03882309F442C38091EA0297
:10144000823659F18336B0F4843409F40FC28534FE
:1014500050F48D3209F4D3C18F3309F416C38B32A3
:1014600009F0DFC2C1C18D3409F449C2893509F0E0
:10147000D8C28EC28D3609F4B0C18E3638F48336A8
:1014800009F4BDC0883609F0CCC25BC1843709F4C9
:10149000EAC08A3709F0C5C209C18091EB028B32DC
:1014A00021F08D3209F070C038C081E08B8382E07A
:1014B00061E00E948B058B81882319F424EA31E0D6
:1014C00002C02DEA31E000D000D000D0EDB7FEB769
:1014D00031968E01005B1F4FADB7BEB712961C93BD
:1014E0000E93119784EB91E0938382833583248359
:1014F0000E94DD10F8012DB73EB72A5F3F4F0FB6AF
:10150000F8943EBF0FBE2DBF04C05D9BFECF8CB9CB
:10151000319680818823C9F7B8C21B8282E060E0DF
:101520000E948B058B81882319F424EA31E002C0E4
:101530002DEA31E000D000D000D0EDB7FEB73196F3
:101540008E01005B1F4FADB7BEB712961C930E9372
:10155000119784EB91E093838283358324830E94E7
:10156000DD10F8012DB73EB72A5F3F4F0FB6F89454
:101570003EBF0FBE2DBF04C05D9BFECF8CB9319620
:1015800080818823C9F781C260E08B81882309F4B8
:1015900061E06B8382E00E948B058B81882319F4C4
:1015A00024EA31E002C02DEA31E000D000D000D0C2
:1015B000EDB7FEB731968E01005B1F4FADB7BEB7DA
:1015C00012961C930E93119784EB91E09383828380
:1015D000358324830E94DD10F8012DB73EB72A5FC2
:1015E0003F4F0FB6F8943EBF0FBE2DBF04C05D9BAA
:1015F000FECF8CB9319680818823C9F746C28BEE25
:1016000092E00E942C076C018DEE92E00E942C0764
:101610007C018FEE92E00E942C078C01D7FC2DC23A
:10162000F7FC2BC297FD29C28B2D6C2D4E2D202F40
:101630000E946306CC53DF4FD982C882C45CD0407D
:10164000CE53DF4FF982E882C25CD040C054DF4FF6
:1016500019830883C05CD040C254DF4F19821882BE
:10166000CE5BD04012C2CC54DF4F488159816A8191
:101670007B81C45BD040411551056105710569F45A
:101680006AEA7AEA8AEA9AEACC54DF4F6883798375
:101690008A839B83C45BD040F8C1CC54DF4F18824F
:1016A00019821A821B82C45BD040EFC18091EB0289
:1016B0008B3219F08D32C9F40BC0809183038C30CA
:1016C0001CF083EF80938303809183038F5F0AC0B4
:1016D000809183038B301CF48DE080938303809191
:1016E000830381500E949C05D0C12091EB0200D061
:1016F00000D000D0EDB7FEB731968E01005B1F4FD2
:10170000ADB7BEB712961C930E9311978FEC91E074
:1017100093838283248315820E94DD10F8012DB704
:101720003EB72A5F3F4F0FB6F8943EBF0FBE2DBFA6
:1017300004C05D9BFECF8CB9319680818823C9F7A8
:10174000A4C18091EB028B3219F08D32D1F40BC021
:101750008E010C5F1F4FC80160E00E948002C8012B
:101760000E9407020AC08E010C5F1F4FC80160E093
:101770000E948002C8010E941202C8010E94FB045C
:1017800084C12091EB0200D000D000D0EDB7FEB7AD
:1017900031968E01005B1F4FADB7BEB712961C93FA
:1017A0000E93119781EF91E09383828324831582B6
:1017B0000E94DD10F8012DB73EB72A5F3F4F0FB6EC
:1017C000F8943EBF0FBE2DBF04C05D9BFECF8CB909
:1017D000319680818823C9F758C18091EB028B3202
:1017E00019F08D32B9F40BC08E010C5F1F4FC80188
:1017F00060E00E948002C8010E941F02BECF8E01DD
:101800000C5F1F4FC80160E00E948002C8010E9467
:101810002A02B3CF2091EB0200D000D000D0EDB768
:10182000FEB731968E01005B1F4FADB7BEB7129663
:101830001C930E93119783E192E093838283248318
:1018400015820E94DD10F8012DB73EB72A5F3F4F89
:101850000FB6F8943EBF0FBE2DBF04C05D9BFECFF8
:101860008CB9319680818823C9F70FC18091EB0232
:101870008B3219F08D32B9F40BC08E010C5F1F4F03
:10188000C80160E00E948002C8010E94990175CFE2
:101890008E010C5F1F4FC80160E00E948002C801EA
:1018A0000E94CD016ACF2091EB0200D000D000D081
:1018B000EDB7FEB731968E01005B1F4FADB7BEB7D7
:1018C00012961C930E93119785E392E09383828383
:1018D000248315820E94DD10F8012DB73EB72A5FE0
:1018E0003F4F0FB6F8943EBF0FBE2DBF04C05D9BA7
:1018F000FECF8CB9319680818823C9F7C6C080910C
:10190000EB028B3219F08D32B9F40BC08E010C5FF3
:101910001F4FC80160E00E948002C8010E9481013F
:101920002CCF8E010C5F1F4FC80160E00E94800227
:10193000C8010E948D0121CF2091EB0200D000D080
:1019400000D0EDB7FEB731968E01005B1F4FADB7EB
:10195000BEB712961C930E93119787E592E093837E
:101960008283248315820E94DD10F8012DB73EB7D3
:101970002A5F3F4F0FB6F8943EBF0FBE2DBF04C085
:101980005D9BFECF8CB9319680818823C9F77DC0DD
:101990008091EB028B3219F08D32B9F40BC08E01BD
:1019A0000C5F1F4FC80160E00E948002C8010E94C6
:1019B0007701E3CE8E010C5F1F4FC80160E00E94EB
:1019C0008002C8010E947C01D8CE2091EB0200D099
:1019D00000D000D0EDB7FEB731968E01005B1F4FEF
:1019E000ADB7BEB712961C930E93119789E792E09C
:1019F00093838283248315820E94DD10F8012DB722
:101A00003EB72A5F3F4F0FB6F8943EBF0FBE2DBFC3
:101A100004C05D9BFECF8CB9319680818823C9F7C5
:101A200034C000D000D000D0EDB7FEB731968E01A3
:101A3000005B1F4FADB7BEB712961C930E93119764
:101A40008BE992E0938382838AEE92E0958384838C
:101A50000E94DD10F8012DB73EB72A5F3F4F0FB649
:101A6000F8943EBF0FBE2DBF04C05D9BFECF8CB966
:101A7000319680818823C9F708C041E050E0C25404
:101A8000DF4F59834883CE5BD040CE01049661E09E
:101A90000E948002CE01419660E00E948002CC80CC
:101AA000DD80EE80FF80088519852A853B854C8581
:101AB0005D856E857F8588890E9477071092CA03AD
:101AC000CF9B07C0C854DF4F19821882C85BD04033
:101AD0000EC0C854DF4F68817981C85BD0406F5F0A
:101AE0007F4FC854DF4F79836883C85BD04089B388
:101AF000C854DF4F88819981C85BD04082309105FE
:101B000008F45DC00A966CE070E00E947910892BA1
:101B100049F0C854DF4FA881B981C85BD040959780
:101B200008F44DC0EDEBF2E004C05D9BFECF8CB934
:101B3000319680818823C9F78E010C5F1F4FC80141
:101B400060E00E948002C8010E940702C8010E9452
:101B5000FB042DB73EB72A5030400FB6F8943EBF75
:101B60000FBE2DBFEDB7FEB731968E01005B1F4F44
:101B7000ADB7BEB712961C930E93119786EC92E008
:101B8000938382838F8184831582888586831782DD
:101B90008985808711860E94DD10F8012DB73EB738
:101BA000265F3F4F0FB6F8943EBF0FBE2DBF04C057
:101BB0005D9BFECF8CB9319680818823C9F7C10126
:101BC00064E670E00E948D10892B09F0F0CBCE0105
:101BD000049661E00E948002182FCE01419660E0D9
:101BE0000E948002082F8B2DCC53DF4F6881C45C8C
:101BF000D040CE53DF4F4881C25CD040C054DF4F4D
:101C00002881C05CD0400E946306112311F000239C
:101C100081F5EEEDF2E004C05D9BFECF8CB931960C
:101C200080818823C9F72224332400E911E081E070
:101C300061E041E021E00E94630684EF91E0F80159
:101C40003197F1F70197D9F78FEF6FEF4FEF2FEF44
:101C50000E94630684EF91E0F8013197F1F7019754
:101C6000D9F70894211C311C38E223163104F9F607
:101C70009ECB2885822F65E00E946D10923099F0EE
:101C8000933018F4913029F407C09330A9F09430C0
:101C9000D1F06301520121C0E0EBF0E0A590B590D6
:101CA000C590D49016C0CE52DF4FA880B980CA80AC
:101CB000DB80C25DD04011C0E8EBF0E0A590B590AC
:101CC000C590D49006C0ECEBF0E0A590B590C5901F
:101CD000D490A428B528C628D728253008F4C4C035
:101CE0002A3068F4ECE5F0E085919591A591B491E6
:101CF000E0E7F0E025913591459154911DC02F30DA
:101D000068F4E0E6F0E085919591A591B491E0E763
:101D1000F0E025913591459154910EC02431A8F4FD
:101D2000ECE6F0E085919591A591B491E0E7F0E0C3
:101D30002591359145915491822B932BA42BB52B52
:101D4000A82AB92ACA2ADB2A8FC0293168F4C253CB
:101D5000DF4F488159816A817B81CE5CD040A42AC3
:101D6000B52AC62AD72A80C02E3198F4ECE5F0E0D7
:101D700085919591A591B491E4E7F0E02591359195
:101D800045915491E8E7F0E0E590F59005911491C4
:101D90001DC0233238F4E8E7F0E085919591A591D4
:101DA000B4915CC02832F8F4ECE5F0E085919591AF
:101DB000A591B491E0E7F0E02591359145915491DA
:101DC000E8E7F0E0E590F59005911491822B932BD4
:101DD000A42BB52BA82AB92ACA2ADB2AAE28BF28E9
:101DE000C02AD12A3FC02D3268F4E4E6F0E08591A4
:101DF0009591A591B491E4E7F0E025913591459155
:101E000054910EC0223388F4ECE6F0E08591959170
:101E1000A591B491E4E7F0E0259135914591549175
:101E2000822B932BA42BB52B19C0273368F4C653F0
:101E3000DF4F688179818A819B81CA5CD040A62A64
:101E4000B72AC82AD92A0EC02C3370F4CA53DF4FE0
:101E500088819981AA81BB81C65CD040A82AB92A11
:101E6000CA2ADB2A81E001C080E0DE015E96EFE451
:101E7000F3E092E301900D929150E1F7EF81F0E0F1
:101E8000E80FF11DEE0FFF1FEC0FFD1F068CF78D05
:101E9000E02DEE0FFF1FEE0FFF1FEC5AFF4F659175
:101EA000759185919491CC54DF4F288139814A8175
:101EB0005B81C45BD0402115310541055105C9F056
:101EC0002095309540955095CC54DF4F2883398329
:101ED0004A835B83C45BD040CA01B9010E94A40657
:101EE000C654DF4F88809980AA80BB80CA5BD040EF
:101EF00017C045015601862A972AA82AB92AC6542E
:101F0000DF4F488159816A817B81CA5BD040481587
:101F100059056A057B0521F0C501B4010E94A4069C
:101F20008985882379F4CC80DD80EE80FF80088568
:101F300010E02A853B854C855D856E857F85888987
:101F40000E947707C254DF4F68817981CE5BD04011
:101F5000672B09F498C09C859923B9F481E090E03F
:101F6000CC53DF4F99838883C45CD040CE53DF4F7E
:101F700099838883C25CD040A3E3B0E0C054DF4FB4
:101F8000B983A883C05CD0407EC09436B8F02FEFF0
:101F900030E0CC53DF4F39832883C45CD040CE532C
:101FA000DF4F39832883C25CD04040EC50E0C054FE
:101FB000DF4F59834883C05CD04065C0923308F539
:101FC0008EEF989FC001112462E370E00E948D1093
:101FD0006F5F7F4FCC53DF4F79836883C45CD04001
:101FE00061E070E0CE53DF4F79836883C25CD040FC
:101FF00083E390E0C054DF4F99838883C05CD04076
:1020000042C0923309F43FC0E92EFF24AEECBFEF8B
:10201000EA0EFB1E0027F7FC0095102FC801B70140
:102020002CEC30E040E050E00E944E1022E330E023
:1020300040E050E00E94A010B9016D5C7F4FCE538C
:10204000DF4F79836883C25CD040C801B7012CEAB6
:1020500030E040E050E00E944E1022E330E040E0EB
:1020600050E00E94A010C901C396C054DF4F99836D
:102070008883C05CD040AFEFB0E0CC53DF4FB98372
:10208000A883C45CD040C10168EE73E00E948D104B
:10209000892B09F494C92224332491C9629FD00169
:1020A000739FF001829FE00DF11D649FE00DF11D13
:1020B000929FF00D839FF00D749FF00D659FF00DC2
:1020C0009927729FB00DE11DF91F639FB00DE11DAF
:1020D000F91FBD01CF0111240895991B79E004C0B7
:1020E000991F961708F0961B881F7A95C9F7809557
:1020F0000895AA1BBB1B51E107C0AA1FBB1FA6174F
:10210000B70710F0A61BB70B881F991F5A95A9F7A0
:1021100080959095BC01CD01089597FB092E072667
:102120000AD077FD04D0E5DF06D000201AF47095C0
:1021300061957F4F0895F6F7909581959F4F08958B
:1021400097FB092E05260ED057FD04D014D00AD0D7
:10215000001C38F450954095309521953F4F4F4FD6
:102160005F4F0895F6F790958095709561957F4F34
:102170008F4F9F4F0895A1E21A2EAA1BBB1BFD0192
:102180000DC0AA1FBB1FEE1FFF1FA217B307E40756
:10219000F50720F0A21BB30BE40BF50B661F771FAE
:1021A000881F991F1A9469F760957095809590958E
:1021B0009B01AC01BD01CF010895AEE0B0E0E3EEBC
:1021C000F0E10C948C130D891E8986E08C831A83B0
:1021D00009838FEF9FE79E838D839E01275E3F4F8C
:1021E000CE0101966F89788DA9010E9401112F817E
:1021F0003885020F131FF80110822E96E4E00C942C
:10220000A813ABE0B0E0E7E0F1E10C947E133C01F1
:102210002B015A01FC0117821682838181FD03C0C4
:102220006FEF7FEFC6C19AE0892E1E010894211C32
:10223000311CF3012381F20123FD859123FF81915C
:102240002F01882309F4B2C1853239F423FD859129
:1022500023FF81912F01853229F490E0B3010E9480
:10226000F412E7CF982FFF24EE249924FFE1FF1505
:10227000D0F09B3269F09C3228F4903259F09332BE
:1022800091F40EC09D3249F0903369F441E024C0CE
:1022900052E0F52A84E0F82A28C098E0F92A25C0FF
:1022A000E0E1FE2A22C0F7FC29C0892F80538A3042
:1022B00070F4F6FE05C0989C902C1124980E15C061
:1022C000E89CE02C1124E80EF0E2FF2A0EC09E32BA
:1022D00029F4F6FC6BC140E4F42A07C09C3619F4DB
:1022E00050E8F52A02C0983649F4F20123FD959191
:1022F00023FF91912F01992309F0B8CF892F85549D
:10230000833018F08052833038F444E050E0A40E5B
:10231000B51E5FE359830FC0933631F0933779F0E0
:10232000933509F056C020C0F5018081898342E0D1
:1023300050E0A40EB51E610101E010E012C0F501ED
:10234000C080D180F6FC03C06FEF7FEF02C0692D23
:1023500070E042E050E0A40EB51EC6010E94E912F2
:102360008C015FE7F52214C0F501C080D180F6FC36
:1023700003C06FEF7FEF02C0692D70E042E050E0D4
:10238000A40EB51EC6010E94DE128C0150E8F52A8B
:10239000F3FE07C01AC080E290E0B3010E94F4127D
:1023A000EA948E2D90E008171907A8F30EC0F601E5
:1023B000F7FC8591F7FE81916F0190E0B3010E94D7
:1023C000F412E110EA94015010400115110579F75B
:1023D000EAC0943611F0993669F5F7FE08C0F501A8
:1023E000208131814281538184E090E00AC0F5016F
:1023F000808191819C01442737FD4095542F82E0D4
:1024000090E0A80EB91E9FE6F92257FF09C050952B
:102410004095309521953F4F4F4F5F4FE0E8FE2AA2
:10242000CA01B901A1012AE030E00E942013D82E90
:10243000D21840C0953729F41F2D1F7E2AE030E0C6
:102440001DC01F2D197F9F3661F0903720F49835FD
:1024500009F0ACC00FC0903739F0983709F0A6C02A
:1024600004C028E030E00AC0106114FD146020E1CF
:1024700030E004C014FD166020E132E017FF08C010
:10248000F501608171818281938144E050E008C050
:10249000F50180819181BC0180E090E042E050E054
:1024A000A40EB51EA1010E942013D82ED2188FE7CA
:1024B000F82EF122F6FE0BC05EEFF522D91438F4A7
:1024C000F4FE07C0F2FC05C08FEEF82202C01D2DFD
:1024D00001C0192DF4FE0DC0FE01ED0DF11D80812E
:1024E000803319F499EEF92208C01F5FF2FE05C08F
:1024F00003C08F2D867809F01F5F0F2DF3FC14C0E9
:10250000F0FE0FC01E1510F09D2C0BC09D2C9E0CD4
:10251000911A1E2D06C080E290E0B3010E94F412D1
:102520001F5F1E15C0F304C01E1510F4E11A01C090
:10253000EE2404FF0FC080E390E0B3010E94F41288
:1025400002FF1DC001FD03C088E790E00EC088E5D2
:1025500090E00BC0802F867891F001FF02C08BE2E3
:1025600001C080E2F7FC8DE290E0B3010E94F4121A
:1025700006C080E390E0B3010E94F4129A94D9144B
:10258000C0F3DA94F101ED0DF11D808190E0B3010B
:102590000E94F412DD20A9F706C080E290E0B301AA
:1025A0000E94F412EA94EE20C1F743CEF301668153
:1025B0007781CB012B96E2E10C949A13FC010590F4
:1025C000615070400110D8F7809590958E0F9F1F35
:1025D0000895FC016150704001900110D8F780957A
:1025E00090958E0F9F1F08950F931F93CF93DF93A6
:1025F0008C01EB018B8181FF1BC082FF0DC02E81FE
:102600003F818C819D812817390764F4E881F98125
:102610000193F983E88306C0E885F985802F099541
:10262000892B31F48E819F8101969F838E8302C016
:102630000FEF1FEFC801DF91CF911F910F91089508
:10264000FA01AA27283051F1203181F1E8946F93E3
:102650006E7F6E5F7F4F8F4F9F4FAF4FB1E03ED089
:10266000B4E03CD0670F781F891F9A1FA11D680F27
:10267000791F8A1F911DA11D6A0F711D811D911D5A
:10268000A11D20D009F468943F912AE0269F1124CF
:102690003019305D3193DEF6CF010895462F477033
:1026A000405D4193B3E00FD0C9F7F6CF462F4F708E
:1026B000405D4A3318F0495D31FD4052419302D0EC
:1026C000A9F7EACFB4E0A695979587957795679592
:1026D000BA95C9F700976105710508959B01AC0192
:1026E0000A2E06945795479537952795BA95C9F7B9
:1026F000620F731F841F951FA01D08952F923F9294
:102700004F925F926F927F928F929F92AF92BF9201
:10271000CF92DF92EF92FF920F931F93CF93DF93AD
:10272000CDB7DEB7CA1BDB0B0FB6F894DEBF0FBE0A
:10273000CDBF09942A88398848885F846E847D8457
:102740008C849B84AA84B984C884DF80EE80FD8059
:102750000C811B81AA81B981CE0FD11D0FB6F894CF
:0E276000DEBF0FBECDBFED010895F894FFCF90
:10276E006572726F7220636F6E7431203A20256429
:10277E000D0A006572726F7220636F6E7432203AAA
:10278E002025640D0A00727463206F66667365748B
:10279E00206E6F773A2025640D0A000003030601B0
:1027AE0004060205000305A3028A023002C2014A92
:1027BE0001E600F0002C019001EA013A028A02A320
:1027CE0002FA055406A40608075807B207C6078082
:1027DE00071C07A4064006FA0504060044535400DD
:1027EE0074696D65203A2020253032643A253032E6
:1027FE00643A2530326420257320253032642E252C
:10280E003032642E25346420555443252B64202504
:10281E00730D0A00780053756E3A20252525642025
:10282E00253032643A25303264202D202530326432
:10283E003A253032640D0A00576F7264436C6F6331
:10284E006B2056302E3120696E697469616C697A1D
:10285E00696E672E2E2E0D0A000D0A2E2E2E20507A
:10286E00574D000D0A2E2E2E205368696674657220
:10287E00000D0A2E2E2E204C445220414443000DB2
:10288E000A2E2E2E2052544300204641494C4544D8
:10289E00202121210D0A000D0A52656164792E2E28
:1028AE002E0D0A00696E616374697665006163744A
:1028BE00697665006272696768746E65737320630A
:1028CE006F6E74726F6C2069732025730D0A007A17
:1028DE00206D61636874206B65696E656E20736927
:1028EE006E6E206D697420272563272E2E2E0D0AFD
:1028FE000068206D61636874206B65696E656E207B
:10290E0073696E6E206D697420272563272E2E2E17
:10291E000D0A006D206D61636874206B65696E65CC
:10292E006E2073696E6E206D697420272563272EC5
:10293E002E2E0D0A0044206D61636874206B65694C
:10294E006E656E2073696E6E206D69742027256327
:10295E00272E2E2E0D0A004D206D61636874206B9C
:10296E0065696E656E2073696E6E206D69742027C1
:10297E002563272E2E2E0D0A0059206D6163687473
:10298E00206B65696E656E2073696E6E206D69745D
:10299E0020272563272E2E2E0D0A007761732073B4
:1029AE006F6C6C20696368206D697420272573270E
:1029BE0020616E66616E67656E3F0D0A00486F7529
:1029CE00722B2B0D0A0074696D65203A202530326A
:1029DE00643A253032643A253032640D0A0052547E
:1029EE0043206572726F720D0A0000000000000035
:1029FE0000000000000000000000000000000000C9
:102A0E0000000000000000000000000000000000B8
:102A1E0000000000000000000000000000000000A8
:102A2E000000000000000000000000000000000098
:102A3E000000000000000000000000000000000088
:102A4E000000000000000000000000000000000A6E
:102A5E00000C000B000E0012000F0015000D0013ED
:102A6E00001100140010000A000C000B000E0012E2
:102A7E00000F0015000D0013001100140010000AC5
:022A8E00000046
:00000001FF
