:100000000C942A000C9447000C9447000C94470071
:100010000C9447000C9447000C9447000C94470044
:100020000C9447000C9447000C9447000C94470034
:100030000C9447000C9447000C9447000C94470024
:100040000C9447000C9447000C9447000C94470014
:100050000C94470011241FBECFE5D8E0DEBFCDBF12
:1000600011E0A0E6B0E0E4E6F4E102C005900D92F4
:10007000AA34B107D9F711E0AAE4B1E001C01D929A
:10008000A239B107E1F70E9484040C94300A0C9461
:10009000000080914A01882331F411B88CE080B9C6
:1000A00081E080934A0180E00895982FFB0184EA63
:1000B00086BF06B607FEFDCF81B1887F883011F07C
:1000C000803161F493B984E886BF06B607FEFDCFA0
:1000D00081B1887F883129F0803419F0808381E0F4
:1000E000089580E008950E945500089584E986BF30
:1000F00006B604FCFDCF0895FB0183B984E886BFF2
:1001000006B607FEFDCF81B1887F883211F480E00A
:100110000895808381E0089584EC86BF06B607FECB
:10012000FDCF83B1089584E886BF06B607FEFDCFF4
:1001300083B108958F929F92AF92BF92CF92DF9238
:10014000EF92FF920F931F93DF93CF93CDB7DEB75C
:10015000C456D0400FB6F894DEBF0FBECDBFB82E48
:1001600044EA842E34E8932E24E9A22E8E010F5FF8
:100170001F4F93E7C92E90E0D92E80E6E82E80E04D
:10018000F82E86BE06B607FEFDCF81B1887F883087
:1001900089F0803179F000D000D000D0EDB7FEB703
:1001A0003196ADB7BEB712961C930E931197F3829A
:1001B000E2821DC0B3B896BE06B607FEFDCF81B180
:1001C000887F803211F0883511F5A6BE06B604FC92
:1001D000FDCF00D000D000D0EDB7FEB73196ADB75F
:1001E000BEB712961C930E931197D382C28284835A
:1001F00015820E9458078DB79EB706960FB6F894E1
:100200009EBF0FBE8DBFC8010E944D04BACFCC590E
:10021000DF4F0FB6F894DEBF0FBECDBFCF91DF9199
:100220001F910F91FF90EF90DF90CF90BF90AF9014
:100230009F908F900895282F22952F709AE0299FE4
:10024000900111248F70820F0895382F8DEC389F04
:10025000C0011124292F26952695269586EF9FEF1C
:10026000289F802D1124830F2295207F822B0895B3
:1002700080914D010895EF92FF920F931F93CF93BA
:10028000DF93182FF62EE72E042F80914C01882340
:1002900091F1442381F1812F90E0840F911D8134ED
:1002A00091054CF580ED0E949A00812F6DE471E07C
:1002B0000E947C008823D9F481ED6DE471E00E94F6
:1002C00073008823A1F4CF2DDE2D102F7E0105C0F1
:1002D0000E948C00F70181937F011150C9F70E94A1
:1002E00093000150C00FD11D888311E001C010E0C0
:1002F0000E94760001C010E0812FDF91CF911F9105
:100300000F91FF90EF900895FF920F931F93DF934B
:10031000CF93CDB7DEB727970FB6F894DEBF0FBEE9
:10032000CDBF8C01F62E80914C01882311F430E072
:1003300091C080E0BE016F5F7F4F47E00E943B01AC
:10034000882311F430E04AC02F81822F82958F706C
:100350003AE0839FC00111242F70280FF8012083F9
:100360002E81822F82958F70839FC00111242F7060
:10037000280F21832D81822F82958F70839FC0014A
:1003800011242F70280F22838C81282F2F70215049
:1003900082958F70839FC0011124280F26832B81A3
:1003A000822F82958F70839FC00111242F70280F98
:1003B00023832A81822F82958F70839FC00111240D
:1003C0002F70280F24832981822F82958F70839F1D
:1003D000C00111242F70280F258331E080914B013B
:1003E0008823C1F1FF20B1F1F80183818F5F8383FE
:1003F000883180F113828181863059F0873028F46A
:10040000823059F0843039F404C0893011F08B30D7
:1004100011F49EE113C09FE111C0F8012081822FE9
:1004200090E083709070892B41F4822F64E60E94E3
:100430002507992311F09DE101C09CE1F80182811B
:10044000981740F491E0928381818F5F81838D3092
:1004500008F09183832F27960FB6F894DEBF0FBE66
:10046000CDBFCF91DF911F910F91FF900895EF9233
:10047000FF920F931F93CF93DF93082FF62EE72E53
:10048000142F80914C01882341F1442331F1802FB6
:1004900090E0840F911D81349105FCF480ED0E9461
:1004A0009A00802F6DE471E00E947C00882389F41B
:1004B0008F2D9E2D9C01E90188816DE471E00E94E1
:1004C0007C001150882329F421961123A9F711E00B
:1004D00001C010E00E94760001C010E0812FDF9182
:1004E000CF911F910F91FF90EF9008950F931F935D
:1004F000DF93CF93CDB7DEB7C456D0400FB6F89494
:10050000DEBF0FBECDBF082F80914B01081789F1C8
:1005100000934B0180E16BE471E041E00E943702FF
:10052000002319F426E830E002C02FE830E000D0C4
:1005300000D000D0EDB7FEB731968E010F5F1F4F90
:10054000ADB7BEB712961C930E93119786E990E053
:1005500093838283358324830E9458078DB79EB787
:1005600006960FB6F8949EBF0FBE8DBFC8010E94BD
:100570004D04CC59DF4F0FB6F894DEBF0FBECDBF90
:10058000CF91DF911F910F910895EF92FF920F93FA
:100590001F93DF93CF9300D0CDB7DEB78C017B01E3
:1005A0008FEFFB0180830E944900F801808388233C
:1005B000C9F481E080934C0180E880934E018091E2
:1005C0004E018A8387E0BE016E5F7F4F41E00E944B
:1005D0003702882319F583E0F801808380914D016B
:1005E000F701808380E011C0898187FF07C08F7782
:1005F000898380E0B80141E00E94370280E16BE42A
:1006000071E041E00E943B0181E00F900F90CF919B
:10061000DF911F910F91FF90EF90089580E08E0180
:100620000F5F1F4FB80141E00E943B018823E1F6B4
:10063000E5CFDF93CF93CDB7DEB727970FB6F8940A
:10064000DEBF0FBECDBFFC0180914C01882309F4B1
:1006500077C065814DEC649FC001112496959695F5
:10066000969526EF3FEF929F802D1124860F92954D
:10067000907F892B89836481649FC00111249695A2
:1006800096959695929F802D1124860F9295907F36
:10069000892B8A836381649FC00111249695969566
:1006A0009695929F802D1124860F9295907F892B8D
:1006B0008B836681649FC0011124969596959695CB
:1006C000929F802D1124860F9295907F892B8F5FAA
:1006D0008C836281649FC0011124969596959695AE
:1006E000929F802D1124860F9295907F892B8D8368
:1006F0006181649FC0011124969596959695929F6D
:10070000802D1124860F9295907F892B8E83908166
:10071000949FA0011124852F869586958695829FAA
:10072000202D1124290F8295807F282B2F8380E094
:10073000BE016F5F7F4F47E00E943702811181E069
:1007400027960FB6F894DEBF0FBECDBFCF91DF91D5
:100750000895DF93CF930F92CDB7DEB780E687B9C8
:1007600085E886B9369A3699FECF85B1898320E02F
:1007700030E08981F901E05BFE4F80832F5F3F4FBE
:1007800020343105B1F7898190E0909391018093F5
:100790009001809190019091910126E0880F991F1E
:1007A0002A95E1F79093910180939001369A0F90EA
:1007B000CF91DF910895809190019091910136E061
:1007C000969587953A95E1F780950895369922C0D8
:1007D00045B1809190019091910130914F01E32FAB
:1007E000F0E0E05BFE4F2081821B91099093910124
:1007F0008093900140838091900190919101840FAA
:10080000911D90939101809390013F5F3F733093CE
:100810004F01369A08958CEF81BB81EA8FBD81E04C
:100820008EBD81E685BD8DE783BF89B7837C89BF97
:1008300008958ABD982F909598BD8CBF83BD08956B
:1008400090E070E0FB01E89FB001E99F700DF89F18
:10085000700D1124672F770F770B68BD50E0BA0138
:10086000689FA001699F500D789F500D1124452F5E
:10087000550F550B4ABD30E0FC012E9FC0012F9F44
:10088000900D3E9F900D1124892F990F990B83BDD8
:1008900008955D9BFECF8CB90895FC0104C05D9B5B
:1008A000FECF8CB9319680818823C9F708959B01CA
:1008B000AC01892F9927AA27BB278FB9779BFECF39
:1008C000CA01AA27BB278FB9779BFECFBB27A52FCD
:1008D000942F832F8FB9779BFECF2FB9779BFECFB5
:1008E000C498C49A089587B3806B87BBBE9888B3B9
:1008F000806588BB8BE58DB9709A60E070E080E020
:1009000090E00E94570408952F923F924F925F9279
:100910006F927F928F929F92AF92BF92CF92DF920F
:10092000EF92FF920F931F93DF93CF93CDB7DEB774
:10093000C057D0400FB6F894DEBF0FBECDBFF894BD
:1009400010BC88E089B9539A80B5866880BDE4EA16
:10095000F0E004C05D9BFECF8CB931968081882386
:10096000C9F7E5ECF0E004C05D9BFECF8CB9319691
:1009700080818823C9F78CEF81BB81EA8FBD81E03C
:100980008EBD81E685BD8DE783BF89B7837C89BF36
:100990008EEF88BD1ABC13BCEFECF0E004C05D9B89
:1009A000FECF8CB9319680818823C9F70E947304E9
:1009B0008EEF88BD8ABD13BCEDEDF0E004C05D9BF9
:1009C000FECF8CB9319680818823C9F70E94A90394
:1009D00018BC8EEF8ABD83BD18BC8ABD83BDEBEE0B
:1009E000F0E004C05D9BFECF8CB9319680818823F6
:1009F000C9F7CE010196BE016E5F7F4F0E94C5020E
:100A0000882341F5E5EFF0E004C05D9BFECF8CB993
:100A1000319680818823C9F720E030E060E971E0F9
:100A20004EEF18BC1ABC13BC88EC90E0FB01319768
:100A3000F1F70197D9F748BD4ABD43BD88EC90E076
:100A4000FB013197F1F70197D9F72F5F3F4F2A301C
:100A5000310539F78EEF88BD8ABD83BD7894E3E018
:100A6000F1E004C05D9BFECF8CB931968081882374
:100A7000C9F7A1E0AA2EB12CF1E0CF2ED12CE1E0F4
:100A8000EE2EF12C00E010E08824992466247724CF
:100A90007AE0472E512C4C0E5D1E6FEF262E312C26
:100AA00002C000E010E080E49CE90197F1F70F5FDD
:100AB0001F4F0E94E6030E94DB03803410F48695EA
:100AC000805E282F30E08A2D90E0AC01249FC00189
:100AD000259F900D349F900D1124892F990F990B0C
:100AE000AF968FAFAF9788BD8C2D90E0DC012A9F29
:100AF000C0012B9F900D3A9F900D1124892F990FC3
:100B0000990BE0968FAFE0978ABD8E2D90E0AC01F7
:100B1000249FC001259F900D349F900D1124892F93
:100B2000990F990BE1968FAFE19783BDC8016AE0F9
:100B300070E00E944507892B09F0B5CFCF9B03C019
:100B40008824992403C00894811C911CCE9B03C067
:100B50006624772403C00894611C711C52E085163A
:100B6000910408F465C0C4010A966CE070E00E942C
:100B70003107892B29F085E28816910408F458C0C2
:100B8000E0E1F1E004C05D9BFECF8CB9319680813D
:100B90008823C9F7CE01039660E00E948401AF96D6
:100BA0009FADAF9798BDE096AFADE097AABDE19637
:100BB000BFADE197B3BD8E818F5F8E83883108F022
:100BC0001E82CE0103960E9419032DB73EB72A500C
:100BD00030400FB6F8943EBF0FBE2DBFEDB7FEB745
:100BE0003196ADB7BEB712965C924E92119729E13D
:100BF00031E0338322838E81848315828F818683C3
:100C000017828885808711860E945807F2014DB7A8
:100C10005EB7465F5F4F0FB6F8945EBF0FBE4DBF25
:100C200004C05D9BFECF8CB9319680818823C9F7C3
:100C300052E06516710499F4E1E3F1E004C05D9BB4
:100C4000FECF8CB9319680818823C9F790E08091DE
:100C50004B01882309F491E0892F0E947602C80194
:100C600064E670E00E944507892B09F01CCFCE0195
:100C7000039661E00E948401AF969FADAF9798BD47
:100C8000E096AFADE097AABDE196BFADE197B3BDE9
:100C9000882341F5EEE3F1E004C05D9BFECF8CB903
:100CA000319680818823C9F700E010E018BC1ABC97
:100CB00013BC84EF91E0E0E9F1E03197F1F701979F
:100CC000D1F72EEF28BD2ABD23BD84EF91E0E0E9E6
:100CD000F1E03197F1F70197D1F70F5F1F4F08321D
:100CE000110521F74DB75EB74A5050400FB6F89442
:100CF0005EBF0FBE4DBFEDB7FEB73196ADB7BEB705
:100D000012965C924E92119729E131E0338322834F
:100D10008E81848315828F81868317828885808760
:100D200011860E945807F2014DB75EB7465F5F4FCC
:100D30000FB6F8945EBF0FBE4DBF04C05D9BFECFE3
:100D40008CB9319680818823C9F7888565E00E9437
:100D5000250721E030E040E050E004C0220F331FBF
:100D6000441F551F9A95D2F7CA01B9016095709535
:100D7000809590950E9457048885803158F4C82E3C
:100D8000DD2484E0CC0CDD1C8A95E1F7BFEFAB2EAF
:100D9000B12C0EC0803280F490E0A4E0880F991F3F
:100DA000AA95E1F75101A81AB90AFFEFCF2ED12C6D
:100DB000E1E0EE2EF12C40C0803370F4E82EFF24E9
:100DC00074E0EE0CFF1C7A95E1F761E0A62EB12CE1
:100DD0005FEFC52ED12C30C0803468F490E044E041
:100DE000880F991F4A95E1F76101C81AD90A31E0C5
:100DF000A32EB12C0CC0803570F4A82EBB2424E0A7
:100E0000AA0CBB1C2A95E1F791E0C92ED12C8FEFDB
:100E1000E82EF12C11C0803678F490E0B4E0880F11
:100E2000991FBA95E1F77101E81AF90AAFEFAA2EF6
:100E3000B12CF1E0CF2ED12CC80168EE73E00E94F6
:100E40004507892B09F02DCE2ECE991B79E004C0E1
:100E5000991F961708F0961B881F7A95C9F78095F9
:100E60000895AA1BBB1B51E107C0AA1FBB1FA617F1
:100E7000B70710F0A61BB70B881F991F5A95A9F743
:100E800080959095BC01CD01089597FB092E07260A
:100E90000AD077FD04D0E5DF06D000201AF4709563
:100EA00061957F4F0895F6F7909581959F4F08952E
:100EB000AEE0B0E0EEE5F7E00C94070A0D891E897C
:100EC00086E08C831A8309838FEF9FE79E838D834F
:100ED0009E01275E3F4FCE0101966F89788DA90153
:100EE0000E947C072F813885020F131FF8011082A2
:100EF0002E96E4E00C94230AABE0B0E0E2E8F7E0E1
:100F00000C94F9093C012B015A01FC01178216824D
:100F1000838181FD03C06FEF7FEFC6C19AE0892E08
:100F20001E010894211C311CF3012381F20123FDD1
:100F3000859123FF81912F01882309F4B2C1853265
:100F400039F423FD859123FF81912F01853229F406
:100F500090E0B3010E946F09E7CF982FFF24EE24A1
:100F60009924FFE1FF15D0F09B3269F09C3228F400
:100F7000903259F0933291F40EC09D3249F0903383
:100F800069F441E024C052E0F52A84E0F82A28C040
:100F900098E0F92A25C0E0E1FE2A22C0F7FC29C02A
:100FA000892F80538A3070F4F6FE05C0989C902CEF
:100FB0001124980E15C0E89CE02C1124E80EF0E2F4
:100FC000FF2A0EC09E3229F4F6FC6BC140E4F42ADD
:100FD00007C09C3619F450E8F52A02C0983649F447
:100FE000F20123FD959123FF91912F01992309F09F
:100FF000B8CF892F8554833018F08052833038F46D
:1010000044E050E0A40EB51E5FE359830FC0933651
:1010100031F0933779F0933509F056C020C0F501CF
:101020008081898342E050E0A40EB51E610101E099
:1010300010E012C0F501C080D180F6FC03C06FEF54
:101040007FEF02C0692D70E042E050E0A40EB51EB3
:10105000C6010E9464098C015FE7F52214C0F50106
:10106000C080D180F6FC03C06FEF7FEF02C0692D16
:1010700070E042E050E0A40EB51EC6010E9459097E
:101080008C0150E8F52AF3FE07C01AC080E290E018
:10109000B3010E946F09EA948E2D90E0081719079A
:1010A000A8F30EC0F601F7FC8591F7FE81916F0160
:1010B00090E0B3010E946F09E110EA9401501040E2
:1010C0000115110579F7EAC0943611F0993669F5E2
:1010D000F7FE08C0F501208131814281538184E00F
:1010E00090E00AC0F501808191819C01442737FD81
:1010F0004095542F82E090E0A80EB91E9FE6F92299
:1011000057FF09C050954095309521953F4F4F4F5F
:101110005F4FE0E8FE2ACA01B901A1012AE030E0F0
:101120000E949B09D82ED21840C0953729F41F2D54
:101130001F7E2AE030E01DC01F2D197F9F3661F011
:10114000903720F4983509F0ACC00FC0903739F0D3
:10115000983709F0A6C004C028E030E00AC010614A
:1011600014FD146020E130E004C014FD166020E19D
:1011700032E017FF08C0F50160817181828193819F
:1011800044E050E008C0F50180819181BC0180E01D
:1011900090E042E050E0A40EB51EA1010E949B0920
:1011A000D82ED2188FE7F82EF122F6FE0BC05EEF94
:1011B000F522D91438F4F4FE07C0F2FC05C08FEE16
:1011C000F82202C01D2D01C0192DF4FE0DC0FE0134
:1011D000ED0DF11D8081803319F499EEF92208C0DC
:1011E0001F5FF2FE05C003C08F2D867809F01F5FD8
:1011F0000F2DF3FC14C0F0FE0FC01E1510F09D2C37
:101200000BC09D2C9E0C911A1E2D06C080E290E012
:10121000B3010E946F091F5F1E15C0F304C01E15A5
:1012200010F4E11A01C0EE2404FF0FC080E390E047
:10123000B3010E946F0902FF1DC001FD03C088E7D2
:1012400090E00EC088E590E00BC0802F867891F08A
:1012500001FF02C08BE201C080E2F7FC8DE290E06A
:10126000B3010E946F0906C080E390E0B3010E94C1
:101270006F099A94D914C0F3DA94F101ED0DF11DC0
:10128000808190E0B3010E946F09DD20A9F706C0BC
:1012900080E290E0B3010E946F09EA94EE20C1F76A
:1012A00043CEF30166817781CB012B96E2E10C946A
:1012B000150AFC010590615070400110D8F7809527
:1012C00090958E0F9F1F0895FC0161507040019012
:1012D0000110D8F7809590958E0F9F1F08950F935A
:1012E0001F93CF93DF938C01EB018B8181FF1BC098
:1012F00082FF0DC02E813F818C819D812817390787
:1013000064F4E881F9810193F983E88306C0E885F4
:10131000F985802F0995892B31F48E819F81019663
:101320009F838E8302C00FEF1FEFC801DF91CF9123
:101330001F910F910895FA01AA27283051F1203109
:1013400081F1E8946F936E7F6E5F7F4F8F4F9F4F59
:10135000AF4FB1E03ED0B4E03CD0670F781F891F9B
:101360009A1FA11D680F791F8A1F911DA11D6A0F69
:10137000711D811D911DA11D20D009F468943F911C
:101380002AE0269F11243019305D3193DEF6CF011B
:101390000895462F4770405D4193B3E00FD0C9F7E1
:1013A000F6CF462F4F70405D4A3318F0495D31FD4E
:1013B0004052419302D0A9F7EACFB4E0A6959795A1
:1013C000879577956795BA95C9F700976105710577
:1013D00008959B01AC010A2E0694579547953795C1
:1013E0002795BA95C9F7620F731F841F951FA01D1B
:1013F00008952F923F924F925F926F927F928F92B9
:101400009F92AF92BF92CF92DF92EF92FF920F9393
:101410001F93CF93DF93CDB7DEB7CA1BDB0B0FB69D
:10142000F894DEBF0FBECDBF09942A88398848885A
:101430005F846E847D848C849B84AA84B984C884F0
:10144000DF80EE80FD800C811B81AA81B981CE0FE7
:10145000D11D0FB6F894DEBF0FBECDBFED010895CC
:04146000F894FFCF2E
:101464006572726F7220636F6E7431203A20256446
:101474000D0A006572726F7220636F6E7432203AC7
:101484002025640D0A00696E6163746976650061E4
:10149400637469766500647374206E6F773A2025EF
:1014A400730D0A00576F7264436C6F636B20563080
:1014B4002E3120696E697469616C697A696E672E70
:1014C4002E2E0D0A000D0A2E2E2E2050574D000DE3
:1014D4000A2E2E2E2053686966746572000D0A2E3A
:1014E4002E2E204C445220414443000D0A2E2E2E11
:1014F4002052544300204641494C45442021212197
:101504000D0A000D0A52656164792E2E2E0D0A0013
:10151400486F75722B2B0D0A0074696D65203A2093
:10152400253032643A253032643A253032640D0A6B
:1015340000746F67676C65204453540D0A0052545D
:0A15440043206572726F720D0A00F9
:00000001FF
