:100000000C9466000C9483000C9483000C94830081
:100010000C9483000C9483000C9483000C94830054
:100020000C9483000C9483000C9483000C94830044
:100030000C9483000C94D0060C9483000C948300E1
:100040000C9483000C9483000C9483000C94830024
:100050000C94830001000000020000000400000076
:100060000800000010000000200000004000000018
:1000700080000000000100000002000000040000F9
:100080000018000000300000004000000080000068
:100090000000010000000200000004000000080051
:1000A0000000100000002000000040000000800060
:1000B0000000000100000002000000040000000831
:1000C00000000010000000200000004011241FBEAE
:1000D000CFE5D8E0DEBFCDBF14E0A0E6B0E0E0ECB5
:1000E000FCE202C005900D92AE3AB107D9F714E0D8
:1000F000AEEAB4E001C01D92A83FB107E1F70E944B
:10010000FA070C945E160C9400008091AE048823CC
:1001100031F411B88CE080B981E08093AE0480E0C6
:100120000895982FFB0184EA86BF06B607FEFDCF2F
:1001300081B1887F883011F0803161F493B984E80F
:1001400086BF06B607FEFDCF81B1887F883129F0D2
:10015000803419F0808381E0089580E008950E9442
:100160009100089584E986BF06B604FCFDCF08958A
:10017000FB0183B984E886BF06B607FEFDCF81B1D7
:10018000887F883211F480E00895808381E00895AB
:1001900084EC86BF06B607FEFDCF83B1089584E8E0
:1001A00086BF06B607FEFDCF83B108958F929F925A
:1001B000AF92BF92CF92DF92EF92FF920F931F9375
:1001C000DF93CF93CDB7DEB7C456D0400FB6F894C7
:1001D000DEBF0FBECDBFB82E44EA842E34E8932E86
:1001E00024E9A22E8E010F5F1F4F93E7C92E90E0E6
:1001F000D92E80E6E82E80E0F82E86BE06B607FEF1
:10020000FDCF81B1887F883089F0803179F000D0CE
:1002100000D000D0EDB7FEB73196ADB7BEB712969D
:100220001C930E931197F382E2821DC0B3B896BE61
:1002300006B607FEFDCF81B1887F803211F0883588
:1002400011F5A6BE06B604FCFDCF00D000D000D04C
:10025000EDB7FEB73196ADB7BEB712961C930E93AD
:100260001197D382C282848315820E9486138DB730
:100270009EB706960FB6F8949EBF0FBE8DBFC801FD
:100280000E949306BACFCC59DF4F0FB6F894DEBF69
:100290000FBECDBFCF91DF911F910F91FF90EF90D7
:1002A000DF90CF90BF90AF909F908F900895282FB0
:1002B00022952F709AE0299F900111248F70820F50
:1002C0000895382F8DEC389FC0011124292F2695D1
:1002D0002695269586EF9FEF289F802D1124830F6A
:1002E0002295207F822B08958091B1040895FC010E
:1002F00080818F5F80830895FC018081815080839D
:100300000895FC0181818F5F81838D3028F081E029
:10031000818380818F5F80830895FC01818181507A
:100320008183882329F48CE08183808181508083BC
:100330000895FC0132813F5F32838181863059F01C
:10034000873028F4823059F0843039F404C0893081
:1003500011F08B3011F48EE112C08FE110C02081BA
:10036000822F90E083709070892B41F4822F64E695
:100370000E941613992311F08DE101C08CE18317BF
:1003800058F491E0928381818F5F81838D3020F0DA
:10039000918380818F5F80830895FC013281315089
:1003A0003283818190E001978630910571F087302A
:1003B000910534F48230910561F0049741F405C051
:1003C0008930910511F00B9711F48EE112C08FE185
:1003D00010C02081822F90E083709070892B41F4AF
:1003E000822F64E60E941613992311F08DE101C05B
:1003F0008CE1332359F48283818181508183882366
:1004000029F48CE081838081815080830895FC01F0
:1004100083818F5F8383883120F01382CF010E9414
:1004200099010895FC018381882331F487E1838356
:10043000CF010E94CD010895815083830895FC016E
:1004400084818F5F84838C3320F01482CF010E94DB
:1004500007020895FC018481882331F48BE38483AF
:10046000CF010E9412020895815084830895EF9273
:10047000FF920F931F93CF93DF93182FF62EE72E43
:10048000042F8091B004882391F1442381F1812FBE
:1004900090E0840F911D813491054CF580ED0E9410
:1004A000D600812F61EB74E00E94B8008823D9F454
:1004B00081ED61EB74E00E94AF008823A1F4CF2DA1
:1004C000DE2D102F7E0105C00E94C800F701819328
:1004D0007F011150C9F70E94CF000150C00FD11DFC
:1004E000888311E001C010E00E94B20001C010E05A
:1004F000812FDF91CF911F910F91FF90EF90089581
:100500007F928F929F92AF92BF92CF92DF92EF92A3
:10051000FF920F931F93DF93CF93CDB7DEB727974B
:100520000FB6F894DEBF0FBECDBF6C01E62E8091F2
:10053000B004882311F47724B2C180E0BE016F5F5C
:100540007F4F47E00E943702882311F4772474C05C
:100550004F81842F82958F703AE0839FC0011124D0
:100560004F70480FD6014C932E81822F82958F7049
:10057000839FC0011124122F1F70180F11961C9316
:1005800011972D81822F82958F70839FC001112436
:10059000022F0F70080F12960C9312972B81822F47
:1005A00082958F70839FC00111242F70280F13969E
:1005B0002C9313972A81822F82958F70839FC0017D
:1005C00011242F70280F14962C9314972981822FB1
:1005D00082958F70839FC00111242F70280F15966C
:1005E0002C93E12FF0E0E656FF4FE081242F30E01E
:1005F00046954695C901840F911D67E070E00E9401
:100600003613482F23703070232B19F4133008F45D
:100610004A5F802F67E00E941613892F90E00696AC
:100620008E0F911D840F911D67E070E00E943613BC
:10063000F601868377247394EE2009F430C1D60145
:100640001196EC918E2F90E0FC01EE0FFF1FDF0161
:10065000A955BF4F0D911C91EF53FF4FE080F180E2
:100660005C010894A11CB11CF601228130E0AA0CA7
:10067000BB1CF501E955FF4F80819181801B910BD7
:10068000AC01429FC001439F900D529F900D1124D9
:100690006FE170E00E9436134B01800E911E81ECD9
:1006A00090E0A80EB91ED5018D919C918E199F09DD
:1006B000FC01E29FC001E39F900DF29F900D112479
:1006C0006FE170E00E943613FB01EE0DFF1DC401C7
:1006D00064E670E00E943613D60119966C93CF0140
:1006E00064E670E00E943613D6011B966C93C40139
:1006F00064E670E00E9436132CE330E0AC01429FC8
:10070000C001439F900D529F900D112464E670E04C
:100710000E943613D6011A966C93CF0164E670E0FE
:100720000E943613AC01429FC001439F900D529F1F
:10073000900D112464E670E00E943613D6011C96D9
:100740006C931C9714968C9124E6829FC00111240F
:100750006CE370E00E943613D60113968C911397C8
:10076000829FC0011124680F791F681579052CF448
:1007700018961C9200E010E03FC0C4018C599F4FB6
:10078000681779071CF4681979090FC06E177F077D
:1007900024F4D60118962C93EDCFCF018C599F4F9E
:1007A000681779072CF46E1B7F0BF6016087E2CF88
:1007B000D601DECF12166CF4C6010E940702F601C4
:1007C00081858F5F818783858F5F83870F5F1F4F51
:1007D00013C0C6010E941202D60119968C91199776
:1007E000815019968C9319971B968C911B97815069
:1007F0001B968C93015010402091AF04822F9927B3
:1008000087FD909508171907A9F6F6012181822F17
:1008100083508830C8F4822F84508630B8F0D601D7
:1008200016963C91169712968C91129790E0831B26
:100830009109499704F1332321F413968C91833065
:10084000D0F02A3019F4F601178229C0D601199682
:100850008C9119978F5F19968C9319971B968C9191
:100860001B978F5F1B968C93C6010E94070281E045
:10087000F601878314C0233021F4D60117961C9209
:100880000EC0F60181858F5F818783858F5F8387A7
:10089000C6010E94070281E0D60117968C93872D2E
:1008A00027960FB6F894DEBF0FBECDBFCF91DF9174
:1008B0001F910F91FF90EF90DF90CF90BF90AF907E
:1008C0009F908F907F900895805F41E00E94370253
:1008D0000895EF92FF920F931F93CF93DF93082F0A
:1008E000F62EE72E142F8091B004882341F1442383
:1008F00031F1802F90E0840F911D81349105FCF43B
:1009000080ED0E94D600802F61EB74E00E94B80059
:10091000882389F48F2D9E2D9C01E901888161EB4C
:1009200074E00E94B8001150882329F42196112305
:10093000A9F711E001C010E00E94B20001C010E070
:10094000812FDF91CF911F910F91FF90EF9008952C
:10095000EF92FF920F931F93DF93CF9300D0CDB709
:10096000DEB78C017B018FEFFB0180830E94850045
:10097000F80180838823C9F481E08093B00480E883
:100980008093B2048091B2048A8387E0BE016E5FD7
:100990007F4F41E00E946904882311F583E0F8014C
:1009A00080838091B104F701808380E010C0898149
:1009B00087FF07C08F77898380E0B80141E00E94FC
:1009C000690481E06FEA74E00E94640481E00F90A2
:1009D0000F90CF91DF911F910F91FF90EF900895AD
:1009E00080E08E010F5F1F4FB80141E00E94370287
:1009F0008823E9F6E6CFDF93CF93CDB7DEB727970D
:100A00000FB6F894DEBF0FBECDBFFC018091B004DD
:100A1000882309F477C065814DEC649FC0011124DF
:100A200096959695969526EF3FEF929F802D1124EF
:100A3000860F9295907F892B89836481649FC00182
:100A40001124969596959695929F802D1124860F48
:100A50009295907F892B8A836381649FC0011124C2
:100A6000969596959695929F802D1124860F929536
:100A7000907F892B8B836681649FC001112496959A
:100A800096959695929F802D1124860F9295907F32
:100A9000892B8F5F8C836281649FC001112496959E
:100AA00096959695929F802D1124860F9295907F12
:100AB000892B8D836181649FC00111249695969541
:100AC0009695929F802D1124860F9295907F892B69
:100AD0008E839081949FA0011124852F8695869501
:100AE0008695829F202D1124290F8295807F282BA7
:100AF0002F8380E0BE016F5F7F4F47E00E94690453
:100B0000811181E027960FB6F894DEBF0FBECDBFEE
:100B1000CF91DF910895DF93CF930F92CDB7DEB7DA
:100B20006983805FBE016F5F7F4F41E00E9469046F
:100B30000F90CF91DF9108950F931F93DF93CF9381
:100B4000CDB7DEB7C456D0400FB6F894DEBF0FBEA7
:100B5000CDBF682F282F30E08091AF04992787FD03
:100B600090952817390761F16093AF0481E00E94E6
:100B70008B0500D000D000D0EDB7FEB731968E01C6
:100B80000F5F1F4FADB7BEB712961C930E93119710
:100B900086E890E0938382838091AF04992787FD54
:100BA0009095958384830E9486138DB79EB7069691
:100BB0000FB6F8949EBF0FBE8DBFC8010E9493066A
:100BC000CC59DF4F0FB6F894DEBF0FBECDBFCF912B
:100BD000DF911F910F910895DF93CF930F92CDB7BF
:100BE000DEB780E687B985E886B9369A3699FECFB2
:100BF00085B1898320E030E08981F901EC54FB4F15
:100C000080832F5F3F4F20343105B1F7898190E019
:100C10009093F5048093F4048091F4049091F5048A
:100C200026E0880F991F2A95E1F79093F5048093A9
:100C3000F404369A0F90CF91DF9108958091F404D7
:100C40009091F50436E0969587953A95E1F7809571
:100C50000895369922C045B18091F4049091F5042D
:100C60003091B304E32FF0E0EC54FB4F2081821B62
:100C700091099093F5048093F40440838091F404E7
:100C80009091F504840F911D9093F5048093F404E2
:100C90003F5F3F733093B304369A08958CEF81BB66
:100CA00081EA8FBD81E08EBD81E685BD8DE783BF82
:100CB00089B7837C89BF0895FF920F931F93082FF4
:100CC00010E070E0609FC001619F900D709F900DDB
:100CD00011246FEF70E00E942213F62EE42FF0E053
:100CE000E09FC001E19F900DF09F900D11246FEFE8
:100CF00070E00E942213462F30E0209FC001219F08
:100D0000900D309F900D11246FEF70E00E94221320
:100D1000F8BC4ABD63BD1F910F91FF9008955D9B84
:100D2000FECF8CB90895FC0104C05D9BFECF8CB949
:100D3000319680818823C9F708959B01AC01852FE6
:100D40009927AA27BB278FB9779BFECFCA01AA276D
:100D5000BB278FB9779BFECFBB27A52F942F832F5F
:100D60008FB9779BFECF2FB9779BFECFC498C49ADB
:100D7000089587B3806B87BBBE9888B3806588BBB6
:100D80008BE58DB9709A6FEF7FEF8FEF9FEF0E9429
:100D90009D066FEF7FEF8FEF9FEF0E949D060895F6
:100DA0001F920F920FB60F9211248F939F93EF9380
:100DB000FF939CB18091F6048823F9F49A3091F066
:100DC0009D3081F08091F704833660F4E091F70460
:100DD000F0E0EA5EFB4F90838091F7048F5F809391
:100DE000F7040BC0E091F704F0E0EA5EFB4F1082DD
:100DF0001092F70481E08093F604FF91EF919F91A8
:100E00008F910F900FBE0F901F901895982F8053C1
:100E10008A3028F4292F30E02053304014C0892F25
:100E20008154863028F4292F30E0275330400BC0FE
:100E3000892F8156863018F02FEF3FEF04C0292FFD
:100E400030E027553040C9010895FC019081892F79
:100E500080538A3028F4292F30E02053304014C0CA
:100E6000892F8154863028F4292F30E027533040D1
:100E70000BC0892F8156863018F02FEF3FEF04C04A
:100E8000292F30E0275530409181892F80538A30B7
:100E900020F4892F90E0C09713C0892F81548630A9
:100EA00020F4892F90E0C7970BC0892F8156863098
:100EB00018F08FEF9FEF04C0892F90E08755904086
:100EC00037FD0AC097FD08C074E0220F331F7A95E2
:100ED000E1F7280F391F02C02FEF3FEFC901089536
:100EE000BF92CF92DF92EF92FF920F931F93DF9307
:100EF000CF93CDB7DEB7C157D0400FB6F894DEBF61
:100F00000FBECDBFFE01EB59FF4FBC2CC082CD2CD4
:100F1000D182DE2CE282BF2DF382A02F04831583C1
:100F20002683378340875187628773878487BD0113
:100F3000412F5091AF04332319F42BED30E002C060
:100F40002CED30E08DB79EB746970FB6F8949EBF54
:100F50000FBE8DBFEDB7FEB731968E010F5F1F4FED
:100F6000ADB7BEB712961C930E93119780EE90E02A
:100F700093838283748315826683178240871186E8
:100F800082E191E093878287D4861586C68617868C
:100F90008B2D90E08053984F918B808B852F9927D4
:100FA00087FD9095938B828B358B248B0E948613C3
:100FB000F8018DB79EB746960FB6F8949EBF0FBE48
:100FC0008DBF04C05D9BFECF8CB931968081882394
:100FD000C9F7CF58DF4F0FB6F894DEBF0FBECDBFB5
:100FE000CF91DF911F910F91FF90EF90DF90CF9005
:100FF000BF9008953F924F925F926F927F928F922F
:101000009F92AF92BF92CF92DF92EF92FF920F9397
:101010001F93DF93CF93CDB7DEB7C753D1400FB641
:10102000F894DEBF0FBECDBFF8948AB188698AB943
:1010300080B5866880BD10BC88E089B9E4E1F1E044
:1010400004C05D9BFECF8CB9319680818823C9F79F
:10105000E5E4F1E004C05D9BFECF8CB93196808160
:101060008823C9F784B790E08F7190708430910520
:10107000B9F08530910534F481309105B9F00297CB
:1010800031F411C08830910541F0409719F0E4E542
:10109000F1E03BC0EEE5F1E030C0EBE6F1E025C069
:1010A000ECE7F1E01AC0EEE8F1E00FC0EFE9F1E0A3
:1010B00004C05D9BFECF8CB9319680818823C9F72F
:1010C00027C05D9BFECF8CB9319680818823C9F7FC
:1010D0001FC05D9BFECF8CB9319680818823C9F7F4
:1010E00017C05D9BFECF8CB9319680818823C9F7EC
:1010F0000FC05D9BFECF8CB9319680818823C9F7E4
:1011000007C05D9BFECF8CB9319680818823C9F7DB
:1011100014BEE0EBF1E004C05D9BFECF8CB93196CC
:1011200080818823C9F78CEF81BB81EA8FBD81E084
:101130008EBD81E685BD8DE783BF89B7837C89BF7E
:101140008FEF6FEF40E020E00E945C06EAEBF1E0F9
:1011500004C05D9BFECF8CB9319680818823C9F78E
:101160000E94B9068FEF6FEF4FEF20E00E945C0600
:10117000E8ECF1E004C05D9BFECF8CB93196808134
:101180008823C9F70E94EC058FEF60E04FEF2FEF47
:101190000E945C06E6EDF1E004C05D9BFECF8CB9D9
:1011A000319680818823C9F7CE010196BE016E5F1A
:1011B0007F4F0E94A804882379F5E0EEF1E004C097
:1011C0005D9BFECF8CB9319680818823C9F700E002
:1011D00010E0F0E9EF2EF1E0FF2E8FEF60E040E04D
:1011E00020E00E945C0688EC90E0F7013197F1F76F
:1011F0000197D9F78FEF6FEF4FEF2FEF0E945C064B
:1012000088EC90E0F7013197F1F70197D9F70F5F7C
:101210001F4F0A30110509F7CE01089661E00E94C0
:101220008002882319F4EEEEF1E020C0E2E0F2E063
:1012300004C05D9BFECF8CB9319680818823C9F7AD
:10124000C884D984EA84FB840C851D852E853F855E
:10125000488959896A897B898C890E947007E5E0F1
:10126000F2E00CC05D9BFECF8CB931968081882363
:10127000C9F7F5CF5D9BFECF8CB93196808188236D
:10128000C9F78FEF6FEF4FEF2FEF0E945C06E12C55
:10129000F12C012DE0E81E2FCC24DD2470E9A72ECF
:1012A00071E0B72EC801B7010E949D0616950795FB
:1012B000F794E79488EC90E0F5013197F1F7019706
:1012C000D9F70894C11CD11C20E2C216D10451F7F1
:1012D00060E070E080E090E00E949D0688E893E185
:1012E00020E931E0F9013197F1F70197D9F751E0A1
:1012F000E52EF12C012D112DCC24DD2440E9A42E66
:1013000041E0B42EC801B7010E949D06EE0CFF1CFF
:10131000001F111F88EC90E0F5013197F1F701975C
:10132000D9F70894C11CD11C30E2C316D10451F77F
:10133000E5E1F2E004C05D9BFECF8CB9319680817F
:101340008823C9F76FEF7FEF8FEF9FEF0E949D0615
:101350008FEF6FEF40E020E00E945C0680ED97E0A9
:1013600020E931E0F9013197F1F70197D9F78FEFD3
:1013700060E04FEF20E00E945C0680ED97E020E9FE
:1013800031E0F9013197F1F70197D9F78FEF60E07C
:1013900040E02FEF0E945C0680ED97E020E931E00D
:1013A000F9013197F1F70197D9F780E06FEF4FEF2F
:1013B0002FEF0E945C0681E08B8382E0BE016D5FAF
:1013C0007F4F0E94640400D000D000D0EDB7FEB77C
:1013D0003196CE018C5A9F4FADB7BEB712969C93F3
:1013E0008E93119785E292E0938382838B8184832D
:1013F00015820E948613E8E2F2E00DB71EB70A5F7D
:101400001F4F0FB6F8941EBF0FBE0DBF04C05D9BEB
:10141000FECF8CB9319680818823C9F78E010C5A92
:101420001F4FF80104C05D9BFECF8CB931968081BF
:101430008823C9F784E0BE016C5F7F4F0E9464047B
:1014400085E0BE016B5F7F4F0E94640486E0BE01B1
:101450006A5F7F4F0E94640483E0BE01695F7F4F33
:101460000E9464048F81882319F0EAE3F2E03DC012
:101470002DB73EB72A5030400FB6F8943EBF0FBE8E
:101480002DBFEDB7FEB73196CE018C5A9F4FADB749
:10149000BEB712969C938E93119789E492E0938342
:1014A00082838C81848315828D81868317828E81CD
:1014B000808711860E948613EDB7FEB73A960FB665
:1014C000F894FEBF0FBEEDBF05C05D9BFECF8CB98B
:1014D0000F5F1F4FD8018C918823B9F7E8E6F2E03F
:1014E0000CC05D9BFECF8CB9319680818823C9F7F3
:1014F000F5CF5D9BFECF8CB9319680818823C9F7EB
:101500008DE081BD7894E9E7F2E004C05D9BFECFF9
:101510008CB9319680818823C9F7C05EDE4F18826E
:1015200019821A821B82C052D140442455243201B0
:1015300088248A94982C5401C25EDE4F1982188246
:10154000CE51D140C45EDE4F19821882CC51D140B9
:1015500024E530E0F90145915591659174912C5F36
:101560003F4FF901E590F59005911491ECEAF0E018
:1015700085919591A591B491E42AF52A062B172B14
:10158000E82AF92A0A2B1B2BCC5DDE4FE882F98270
:101590000A831B83C452D140ECE5F0E0459155919C
:1015A00065917491E4E7F0E085919591A591B491EE
:1015B000482B592B6A2B7B2BC85DDE4F4883598300
:1015C0006A837B83C852D140E0E6F0E0E590F59075
:1015D00005911491E82AF92A0A2B1B2BC45DDE4FD2
:1015E000E882F9820A831B83CC52D140E4E6F0E022
:1015F0000591159125913491E0E7F0E08591959161
:10160000A591B491082B192B2A2B3B2BC05DDE4FE3
:10161000088319832A833B83C053D140E4EBF0E075
:101620002591359145915491CC5DDE4F688179814A
:101630008A819B81C452D140262B372B482B592BB2
:10164000CC5CDE4F288339834A835B83C453D1400B
:1016500005C024013501882499245401A89580EA05
:101660009FE00197F1F70894811C911CA11CB11C0B
:101670000E9429068B81882319F433243A9409C0E7
:101680000E941E06382E7FE3781718F0369480E209
:10169000380E832D6C814D812E810E945C06C50120
:1016A000B4012AE030E040E050E00E9449136115A7
:1016B00071058105910591F68091F604882309F45E
:1016C00037C480911604883609F447C28936F8F485
:1016D0008D3409F41DC38E3480F48F3309F4D8C3DC
:1016E000803438F48B3209F488C28D3209F0A5C3F6
:1016F0008FC2843409F0A1C3C2C2823609F4D6C0B5
:10170000833609F485C1893509F097C34AC3803708
:10171000A1F0813730F48C3699F08D3609F08DC305
:1017200065C2843709F4ABC18A3709F4CBC182376B
:1017300009F083C3E6E8F2E0B5C0E4EAF2E007C0EE
:10174000E6EBF2E07FC05D9BFECF8CB931968081E5
:101750008823C9F76FEF7FEF8FEF9FEF0E949D0601
:101760001092F60400E911E062C08FEF60E840E0FB
:1017700020E00E945C06A89588EC90E0F801319783
:10178000F1F70197D9F78FEF6FEF40E020E00E946B
:101790005C06A89580ED97E0F8013197F1F7019785
:1017A000D9F78FEF60E040E820E00E945C06A89542
:1017B00088EC90E0F8013197F1F70197D9F78FEFB6
:1017C00060E04FEF20E00E945C06A89580ED97E076
:1017D000F8013197F1F70197D9F78FEF60E040E01A
:1017E00020E80E945C06A89588EC90E0F80131970B
:1017F000F1F70197D9F78FEF60E040E02FEF0E94FB
:101800005C06A89580ED97E0F8013197F1F7019714
:10181000D9F78FEF6FEF4FEF2FEF0E945C06A8957F
:1018200080ED97E0F8013197F1F70197D9F78091B2
:10183000F604882309F499CFA89525C05D9BFECFB7
:101840008CB9319680818823C9F76FEF7FEF8FEFD6
:101850009FEF0E949D061092F6048FEF6FEF4FEFFF
:101860002FEF0E945C0620E931E008C0A89588ECC3
:1018700090E0F9013197F1F70197D9F78091F604DB
:101880008823A1F3A89580E060E040E020E00E947A
:101890005C0644244A94542C3201FAC25D9BFECF6C
:1018A0008CB9319680818823C9F7FFCF80911704C6
:1018B0008B3221F08D3209F070C038C081E08B830B
:1018C00082E061E00E948B058B81882319F428EC6B
:1018D00032E002C021ED32E000D000D000D0EDB700
:1018E000FEB731968E0108541F4FADB7BEB71296A2
:1018F0001C930E93119788ED92E093838283358336
:1019000024830E948613F8010DB71EB70A5F1F4F8C
:101910000FB6F8941EBF0FBE0DBF04C05D9BFECF77
:101920008CB9319680818823C9F7B2C21B8282E0CC
:1019300060E00E948B058B81882319F428EC32E04B
:1019400002C021ED32E000D000D000D0EDB7FEB7EC
:1019500031968E0108541F4FADB7BEB712961C9337
:101960000E93119788ED92E09383828335832483CD
:101970000E948613F8010DB71EB70A5F1F4F0FB6FE
:10198000F8941EBF0FBE0DBF04C05D9BFECF8CB987
:10199000319680818823C9F77BC260E08B818823E0
:1019A00009F461E06B8382E00E948B058B818823C0
:1019B00019F428EC32E002C021ED32E000D000D072
:1019C00000D0EDB7FEB731968E0108541F4FADB76A
:1019D000BEB712961C930E93119788ED92E09383F5
:1019E0008283358324830E948613F8010DB71EB7C6
:1019F0000A5F1F4F0FB6F8941EBF0FBE0DBF04C085
:101A00005D9BFECF8CB9319680818823C9F740C297
:101A100087E194E00E9425077C0189E194E00E941F
:101A200025078C018BE194E00E9425079C01F7FCBF
:101A300004C017FD02C097FF08C08F81882311F0F2
:101A40001F8218C081E08F8315C01F82EC820D8336
:101A50008E83832D6E2D402F0E945C0684E06C8166
:101A60000E948B0585E06D810E948B0586E06E816A
:101A70000E948B0583E06F810E948B0509C2C05EC6
:101A8000DE4F288139814A815B81C052D1402115C6
:101A900031054105510569F440E050E060E070E82F
:101AA000C05EDE4F488359836A837B83C052D14036
:101AB000EFC1C05EDE4F188219821A821B82C052AB
:101AC000D140E6C1809117048B3219F08D32C9F4F0
:101AD0000BC08091AF048C301CF083EF8093AF0477
:101AE0008091AF048F5F0AC08091AF04853F1CF4E2
:101AF0008DE08093AF048091AF0481500E949C05DB
:101B0000C7C12091170400D000D000D0EDB7FEB7B8
:101B100031968E0108541F4FADB7BEB712961C9375
:101B20000E93119783EF92E093838283248315822F
:101B30000E948613F8010DB71EB70A5F1F4F0FB63C
:101B4000F8941EBF0FBE0DBF04C05D9BFECF8CB9C5
:101B5000319680818823C9F79BC1809117048B320D
:101B600019F08D32B9F40BC08E01085F1F4FC80108
:101B700060E00E948002C8010E9407022EC18E010F
:101B8000085F1F4FC80160E00E948002C8010E94E8
:101B9000120223C12091170400D000D000D0EDB76D
:101BA000FEB731968E0108541F4FADB7BEB71296DF
:101BB0001C930E93119785E193E093838283248392
:101BC00015820E948613F8010DB71EB70A5F1F4FDA
:101BD0000FB6F8941EBF0FBE0DBF04C05D9BFECFB5
:101BE0008CB9319680818823C9F752C1809117043E
:101BF0008B3219F08D32B9F40BC08E01085F1F4F84
:101C0000C80160E00E948002C8010E941F02E5C076
:101C10008E01085F1F4FC80160E00E948002C8016A
:101C20000E942A02DAC02091170400D000D000D010
:101C3000EDB7FEB731968E0108541F4FADB7BEB752
:101C400012961C930E93119787E393E093838283FC
:101C5000248315820E948613F8010DB71EB70A5F10
:101C60001F4F0FB6F8941EBF0FBE0DBF04C05D9B83
:101C7000FECF8CB9319680818823C9F709C1809144
:101C800017048B3219F08D32B9F40BC08E01085F46
:101C90001F4FC80160E00E948002C8010E949901A4
:101CA0009CC08E01085F1F4FC80160E00E94800247
:101CB000C8010E94CD0191C02091170400D000D02E
:101CC00000D0EDB7FEB731968E0108541F4FADB767
:101CD000BEB712961C930E93119789E593E09383F8
:101CE0008283248315820E948613F8010DB71EB7E4
:101CF0000A5F1F4F0FB6F8941EBF0FBE0DBF04C082
:101D00005D9BFECF8CB9319680818823C9F7C0C016
:101D1000809117048B3219F08D32B9F40BC08E010B
:101D2000085F1F4FC80160E00E948002C8010E9446
:101D3000810153C08E01085F1F4FC80160E00E94FF
:101D40008002C8010E948D0148C02091170400D074
:101D500000D000D0EDB7FEB731968E0108541F4F6A
:101D6000ADB7BEB712961C930E9311978BE793E015
:101D700093838283248315820E948613F8010DB712
:101D80001EB70A5F1F4F0FB6F8941EBF0FBE0DBFE0
:101D900004C05D9BFECF8CB9319680818823C9F742
:101DA00077C0809117048B3219F08D32D1F40BC0BB
:101DB0008E01085F1F4FC80160E00E948002C801C9
:101DC0000E9477010AC08E01085F1F4FC80160E0C2
:101DD0000E948002C8010E947C01C8010E94FB048D
:101DE00057C02091170400D000D000D0EDB7FEB747
:101DF00031968E0108541F4FADB7BEB712961C9393
:101E00000E9311978DE993E0938382832483158247
:101E10000E948613F8010DB71EB70A5F1F4F0FB659
:101E2000F8941EBF0FBE0DBF04C05D9BFECF8CB9E2
:101E3000319680818823C9F72BC000D000D000D014
:101E4000EDB7FEB731968E0108541F4FADB7BEB740
:101E500012961C930E9311978FEB93E093838283DA
:101E600086E194E0958384830E948613F8010DB780
:101E70001EB70A5F1F4F0FB6F8941EBF0FBE0DBFEF
:101E800004C05D9BFECF8CB9319680818823C9F751
:101E9000CE01089661E00E948002182FCE0145967F
:101EA00060E00E948002112311F0882381F5E1EEA9
:101EB000F3E004C05D9BFECF8CB93196808188230E
:101EC000C9F700E010E020E9E22E21E0F22E81E0E7
:101ED00061E041E021E00E945C0684EF91E0F701BF
:101EE0003197F1F70197D9F78FEF6FEF4FEF2FEFA2
:101EF0000E945C0684EF91E0F7013197F1F70197BA
:101F0000D9F70F5F1F4F0832110509F7FFCFC884BB
:101F1000D984EA84FB840C851D852E853F854889FC
:101F200059896A897B898C890E9470071092F6040E
:101F3000C501B40124E630E040E050E00E944913BE
:101F4000611571058105910509F088CBCF9B07C00C
:101F5000C25EDE4F19821882CE51D1400EC0C25EE1
:101F6000DE4F28813981CE51D1402F5F3F4FC25E75
:101F7000DE4F39832883CE51D140CE9B07C0C45E4B
:101F8000DE4F19821882CC51D1400EC0C45EDE4FA4
:101F900048815981CC51D1404F5F5F4FC45EDE4FC5
:101FA00059834883CC51D14089B3C25EDE4F6881EA
:101FB0007981CE51D1406230710508F45EC0CB0109
:101FC0000A966CE070E00E942213892B49F0C25EF1
:101FD000DE4F88819981CE51D140859708F44DC05C
:101FE000EDEEF3E004C05D9BFECF8CB931968081AD
:101FF0008823C9F78E01085F1F4FC80160E00E9467
:102000008002882309F4FFCFC8010E940702C8019B
:102010000E94FB04ADB7BEB71A970FB6F894BEBFC7
:102020000FBEADBFEDB7FEB731968E0108541F4FFE
:1020300012961C930E93119786EF93E093838283FD
:102040008B85848315828C85868317828D85808716
:1020500011860E948613F8010DB71EB7065F1F4F49
:102060000FB6F8941EBF0FBE0DBF04C05D9BFECF20
:102070008CB9319680818823C9F7C45EDE4F2881F0
:102080003981CC51D1402230310508F45CC0C901FE
:102090000A966CE070E00E942213892B21F0253211
:1020A000310508F450C0EEE0F4E004C05D9BFECFC3
:1020B0008CB9319680818823C9F78E01085F1F4F44
:1020C000C80160E00E948002882309F4FFCFC801A4
:1020D0000E941F02C8010E94FB044DB75EB74A5020
:1020E00050400FB6F8945EBF0FBE4DBFEDB7FEB7C0
:1020F00031968E0108541F4FADB7BEB712961C9390
:102100000E93119786EF93E0938382838B8584836C
:1021100015828C85868317828D85808711860E9423
:102120008613F8010DB71EB7065F1F4F0FB6F89460
:102130001EBF0FBE0DBF04C05D9BFECF8CB9319694
:1021400080818823C9F7C05EDE4F288139814A81AA
:102150005B81C052D140211531054105510539F14E
:102160005695479537952795C05EDE4F288339836E
:102170004A835B83C052D140211531054105510589
:1021800061F440E050E060E070E8C05EDE4F4883FC
:1021900059836A837B83C052D140C05EDE4F688121
:1021A00079818A819B81C052D1400E949D06C501E0
:1021B000B40128EE33E040E050E00E94491361157D
:1021C00071058105910509F049CACE01089661E0C3
:1021D0000E948002182FCE01459660E00E94800286
:1021E000082F832D6C814D812E810E945C06112366
:1021F00011F0002381F5E1EEF3E004C05D9BFECF1A
:102200008CB9319680818823C9F700E010E080E91D
:10221000E82E81E0F82E81E061E041E021E00E94BB
:102220005C0684EF91E0F7013197F1F70197D9F758
:102230008FEF6FEF4FEF2FEF0E945C0684EF91E07E
:10224000F7013197F1F70197D9F70F5F1F4F083268
:10225000110509F7FFCF2C85822F65E00E94161328
:10226000923031F1933018F4913031F40EC0933044
:1022700041F1943009F438C0CC5DDE4FA880B980BC
:10228000CA80DB80C452D14041C0E0EBF0E0A590B1
:10229000B590C590D490CC5DDE4F688179818A81FC
:1022A0009B81C452D140A62AB72AC82AD92A2EC057
:1022B000CC5CDE4FA880B980CA80DB80C453D1409B
:1022C00025C0E8EBF0E0A590B590C590D490CC5D2A
:1022D000DE4F88819981AA81BB81C452D140A82A4E
:1022E000B92ACA2ADB2A12C0ECEBF0E0A590B5901F
:1022F000C590D490CC5DDE4FE880F9800A811B81C7
:10230000C452D140AE28BF28C02AD12A253008F4B3
:10231000C8C02A3068F4ECE5F0E085919591A5916C
:10232000B491E0E7F0E025913591459154911DC0BD
:102330002F3068F4E0E6F0E085919591A591B49195
:10234000E0E7F0E025913591459154910EC024319C
:10235000A8F4ECE6F0E085919591A591B491E0E7C1
:10236000F0E02591359145915491822B932BA42B2C
:10237000B52BA82AB92ACA2ADB2A93C0293168F4C6
:10238000C05DDE4F088119812A813B81C053D14055
:10239000A02AB12AC22AD32A84C02E3198F4ECE5AF
:1023A000F0E085919591A591B491E4E7F0E0259155
:1023B000359145915491E8E7F0E0E590F59005916D
:1023C00014911DC0233238F4E8E7F0E0859195912F
:1023D000A591B49142C02832F8F4ECE5F0E0859183
:1023E0009591A591B491E0E7F0E025913591459163
:1023F0005491E8E7F0E0E590F59005911491822B77
:10240000932BA42BB52BA82AB92ACA2ADB2AAE28DB
:10241000BF28C02AD12A43C02D3268F4E4E6F0E098
:1024200085919591A591B491E4E7F0E025913591DE
:10243000459154910EC02233A8F4ECE6F0E085916A
:102440009591A591B491E4E7F0E0259135914591FE
:102450005491822B932BA42BB52BA82AB92ACA2AD4
:10246000DB2A1DC0273368F4C45DDE4F2881398123
:102470004A815B81CC52D140A22AB32AC42AD52AF0
:102480000EC02C3370F4C85DDE4F488159816A81DB
:102490007B81C852D140A42AB52AC62AD72A81E016
:1024A00001C080E0DE019296EBE7F4E092E3019058
:1024B0000D929150E1F7EB85F0E0E80FF11DEE0F82
:1024C000FF1FEC0FFD1F02A0F3A1E02DEE0FFF1F79
:1024D000EE0FFF1FEC5AFF4F659175918591949116
:1024E000C05EDE4FE880F9800A811B81C052D14076
:1024F000E114F1040105110581F445015601862A14
:10250000972AA82AB92A481459046A047B0429F096
:10251000C501B4010E949D0602C0530142018D8590
:10252000882379F4C884D984EA84FB840C8510E07C
:102530002E853F85488959896A897B898C890E94C3
:1025400070078F81882311F40C94290B98899923A3
:1025500019F481E08C8314C0943628F08FEF8C83BB
:102560008D8380EC0FC0923380F48EEF989FC00172
:10257000112462E370E00E9436136F5F6C8381E088
:102580008D8383E38E830C94290B923311F40C9486
:10259000290B8FEF8C83E92EFF240EEC1FEFE00E4A
:1025A000F11E0027F7FC0095102FC801B7012CEC95
:1025B00030E040E050E00E94F71222E330E040E0DB
:1025C00050E00E9449132D5C2D83C801B7012CEA0D
:1025D00030E040E050E00E94F71222E330E040E0BB
:1025E00050E00E9449132D5C2E830C94290B629FAE
:1025F000D001739FF001829FE00DF11D649FE00DFB
:10260000F11D929FF00D839FF00D749FF00D659F5B
:10261000F00D9927729FB00DE11DF91F639FB00D5A
:10262000E11DF91FBD01CF0111240895991B79E027
:1026300004C0991F961708F0961B881F7A95C9F752
:1026400080950895AA1BBB1B51E107C0AA1FBB1FA1
:10265000A617B70710F0A61BB70B881F991F5A952E
:10266000A9F780959095BC01CD01089597FB092E9F
:1026700007260AD077FD04D0E5DF06D000201AF443
:10268000709561957F4F0895F6F7909581959F4FCE
:10269000089597FB092E05260ED057FD04D014D0BF
:1026A0000AD0001C38F450954095309521953F4F45
:1026B0004F4F5F4F0895F6F790958095709561950F
:1026C0007F4F8F4F9F4F0895A1E21A2EAA1BBB1B6D
:1026D000FD010DC0AA1FBB1FEE1FFF1FA217B307EE
:1026E000E407F50720F0A21BB30BE40BF50B661F04
:1026F000771F881F991F1A9469F7609570958095C8
:1027000090959B01AC01BD01CF010895AEE0B0E012
:10271000ECE8F3E10C9435160D891E8986E08C8374
:102720001A8309838FEF9FE79E838D839E01275E27
:102730003F4FCE0101966F89788DA9010E94AA139F
:102740002F813885020F131FF80110822E96E4E0C6
:102750000C945116ABE0B0E0E0EBF3E10C942716DB
:102760003C012B015A01FC0117821682838181FDF5
:1027700003C06FEF7FEFC6C19AE0892E1E01089457
:10278000211C311CF3012381F20123FD859123FFDC
:1027900081912F01882309F4B2C1853239F423FDD8
:1027A000859123FF81912F01853229F490E0B301B7
:1027B0000E949D15E7CF982FFF24EE249924FFE176
:1027C000FF15D0F09B3269F09C3228F4903259F01A
:1027D000933291F40EC09D3249F0903369F441E098
:1027E00024C052E0F52A84E0F82A28C098E0F92AAB
:1027F00025C0E0E1FE2A22C0F7FC29C0892F8053C2
:102800008A3070F4F6FE05C0989C902C1124980E26
:1028100015C0E89CE02C1124E80EF0E2FF2A0EC05F
:102820009E3229F4F6FC6BC140E4F42A07C09C36C2
:1028300019F450E8F52A02C0983649F4F20123FD54
:10284000959123FF91912F01992309F0B8CF892FFA
:102850008554833018F08052833038F444E050E0DF
:10286000A40EB51E5FE359830FC0933631F0933742
:1028700079F0933509F056C020C0F5018081898335
:1028800042E050E0A40EB51E610101E010E012C06C
:10289000F501C080D180F6FC03C06FEF7FEF02C06E
:1028A000692D70E042E050E0A40EB51EC6010E9402
:1028B00092158C015FE7F52214C0F501C080D1802C
:1028C000F6FC03C06FEF7FEF02C0692D70E042E0BD
:1028D00050E0A40EB51EC6010E9487158C0150E879
:1028E000F52AF3FE07C01AC080E290E0B3010E940F
:1028F0009D15EA948E2D90E008171907A8F30EC0D5
:10290000F601F7FC8591F7FE81916F0190E0B3012C
:102910000E949D15E110EA94015010400115110527
:1029200079F7EAC0943611F0993669F5F7FE08C0D8
:10293000F501208131814281538184E090E00AC019
:10294000F501808191819C01442737FD4095542FEA
:1029500082E090E0A80EB91E9FE6F92257FF09C059
:1029600050954095309521953F4F4F4F5F4FE0E890
:10297000FE2ACA01B901A1012AE030E00E94C9156E
:10298000D82ED21840C0953729F41F2D1F7E2AE07B
:1029900030E01DC01F2D197F9F3661F0903720F465
:1029A000983509F0ACC00FC0903739F0983709F06E
:1029B000A6C004C028E030E00AC0106114FD146015
:1029C00020E130E004C014FD166020E132E017FF82
:1029D00008C0F501608171818281938144E050E0FB
:1029E00008C0F50180819181BC0180E090E042E067
:1029F00050E0A40EB51EA1010E94C915D82ED21810
:102A00008FE7F82EF122F6FE0BC05EEFF522D91407
:102A100038F4F4FE07C0F2FC05C08FEEF82202C0C5
:102A20001D2D01C0192DF4FE0DC0FE01ED0DF11D8F
:102A30008081803319F499EEF92208C01F5FF2FEFD
:102A400005C003C08F2D867809F01F5F0F2DF3FCA2
:102A500014C0F0FE0FC01E1510F09D2C0BC09D2C55
:102A60009E0C911A1E2D06C080E290E0B3010E94D8
:102A70009D151F5F1E15C0F304C01E1510F4E11A4A
:102A800001C0EE2404FF0FC080E390E0B3010E9478
:102A90009D1502FF1DC001FD03C088E790E00EC038
:102AA00088E590E00BC0802F867891F001FF02C08E
:102AB0008BE201C080E2F7FC8DE290E0B3010E945E
:102AC0009D1506C080E390E0B3010E949D159A9485
:102AD000D914C0F3DA94F101ED0DF11D808190E07D
:102AE000B3010E949D15DD20A9F706C080E290E0A9
:102AF000B3010E949D15EA94EE20C1F743CEF30185
:102B000066817781CB012B96E2E10C944316FC01A0
:102B10000590615070400110D8F7809590958E0F08
:102B20009F1F0895FC016150704001900110D8F77B
:102B3000809590958E0F9F1F08950F931F93CF93AD
:102B4000DF938C01EB018B8181FF1BC082FF0DC0E5
:102B50002E813F818C819D812817390764F4E8819B
:102B6000F9810193F983E88306C0E885F985802F10
:102B70000995892B31F48E819F8101969F838E83E5
:102B800002C00FEF1FEFC801DF91CF911F910F918E
:102B90000895FA01AA27283051F1203181F1E894F3
:102BA0006F936E7F6E5F7F4F8F4F9F4FAF4FB1E040
:102BB0003ED0B4E03CD0670F781F891F9A1FA11D3B
:102BC000680F791F8A1F911DA11D6A0F711D811D3C
:102BD000911DA11D20D009F468943F912AE0269F01
:102BE00011243019305D3193DEF6CF010895462F60
:102BF0004770405D4193B3E00FD0C9F7F6CF462F41
:102C00004F70405D4A3318F0495D31FD40524193A9
:102C100002D0A9F7EACFB4E0A69597958795779566
:102C20006795BA95C9F700976105710508959B01ED
:102C3000AC010A2E06945795479537952795BA9576
:102C4000C9F7620F731F841F951FA01D08952F924F
:102C50003F924F925F926F927F928F929F92AF922C
:102C6000BF92CF92DF92EF92FF920F931F93CF9379
:102C7000DF93CDB7DEB7CA1BDB0B0FB6F894DEBF10
:102C80000FBECDBF09942A88398848885F846E8436
:102C90007D848C849B84AA84B984C884DF80EE8080
:102CA000FD800C811B81AA81B981CE0FD11D0FB689
:102CB000F894DEBF0FBECDBFED010895F894FFCFAD
:102CC0006572726F7220636F6E7431203A202564D2
:102CD0000D0A006572726F7220636F6E7432203A53
:102CE0002025640D0A00727463206F666673657434
:102CF000206E6F773A2025640D0A00000303060159
:102D000004060205000305A3028A023002C2014A3A
:102D100001E600F0002C019001EA013A028A02A3C8
:102D200002FA055406A40608075807B207C607802A
:102D3000071C07A4064006FA050406004453540085
:102D40004E4F573A2020253032643A253032643ACB
:102D50002530326420257320253032642E25303210
:102D6000642E25346420555443252B642025730D8F
:102D70000A0078000D0A0D0A0D0A0D0A0D0A0D0A47
:102D80000D0A576F7264436C6F636B2056302E319F
:102D900020696E697469616C697A696E672E2E2E7E
:102DA0000D0A0D0A000D0A52657365742D43617595
:102DB00073653A00756E6B6E6F776E0D0A004A543C
:102DC00041472052657365740D0A0057617463684A
:102DD000646F672052657365740D0A0042726F77E5
:102DE0006E2D4F75742052657365740D0A00457819
:102DF0007465726E616C2052657365740D0A0050C3
:102E00006F7765722D4F6E2052657365740D0A00E1
:102E10000D0A2E2E2E2050574D000D0A2E2E2E203C
:102E200053686966746572000D0A2E2E2E204C447C
:102E30005220414443000D0A2E2E2E2052544300AE
:102E4000204641494C4544202121210D0A00202ED5
:102E50002E2E20525443206572726F722121210D53
:102E60000A000D0A000D0A2E2E2E204C4544204348
:102E70006865636B000D0A2E2E2E205247422043B8
:102E80006865636B002564000D0A2E2E2E204272A9
:102E9000696768746E6573733A000D0A2E2E2E20D2
:102EA000524742204175746F000D0A2E2E2E20527B
:102EB000474220636F6C6F723A20232530327825A9
:102EC00030327825303278000D0A2E2E2E205744CD
:102ED0005420656E61626C65000D0A52656164790B
:102EE0002E2E2E0D0A000D0A5265626F6F74696EE8
:102EF0006720766961205761746368646F672E2E5E
:102F00002E0D0A000D0A50617274792D4D6F6465A3
:102F10002E2E2E0D0A000D0A4C696768742D4D6F18
:102F200064652E2E2E0D0A00696E616374697665E4
:102F300000616374697665006272696768746E65C2
:102F4000737320636F6E74726F6C206973202573C6
:102F50000D0A007A206D61636874206B65696E6587
:102F60006E2073696E6E206D697420272563272E8D
:102F70002E2E0D0A0068206D61636874206B6569F0
:102F80006E656E2073696E6E206D697420272563EF
:102F9000272E2E2E0D0A006D206D61636874206B44
:102FA00065696E656E2073696E6E206D6974202789
:102FB0002563272E2E2E0D0A0044206D6163687450
:102FC000206B65696E656E2073696E6E206D697425
:102FD00020272563272E2E2E0D0A004D206D6163BC
:102FE0006874206B65696E656E2073696E6E206D06
:102FF000697420272563272E2E2E0D0A0059206D77
:1030000061636874206B65696E656E2073696E6EAE
:10301000206D697420272563272E2E2E0D0A007738
:10302000617320736F6C6C20696368206D69742014
:103030002725732720616E66616E67656E3F0D0AF6
:1030400000525443206572726F720D0A00486F750A
:10305000722B2B0D0A0074696D65203A20253032E1
:10306000643A253032643A253032640D0A004D69E5
:103070006E2B2B0D0A000000000000000000000075
:103080000000000000000000000000000000000040
:103090000000000000000000000000000000000030
:1030A0000000000000000000000000000000000020
:1030B0000000000000000000000000000000000010
:1030C0000000000000000000000000000000000000
:1030D00000000000000000000000000A000C000BCF
:1030E000000E0012000F0015000D00130011001457
:1030F0000010000A000C000B000E0012000F00155B
:0E310000000D0013001100140010000A000062
:00000001FF
