:100000000C9466000C9483000C9483000C94830081
:100010000C9483000C9483000C9483000C94830054
:100020000C9483000C9483000C9483000C94830044
:100030000C9483000C94A2060C9483000C9483000F
:100040000C9483000C9483000C9483000C94830024
:100050000C94830001000000020000000400000076
:100060000800000010000000200000004000000018
:1000700080000000000100000002000000040000F9
:100080000018000000300000004000000080000068
:100090000000010000000200000004000000080051
:1000A0000000100000002000000040000000800060
:1000B0000000000100000002000000040000000831
:1000C00000000010000000200000004011241FBEAE
:1000D000CFE5D8E0DEBFCDBF15E0A0E6B0E0ECEDA7
:1000E000FBE202C005900D92A032B107D9F715E0EE
:1000F000A0E2B5E001C01D92A137B107E1F70E946F
:1001000026080C94EC150C9400008091200588239F
:1001100031F411B88AE080B981E08093200580E055
:100120000895982FFB0184EA86BF06B607FEFDCF2F
:1001300081B1887F883011F0803161F493B984E80F
:1001400086BF06B607FEFDCF81B1887F883129F0D2
:10015000803419F0808381E0089580E0089544EAB6
:1001600034E824E946BF06B607FEFDCF91B1987F7B
:10017000983011F09031B1F783B936BF06B607FE5B
:10018000FDCF91B1987F903211F0983529F426BFB8
:1001900006B604FCFDCFE6CF08950E9491000895B5
:1001A00084E986BF06B604FCFDCF0895FB0183B940
:1001B00084E886BF06B607FEFDCF81B1887F88320E
:1001C00011F480E00895808381E0089584EC86BF77
:1001D00006B607FEFDCF83B1089584E886BF06B654
:1001E00007FEFDCF83B10895282F22952F709AE046
:1001F000299F900111248F70820F0895382F8DEC64
:10020000389FC0011124292F26952695269586EF23
:100210009FEF289F802D1124830F2295207F822B12
:100220000895809123050895FC0180818F5F80836C
:100230000895FC018081815080830895FC018181B3
:100240008F5F81838D3028F081E0818380818F5F93
:1002500080830895FC01818181508183882329F462
:100260008CE081838081815080830895FC013281FC
:100270003F5F32838181863059F0873028F48230A5
:1002800059F0843039F404C0893011F08B3011F406
:100290008EE112C08FE110C02081822F90E0837028
:1002A0009070892B41F4822F64E60E94A412992356
:1002B00011F08DE101C08CE1831728F481E0828385
:1002C000CF010E941E010895FC013281315032831A
:1002D000818190E001978630910571F0873091051A
:1002E00034F48230910561F0049741F405C08930FF
:1002F000910511F00B9711F48EE112C08FE110C03F
:100300002081822F90E083709070892B41F4822F9E
:1003100064E60E94A412992311F08DE101C08CE1E2
:10032000332321F48283CF010E942A010895FC0126
:1003300083818F5F8383883120F01382CF010E94F5
:1003400036010895FC018381882331F487E183839A
:10035000CF010E9464010895815083830895FC01B8
:1003600084818F5F84838C3320F01482CF010E94BC
:1003700097010895FC018481882331F48BE3848301
:10038000CF010E94A2010895815084830895EF92C5
:10039000FF920F931F93CF93DF93182FF62EE72E24
:1003A000042F80912205882391F1442381F1812F2C
:1003B00090E0840F911D813491054CF580ED0E94F1
:1003C000AF00812F63E275E00E94D6008823D9F444
:1003D00081ED63E275E00E94CD008823A1F4CF2D6A
:1003E000DE2D102F7E0105C00E94E600F7018193EB
:1003F0007F011150C9F70E94ED000150C00FD11DBF
:10040000888311E001C010E00E94D00001C010E01C
:10041000812FDF91CF911F910F91FF90EF90089561
:100420007F928F929F92AF92BF92CF92DF92EF9284
:10043000FF920F931F93DF93CF93CDB7DEB727972C
:100440000FB6F894DEBF0FBECDBF6C01E62E8091D3
:100450002205882311F47724B6C180E0BE016F5FC6
:100460007F4F47E00E94C701882311F4772474C0AE
:100470004F81842F82958F703AE0839FC0011124B1
:100480004F70480FD6014C932E81822F82958F702A
:10049000839FC0011124122F1F70180F11961C93F7
:1004A00011972D81822F82958F70839FC001112417
:1004B000022F0F70080F12960C9312972B81822F28
:1004C00082958F70839FC00111242F70280F13967F
:1004D0002C9313972A81822F82958F70839FC0015E
:1004E00011242F70280F14962C9314972981822F92
:1004F00082958F70839FC00111242F70280F15964D
:100500002C93E12FF0E0EC58FF4FE081242F30E0F6
:1005100046954695C901840F911D67E070E00E94E1
:10052000C412482F23703070232B19F4133008F4B1
:100530004A5F802F67E00E94A412892F90E0069600
:100540008E0F911D840F911D67E070E00E94C41210
:10055000F601868377247394EE2009F434C1D60122
:100560001196EC918E2F90E0FC01EE0FFF1FDF0142
:10057000AF57BF4F0D911C91E356FF4FE080F180C4
:100580005C010894A11CB11CF601228130E0AA0C88
:10059000BB1CF501EF57FF4F80819181801B910BB0
:1005A000AC01429FC001439F900D529F900D1124BA
:1005B0006FE170E00E94C4124B01800E911E8DE924
:1005C00090E0A80EB91ED5018D919C918E199F09BE
:1005D000FC01E29FC001E39F900DF29F900D11245A
:1005E0006FE170E00E94C412FB01EE0DFF1DC4011B
:1005F00064E670E00E94C412D60119966C93CF0194
:1006000064E670E00E94C412D6011B966C93C4018C
:1006100064E670E00E94C4122CE330E0AC01429F1B
:10062000C001439F900D529F900D112464E670E02D
:100630000E94C412D6011A966C93CF0164E670E052
:100640000E94C412AC01429FC001439F900D529F73
:10065000900D112464E670E00E94C412D6011C962D
:100660006C931C9714968C9124E6829FC0011124F0
:100670006CE370E00E94C412D60113968C9113971C
:10068000829FC0011124680F791F681579052CF429
:1006900018961C9200E010E043C0C4018C599F4F93
:1006A000681779072CF468197909F6016087F2CF89
:1006B0006E177F0724F4D60118962C93EBCFCF0149
:1006C0008C599F4F681779073CF4E61BF70B8E2F68
:1006D0008C59F6018087DECFD601DACF12166CF482
:1006E000C6010E949701F60181858F5F818783850E
:1006F0008F5F83870F5F1F4F13C0C6010E94A20147
:10070000D60119968C911997815019968C93199747
:100710001B968C911B9781501B968C930150104017
:1007200020912105822F992787FD90950817190799
:10073000A9F6F6012181822F83508830C8F4822FD8
:1007400084508630B8F0D60116963C9116971296D2
:100750008C91129790E0831B9109499704F1332300
:1007600021F413968C918330D0F02A3019F4F601DD
:10077000178229C0D60119968C9119978F5F199607
:100780008C9319971B968C911B978F5F1B968C935C
:10079000C6010E94970181E0F601878314C02330CF
:1007A00021F4D60117961C920EC0F60181858F5F49
:1007B000818783858F5F8387C6010E94970181E0CF
:1007C000D60117968C93872D27960FB6F894DEBF27
:1007D0000FBECDBFCF91DF911F910F91FF90EF9092
:1007E000DF90CF90BF90AF909F908F907F900895B3
:1007F000805F41E00E94C7010895EF92FF920F933E
:100800001F93CF93DF93082FF62EE72E142F80919E
:100810002205882341F1442331F1802F90E0840F99
:10082000911D81349105FCF480ED0E94AF00802F72
:1008300063E275E00E94D600882389F48F2D9E2DF7
:100840009C01E901888163E275E00E94D6001150A5
:10085000882329F421961123A9F711E001C010E0A3
:100860000E94D00001C010E0812FDF91CF911F9135
:100870000F91FF90EF900895EF92FF920F931F93C7
:10088000DF93CF9300D0CDB7DEB78C017B018FEF24
:10089000FB0180830E948500F80180838823C9F4CE
:1008A00081E08093220580E88093240580912405CF
:1008B0008A8387E0BE016E5F7F4F41E00E94FD03A7
:1008C000882311F583E0F801808380912305F701E7
:1008D000808380E010C0898187FF07C08F7789837C
:1008E00080E0B80141E00E94FD0381E061E275E033
:1008F0000E94F80381E00F900F90CF91DF911F913C
:100900000F91FF90EF90089580E08E010F5F1F4FD1
:10091000B80141E00E94C7018823E9F6E6CFDF93E2
:10092000CF93CDB7DEB727970FB6F894DEBF0FBED3
:10093000CDBFFC0180912205882309F477C0658131
:100940004DEC649FC001112496959695969526EFDF
:100950003FEF929F802D1124860F9295907F892BD7
:1009600089836481649FC00111249695969596951C
:10097000929F802D1124860F9295907F892B8A83D8
:100980006381649FC0011124969596959695929FD8
:10099000802D1124860F9295907F892B8B83668101
:1009A000649FC0011124969596959695929F802DEF
:1009B0001124860F9295907F892B8F5F8C836281A3
:1009C000649FC0011124969596959695929F802DCF
:1009D0001124860F9295907F892B8D836181649F6E
:1009E000C0011124969596959695929F802D11247D
:1009F000860F9295907F892B8E839081949FA00182
:100A00001124852F869586958695829F202D112409
:100A1000290F8295807F282B2F8380E0BE016F5F96
:100A20007F4F47E00E94FD03811181E027960FB6BA
:100A3000F894DEBF0FBECDBFCF91DF910895DF9355
:100A4000CF930F92CDB7DEB76983805FBE016F5F32
:100A50007F4F41E00E94FD030F90CF91DF910895F9
:100A60000F931F93DF93CF93CDB7DEB7C456D0401B
:100A70000FB6F894DEBF0FBECDBF682F282F30E031
:100A800080912105992787FD90952817390761F1F5
:100A90006093210581E00E941F0500D000D000D0A6
:100AA000EDB7FEB731968E010F5F1F4FADB7BEB7E2
:100AB00012961C930E93119780E690E093838283A5
:100AC00080912105992787FD9095958384830E94C5
:100AD00014138DB79EB706960FB6F8949EBF0FBE3F
:100AE0008DBFC8010E945606CC59DF4F0FB6F8944F
:100AF000DEBF0FBECDBFCF91DF911F910F91089543
:100B0000DF93CF930F92CDB7DEB780E687B985E844
:100B100086B9369A3699FECF85B1898320E030E0D8
:100B20008981F901EA5DFA4F80832F5F3F4F2034BE
:100B30003105B1F7898190E0909367058093660550
:100B4000809166059091670526E0880F991F2A9588
:100B5000E1F79093670580936605369A0F90CF91E1
:100B6000DF910895809166059091670536E096952E
:100B700087953A95E1F780950895369922C045B159
:100B8000809166059091670530912505E32FF0E08F
:100B9000EA5DFA4F2081821B91099093670580934B
:100BA000660540838091660590916705840F911DCD
:100BB00090936705809366053F5F3F7330932505EB
:100BC000369A08958CEF81BB81EA8FBD81E08EBD9E
:100BD00081E685BD8DE783BF89B7837C89BF089592
:100BE000982F853098F085508D3230F4892F65E04C
:100BF0000E94A412982F0AC0892F90E09C01229F86
:100C0000C001239F900D329F900D1124892F0895CC
:100C1000DF92EF92FF920F931F93F42ED22E082FA4
:100C200010E0862F0E94F00590E09C01029FC00119
:100C3000039F900D129F900D11246FEF70E00E94A2
:100C4000B012E62E609368058F2D0E94F00590E0AB
:100C50009C01029FC001039F900D129F900D1124D3
:100C60006FEF70E00E94B012F62E609369058D2D33
:100C70000E94F00590E09C01029FC001039F900D2F
:100C8000129F900D11246FEF70E00E94B0126093DC
:100C90006A05E8BCFABC63BD1F910F91FF90EF900D
:100CA000DF9008955D9BFECF8CB90895FC0104C0D0
:100CB0005D9BFECF8CB9319680818823C9F708955A
:100CC0009B01AC0180916B0590916C05A0916D0525
:100CD000B0916E05281739074A075B0709F1209381
:100CE0006B0530936C0540936D0550936E05852F11
:100CF0009927AA27BB278FB9779BFECFCA01AA27BE
:100D0000BB278FB9779BFECFBB27A52F942F832FAF
:100D10008FB9779BFECF2FB9779BFECFC498C49A2B
:100D2000089587B3806B87BBBE9888B3806588BB06
:100D30008BE58DB9709A6FEF7FEF8FEF9FEF0E9479
:100D4000600608951F920F920FB60F9211248F9391
:100D50009F93EF93FF939CB180916F058823F9F4E3
:100D60009A3091F09D3081F080917005833660F467
:100D7000E0917005F0E0E757FB4F9083809170059C
:100D80008F5F809370050BC0E0917005F0E0E7572E
:100D9000FB4F10821092700581E080936F05FF91E8
:100DA000EF919F918F910F900FBE0F901F9018950C
:100DB000982F80538A3028F4292F30E02053304078
:100DC00014C0892F8154863028F4292F30E027530E
:100DD00030400BC0892F8156863018F02FEF3FEF3F
:100DE00004C0292F30E027553040C90108950F93E2
:100DF0001F93CF93DF938C01FC0180810E94D80662
:100E0000EC01F8018181D7FD0DC00E94D80697FD45
:100E100009C09E0174E0220F331F7A95E1F7280F75
:100E2000391F02C02FEF3FEFC901DF91CF911F9112
:100E30000F9108952F923F924F925F926F927F92FF
:100E40008F929F92AF92BF92CF92DF92EF92FF92DA
:100E50000F931F93DF93CF93CDB7DEB7C157D04029
:100E60000FB6F894DEBF0FBECDBFFE01EB59FF4FAA
:100E70007C2CC082CD2CD182DE2CE282EF2CF3823E
:100E8000F02E0483A12F15832683132F37834087E9
:100E9000352F5187262F6287972F738784875A2F84
:100EA000642E29011C0140912105892809F06EC09A
:100EB000112319F429EB30E002C02AEB30E08DB7A2
:100EC0009EB746970FB6F8949EBF0FBE8DBFEDB785
:100ED000FEB731968E010F5F1F4FADB7BEB71296AA
:100EE0001C930E9311978EEB90E093838283E482A0
:100EF0001582F68217825087118680EF90E09387E3
:100F00008287D4861586C6861786872D90E0805303
:100F1000984F918B808B842F992787FD9095938B89
:100F2000828B358B248B0E9414138DB79EB7469607
:100F30000FB6F8949EBF0FBE8DBFC8010E94560623
:100F4000AB2809F469C0ADB7BEB71E970FB6F894C9
:100F5000BEBF0FBEADBFEDB7FEB7319612961C9364
:100F60000E93119782EF90E09383828364821582BF
:100F7000568217824086118632861386248615860D
:100F80000E9414138DB79EB70E963EC0112319F41C
:100F900029EB30E002C02AEB30E0ADB7BEB7569780
:100FA0000FB6F894BEBF0FBEADBFEDB7FEB731961A
:100FB0008E010F5F1F4F12961C930E93119784E1C1
:100FC00091E093838283E4821582F68217825087B0
:100FD000118680EF90E093878287D4861586C68637
:100FE0001786872D90E08053984F918B808B842FAC
:100FF000992787FD9095938B828B358B248B0E944C
:1010000014138DB79EB746960FB6F8949EBF0FBEC9
:101010008DBFC8010E945606CF58DF4F0FB6F89417
:10102000DEBF0FBECDBFCF91DF911F910F91FF901B
:10103000EF90DF90CF90BF90AF909F908F907F9078
:101040006F905F904F903F902F9008953F924F92F6
:101050005F926F927F928F929F92AF92BF92CF9248
:10106000DF92EF92FF920F931F93DF93CF93CDB751
:10107000DEB7C75FD1400FB6F894DEBF0FBECDBF5D
:10108000A895F8948AB188698AB980B5866880BDC8
:10109000AF98A79A10BC8FE589B98FE391E00E94C1
:1010A000560688EE93E020E731E0F9013197F1F739
:1010B0000197D9F783E491E00E94560688EE93E009
:1010C00020E731E0F9013197F1F70197D9F710BC2A
:1010D00087E089B989E491E00E9456068AE791E0A9
:1010E0000E94560684B790E08F719070843091050D
:1010F000A9F08530910534F48130910549F00297CB
:10110000B1F409C08830910561F0409781F40CC0BA
:1011100089E891E00EC08AE991E00BC08BEA91E08A
:1011200008C08DEB91E005C08EEC91E002C08BED24
:1011300091E00E94560614BE85EE91E00E9456068C
:1011400020E030E040E050E9A895CA010197F1F7AE
:101150002F5F3F4F22333105B9F7AF9A20E030E0DF
:1011600040E050E9A895CA010197F1F72F5F3F4F82
:1011700022333105B9F789EF91E00E9456068DE0E0
:1011800081BD78948AE092E00E9456060E94E205B2
:101190008FE06FEF40E020E00E940806A89584E110
:1011A00092E00E9456060E9491068FE06FEF4FEF8B
:1011B00020E00E940806A89582E292E00E9456066E
:1011C0000E9480058FE060E04FEF2FEF0E9408063D
:1011D000A89580E392E00E945606CE010196BE01DA
:1011E0006E5F7F4F0E943C04882309F58AE392E0FA
:1011F0000E94560600E711E08FE060E040E020E04A
:101200000E94080688EC90E0F8013197F1F7019709
:10121000D9F78FE06FEF4FEF2FEF0E94080688ECB1
:1012200090E0F8013197F1F70197D9F7E5CFA8954C
:10123000CE01089661E00E9410028823A9F0C884BC
:10124000D984EA84FB840C851D852E853F854889D9
:1012500059896A897B898C89AA24BB24E1E08E2E76
:10126000912C0E941A0704C088E492E00E9456065E
:101270008CE592E00E94560660E070E080E090E02D
:101280000E9460068FEF6FEF4FEF2FEF0E9408066E
:10129000A895E12CF12C012D60E8162FCC24DD243B
:1012A00050E7A52E51E0B52EA895C801B7010E94C0
:1012B000600616950795F794E79488EC90E0F501A1
:1012C0003197F1F70197D9F70894C11CD11C20E29E
:1012D000C216D10449F760E070E080E090E00E941F
:1012E000600620E030E040E050E9A895CA0101978F
:1012F000F1F72F5F3F4F22333105B9F731E0E32E8D
:10130000F12C012D112DCC24DD2420E7A22E21E08B
:10131000B22EA895C801B7010E946006EE0CFF1C12
:10132000001F111F88EC90E0F5013197F1F701974C
:10133000D9F70894C11CD11C30E2C316D10449F777
:10134000A8958CE692E00E9456066FEF7FEF8FEF34
:101350009FEF0E9460068FE76FEF40E020E00E9461
:10136000080620E030E040E050E9A895CA01019766
:10137000F1F72F5F3F4F24313105B9F78FE760E078
:101380004FEF20E00E94080620E030E040E050E906
:10139000A895CA010197F1F72F5F3F4F243131051E
:1013A000B9F78FE760E040E02FEF0E94080620E0E9
:1013B00030E040E050E9A895CA010197F1F72F5FAE
:1013C0003F4F24313105B9F780E06FEF4FEF2FEF3A
:1013D0000E940806A89581E08B8382E0BE016D5FC4
:1013E0007F4F0E94F80300D000D000D0EDB7FEB7C9
:1013F00031968E010C5A1F4FADB7BEB712961C9393
:101400000E9311978CE792E0938382838B81848380
:1014100015820E9414132DB73EB72A5F3F4F0FB6B7
:10142000F8943EBF0FBE2DBF8FE792E00E94560694
:10143000C8010E94560684E0BE016C5F7F4F0E9487
:10144000F80385E0BE016B5F7F4F0E94F80386E0E2
:10145000BE016A5F7F4F0E94F80383E0BE01695FAF
:101460007F4F0E94F8038F81882361F54DB75EB7E7
:101470004A5050400FB6F8945EBF0FBE4DBFEDB757
:10148000FEB73196ADB7BEB712961C930E93119767
:1014900081E992E0938382838C81848315828D819C
:1014A000868317828E81808711860E9414132DB740
:1014B0003EB7265F3F4F0FB6F8943EBF0FBE2DBF1D
:1014C000C80102C080EB92E00E9456068FEB92E0CA
:1014D0000E945606C851DE4F188219821A821B825A
:1014E000C85ED14044244A94542C3201CA51DE4F84
:1014F00019821882C65ED140CC51DE4F1982188203
:10150000C45ED14024E530E0F901459155916591E3
:1015100074912C5F3F4FF90185919591A591B491FC
:10152000C451DE4F88839983AA83BB83CC5ED140AC
:10153000ECEAF0E085919591A591B491C451DE4F0C
:10154000A880B980CA80DB80CC5ED140A42AB52AAD
:10155000C62AD72AA82AB92ACA2ADB2AC451DE4FAA
:10156000A882B982CA82DB82CC5ED140ECE5F0E091
:10157000C590D590E590F490E4E7F0E085919591E1
:10158000A591B491C82AD92AEA2AFB2AC051DE4F74
:10159000C882D982EA82FB82C05FD140ECEBF0E0E6
:1015A000E590F59005911491CC50DE4FE882F982D8
:1015B0000A831B83C45FD140E4EBF0E025913591B1
:1015C00045915491E0EBF0E0E590F5900591149190
:1015D000E8EBF0E085919591A591B491CC50DE4F68
:1015E000A880B980CA80DB80C45FD140A22AB32A18
:1015F000C42AD52AC451DE4F288139814A815B81B2
:10160000CC5ED140A22AB32AC42AD52AAE28BF284C
:10161000C02AD12AA82AB92ACA2ADB2ACC50DE4FEE
:10162000A882B982CA82DB82C45FD14003C044244D
:1016300055243201A89586E69EE00197F1F70894BB
:10164000411C511C611C711C0E94BD058B818823AB
:1016500019F433243A9408C00E94B205382E87FD4D
:1016600003C0369430E4330E832D6C814D812E817E
:101670000E940806C301B2012AE030E040E050E0D9
:101680000E94D712611571058105910599F6809127
:101690006F05882309F4E1C3809189048E3309F032
:1016A0008DC380918A048C3609F437C18D3608F5D4
:1016B000893509F426C38A3590F4843409F4BFC20D
:1016C000853448F48D3209F49BC28F3359F18B3243
:1016D00009F04FC38AC28D3409F04BC3E1C283368F
:1016E00009F48CC1883609F448C2823609F041C336
:1016F0004EC1823709F446C1833750F4803709F46C
:101700003FC0813708F0B4C08D3609F032C366C2DD
:10171000853709F4AAC18A3709F4FCC1843709F076
:1017200028C3D5C14DB75EB74C5050400FB6F894A2
:101730005EBF0FBE4DBFEDB7FEB731968E01045EA2
:101740001E4FADB7BEB712961C930E9311978CEC3B
:1017500092E0938382833482158280916805868328
:101760001782809169058087118680916A0582873A
:1017700013860E9414132DB73EB7245F3F4F16C344
:1017800089EF92E00E9456066FEF7FEF8FEF9FEF99
:101790000E94600610926F0500E711E062C08FEFB3
:1017A00060E840E020E00E940806A89588EC90E000
:1017B000F8013197F1F70197D9F78FEF6FEF40E01C
:1017C00020E00E940806A89580ED97E0F801319787
:1017D000F1F70197D9F78FEF60E040E820E00E9431
:1017E0000806A89588EC90E0F8013197F1F7019789
:1017F000D9F78FEF60E04FEF20E00E940806A89530
:1018000080ED97E0F8013197F1F70197D9F78FEF65
:1018100060E040E020E80E940806A89588EC90E08F
:10182000F8013197F1F70197D9F78FEF60E040E0C9
:101830002FEF0E940806A89580ED97E0F8013197F8
:10184000F1F70197D9F78FEF6FEF4FEF2FEF0E946E
:101850000806A89580ED97E0F8013197F1F7019718
:10186000D9F780916F05882309F499CFA8954EC0C8
:101870008BE894E00E94F7067C010027F7FC0095B6
:10188000102F102F0F2DFE2CEE248DE894E00E94D7
:10189000F706AA2797FDA095BA2FE82AF92A0A2B5E
:1018A0001B2B102F0F2DFE2CEE248FE894E00E94AE
:1018B000F706AA2797FDA095BA2FE82AF92A0A2B3E
:1018C0001B2B102F0F2DFE2CEE2481E994E00E949B
:1018D000F706AA2797FDA095BA2FE82AF92A0A2B1E
:1018E0001B2BC801B7010E94600610926F0520E70C
:1018F00031E008C0A89580ED97E0F9013197F1F744
:101900000197D9F780916F058823A1F380E060E00B
:1019100040E020E00E94080651C28BE093E00E9464
:1019200056066FEF7FEF8FEF9FEF0E9460061092D9
:101930006F058FEF6FEF4FEF2FEF0E94080620E744
:1019400031E008C0A89588EC90E0F9013197F1F7F3
:101950000197D9F780916F058823A1F3A89580E0BE
:1019600060E040E020E00E9408068FEF9FEFAFEFBD
:10197000BFEF80936B0590936C05A0936D05B093BA
:101980006E051CC28DE193E00E945606FFCF809148
:101990008B048B3219F08D3251F405C081E08B83BA
:1019A00082E061E00BC01B8282E060E007C060E083
:1019B0008B81882309F461E06B8382E00E941F051C
:1019C0008B81882319F42BE333E002C024E433E055
:1019D00000D000D000D0EDB7FEB731968E0108548C
:1019E0001F4FADB7BEB712961C930E9311978BE4A1
:1019F00093E09383828335832483D2C18BE894E080
:101A00000E94F7067C018DE894E00E94F7068C01A5
:101A10008FE894E00E94F7069C01F7FC04C017FDD4
:101A200002C097FF08C08F81882311F01F8218C061
:101A300081E08F8315C01F82EC820D838E83832DFE
:101A40006E2D402F0E94080684E06C810E941F05C5
:101A500085E06D810E941F0586E06E810E941F0552
:101A600083E06F810E941F05A9C18BE894E00E946A
:101A7000F7064C018DE894E00E94F7065C018FE8C0
:101A800094E00E94F7066C0181E994E00E94F70659
:101A90007C0183E994E00E94F7068C0185E994E0DB
:101AA0000E94F70697FC8AC1B7FC88C1D7FC86C1A3
:101AB000F7FC84C117FD82C197FD80C18B86AC867F
:101AC000CD86EA8609878887CE01089637C1C85136
:101AD000DE4F488159816A817B81C85ED1404115C2
:101AE00051056105710569F460E070E080E090E8FF
:101AF000C851DE4F688379838A839B83C85ED14057
:101B00005DC1C851DE4F188219821A821B82C85EDD
:101B1000D14054C180918B048B3219F08D32C9F4BD
:101B20000BC0809121058C301CF083EF8093210540
:101B3000809121058F5F0AC080912105853F1CF4AB
:101B40008DE0809321058091210581500E94300510
:101B500035C120918B0400D000D000D0EDB7FEB786
:101B600031968E0108541F4FADB7BEB712961C9325
:101B70000E93119786E693E0F7C080918B048B3229
:101B800019F08D32B9F40BC08E01085F1F4FC801E8
:101B900060E00E941002C8010E949701CEC08E0131
:101BA000085F1F4FC80160E00E941002C8010E9438
:101BB000A201C3C020918B0400D000D000D0EDB7AB
:101BC000FEB731968E0108541F4FADB7BEB71296BF
:101BD0001C930E93119788E893E0C6C080918B0404
:101BE0008B3219F08D32B9F40BC08E01085F1F4F94
:101BF000C80160E00E941002C8010E94AF019DC0B0
:101C00008E01085F1F4FC80160E00E941002C801EA
:101C10000E94BA0192C020918B0400D000D000D065
:101C2000EDB7FEB731968E0108541F4FADB7BEB762
:101C300012961C930E9311978AEA93E095C08091B7
:101C40008B048B3219F08D32B9F40BC08E01085F12
:101C50001F4FC80160E00E941002C8010E943601B7
:101C60006CC08E01085F1F4FC80160E00E94100227
:101C7000C8010E94640161C020918B0400D000D093
:101C800000D0EDB7FEB731968E0108541F4FADB7A7
:101C9000BEB712961C930E9311978CEC93E064C020
:101CA00080918B048B3219F08D32B9F40BC08E0108
:101CB000085F1F4FC80160E00E941002C8010E9427
:101CC0001E013BC08E01085F1F4FC80160E00E94EB
:101CD0001002C8010E942A0130C020918B0400D05C
:101CE00000D000D0EDB7FEB731968E0108541F4FDB
:101CF000ADB7BEB712961C930E9311978EEE93E07C
:101D000033C080918B048B3219F08D32D1F40BC02B
:101D10008E01085F1F4FC80160E00E941002C801D9
:101D20000E9414010AC08E01085F1F4FC80160E0C5
:101D30000E941002C8010E941901C8010E948F046C
:101D40003DC020918B0400D000D000D0EDB7FEB78D
:101D500031968E0108541F4FADB7BEB712961C9333
:101D60000E93119780E194E09383828324831582FC
:101D700017C000D000D000D0EDB7FEB731968E016D
:101D800008541F4FADB7BEB712961C930E93119710
:101D900082E394E09383828389E894E0958384834B
:101DA0000E9414132DB73EB72A5F3F4F0FB6F89429
:101DB0003EBF0FBE2DBFC8010E945606CE01089639
:101DC00061E00E941002182FCE01459660E00E944B
:101DD0001002112311F0882351F584E594E00E944C
:101DE000560600E010E0F0E7EF2EF1E0FF2E81E074
:101DF00061E041E021E00E94080684EF91E0F701F4
:101E00003197F1F70197D9F78FEF6FEF4FEF2FEF82
:101E10000E94080684EF91E0F7013197F1F70197EE
:101E2000D9F70F5F1F4F0832110509F7FFCFC8849C
:101E3000D984EA84FB840C851D852E853F854889DD
:101E400059896A897B898C89E1E0AE2EB12C88247E
:101E500099240E941A0710926F05C301B20124E66B
:101E600030E040E050E00E94D71261157105810515
:101E7000910509F0DFCBCF9B07C0CA51DE4F198215
:101E80001882C65ED1400EC0CA51DE4F48815981CA
:101E9000C65ED1404F5F5F4FCA51DE4F59834883C2
:101EA000C65ED140CE9B07C0CC51DE4F198218824E
:101EB000C45ED1400EC0CC51DE4F68817981C45ED2
:101EC000D1406F5F7F4FCC51DE4F79836883C45E12
:101ED000D14089B3CA51DE4F88819981C65ED14015
:101EE0008230910508F454C00A966CE070E00E94BC
:101EF000B012892B49F0CA51DE4FA881B981C65E64
:101F0000D140959708F444C080E694E00E945606BC
:101F10008E01085F1F4FC80160E00E9410028823F5
:101F200009F4FFCFC8010E949701C8010E948F04E5
:101F30000DB71EB70A5010400FB6F8941EBF0FBE63
:101F40000DBFEDB7FEB731968E0108541F4FADB7E8
:101F5000BEB712961C930E93119789E694E0938373
:101F600082838B85848315828C85868317828D85F9
:101F7000808711860E9414132DB73EB7265F3F4F0E
:101F80000FB6F8943EBF0FBE2DBFC8010E94560683
:101F9000CC51DE4F48815981C45ED1404230510559
:101FA00008F455C0CA010A966CE070E00E94B012B5
:101FB000892B51F0CC51DE4F68817981C45ED140CC
:101FC0006532710508F443C081E894E00E9456062A
:101FD0008E01085F1F4FC80160E00E941002882335
:101FE00009F4FFCFC8010E94AF01C8010E948F040D
:101FF0008DB79EB70A970FB6F8949EBF0FBE8DBFE0
:10200000EDB7FEB731968E0108541F4FADB7BEB77E
:1020100012961C930E93119789E694E09383828322
:102020008B85848315828C85868317828D85808736
:1020300011860E9414132DB73EB7265F3F4F0FB68F
:10204000F8943EBF0FBE2DBFC8010E945606C8516E
:10205000DE4F488159816A817B81C85ED14041153C
:1020600051056105710539F1769567955795479545
:10207000C851DE4F488359836A837B83C85ED14051
:10208000411551056105710561F460E070E080E083
:1020900090E8C851DE4F688379838A839B83C85E4A
:1020A000D140C851DE4F688179818A819B81C85EA9
:1020B000D1400E946006C301B20128EE33E040E047
:1020C00050E00E94D712611571058105910509F054
:1020D000B1CACE01089661E00E941002182FCE010D
:1020E000459660E00E941002082F832D6C814D817F
:1020F0002E810E940806112311F0002351F584E57A
:1021000094E00E94560600E010E080E7E82E81E0AF
:10211000F82E81E061E041E021E00E94080684EFB2
:1021200091E0F7013197F1F70197D9F78FEF6FEF52
:102130004FEF2FEF0E94080684EF91E0F7013197EF
:10214000F1F70197D9F70F5F1F4F0832110509F713
:10215000FFCF1C85812F65E00E94A412923039F1D7
:10216000933018F4913039F40FC0933009F438C02B
:10217000943009F45CC0C451DE4FA880B980CA8095
:10218000DB80CC5ED1405BC0ECEBF0E0A590B5907D
:10219000C590D490C451DE4F88819981AA81BB81BA
:1021A000CC5ED140A82AB92ACA2ADB2A48C0ECEB67
:1021B000F0E0A590B590C590D490E4EBF0E0859167
:1021C0009591A591B491A82AB92ACA2ADB2AC451AB
:1021D000DE4F288139814A815B81CC5ED14022C0AB
:1021E000ECEBF0E0A590B590C590D490E4EBF0E076
:1021F00085919591A591B491E0EBF0E02591359111
:1022000045915491A82AB92ACA2ADB2AC451DE4F23
:10221000688179818A819B81CC5ED140A62AB72AC8
:10222000C82AD92AA22AB32AC42AD52A08C0CC503F
:10223000DE4FA880B980CA80DB80C45FD1401530F2
:1022400008F4C4C01A3068F4ECE5F0E0859195918B
:10225000A591B491E0E7F0E0259135914591549135
:102260001DC01F3068F4E0E6F0E085919591A591DE
:10227000B491E0E7F0E025913591459154910EC07D
:102280001431A8F4ECE6F0E085919591A591B49114
:10229000E0E7F0E02591359145915491822B932B05
:1022A000A42BB52BA82AB92ACA2ADB2A8FC0193138
:1022B00068F4E4E6F0E085919591A591B491E0E7AA
:1022C000F0E02591359145915491E8CF1E3198F475
:1022D000ECE5F0E085919591A591B491E4E7F0E00B
:1022E0002591359145915491E8E7F0E0E590F5901E
:1022F000059114911DC0133238F4E8E7F0E08591A0
:102300009591A591B4915CC01832F8F4ECE5F0E039
:1023100085919591A591B491E0E7F0E025913591F3
:1023200045915491E8E7F0E0E590F590059114911E
:10233000822B932BA42BB52BA82AB92ACA2ADB2AD5
:10234000AE28BF28C02AD12A3FC01D3268F4E4E677
:10235000F0E085919591A591B491E4E7F0E02591A5
:102360003591459154911DC0123368F4ECE6F0E0CC
:1023700085919591A591B491E4E7F0E0259135918F
:10238000459154910EC0173388F4E0E6F0E0859152
:102390009591A591B491E4E7F0E0259135914591AF
:1023A0005491822B932BA42BB52B0AC01C3370F4B1
:1023B000C051DE4F88819981AA81BB81C05FD14025
:1023C000A82AB92ACA2ADB2A81E001C080E0DE01FE
:1023D0009296EEEEF4E092E301900D929150E1F7C7
:1023E000EB85F0E0E80FF11DEE0FFF1FEC0FFD1F76
:1023F00002A0F3A1E02DEE0FFF1FEE0FFF1FEC5A1E
:10240000FF4F85919591A591B491C851DE4FE88019
:10241000F9800A811B81C85ED140E114F1040105F5
:10242000110541F4A82AB92ACA2ADB2AC601B50136
:102430000E9460068D85882399F4C884D984EA8433
:10244000FB840C8510E02E853F85488959896A896F
:102450007B898C89AA24BB24882499240E941A078A
:102460008F81882309F4E3C89889992319F481E0BE
:102470008C8314C0943628F08FEF8C838D8380E892
:102480000FC0923380F48EEF989FC001112462E355
:1024900070E00E94C4126F5F6C8381E08D8385E5DC
:1024A0008E830C94170B923311F40C94170B8FEF4F
:1024B0008C83E92EFF240EEC1FEFE00EF11E0027A7
:1024C000F7FC0095102FC801B7012CEC30E040E07C
:1024D00050E00E94851222E330E040E050E00E948C
:1024E000D7122D5C2D83C801B7012BE230E040E00C
:1024F00050E00E94851222E330E040E050E00E946C
:10250000D7122B5A2E830C94170B629FD001739F06
:10251000F001829FE00DF11D649FE00DF11D929F7F
:10252000F00D839FF00D749FF00D659FF00D9927BE
:10253000729FB00DE11DF91F639FB00DE11DF91FE2
:10254000BD01CF0111240895991B79E004C0991FA2
:10255000961708F0961B881F7A95C9F780950895FD
:10256000AA1BBB1B51E107C0AA1FBB1FA617B707B9
:1025700010F0A61BB70B881F991F5A95A9F78095D5
:102580009095BC01CD01089597FB092E07260AD02E
:1025900077FD04D0E5DF06D000201AF47095619530
:1025A0007F4F0895F6F7909581959F4F089597FB7B
:1025B000092E05260ED057FD04D014D00AD0001CD9
:1025C00038F450954095309521953F4F4F4F5F4FD0
:1025D0000895F6F790958095709561957F4F8F4F90
:1025E0009F4F0895A1E21A2EAA1BBB1BFD010DC02F
:1025F000AA1FBB1FEE1FFF1FA217B307E407F507B3
:1026000020F0A21BB30BE40BF50B661F771F881F8E
:10261000991F1A9469F760957095809590959B0124
:10262000AC01BD01CF010895AEE0B0E0EAE1F3E115
:102630000C94C3150D891E8986E08C831A83098347
:102640008FEF9FE79E838D839E01275E3F4FCE01D4
:1026500001966F89788DA9010E9438132F813885E2
:10266000020F131FF80110822E96E4E00C94DF1580
:10267000ABE0B0E0EEE3F3E10C94B5153C012B01C7
:102680005A01FC0117821682838181FD03C06FEF1E
:102690007FEFC6C19AE0892E1E010894211C311CCF
:1026A000F3012381F20123FD859123FF81912F0105
:1026B000882309F4B2C1853239F423FD859123FFC3
:1026C00081912F01853229F490E0B3010E942B15EE
:1026D000E7CF982FFF24EE249924FFE1FF15D0F0D7
:1026E0009B3269F09C3228F4903259F0933291F485
:1026F0000EC09D3249F0903369F441E024C052E0AD
:10270000F52A84E0F82A28C098E0F92A25C0E0E1FB
:10271000FE2A22C0F7FC29C0892F80538A3070F42A
:10272000F6FE05C0989C902C1124980E15C0E89CCC
:10273000E02C1124E80EF0E2FF2A0EC09E3229F4AC
:10274000F6FC6BC140E4F42A07C09C3619F450E84B
:10275000F52A02C0983649F4F20123FD959123FF32
:1027600091912F01992309F0B8CF892F8554833097
:1027700018F08052833038F444E050E0A40EB51EC7
:102780005FE359830FC0933631F0933779F0933577
:1027900009F056C020C0F5018081898342E050E0F5
:1027A000A40EB51E610101E010E012C0F501C08069
:1027B000D180F6FC03C06FEF7FEF02C0692D70E09F
:1027C00042E050E0A40EB51EC6010E9420158C0107
:1027D0005FE7F52214C0F501C080D180F6FC03C08C
:1027E0006FEF7FEF02C0692D70E042E050E0A40E71
:1027F000B51EC6010E9415158C0150E8F52AF3FE9E
:1028000007C01AC080E290E0B3010E942B15EA9441
:102810008E2D90E008171907A8F30EC0F601F7FCFB
:102820008591F7FE81916F0190E0B3010E942B1515
:10283000E110EA94015010400115110579F7EAC042
:10284000943611F0993669F5F7FE08C0F50120813C
:1028500031814281538184E090E00AC0F50180819A
:1028600091819C01442737FD4095542F82E090E0F0
:10287000A80EB91E9FE6F92257FF09C05095409552
:10288000309521953F4F4F4F5F4FE0E8FE2ACA0138
:10289000B901A1012AE030E00E945715D82ED218C4
:1028A00040C0953729F41F2D1F7E2AE030E01DC05F
:1028B0001F2D197F9F3661F0903720F4983509F06D
:1028C000ACC00FC0903739F0983709F0A6C004C0EB
:1028D00028E030E00AC0106114FD146020E130E00F
:1028E00004C014FD166020E132E017FF08C0F501B6
:1028F000608171818281938144E050E008C0F501DC
:1029000080819181BC0180E090E042E050E0A40E23
:10291000B51EA1010E945715D82ED2188FE7F82EA8
:10292000F122F6FE0BC05EEFF522D91438F4F4FE66
:1029300007C0F2FC05C08FEEF82202C01D2D01C0B9
:10294000192DF4FE0DC0FE01ED0DF11D80818033C7
:1029500019F499EEF92208C01F5FF2FE05C003C00A
:102960008F2D867809F01F5F0F2DF3FC14C0F0FE49
:102970000FC01E1510F09D2C0BC09D2C9E0C911AA3
:102980001E2D06C080E290E0B3010E942B151F5F50
:102990001E15C0F304C01E1510F4E11A01C0EE2488
:1029A00004FF0FC080E390E0B3010E942B1502FFEB
:1029B0001DC001FD03C088E790E00EC088E590E0EF
:1029C0000BC0802F867891F001FF02C08BE201C01E
:1029D00080E2F7FC8DE290E0B3010E942B1506C067
:1029E00080E390E0B3010E942B159A94D914C0F3B0
:1029F000DA94F101ED0DF11D808190E0B3010E94A8
:102A00002B15DD20A9F706C080E290E0B3010E94FB
:102A10002B15EA94EE20C1F743CEF301668177814E
:102A2000CB012B96E2E10C94D115FC01059061508D
:102A300070400110D8F7809590958E0F9F1F0895D4
:102A4000FC016150704001900110D8F7809590957D
:102A50008E0F9F1F08950F931F93CF93DF938C01C9
:102A6000EB018B8181FF1BC082FF0DC02E813F8156
:102A70008C819D812817390764F4E881F9810193DD
:102A8000F983E88306C0E885F985802F0995892BAD
:102A900031F48E819F8101969F838E8302C00FEF58
:102AA0001FEFC801DF91CF911F910F910895FA0197
:102AB000AA27283051F1203181F1E8946F936E7F7D
:102AC0006E5F7F4F8F4F9F4FAF4FB1E03ED0B4E06E
:102AD0003CD0670F781F891F9A1FA11D680F791FAF
:102AE0008A1F911DA11D6A0F711D811D911DA11DC0
:102AF00020D009F468943F912AE0269F11243019D0
:102B0000305D3193DEF6CF010895462F4770405D6A
:102B10004193B3E00FD0C9F7F6CF462F4F70405D19
:102B20004A3318F0495D31FD4052419302D0A9F774
:102B3000EACFB4E0A6959795879577956795BA956E
:102B4000C9F700976105710508959B01AC010A2E34
:102B500006945795479537952795BA95C9F7620F0B
:102B6000731F841F951FA01D08952F923F924F92AF
:102B70005F926F927F928F929F92AF92BF92CF920D
:102B8000DF92EF92FF920F931F93CF93DF93CDB716
:102B9000DEB7CA1BDB0B0FB6F894DEBF0FBECDBF8E
:102BA00009942A88398848885F846E847D848C845F
:102BB0009B84AA84B984C884DF80EE80FD800C8168
:102BC0001B81AA81B981CE0FD11D0FB6F894DEBF4B
:0C2BD0000FBECDBFED010895F894FFCFBB
:102BDC00727463206F6666736574206E6F773A202B
:102BEC0025640D0A00000303060104060205000318
:102BFC00050000C902BA025B02F1018B0142012FF0
:102C0C00014401A001FD015C02BA02C9020000DE10
:102C1C00053A069806B006090766077907670702A2
:102C2C000799063306DB05DE0500445354004E4F6E
:102C3C00573A2020253032643A253032643A253018
:102C4C00326420257320253032642E253032642ED8
:102C5C0025346420555443252B642025730D0A001C
:102C6C00780053756E3A2025252564202530326472
:102C7C003A25303264202D20253032643A2530320A
:102C8C00640D0A0020253032643A253032643A252E
:102C9C0030326420257320253032642E2530326486
:102CAC002E25346420555443252B64202573006154
:102CBC00740D0061746C350D000D0A0D0A0D0A0DB2
:102CCC000A0D0A0D0A0D0A576F7264436C6F636B21
:102CDC002056302E3120696E697469616C697A698D
:102CEC006E672E2E2E0D0A0D0A000D0A52657365A5
:102CFC00742D43617573653A00506F7765722D4F73
:102D0C006E2052657365740D0A0045787465726E99
:102D1C00616C2052657365740D0A0042726F776E98
:102D2C002D4F75742052657365740D0A00576174CC
:102D3C006368646F672052657365740D0A004A54AA
:102D4C0041472052657365740D0A00756E6B6E6F8A
:102D5C00776E0D0A000D0A2E2E2E20737769746380
:102D6C0068206F6E20525443000D0A2E2E2E2057D1
:102D7C00445420656E61626C65000D0A2E2E2E2067
:102D8C0050574D000D0A2E2E2E205368696674651F
:102D9C0072000D0A2E2E2E204C445220414443002A
:102DAC000D0A2E2E2E2052544300204641494C45EC
:102DBC0044202121210D0A00202E2E2E2052544376
:102DCC00206572726F722121210D0A000D0A2E2EC0
:102DDC002E204C454420436865636B000D0A2E2E53
:102DEC002E2052474220436865636B002564000D1A
:102DFC000A2E2E2E204272696768746E6573733AC0
:102E0C00000D0A2E2E2E2052474220636F6C6F72DB
:102E1C003A2023253032782530327825303278002C
:102E2C000D0A2E2E2E20524742204175746F000D34
:102E3C000A52656164792E2E2E0D0A000D0A42721B
:102E4C00696768746E6573733A2025640D0A505770
:102E5C004D2D436F6C6F723A20232530327825301C
:102E6C003278253032780D0A000D0A50617274796F
:102E7C002D4D6F64652E2E2E0D0A000D0A4C6967C0
:102E8C0068742D4D6F64652E2E2E0D0A000D0A529E
:102E9C0065626F6F74696E67207669612057617423
:102EAC006368646F672E2E2E0D0A00696E61637461
:102EBC00697665006163746976650062726967683A
:102ECC00746E65737320636F6E74726F6C206973AC
:102EDC002025730D0A007A206D61636874206B6580
:102EEC00696E656E2073696E6E206D69742027257E
:102EFC0063272E2E2E0D0A0068206D6163687420E6
:102F0C006B65696E656E2073696E6E206D697420D9
:102F1C00272563272E2E2E0D0A006D206D61636808
:102F2C0074206B65696E656E2073696E6E206D69B9
:102F3C007420272563272E2E2E0D0A0044206D6148
:102F4C00636874206B65696E656E2073696E6E20A4
:102F5C006D697420272563272E2E2E0D0A004D2017
:102F6C006D61636874206B65696E656E2073696E44
:102F7C006E206D697420272563272E2E2E0D0A00D6
:102F8C0059206D61636874206B65696E656E207382
:102F9C00696E6E206D697420272563272E2E2E0DE9
:102FAC000A0077617320736F6C6C20696368206D05
:102FBC006974202725732720616E66616E67656EC4
:102FCC003F0D0A00525443206572726F720D0A0055
:102FDC00486F75722B2B0D0A0074696D65203A20B1
:102FEC00253032643A253032643A253032640D0A89
:102FFC00004D696E2B2B0D0A000000000000000034
:10300C0000000000000000000000000000000000B4
:10301C0000000000000000000000000000000000A4
:10302C000000000000000000000000000000000094
:10303C000000000000000000000000000000000084
:10304C000000000000000000000000000000000074
:10305C0000000000000000000000000000000A005A
:10306C000C000B000E0012000F0015000D001300D9
:10307C001100140010000A000C000B000E001200CE
:10308C000F0015000D0013001100140010000A00B1
:00000001FF
