:100000002AC044C043C042C041C040C03FC03EC0FF
:100010003DC03CC03BC000C539C038C037C036C049
:1000200035C034C033C023C62FC63AC63DC649C604
:1000300059C66CC67CC691C692C693C69FC6A1C659
:10004000A2C6A3C6ABC6B5C6B4C6B3C6AAC6B1C619
:10005000B0C6AFC6A9C611241FBECFE5D4E0DEBF2F
:10006000CDBF12E0A0E6B0E0EEEEF5E102C00590F3
:100070000D92AE35B107D9F712E0AEE5B2E001C09E
:100080001D92AC36B107E1F720D7AFCAB9CF809146
:100090005E02882331F411B881E480B981E0809355
:1000A0005E0280E00895982FFB0184EA86BF06B6C1
:1000B00007FEFDCF81B1887F883011F0803161F477
:1000C00093B984E886BF06B607FEFDCF81B1887F6D
:1000D000883129F0803419F0808381E0089580E030
:1000E000089541E050E0B1E3A4EAF4E8E4E907C090
:1000F0009A012F5F3F4F6417750700F1A9019B2FED
:100100009A95F1F7A6BF06B607FEFDCF91B1987F8D
:10011000983011F0903161F783B9F6BF06B607FE4B
:10012000FDCF91B1987F903221F0983511F081E0A8
:100130000895E6BF06B604FCFDCFDACF80E008954F
:10014000B2DF089584E986BF06B604FCFDCF0895AA
:10015000FB0183B984E886BF06B607FEFDCF81B1F7
:10016000887F883211F480E00895808381E00895CB
:1001700084EC86BF06B607FEFDCF83B1089584E800
:1001800086BF06B607FEFDCF83B10895282F2295BE
:100190002F709AE0299F900111248F70820F08958B
:1001A000382F8DEC389FC0011124292F26952695D4
:1001B000269586EF9FEF289F802D1124830F22958F
:1001C000207F822B0895809161020895FC01808137
:1001D0008F5F80830895FC01808181508083089522
:1001E000FC0181818F5F81838D3028F081E08183E4
:1001F00080818F5F80830895FC018181815081839C
:10020000882329F48CE08183808181508083089544
:10021000FC0132813F5F32838181863059F0873023
:1002200028F4823059F0843039F404C0893011F058
:100230008B3011F48EE111C08FE10FC02081822F2D
:1002400090E083709070892B39F4822F64E69AD9FC
:10025000992311F08DE101C08CE1831758F491E0EE
:10026000928381818F5F81838D3020F091838081A3
:100270008F5F80830895FC01328131503283818108
:1002800090E001978630910571F08730910534F444
:100290008230910561F0049741F405C089309105E1
:1002A00011F00B9711F48EE111C08FE10FC0208186
:1002B000822F90E083709070892B39F4822F64E64E
:1002C00061D9992311F08DE101C08CE1332359F4F8
:1002D0008283818181508183882329F48CE081830A
:1002E0008081815080830895FC0183818F5F8383A7
:1002F000883118F01382CF018BDF0895FC018381D0
:10030000882329F487E18383CF01B5DF08958150E5
:1003100083830895FC0184818F5F84838C3318F07C
:100320001482CF01E1DF0895FC018481882329F440
:100330008BE38483CF01E2DF0895815084830895A5
:10034000EF92FF920F931F93CF93DF93182FF62E08
:10035000E72E042F80916002882381F1442371F1FC
:10036000812F90E0840F911D813491053CF580ED43
:1003700064E670E0B6DE8823F1F0812F61E672E07A
:10038000E7DE8823C1F481ED61E672E0D9DE8823DF
:1003900091F4CF2DDE2D102F7E0104C0E9DEF70190
:1003A00081937F011150D1F7EADE0150C00FD11DBA
:1003B000888311E001C010E0C5DE01C010E0812F8C
:1003C000DF91CF911F910F91FF90EF9008957F9251
:1003D0008F929F92AF92BF92CF92DF92EF92FF9255
:1003E0000F931F93DF93CF93CDB7DEB727970FB649
:1003F000F894DEBF0FBECDBF6C01E62E8091600287
:10040000882311F47724A5C180E0BE016F5F7F4F80
:1004100047E096DF882311F4772471C04F81842F41
:1004200082958F703AE0839FC00111244F70480F6E
:10043000D6014C932E81822F82958F70839FC001AD
:100440001124122F1F70180F11961C9311972D81D4
:10045000822F82958F70839FC0011124022F0F700D
:10046000080F12960C9312972B81822F82958F7012
:10047000839FC00111242F70280F13962C9313977C
:100480002A81822F82958F70839FC00111242F7043
:10049000280F14962C9314972981822F82958F70A0
:1004A000839FC00111242F70280F15962C93E12FE4
:1004B000F0E0E15AFF4FE081242F30E04695469569
:1004C000C901840F911D67E070E068D8482F237040
:1004D0003070232B19F4133008F44A5F802F67E043
:1004E00051D8892F90E006968E0F911D840F911D93
:1004F00067E070E053D8F601868377247394EE208A
:1005000009F427C1D6011196EC918E2F90E0FC01E1
:10051000EE0FFF1FDF01A459BF4F0D911C91E8574B
:10052000FF4FE080F1805C010894A11CB11CF60132
:10053000228130E0AA0CBB1CF501E459FF4F8081F9
:100540009181801B910BAC01429FC001439F900D94
:10055000529F900D11246FE170E020D84B01800E66
:10056000911E88E890E0A80EB91ED5018D919C914E
:100570008E199F09FC01E29FC001E39F900DF29F3D
:10058000900D11246FE170E009D8FB01EE0DFF1D05
:10059000C40164E670E002D8D60119966C93CF01CD
:1005A00064E670E0FBD7D6011B966C93C40164E649
:1005B00070E0F4D72CE330E0AC01429FC001439FD0
:1005C000900D529F900D112464E670E0E7D7D6019C
:1005D0001A966C93CF0164E670E0E0D7AC01429FBD
:1005E000C001439F900D529F900D112464E670E06E
:1005F000D5D7D6011C966C931C9714968C9124E643
:10060000829FC00111246CE370E0C8D7D601139615
:100610008C911397829FC0011124680F791F681570
:1006200079052CF418961C9200E010E041C0C4013A
:100630008C599F4F681779072CF468197909F601CE
:100640006087F2CF6E177F0724F4D60118962C939B
:10065000EBCFCF018C599F4F681779073CF4E61B0D
:10066000F70B8E2F8C59F6018087DECFD601DACFBB
:10067000121664F4C60138DEF60181858F5F81872A
:1006800083858F5F83870F5F1F4F12C0C60136DEE1
:10069000D60119968C911997815019968C931997B8
:1006A0001B968C911B9781501B968C930150104088
:1006B00020915F02822F992787FD909508171907CF
:1006C000B9F6F6012181822F83508830C8F4822F39
:1006D00084508630B8F0D60116963C911697129643
:1006E0008C91129790E0831B91094997FCF033237A
:1006F00021F413968C918330C8F02A3019F4F60156
:10070000178227C0D60119968C9119978F5F199679
:100710008C9319971B968C911B978F5F1B968C93CC
:10072000C601E2DD81E0F601878313C0233021F4A6
:10073000D60117961C920DC0F60181858F5F8187C7
:1007400083858F5F8387C601CFDD81E0D601179651
:100750008C93872D27960FB6F894DEBF0FBECDBFC2
:10076000CF91DF911F910F91FF90EF90DF90CF908D
:10077000BF90AF909F908F907F900895805F41E0F1
:10078000DFDD0895EF92FF920F931F93CF93DF93D6
:10079000082FF62EE72E142F80916002882341F156
:1007A000442331F1802F90E0840F911D8134910515
:1007B000FCF480ED64E670E094DC8823B1F0802FD7
:1007C00061E672E0C5DC882381F48F2D9E2D9C01AB
:1007D000E901888161E672E0BBDC1150882329F4CD
:1007E00021961123B1F711E001C010E0ABDC01C08C
:1007F00010E0812FDF91CF911F910F91FF90EF902B
:100800000895EF92FF920F931F93DF93CF9300D041
:10081000CDB7DEB78C017B018FEFFB01808337DC26
:10082000F80180838823C1F481E08093600280E82E
:1008300080936202809162028A8387E0BE016E5FCC
:100840007F4F41E09FDF882301F583E0F80180833B
:1008500080916102F701808380E00EC0898187FF6B
:1008600006C08F77898380E0B80141E08BDF81E0AB
:100870006FE572E083DF81E00F900F90CF91DF9101
:100880001F910F91FF90EF90089580E08E010F5F10
:100890001F4FB80141E054DD882301F7E8CFDF9313
:1008A000CF93CDB7DEB727970FB6F894DEBF0FBE54
:1008B000CDBFFC0180916002882309F476C0658178
:1008C0004DEC649FC001112496959695969526EF60
:1008D0003FEF929F802D1124860F9295907F892B58
:1008E00089836481649FC00111249695969596959D
:1008F000929F802D1124860F9295907F892B8A8359
:100900006381649FC0011124969596959695929F58
:10091000802D1124860F9295907F892B8B83668181
:10092000649FC0011124969596959695929F802D6F
:100930001124860F9295907F892B8F5F8C83628123
:10094000649FC0011124969596959695929F802D4F
:100950001124860F9295907F892B8D836181649FEE
:10096000C0011124969596959695929F802D1124FD
:10097000860F9295907F892B8E839081949FA00102
:100980001124852F869586958695829F202D11248A
:10099000290F8295807F282B2F8380E0BE016F5F17
:1009A0007F4F47E0EFDE811181E027960FB6F89484
:1009B000DEBF0FBECDBFCF91DF910895DF93CF9300
:1009C0000F92CDB7DEB76983805FBE016F5F7F4F47
:1009D00041E0D8DE0F90CF91DF910895682F282F46
:1009E00030E080915F02992787FD9095281739079D
:1009F00021F060935F0281E0E1DF08955D9BFECF0F
:100A00008CB90895FC0104C05D9BFECF8CB9319672
:100A100080818823C9F708951F920F920FB60F9215
:100A200011248F939F93EF93FF939CB18091630266
:100A30008823F9F49A3091F09D3081F0809164021E
:100A4000833660F4E0916402F0E0E850FE4F90835A
:100A5000809164028F5F809364020BC0E091640216
:100A6000F0E0E850FE4F10821092640281E0809323
:100A70006302FF91EF919F918F910F900FBE0F90A6
:100A80001F901895982F80538A3028F4292F30E032
:100A90002053304014C0892F8154863028F4292FE8
:100AA00030E0275330400BC0892F8156863018F034
:100AB0002FEF3FEF04C0292F30E027553040C90108
:100AC0000895FC019081892F80538A3028F4292FC2
:100AD00030E02053304014C0892F8154863028F4F0
:100AE000292F30E0275330400BC0892F81568630A4
:100AF00018F02FEF3FEF04C0292F30E0275530408A
:100B00009181892F80538A3020F4892F90E0C097FB
:100B100013C0892F8154863020F4892F90E0C79725
:100B20000BC0892F8156863018F08FEF9FEF04C0DD
:100B3000892F90E08755904037FD0AC097FD08C087
:100B400044E0220F331F4A95E1F7280F391F02C0F6
:100B50002FEF3FEFC90108958EE087BB81EA8FBD7B
:100B600081E08EBD81E685BD08950895809365027C
:100B700060936602409367028ABD68BD43BD0895D5
:100B80002F923F924F925F926F927F928F929F929D
:100B9000AF92BF92CF92DF92EF92FF920F931F938B
:100BA000DF93CF9300D0CDB7DEB75C011B016A01A4
:100BB00049013801270184E364E670E092DA882372
:100BC00059F4E4EAF0E004C05D9BFECF8CB93196A5
:100BD00080818823C9F7FAC080E0BE016F5F7F4F34
:100BE000B7DA882309F0F4C085E3BE016F5F7F4F59
:100BF000A7DA882309F0ECC0BBDA8A83B9DAE82ED9
:100C0000B7DAF82EBCDA082F9DDA9F2D80E010E0CD
:100C1000802B912B80509F4E09F0DAC084E364E66C
:100C200070E05FDA882359F4EBEBF0E004C05D9BE1
:100C3000FECF8CB9319680818823C9F7C7C083E085
:100C4000BE016F5F7F4F84DA8AEABE016F5F7F4F1C
:100C50007FDA78DA9A8180E0EE2DF0E0E82BF92B4C
:100C6000E831F10508F0A5C0ED5EFF4F0994F501EC
:100C700080819181029691838083853691050CF461
:100C800098C084E690E093C0F5018081918102973D
:100C90009183808305970CF08CC085E090E087C03D
:100CA000F1011182108208C0F6011182108281E0E8
:100CB00090E0F1019183808386E1B10142E062DD41
:100CC00078C0F6011182108284E690E0F5019183EC
:100CD00080838FEF90E0F40191838083F301118290
:100CE000108210C0F6011182108284E690E0F501B6
:100CF00091838083F401118210828FEF90E0F301E1
:100D000091838083F2011182108253C0F601118217
:100D1000108284E690E0F50191838083F4011182D2
:100D20001082F301118210828FEF90E014C0F6015F
:100D30001182108284E690E0F501918380838FEF29
:100D400090E0F401918380838FEE90E0F301918332
:100D500080838FEB90E0F2012AC0F40103C0F3011D
:100D600001C0F201808191810896918380838F3F39
:100D70009105F9F0F4F08FEF90E019C081E090E078
:100D800015C0F40103C0F30101C0F201808191811B
:100D900008979183808397FF0CC0B5CF82E090E0E5
:100DA00005C083E090E002C084E090E0F60191830A
:100DB000808380E1B40142E0E5DC82E1B30142E0FE
:100DC000E1DC84E1B20142E0DDDC02C080E001C090
:100DD00081E00F900F90CF91DF911F910F91FF90C5
:100DE000EF90DF90CF90BF90AF909F908F907F90CB
:100DF0006F905F904F903F902F900895BF92CF9249
:100E0000DF92EF92FF920F931F93DF93CF930F9296
:100E1000CDB7DEB7B82E7B018A0164E670E061D9F8
:100E2000882359F4E3EDF0E004C05D9BFECF8CB95C
:100E3000319680818823C9F73AC080E06E0108941A
:100E4000C11CD11CB60184D9882399F58B2D8F5FE5
:100E5000B60176D9882369F58BD9F7018083118291
:100E6000F80180819181892B29F489D9F801808347
:100E7000118201C084D966D980E090E90197F1F729
:100E8000F70180819181181619069CF48B2D64E678
:100E900070E027D9882359F083E08E010F5F1F4F40
:100EA000B80156D98AEAB80153D94CD902C080E0BA
:100EB00001C081E00F90CF91DF911F910F91FF90C2
:100EC000EF90DF90CF90BF9008952F923F924F9276
:100ED0005F926F927F928F929F92AF92BF92CF92CA
:100EE000DF92EF92FF920F931F93DF93CF93CDB7D3
:100EF000DEB768970FB6F894DEBF0FBECDBF8AB1DC
:100F000088698AB980B5866880BD10BC87E089B9D8
:100F1000A8952FE088E190E00FB6F894A89581BDE0
:100F20000FBE21BDA895ECEEF0E004C05D9BFECFA6
:100F30008CB9319680818823C9F784B790E08F718E
:100F4000907084309105B9F08530910534F481308A
:100F50009105B9F0029731F411C08830910541F044
:100F6000409719F0EBEFF0E03DC0E5E0F1E032C072
:100F7000E2E1F1E027C0E3E2F1E01CC0E5E3F1E0EB
:100F800011C0E6E4F1E004C05D9BFECF8CB9319660
:100F900080818823C9F7E7E5F1E02CC05D9BFECF97
:100FA0008CB9319680818823C9F7F5CF5D9BFECF40
:100FB0008CB9319680818823C9F7EDCF5D9BFECF38
:100FC0008CB9319680818823C9F7E5CF5D9BFECF30
:100FD0008CB9319680818823C9F7DDCF5D9BFECF28
:100FE0008CB9319680818823C9F7D5CF5D9BFECF20
:100FF0008CB9319680818823C9F78EE087BB81EA5E
:101000008FBD81E08EBD81E685BDA99882E084BB5D
:10101000A99A02E611E0F80104C05D9BFECF8CB9ED
:10102000319680818823C9F704B603FE17C020E0FB
:1010300040E050E920936502109266021092670228
:101040002ABD18BC13BCCA010197F1F7A8952F5F00
:101050002F3F81F784B7877F84BF13C020E040E033
:1010600050E91092650220936602109267021ABC42
:1010700028BD13BCCA010197F1F7A8952F5F2F3F38
:1010800081F714BEA895E7E6F1E004C05D9BFECFB2
:101090008CB9319680818823C9F7F894F8D71092DB
:1010A00065028FEF80936602809367021ABC88BD49
:1010B00083BD7894E2E6F1E004C05D9BFECF8CB97D
:1010C000319680818823C9F7A895CE010196BE018B
:1010D0006E5F7F4F96DB882319F0E3E7F1E01CC0D9
:1010E0004FEF20E731E01ABC18BC43BD88EE93E017
:1010F000F9013197F1F70197D9F71ABC18BC13BC65
:1011000088EE93E0F9013197F1F70197D9F7EBCF2A
:101110005D9BFECF8CB9319680818823C9F720E092
:1011200040E050E92ABD28BD23BDCA010197F1F76F
:10113000A895265F2430B1F71092650210926602DE
:10114000109267021ABC18BC13BC05C05D9BFECF91
:101150008CB90F5F1F4FF80180818823B9F71C827B
:101160001B821E821D8284E690E098878F831A86F8
:1011700019861C861B868FEF90E09E878D878FEEE9
:1011800090E0988B8F878FEB90E09A8B898BBDE0F6
:10119000AB2EB12CAC0EBD1E80E1B50142E0D0D823
:1011A000AFE0CA2ED12CCC0EDD1E82E1B60142E0AA
:1011B000C7D8F1E1EF2EF12CEC0EFD1E84E1B70152
:1011C00042E0BED88E010D5F1F4F86E1B80142E0BC
:1011D000B7D866247724412CE0E95E2E4801AB8A1B
:1011E000BC8ACD8ADE8AEF8AF88EBB24BA9472E27A
:1011F000272E60EA362EE1E8F1E004C05D9BFECFC9
:101200008CB9319680818823C9F76394A895C2016F
:101210000197F1F7E0E9F1E004C05D9BFECF8CB9E6
:10122000319680818823C9F71C861B868CE290E06A
:10123000BE01675F7F4FAE01455F5F4FDFDD8823F3
:1012400019F4EFE9F1E019C089859A85813091059B
:1012500019F0029739F408C01C821B8286E1B401A0
:1012600042E090DAAA240EC021E030E03C832B83D8
:10127000F5CF5D9BFECF8CB9319680818823C9F76D
:10128000AA24A39456EAC52E51E0D52EF60104C037
:101290005D9BFECF8CB9319680818823C9F7A895D4
:1012A000C2010197F1F7E8EAF1E004C05D9BFECFCF
:1012B0008CB9319680818823C9F784E290E0BE0121
:1012C000675F7F4FAE01455F5F4F98DD882319F45C
:1012D000EFE9F1E018C089859A858130910519F010
:1012E0000297B1F403C01C821B8204C041E050E0AD
:1012F0005C834B8386E1B40142E044DA09C05D9B24
:10130000FECF8CB9319680818823C9F7AA24A39493
:10131000E6EAF1E004C05D9BFECF8CB93196808196
:101320008823C9F7A895C2010197F1F7E7EBF1E02F
:1013300004C05D9BFECF8CB9319680818823C9F7AC
:10134000CE010796B401AE014B5F5F4F2B893C89FC
:101350000D891E89EF88F88C13DC882399F4EFE956
:10136000F1E004C05D9BFECF8CB93196808188236B
:10137000C9F7AA24A39406C05D9BFECF8CB908943C
:10138000C11CD11CF60180818823B1F78B859C8517
:101390008330910539F1843091053CF48130910519
:1013A00069F0029709F042C013C08530910561F1E0
:1013B00085309105FCF00697C9F52FC02092650293
:1013C00020926602209267022ABC28BC23BCA5C0DA
:1013D0003092650230926602309267023ABC38BCA5
:1013E00033BC9BC01092650210926602B0926702F5
:1013F0001ABC11C010926502B0926602B0926702E8
:101400001ABCB8BCB3BC89C0B09265021092660227
:10141000B0926702BABC18BCF5CFB0926502B09228
:10142000660210926702BABCB8BC0DC02B813C8129
:101430002115310551F41092650210926602109246
:1014400067021ABC18BC13BC68C02130310509F012
:1014500064C08D819E818130910519F0029741F41D
:101460000AC000E010E0862D6AE08CD0992349F490
:1014700001E010E006C0062D10E0022713270170DE
:1014800010702F8138858F859889AC01249FC00109
:10149000259F900D349F900D1124BC01609FC001C9
:1014A000619F900D709F900D112464E670E076D0DE
:1014B000E62F89899A89AC01249FC001259F900D50
:1014C000349F900D1124BC01609FC001619F900D5D
:1014D000709F900D112464E670E060D0462F8D85DA
:1014E0009E85BC01269FC001279F900D369F900DC1
:1014F00011249C01209FC001219F900D309F900DD1
:10150000112464E670E04AD060936502E0936602BD
:10151000409367026ABDE8BD43BDAA2039F07394C9
:101520003AE0371520F4EFEBF1E008C07724EFEE56
:10153000F1E023C05D9BFECF8CB93196808188237A
:10154000C9F742E220E731E04ABD18BC13BC80ED88
:1015500097E0F9013197F1F70197D9F71ABC48BD27
:1015600013BC80ED97E0F9013197F1F70197D9F7B6
:10157000EBCF5D9BFECF8CB931968081882309F437
:101580003ACEF7CF991B79E004C0991F961708F05F
:10159000961B881F7A95C9F78095089597FB092EA9
:1015A00007260AD077FD04D00CD006D000201AF40C
:1015B000709561957F4F0895F6F7909581959F4FAF
:1015C0000895AA1BBB1B51E107C0AA1FBB1FA6178A
:1015D000B70710F0A61BB70B881F991F5A95A9F7DC
:0E15E00080959095BC01CD010895F894FFCF41
:1015EE000003030601040602050003050000C902FC
:1015FE00BA025B02F1018B0142012F014401A001ED
:10160E00FD015C02BA02C9020000DE053A06980628
:10161E00B0060907660779076707020799063306BA
:10162E00DB05DE050D0A4572726F723A205761694D
:10163E007420666F722049520D0A000D0A457272AF
:10164E006F723A205761697420666F722049523268
:10165E000D0A000D0A4572726F723A20526561646E
:10166E002044697374616E63650D0A000D0A52653C
:10167E007365742D43617573653A00756E6B6E6F8D
:10168E00776E0D0A004A5441472052657365740DFA
:10169E000A005761746368646F67205265736574DE
:1016AE000D0A0042726F776E2D4F7574205265735E
:1016BE0065740D0A0045787465726E616C20526512
:1016CE007365740D0A00506F7765722D4F6E205240
:1016DE00657365740D0A00496E697450574D2E2E50
:1016EE002E004F4B0D0A0049324320496E69742E6D
:1016FE002E2E004C6967687420496E69742E2E2E4A
:10170E00000D0A4C6F6F702073746172743A200072
:10171E00526561642044697374616E6365310020A3
:10172E006572726F72002C00526561642044697399
:10173E0074616E6365320052656164204952000D1A
:10174E000A0D0A546F6F206D616E79206572726F8B
:10175E0072732C20726573657474696E6720766976
:10176E0061205761746368646F670D0A0D0A004C3F
:10177E006F6F7020456E64000000000000000000D6
:10178E00000000000000000000000000000000004B
:10179E00000000000000000000000000000000003B
:1017AE00000000000000000000000000000000002B
:1017BE00000000000000000000000000000000001B
:1017CE00000000000000000000000000000000000B
:0E17DE000000000000000000000000000000FD
:00000001FF
