:1000000012C01FC01EC01DC01CC01BC01AC019C01A
:1000100018C017C016C015C014C018C012C011C037
:1000200010C00FC00EC011241FBECFEDCDBF10E019
:10003000A0E6B0E001C01D92A136B107E1F727D0DC
:1000400088C0DECF949A0895949808951F920F92D5
:100050000FB60F9211248F9380916000F89488233B
:1000600011F4949A0AC0823011F4949806C08A3030
:1000700020F010926000789404C08F5F809360003D
:1000800078948F910F900FBE0F901F9018951F932B
:10009000F894A89588E10FB6F89481BD11BC0FBE05
:1000A00080E381BB9598B898C09A8AE286BF89B7E9
:1000B000816089BF82E080BF83B7836083BF78940B
:1000C00040E050E020E030E06AE2A8ECB0E015EA61
:1000D0007AE288EE93E0FD013197F1F70197D9F7C5
:1000E00096B386B3653AB9F441155105A1F490FD74
:1000F0002DC02115310519F021503040EACF76BFCF
:10010000959A80E197E2FD013197F1F70197D9F7D0
:1001100095986AE2DECF86FF12C06A3281F416BF7C
:10012000959A80E197E2FD013197F1F70197D9F7B0
:10013000959848E250E024E030E065EA04C04115BB
:10014000510509F4C6CF41505040C3CF24E030E000
:06015000C0CFF894FFCFC0
:00000001FF
