:1000000012C02AC02AC028C027C026C025C024C0CC
:1000100023C022C021C020C01FC01EC01DC01CC0E4
:100020001BC01AC019C011241FBECFEDCDBF10E0F8
:10003000A0E6B0E0E4EBF7E002C005900D92A03638
:10004000B107D9F710E0A0E6B0E001C01D92A337D8
:10005000B107E1F7C0D2ACC3D3CF1F920F920FB656
:100060000F9211242F933F934F935F936F937F933E
:100070008F939F93EF93FF9382B790916500891BB5
:10008000813308F4BAC082B780936500209168007C
:1000900030916900220F331F30936900209368006C
:1000A000809167008F5F80936700839905C021600E
:1000B0003093690020936800409168005091690076
:1000C000CA0193708F5F914091F48FEF80936A0023
:1000D00081E0809367008093660010926400109224
:1000E0006300109262001092610010926000809193
:1000F0006600882309F481C030916700832F65E092
:100100002DD3242F2170333338F59130A9F080910D
:100110006400822780936400923031F48091630000
:1001200082278093630026C0933031F4809162006F
:100130008227809362001EC0943031F48091610068
:1001400082278093610021C0992331F4809160005F
:1001500082278093600019C0913061F4363050F0EE
:10016000343340F480916400821711F010926600DD
:1001700010926400343349F480916300821711F0C7
:10018000109266001092630020C0353349F48091CC
:100190006200821711F0109266001092620015C082
:1001A000363349F480916100821711F01092660095
:1001B000109261000AC0373341F4809160008217C9
:1001C00011F01092660010926000832F90E087700B
:1001D0009070892B91F4E32FE695E695E695F0E093
:1001E000E659FF4F4083383341F481E08093720039
:1001F000109266008BB78F778BBFFF91EF919F9125
:100200008F917F916F915F914F913F912F910F90BF
:100210000FBE0F901F9018950F931F93DF93CF93EE
:10022000CDB7DEB728970FB6F894DEBF0FBECDBFAF
:100230008C0192E308B601FE04C0915088B7826039
:1002400088BF80917200882311F4992399F78091D7
:100250007200882309F484C010927200DE011196A6
:10026000EAE6F0E088E001900D928150E1F788E045
:10027000EAE6F0E0DF011D928A95E9F78BB7806826
:100280008BBF8A81282F30E0998180E0822B932BCD
:10029000807880589F4F09F063C0788570FD60C0FA
:1002A000C90188779070880F991F23703070220FD2
:1002B000331F220F331F822B2B81422F42954695ED
:1002C00046954370842BF801808330E02E713070A6
:1002D00013E0220F331F1A95E1F76C81862F829568
:1002E0008F70822B81834D8150E09A01207830708D
:1002F000B3E035952795BA95E1F7CA018C739070F4
:100300009595879595958795282B6295660F607EC4
:10031000622B62838E815695542F442757954795BB
:10032000282F2F70242B90E0807E907095958795D4
:10033000282B23838F8190E09C0128773070220F37
:10034000331F83709070880F991F880F991F282B77
:100350007295769576957370272B248381E001C082
:1003600080E028960FB6F894DEBF0FBECDBFCF91C8
:10037000DF911F910F910895C59A98B3907F98BB14
:1003800028B3982F92959F70922B98BBC49A22E025
:10039000922F9A95F1F7C49898B3907F98BB98B331
:1003A0008F70982B98BBC49A2A95F1F7C49884EE65
:1003B00091E00197F1F70895C59898B3907F98BBA5
:1003C00028B3982F92959F70922B98BBC49A22E0E5
:1003D000922F9A95F1F7C49898B3907F98BB98B3F1
:1003E0008F70982B98BBC49A2A95F1F7C49880E730
:1003F0008A95F1F70895C49A82E08A95F1F7C49836
:10040000089587B38F6387BB80E395E70197F1F782
:1004100088B3807F88BB88B3836088BBC598C49A43
:1004200092E0892F8A95F1F7C498E0E1F7E23197DD
:10043000F1F7C49A892F8A95F1F7C49820ED37E037
:10044000F9013197F1F7C49A892F8A95F1F7C49889
:10045000F9013197F1F788B3807F88BBC19AC49ABC
:100460009A95F1F7C498C9010197F1F788E2A4DFE2
:100470008CE0A2DF86E0A0DF0895EF92FF920F9359
:100480001F93CF93DF938C01FC01E080EE2061F499
:100490008181882349F48281882331F483818823F0
:1004A00019F48481882359F1C0E0D0E0FF24CE0103
:1004B00061D1E816F9F4CE0101965CD1F801918181
:1004C0009817C1F4CE01029655D1F8019281981780
:1004D00089F4CE0103964ED1F8019381981751F417
:1004E000CE01049647D1F8019481981719F42F2D65
:1004F00030E007C0F3942596F4E1FF16C1F62FEF24
:100500003FEFC901DF91CF911F910F91FF90EF90C5
:100510000895CF93DF93EC01B0DF87FF03C02FEF87
:100520003FEF14C0188219821A821B821C829927FD
:1005300087FD909565E070E0FFD0BC016050704091
:10054000CE0145E050E01ED120E030E0C901DF914E
:10055000CF910895EF92FF920F931F93CF93DF9364
:100560007C018BDF87FF2DC0C0E0D0E08E01005002
:100570001040C801FFD0882301F5CE018F5F9F4F47
:10058000F9D08823D1F4CE018E5F9F4FF3D088231A
:10059000A1F4CE018D5F9F4FEDD0882371F4CE0181
:1005A0008C5F9F4FE7D0882341F4C701B80145E035
:1005B00050E0E8D021E030E006C02596C436D105F1
:1005C000A9F62FEF3FEFC901DF91CF911F910F9156
:1005D000FF90EF900895AF92BF92CF92DF92EF928B
:1005E000FF920F931F93DF93CF93CDB7DEB72A9778
:1005F0000FB6F894DEBF0FBECDBF03DF84E081BB32
:1006000082BB87B3806C87BB849B2BC0859B29C032
:10061000869B27C0FE01369685E0DF011D928A95F4
:10062000E9F700E010E06F0130E4B32E28ECE22E91
:10063000F12CC601B80145E050E0A4D088B38B2569
:1006400088BB88B3805888BB84EF91E0F70131976D
:10065000F1F70197D9F70B5F1F4FB0E004361B0786
:1006600041F783E083BF85B7846085BF8BB780681F
:100670008BBF78947E010894E11CF11C96E0A92EB2
:10068000B12CAC0EBD1E88ECC82ED12C80E894DEB7
:1006900004E610E0C8016ED06FDE0F5F1F4FE0E090
:1006A0000E361E07B9F7C701B7DD882319F484EFAA
:1006B00091E03AC0849B06C0859904C0869B02C025
:1006C000C70148DF849906C0859B04C0869B02C091
:1006D000C7011FDFC701D1DE97FD02C0C69A01C066
:1006E000C79A80E869DE8701D8018C9182958F7066
:1006F0008A3010F0895C01C0805D3EDEF8018081A7
:100700008F708A3010F0895C01C0805D35DE0F5F2C
:100710001F4F0A151B0541F784EC99E0F60131974C
:10072000F1F70197D9F7C3CFF6013197F1F70197A8
:10073000D9F7C798C698AACF5527002480FF02C0D2
:10074000060E571F660F771F6115710521F09695EC
:100750008795009799F7952F802D0895991B79E03B
:1007600004C0991F961708F0961B881F7A95C9F741
:1007700080950895E199FECF1FBA8EBBE09A992724
:100780008DB30895A82F862F02C02D9104D041501B
:10079000E0F70895262FE199FECF1CBA1FBA8EBB51
:1007A0002DBB0FB6F894E29AE19A0FBE0196089518
:0407B000F894FFCFEB
:00000001FF
