:100000000C94B4020C94D1020C94D1020C94D10241
:100010000C94D1020C94D1020C94D1020C94D10214
:100020000C94D1020C94D1020C94D1020C94D10204
:100030000C94D1020C9405040C94D1020C94D102BE
:100040000C94D1020C94D1020C94D1020C94D102E4
:100050000C94D1020C94D1020C94D1020C94D102D4
:100060000C94D1020C94D1020C94D1020C94D102C4
:100070000C94D1020C94D1020C94D102443A206D1C
:1000800061633A2025783A25783A25783A25783AF6
:1000900025783A25780A00443A20656E6332386A3A
:1000A0003630207265766973696F6E2030782578F6
:1000B0000A00443A2064697361626C696E67207754
:1000C00061746368646F670A00443A2072657365FF
:1000D000743A20556E6B6E6F776E0A00443A207248
:1000E000657365743A2045787465726E0A00443A07
:1000F0002072657365743A205761746368646F6732
:100100000A00443A2072657365743A20506F77652F
:1001100072206F6E0A00443A2072657365743A204B
:1001200042726F776E2D6F75740A00443A204574E1
:1001300068657273657820536570203234203230E0
:1001400031312031393A35383A3434202844656227
:100150007567206D6F6465290A000022F9010C653E
:1001600000443A206E65743A207061636B657420B8
:10017000746F6F206C61726765206F7220746F6F8F
:1001800020736D616C6C20666F7220616E206574E7
:100190006865726E6574206865616465723A2025D1
:1001A000640A00443A206E65743A207472616E737A
:1001B0006D6974206572726F72210A00443A206E74
:1001C00065743A2072656365697665206572726F41
:1001D00072210A00443A206E65743A207061636BA4
:1001E0006574207472616E736D6974206661696CE8
:1001F00065640A00443A206E65743A206E6F206C84
:10020000696E6B210A00443A206E65743A20676F6C
:1002100074206C696E6B210A00443A206E65743A52
:100220002074696D656F75742077616974696E6794
:1002300020666F722054585254532C2061626F72A2
:1002400074696E67207472616E736D6974210A003F
:10025000443A20636F6E74656E74202532782025D1
:1002600032782025327820253278202532782025D2
:1002700032782025327820253278202532782025C2
:1002800032782025327820253278200A00443A201E
:10029000756E6B6E6F776E2073796D626F6C202553
:1002A00063202532780A00443A20672025346420F0
:1002B000253464202534640A00443A2025632563EC
:1002C00025632563202532783A2532783A2532781D
:1002D0003A2532783A2532783A2532783A253278FA
:1002E0003A25327820202534642E2530316420438D
:1002F0000A00443A2072666D31322F6F766572665D
:100300006C6F77202D3E20696E69742E0A00443A86
:100310002072666D31322F706F72202D3E20696E13
:1003200069742E0A00443A2053656E64696E672032
:100330007061636B65742077697468206C656E67A3
:10034000746820256420282564290A00443A207511
:1003500069702069705F73656E645F6E6F6C656E47
:100360003A20697063686B73756D2030782530347E
:10037000780A00443A207569703A207463703A2014
:10038000676F742072657365742C2061626F72747C
:10039000696E6720636F6E6E656374696F6E2E0A97
:1003A00000443A207569703A207463703A20666F91
:1003B000756E64206E6F20756E7573656420636F53
:1003C0006E6E656374696F6E732E0A00443A207511
:1003D00069703A207463703A2062616420636865D2
:1003E000636B73756D2E0A00443A207549503A20AC
:1003F0006275696C742055445020495020636865CB
:10040000636B73756D203078253034780A00443A78
:10041000207564703A206E6F206D61746368696E38
:100420006720636F6E6E656374696F6E20666F75AB
:100430006E642C2073706F72742025642C2064709D
:100440006F72742025640A00443A207569703A205E
:100450007564703A2062616420636865636B7375CC
:100460006D2E0A00443A207569703A2069636D70F8
:100470003A206E6F742069636D70206563686F2E1B
:100480000A00443A207569703A2069703A206E6516
:10049000697468657220746370206E6F722069637E
:1004A0006D702E0A00443A207569703A2069703ADE
:1004B0002062616420636865636B73756D2E0A004A
:1004C000443A207569703A2069703A206672616713
:1004D0006D656E742064726F707065642E0A0044DE
:1004E0003A207569703A2069703A207061636B65D3
:1004F000742073686F72746572207468616E207204
:1005000065706F7274656420696E2049502068655B
:10051000616465722E0A00443A207569703A206958
:10052000703A20696E76616C6964207665727369D1
:100530006F6E206F7220686561646572206C656EF5
:100540006774682E0A00443A207569705F697063A9
:10055000686B73756D3A2073756D20307825303473
:10056000780A00000001000111241FBECFEFD0E186
:10057000DEBFCDBF11E0A0E0B1E0E8ECF3E402C0E3
:1005800005900D92A032B107D9F719E0A0E2B1E0D1
:1005900001C01D92A539B107E1F70E94D3020C9466
:1005A000C71B0C9400000F931F93DF93CF930F9200
:1005B000CDB7DEB784B7898314BE80EB84B984E0FD
:1005C00087B90E94D70300D08BE291E0ADB7BEB7E8
:1005D00012969C938E9311970E942F1CFE013196C8
:1005E00089810F900F9082FF04C000D086E191E0D6
:1005F0001EC0898180FF04C000D082E091E00DC060
:10060000808183FF04C000D08EEE90E010C0808116
:1006100081FF0AC000D08CED90E0ADB7BEB7129656
:100620009C938E93119707C000D089EC90E0EDB7B2
:10063000FEB7928381830E942F1C789482EB90E016
:10064000ADB7BEB712969C938E9311970E942F1C44
:1006500088E10FB6F89480936000109260000FBE9E
:100660000F900F900E941D040E94C01B82E70E9401
:100670001D0500D000D0EDB7FEB7319627E930E078
:10068000ADB7BEB712963C932E9311978283138217
:100690000E942F1CEDB7FEB73A970FB6F894FEBF35
:1006A0000FBEEDBF31968CE790E0ADB7BEB71296A6
:1006B0009C938E9311978091500282831382809134
:1006C0005102848315828091520286831782809121
:1006D000530280871186809154028287138680910D
:1006E0005502848715860E942F1CEDB7FEB73E96F3
:1006F0000FB6F894FEBF0FBEEDBF0E94011B00E0D5
:1007000010E00E94B01B8091440281FF06C0F89463
:10071000E0910601F091070109958091440283FF61
:100720000DC0F89428E088E190E00FB6F894A89501
:10073000809360000FBE20936000FFCF82FFE1CF67
:10074000F894F8010995DDCF0F931F930E94BC0B1D
:1007500008E011E010931101009310010E945E194E
:100760000C5F1F4F10931101009310010E942A0487
:100770000E94BB1B0E9489050E9449191F910F917D
:1007800008951F93182F8A3021F48DE00E94C10331
:1007900003C08B3109F41EE58091C00085FFFCCFBA
:1007A0001093C60080E090E01F91089508959FB7D0
:1007B000F8941092C50080E18093C40086E0809395
:1007C000C200A1ECB0E08C9188698C93E0ECF0E081
:1007D0008081826080839FBF8C918F778C9381EC26
:1007E00093E060E070E00E94E31B08958DE0809349
:1007F000810087E391E09093890080938800EFE681
:10080000F0E080818260808308951F920F920FB67E
:100810000F9211248F9381E080938A098091450281
:100820008F5F80934502823310F0109245028F91C2
:100830000F900FBE0F901F9018952C9A429A80E54A
:100840008CBD81E08DBD08958EBD0DB407FEFDCF3A
:100850008EB5089580E592E06AE571E046E050E0EB
:100860000E94CA1BE0911001F09111010190F081EA
:10087000E02D2AE031E031832083E0911001F091F6
:1008800011010190F081E02D80E092ED938382834D
:10089000E0911001F09111010280F381E02D8FEFC2
:1008A0009FEF91838083E0911001F091110102800C
:1008B000F381E02D8FEF90E0938382833093F602F3
:1008C0002093F50280E091E09093F8028093F70284
:1008D00008951F931FB7F8942C988FEF0E9424045B
:1008E00080E49FE10197F1F72C9A1FBF1F910895B3
:1008F000EF92FF920F931F93082FE62EF42E282FCE
:1009000030E0C9018F7190704B9784F4207630707D
:1009100085E0359527958A95E1F78091200190E053
:100920002817390719F0822F0E94A8041FB7F894DE
:100930002C980F718F2D802B0E9424048E2D0E94E5
:1009400024042C9A1FBF1F910F91FF90EF900895E0
:100950001F93182F8FE163E040EA0E947804612F13
:1009600063708FE140E80E947804109320011F918A
:1009700008950F931F93182F0FB7F8942C988AE7B8
:100980000E942404812F0E9424042C9A0FBF1F91DF
:100990000F910895FF920F931F93082FF62E282F83
:1009A00030E0C9018F7190704B9784F420763070DD
:1009B00095E0359527959A95E1F78091200190E093
:1009C0002817390719F0822F0E94A8041FB7F8943E
:1009D0002C980F71802F80640E9424048F2D0E9418
:1009E00024042C9A1FBF1F910F91FF9008951F930D
:1009F000682F192F82E00E94CA0483E0612F0E94B1
:100A0000CA041F9108951F93682F192F80E00E9438
:100A1000CA0481E0612F0E94CA041F9108951F93A8
:100A20001FB7F8942C988AE30E94240480E00E9467
:100A300024042C9A1FBF1F9108950F931F93182F02
:100A4000282F30E0C9018F7190704B9784F4207685
:100A5000307045E0359527954A95E1F78091200162
:100A600090E02817390719F0822F0E94A8040FB7C9
:100A7000F8942C98812F8F710E94240480E00E94AA
:100A8000240417FF03C080E00E9424042C9A0FBFA7
:100A90001F910F9108950F931F93982F162F072FD3
:100AA00084ED692F0E94CA0486ED612F0E94CA045A
:100AB00087ED602F0E94CA048AEE0E941D0580FD0A
:100AC000FBCF1F910F9108950F931F93682F84ED13
:100AD0000E94CA0482ED61E040E80E9478048AEE38
:100AE0000E941D0580FDFBCF82ED61E040EA0E947F
:100AF000780488ED0E941D05082F89ED0E941D05D0
:100B0000382F20E010E0022B132BC8011F910F910A
:100B100008950E94690488E060E00E94CA0489E0A8
:100B200060E00E94CA048AE06FEF0E94CA048BE072
:100B30006FE00E94CA0484E060E00E94CA0485E07D
:100B400060E10E94CA048CE060E00E94CA048DE06B
:100B500060E00E94CA048EE060E00E94CA048FE058
:100B600060E00E94CA04109247021092460281EC93
:100B700060E840EA0E94780480EC6DE040E80E9462
:100B8000780482EC62E340E80E94780480E060E050
:100B900070E00E944B0580E00E94640590FF08C051
:100BA00082EC61E040E80E94780484EC62E107C0D6
:100BB00082EC61E040EA0E94780484EC65E10E94E6
:100BC000CA0486EC62E10E94CA0487EC6CE00E94D1
:100BD000CA048AEC60EE0E94CA048BEC65E00E94B5
:100BE000CA0484EE609150020E94CA0485EE6091AE
:100BF00051020E94CA0482EE609152020E94CA040D
:100C000083EE609153020E94CA0480EE6091540208
:100C10000E94CA0481EE609155020E94CA0488E3D2
:100C200063E80E94CA0484E162E17CE00E944B0513
:100C30008BE16BED0E94CA0482E162E170E00E94E8
:100C40004B058FE164E040E80E9478048EE160E8A3
:100C500040E80E947804089582EC0E941D0582738A
:100C6000823311F00E9489050895CF92DF92EF92AE
:100C7000FF920F931F93DF93CF9300D000D0CDB797
:100C8000DEB789E30E941D05882309F4ABC080917B
:100C90004602909147020E9403050E940F05082F0B
:100CA0000E940F05382F20E010E0202B312B3093CD
:100CB0004702209346027E010894E11CF11C0E9429
:100CC0000F05898387010F5F1F4F0E940F05F701F2
:100CD00081830E940F05F80181830E940F050F5F39
:100CE0001F4FF801818389819A812CEFE22E2FEF2B
:100CF000F22EE80EF91E42978F5C954030F409EF12
:100D000012E06801CE0CDF1C18C000D000D081E6D4
:100D100091E0EDB7FEB792838183F482E3820E9473
:100D20002F1C0F900F900F900F900E9489055AC0B2
:100D30000E940F05F80181938F010C151D05C1F765
:100D4000F0924F02E0924E028CE091E090931101FC
:100D5000809310019091050380910603F8E08030A4
:100D60009F0771F086509840C1F40E943917809116
:100D70004E0290914F02892B81F00E948A070DC08C
:100D80000E94051781E00E943E1680914E029091CC
:100D90004F02892B11F00E9430166091460270912B
:100DA0004702CB0101978050904138F08CE06FEF03
:100DB0000E94CA048DE06FE00EC061508CE00E947A
:100DC000CA04609146027091470261507040672FDB
:100DD000770F770B8DE00E94CA048EE160E440E853
:100DE0000E9478040F900F900F900F90CF91DF9199
:100DF0001F910F91FF90EF90DF90CF9008951F9378
:100E000089E30E941D05882309F482C08CE10E94B9
:100E10001D05182F8BE160E840EA0E94780414FF5A
:100E200017C083E10E94640581E10E94640592FF7E
:100E300004C000D086E092E003C000D084EF91E0CF
:100E4000EDB7FEB7928381830E942F1C0F900F9005
:100E500013FF1AC08DE10E941D0581FF0BC000D059
:100E600084ED91E0EDB7FEB7928381830E942F1C41
:100E70000F900F908CE168E040EA0E9478048DE1C9
:100E80006AE040EA0E94780416FF17C09FB7F89402
:100E90008091CC02882311F081E004C088E0809327
:100EA000CC0280E09FBF882399F50E94350680918F
:100EB0004102833010F41092CC0210FF12C000D017
:100EC0008CEB91E0EDB7FEB7928381830E942F1CDB
:100ED0000F900F908CE161E040EA0E9478040E943C
:100EE000890511FF10C000D083EA91E0EDB7FEB78D
:100EF000928381830E942F1C0F900F908CE162E0FF
:100F000040EA0E9478048BE160E840E80E9478049F
:100F10001F9108951F93CF93DF9314E68FE10E94F2
:100F20001D0583FD03C0112321F00FC01150B0F740
:100F30000CC000D089E192E0EDB7FEB792838183C7
:100F40000E942F1C0F900F903EC084E060E00E9432
:100F5000CA0485E060E10E94CA0486E060914E0206
:100F60000E94CA0420914E0230914F022050304F0F
:100F700087E0632F0E94CA0480E090E10E94F7049A
:100F800080E00E94B904C0E0D0E007C0FE01E75055
:100F9000FD4F80810E94B904219680914E0290916C
:100FA0004F02C817D90790F38FE160E840E80E942C
:100FB00078048FE160E840EA0E9478048FE168E0FD
:100FC00040E80E947804DF91CF911F9108954298E4
:100FD00020E030E050E061E097FF02C0409A01C09D
:100FE0004098220F331F33992160419A462F4A952A
:100FF000F1F741985F5F503119F0880F991FECCFDE
:10100000429AC901089590E0F5E0880F991FFA957A
:10101000E1F7907050E047705070842B952B9469E5
:1010200070E063707070E3E0660F771FEA95E1F798
:10103000862B972B0E94E70708958036910518F4B8
:1010400080E690E006C02FE08034920710F08FE336
:101050009FE0906A0E94E707089522E0873992078F
:1010600000F19C0140E050E08851954170F460E649
:1010700078EA80E090E00E949021DA01C9010197AE
:101080008068966C0E94E70708956CEF72E485E033
:1010900090E00E946E21DA01C9010197966C0E94CE
:1010A000E707089590E087709070986970E0A4E079
:1010B000660F771FAA95E1F77070862B972B0E9419
:1010C000E707089587E187B9429A449A20E040E40F
:1010D0005CE9CA010197F1F72F5F2A30D1F780EE62
:1010E00090EC0E94E70787EE90E80E94E7078BEA02
:1010F00092EC0E94E70781E89AEC0E94E70780E003
:1011000090EE0E94E70780E098EC0E94E70787EFE7
:1011100094EC0E94E7078BE796E00E941D0884E0AC
:1011200061E044E00E9403088AE992E00E942D08F1
:1011300080E066E00E9452080895409842980000BE
:1011400020E137E245E007C0882329F021503040F4
:10115000942F9A95F1F7339903C021153105A1F722
:101160002A9A80E0232B09F081E00895CF93DF9342
:10117000EC0181E00E949D08882331F080E090EB33
:101180000E94E707888381E0DF91CF9108950F9354
:101190001F9388EC92E80E94E70700E41CE9C8016D
:1011A0000197F1F781E89AEC0E94E707C8010197DF
:1011B000F1F783E89AEC0E94E707C8010197F1F77D
:1011C0001F910F91089588E092E80E94E707089523
:1011D000089580E0089580E090E00895DF93CF9334
:1011E00000D000D0CDB7DEB70E94620810924D0249
:1011F00010924C028AE091E09A83898380E09FEF0D
:101200009C838B83CE01019660E379E345E159E04D
:101210000E94371590934B0280934A020F900F90D3
:101220000F900F90CF91DF91089580914C02909193
:101230004D02892B51F060914C0270914D028091CA
:101240004802909149020E94210C10924D02109286
:101250004C020895909349028093480270934D0286
:1012600060934C0280914A0290914B0290936002ED
:1012700080935F0285E00E945D0C0E943016089505
:10128000CF92DF92EF92FF920F931F93DF93CF9352
:10129000CDB7DEB7C654D0400FB6F894DEBF0FBE50
:1012A000CDBF80E090E00E94E70796FF0AC000D023
:1012B0008EE093E0ADB7BEB712969C938E931197D4
:1012C00009C095FF0EC000D082EF92E0EDB7FEB7E7
:1012D000928381830E942F1C0F900F900E94EE0832
:1012E00095C191FD93C107E0E02EF12CEC0EFD1E9F
:1012F000CC24DD24D7011C92C7010E94B6088B853F
:10130000853651F086361CF4843561F408C0883681
:101310004CF403E110E008C009E010E005C009E169
:1013200010E002C006E010E00894C11CD11C089433
:10133000E11CF11CC016D106E8F20E94E30880EA25
:101340009FE00197F1F70E94C708CE010796B80108
:101350000E942A092B85243521F0273609F0DCC0AC
:1013600075C02C853D853A832983EDB7FEB77E97FE
:101370000FB6F894FEBF0FBEEDBF319689EB92E039
:10138000ADB7BEB712969C938E9311978F81992714
:1013900087FD9095938382838885992787FD909513
:1013A000958384838985992787FD90959783868384
:1013B0008A85992787FD9095918780878E859927C3
:1013C00087FD9095938782878F85992787FD9095D4
:1013D000958784878889992787FD90959787868741
:1013E0008989992787FD9095918B808B8A89992788
:1013F00087FD9095938B828B8B89992787FD90959C
:10140000958B848B8C89992787FD9095978B868BFC
:101410008D89992787FD9095918F808FC90114E060
:10142000969587951A95E1F7938F828F80E0922F9A
:101430009295907F69E979E10E945A21758F648FB6
:101440000E942F1CEDB7FEB77E96DBC08C859D8574
:101450009A8389838E859F859C838B8388899989CC
:101460009E838D838DB79EB708970FB6F8949EBF65
:101470000FBE8DBF0DB71EB70F5F1F4F87EA92E0FB
:10148000ADB7BEB712969C938E93119769817A81FE
:10149000882777FD8095982F0E94F01C23E333E383
:1014A00043E150E40E94551C0E94BD1CF801738367
:1014B00062836B817C81882777FD8095982F0E94BD
:1014C000F01C23E333E343E150E40E94551C0E94E7
:1014D000BD1CD80115967C936E9314976D817E8107
:1014E000882777FD8095982F0E94F01C23E333E333
:1014F00043E150E40E94551C0E94BD1CF801778313
:1015000066830E942F1C8DB79EB708960FB6F8947D
:101510009EBF0FBE8DBF7AC0332727FD309500D008
:1015200000D000D0EDB7FEB731968DE892E0ADB7B0
:10153000BEB712969C938E93119733832283358383
:1015400024830E942F1CEDB7FEB774970FB6F89452
:10155000FEBF0FBEEDBF319680E592E0ADB7BEB7DE
:1015600012969C938E9311978F81992787FD909562
:10157000938382838885992787FD909595838483BB
:101580008985992787FD9095978386838A859927F2
:1015900087FD9095918780878B85992787FD90950A
:1015A000938782878C85992787FD90959587848777
:1015B0008D85992787FD9095978786878E859927B2
:1015C00087FD9095918B808B8F85992787FD9095CE
:1015D000938B828B8889992787FD9095958B848B37
:1015E0008989992787FD9095978B868B8A8999277A
:1015F00087FD9095918F808F0E942F1CEDB7FEB7CD
:101600007A960FB6F894FEBF0FBEEDBFCA5BDF4FF0
:101610000FB6F894DEBF0FBECDBFCF91DF911F9103
:101620000F91FF90EF90DF90CF9008950E94EB080C
:1016300090934F0280934E020097C9F00E969093BC
:101640004F0280934E020E94E90880E00E943E16FD
:1016500080914E0290914F02892B39F48091410282
:10166000833028F41092CC0208950E943016089519
:10167000FC015381560F50932A01272F33274281B3
:10168000420F40932901A181A0932801E081E093BA
:101690002701842F90E08217930748F48A2F8F5FE9
:1016A00080932801882319F4EF5FE0932701852FA9
:1016B00090E070708617970790F4842F8F5F809367
:1016C0002901882361F4809128018F5F809328018C
:1016D000882329F4809127018F5F80932701089543
:1016E0009C0141505040460F571FFB010EC07081B6
:1016F00060E08181DB01A80FB11D2A0F3B1F2A1773
:101700003B0710F42F5F3F4F3296E417F50778F34D
:10171000E417F50749F4908180E0280F391F281756
:10172000390710F42F5F3F4FC90108950F931F939E
:1017300000910A0310E0045110403091090320E0A9
:10174000020F131F9801280F311DC90163E173E0D7
:1017500048E050E00E94700B6BE173E0A8010E942A
:10176000700B009719F42FEF3FEF02C0382F292F8D
:10177000C9011F910F91089580E00BC0E82FF0E0A0
:10178000EE0FFF1FEE0FFF1FE353FD4F118210827C
:101790008F5F8A3098F320E00FC0822F90E0FC0129
:1017A00035E0EE0FFF1F3A95E1F7E80FF91FE75913
:1017B000FD4F138E10A22F5F233078F380E094E06A
:1017C00090935E0280935D0220E04BE050E00FC0FA
:1017D000822F90E0849FF001859FF00D949FF00D83
:1017E0001124E752F74F1582148212862F5F25309D
:1017F00078F3209323010895BC01809167029091B2
:10180000680208960E94380BE0916702F091680226
:10181000809127018087E0916702F09168028091B2
:1018200028018187E0916702F09168028091290187
:101830008287E0916702F091680280912A01838794
:101840000895AC01FB011616170684F46093D708BF
:10185000F093D80820915A0230915B0282179307C7
:1018600029F0C901BA01AF010E94D31B0895CF939B
:10187000DF9380E090E067E073E044E150E00E9495
:10188000700BEC0100D000D086E495E0EDB7FEB718
:1018900092838183D483C3830E942F1C0F900F9067
:1018A0000F900F90209719F42FEF3FEF02C03C2FBD
:1018B0002D2FC901DF91CF9108950F931F93CF93DF
:1018C000DF93843009F45FC22FE233E03093660285
:1018D0002093650230935B0220935A02C091670205
:1018E000D0916802833091F48B8D8F70833011F02A
:1018F0000C942C1588899989892B11F00C942C153E
:1019000088E080935C02EE8DFF8DF5C6823009F091
:10191000A3C0809164028F5F80936402882399F44E
:10192000809163028F5F80936302882361F48091CA
:1019300062028F5F80936202882329F480916102A2
:101940008F5F8093610210924F0210924E021092AC
:10195000D8081092D7082B8D273011F0253051F47C
:101960008C8D8F5F8C8F883711F00C942C151B8E0B
:101970000C942C15222311F40C942C158889998928
:10198000892B09F460C08C8D81508C8F8F5F11F092
:101990000C942C153D8D383029F02150223090F4D4
:1019A000353081F41B8E80E880935C02E091670201
:1019B000F0916802068CF78DE02D309709F4A8C6E7
:1019C0000995A6C6353010F080E307C083E090E0AB
:1019D00002C0880F991F3A95E2F78C8F8D8D8F5F2B
:1019E0008D8F8B8D90E08F70907083309105E1F03A
:1019F000843091054CF48130910509F441C402977B
:101A000011F00C942C150DC08630910509F40BC60D
:101A10008830910509F407C6049711F00C942C1531
:101A200002C6109228032FC484E080935C02E091E8
:101A30006702F0916802068CF78DE02D309709F46B
:101A40009CC609959AC62F70233011F00C942C1562
:101A500088E080935C0248C6853019F5E0915F020A
:101A6000F091600284819581892B09F4F5C7109269
:101A7000680210926702C9010C97909366028093E6
:101A8000650290935B0280935A021092D8081092DC
:101A9000D70810924F0210924E0288E080935C02A9
:101AA0006CC189010852104080910703853421F0F0
:101AB00000D087E195E01EC09091090380E020915D
:101AC0000A03FC01E20FF11D80914E0290914F023A
:101AD0008E179F0760F0F0934F02E0934E028091C3
:101AE0000D0390E08F739070892B79F012C000D0B5
:101AF0008FED94E0ADB7BEB712969C938E9311977D
:101B00000E942F1C0F900F90A7C780910E0388236F
:101B100021F000D080EC94E031C0E0911001F09110
:101B200011010190F081E02D2091170330911803ED
:101B3000808191812817390709F08EC720911903F8
:101B400030911A03828193812817390709F084C7DD
:101B50000E94370C8F5F9F4F21F000D085EA94E000
:101B6000C9CF80911003863009F496C1813109F400
:101B700049C0813041F000D082E894E0EDB7FEB773
:101B800092838183BDCF80911B03883021F000D0E8
:101B900084E694E0AFCF10921B0380911D039091D7
:101BA0001E03BFEF873F9B0710F0099601C0089600
:101BB00090931E0380931D0380911303909114034F
:101BC0009093180380931703809115039091160347
:101BD00090931A0380931903A0911001B091110101
:101BE000ED91FC91119780819181909314038093E2
:101BF0001303ED91FC91828193819093160380935E
:101C00001503FFC680914E0290914F024C9790931E
:101C10004F0280934E0283E293E09093660280939A
:101C200065028091210390912203892B51F081E17B
:101C30000E94960B8F5F9F4F21F000D088E494E0C4
:101C400059CF85E099E09093600280935F024091C4
:101C50005802509159024AC024813581211531051D
:101C600009F43FC080911D0390911E0382179307D2
:101C7000C1F5268137812115310539F080911B038B
:101C800090911C038217930761F520813181809127
:101C90005602909157022817390731F482819381B7
:101CA0008417950709F450C0809112019091130197
:101CB0002817390731F4828193818F5F9F4F09F490
:101CC00043C080911303909114038217930749F442
:101CD00020911503309116038281938128173907CB
:101CE00099F13B97F0936002E0935F02E0915F020D
:101CF000F091600228E0E93DF20708F0ADCF00D096
:101D000000D000D0EDB7FEB731968EE094E0ADB7CD
:101D1000BEB712969C938E93119780911B0390915E
:101D20001C039383828380911D0390911E039583EE
:101D300084830E942F1CEDB7FEB736960FB6F89439
:101D4000FEBF0FBEEDBF88C61092680210926702F8
:101D500082E080935C0283E293E09093660280933A
:101D6000650290935B0280935A021092D8081092F9
:101D7000D708E0915F02F09160020084F185E02DC8
:101D8000309709F009952091D7083091D80821158E
:101D9000310509F461C6C9014C9690934F028093B6
:101DA0004E029093090380930A0380E480930F030B
:101DB00081E180931003C901089690931F038093DB
:101DC0002003109222031092210320915F02309190
:101DD0006002D90114968D919C91159790931C03E4
:101DE00080931B0316968D919C91179790931E03D9
:101DF00080931D03A0911001B0911101ED91FC9110
:101E00001197808191819093140380931303ED9136
:101E1000FC91828193819093160380931503F901BD
:101E2000808191819093180380931703828193811D
:101E300090931A038093190383E293E090936602D0
:101E40008093650281E10E94960B80959095909316
:101E5000220380932103892B31F48FEF9FEF90931E
:101E600022038093210300D000D088EE93E0ADB729
:101E7000BEB712969C938E931197809121039091F7
:101E8000220314969C938E9313970E942F1C0F90FD
:101E90000F900F900F9083C586E00E94960B8F5F86
:101EA0009F4F21F000D08CEC93E068CEC9E6D2E0E1
:101EB0008B8D882329F120911D0330911E038C8185
:101EC0009D8128173907E1F420911B0330911C03F1
:101ED0008E819F812817390799F42091130330913F
:101EE0001403888199812817390751F4209115032B
:101EF000309116038A819B812817390709F4DCC1C8
:101F0000A196F2E0CB3ADF0799F290F28091280394
:101F10008F73823021F580911D0390911E03909361
:101F20002601809325011092230115C0E42FF0E0D3
:101F3000EE0FFF1FEE0FFF1FE353FD4F2091250112
:101F400030912601808191812817390709F48FC0CB
:101F50004F5F40932301409123014A3038F3809131
:101F6000280382FD79C584E1D80191968C939197DD
:101F700088E290E090934F0280934E0280E5909625
:101F80008C93909790912203809126035B968C937B
:101F90005B9730912103809125035A968C935A9731
:101FA0005E963C935E97409120038091240359965E
:101FB0008C9359975D964C935D9720911F032093C6
:101FC00023018091230358968C9358975C962C9309
:101FD0005C979F5F5F969C935F97992389F4832F0B
:101FE0008F5F5E968C935E97882351F4842F8F5F6A
:101FF0005D968C935D97882319F42F5F5C962C93E4
:1020000020911B0330911C0330932601209325015E
:1020100080911D0390911E03F801958B848B378B63
:10202000268B80911303909114039093180380934F
:102030001703809115039091160390931A038093D0
:102040001903A0911001B0911101ED91FC9111972C
:10205000808191819093140380931303ED91FC91FF
:102060008281938190931603809315037CC4109210
:102070002301C0E0D0E031E226C0822F90E0FC01D5
:1020800045E0EE0FFF1F4A95E1F7E80FF91FE7590A
:10209000FD4F838D882339F481E2289FE0011124CC
:1020A000C759DD4F14C0873059F4209721F0948D23
:1020B0008C8D891728F4239FE0011124C759DD4F27
:1020C0002F5F20932301209123012330B0F220972A
:1020D00021F400D081EA93E00DCDD0936802C09343
:1020E00067021092230124C0A42FB0E0FD01EE0F7F
:1020F000FF1FEE0FFF1FE353FD4F2091250130918D
:102100002601808191812817390779F4E0916702CF
:10211000F0916802AA0FBB1FAA0FBB1FA153BD4FAE
:102120008D919C91978F868F07C04F5F40932301BD
:10213000409123014A30C0F2E0916702F0916802B9
:10214000809110019091110188509140959587954B
:102150009595879580A383E08C8F8A8F188E84E075
:10216000898F1D8E1B8A1A8A80911D0390911E03F0
:102170009D838C8380911B0390911C039F838E838E
:1021800080911303909114039983888380911503A0
:10219000909116039B838A8381E08B8F80916102EB
:1021A0008C87809162028D87809163028E878091F7
:1021B00064028F8781E090E0998B888B8091220365
:1021C0008B87809121038A87809120038987809162
:1021D0001F03888781E090E00E94FC0B8091270319
:1021E00090E0807F9070813591050CF449C0109289
:1021F000230134C0F901E750FD4F86A980932401E3
:102200008823F1F1813021F44F5F4093230126C0F0
:102210008230C1F487A98430A9F430AD20E081ADCB
:1022200090E0822B932B9093260180932501B5E0BB
:10223000873A9B0710F086EA95E09D8B8C8B9F8BED
:102240008E8B1EC090912301E92FF0E0E750FD4FE7
:1022500087A98823A9F0890F809323014091230146
:10226000242F30E08091270382958F7090E00597AE
:10227000880F991F880F991F281739070CF4BACFB8
:1022800080E1809328038091280382608093280353
:1022900082E080932F0384E08093300385E0809375
:1022A000310386EA809332038CE290E090934F02F0
:1022B00080934E0280E6F7C2D0936802C093670213
:1022C00010925C0280912803482F50E082FF17C0D3
:1022D0001B8E00D083E793E0EDB7FEB79283818336
:1022E0000E942F1C80E280935C02E0916702F091D3
:1022F0006802068CF78DE02D0F900F9074C28091CC
:10230000270382958F70880F880F80932301209177
:102310004E0230914F0224513040281B3109309336
:102320004F0220934E028B8D8F70823029F44F73B1
:1023300050704231510509F1232B39F48091280363
:1023400090E083709070892BC1F090911F03888575
:10235000981709F09DC2909120038985981709F07C
:1023600097C2909121038A85981709F091C29091A4
:1023700022038B85981709F08BC28091280384FF74
:1023800051C0688979896115710509F44BC0CE0186
:102390000C960E94380B2091230380912701281767
:1023A00009F040C090912403809128019817D1F53D
:1023B00090912503809129019817A1F5909126030A
:1023C00080912A01981771F52C87809128018D87BB
:1023D000809129018E8780912A018F878D8D882396
:1023E000D1F4288D9A8D8C8D981B822F8695869599
:1023F0008695981B392F320F388F898D282F269577
:102400002695821B97FD9195890F898F3695369574
:102410003695830F8A8F81E080935C028A8D8C8F42
:10242000198A188A8B8D282F30E0C9018F7090701F
:102430008430910509F4DCC1853091055CF482306B
:102440009105A1F1833091050CF0BBC0019709F013
:1024500003C310C08630910509F412C2863091057D
:102460000CF4E6C18730910509F412C2089709F00F
:10247000F3C2AAC180915C0280FFEEC283E08B8F21
:1024800080E480935C02198A188A20914E02309170
:102490004F022115310509F423C180915C0282604D
:1024A00080935C02C9010E94FC0B1AC180915C02FE
:1024B00080FF74C0809128038F73823109F06EC051
:1024C0008091270390E0807F9070813591050CF416
:1024D00049C01092230134C0F901E750FD4F86A98D
:1024E000809324018823F1F1813021F44F5F4093E0
:1024F000230126C08230C1F487A98430A9F430AD0D
:1025000020E081AD90E0822B932B90932601809365
:102510002501F5E0873A9F0710F086EA95E09D8B4C
:102520008C8B9F8B8E8B1EC090912301E92FF0E046
:10253000E750FD4F87A98823A9F0890F80932301D5
:1025400040912301242F30E08091270382958F70E2
:1025500090E00597880F991F880F991F2817390752
:102560000CF4BACF83E08B8F80911F038887809112
:1025700020038987809121038A87809122038B879A
:1025800081E090E00E94FC0B82E480935C02198A57
:10259000188A10924F0210924E02A2C080E28093DD
:1025A0005C02E0916702F0916802068CF78DE02DE5
:1025B000309709F00995E0916702F0916802138E57
:1025C000CECC8091280380FF32C024FD30C08889A2
:1025D0009989892B09F040C280914E0290914F0257
:1025E00001960E94FC0B20915C02822F80618093F7
:1025F0005C0280914E0290914F02892B19F022616A
:1026000020935C02E0916702F0916802068CF78DDE
:10261000E02D309709F0099581E090E0998B888B47
:1026200088E08B8F1D8E81E18093280335C185FF63
:1026300021C060912D03362F20E040912E0350E001
:10264000242B352B8091650290916602820F931F97
:102650009093660280936502962F80E0842B952BE1
:1026600020914E0230914F02281B390B30934F02BC
:1026700020934E0220914E0230914F0221153105D8
:1026800059F08B8D84FD08C080915C02826080933C
:102690005C02C9010E94FC0B9091290380E020910B
:1026A0002A03820F911D90932601809325012E8984
:1026B0003F892817390710F0892B21F43093260120
:1026C0002093250180912501909126019D8B8C8B73
:1026D00080915C0290E083709070892B09F4BCC1FA
:1026E0001092D8081092D708E0916702F091680222
:1026F000068CF78DE02D309709F0099580915C02EA
:10270000282F85FF07C01092D8081092D7081B8E7B
:1027100084E18ACF84FF0AC01092D8081092D708AB
:1027200081E090E0998B888B84E07BCF8091D70803
:102730009091D808892B01F120FF02C0198A188ACC
:10274000888999890097A1F42C893D898091D708BF
:102750009091D8082817390720F43093D80820938F
:10276000D7088091D7089091D808998B888B04C09E
:102770009093D8088093D7081D8E80915A0290912B
:102780005B0290936602809365028091D7089091D6
:10279000D808892B59F088899989009739F088964B
:1027A00090934F0280934E0288E10BC080915C02AF
:1027B00081FF52C188E290E090934F0280934E02D5
:1027C00080E1809328036EC080915C0280FF44C149
:1027D0001B8E80E180935C02E0916702F0916802B9
:1027E000068CF78DE02D309709F436C1099534C178
:1027F00080914E0290914F02009711F00E94FC0BC5
:102800008091280390915C0280FF0BC090FF06C06E
:1028100087E08B8F1C8E198A188A19C086E08B8FEF
:1028200016C090FF26C085E08B8F198A188A14C1C4
:1028300080914E0290914F02009711F00E94FC0B84
:102840008091280380FF15C087E08B8F1C8E81E06C
:1028500090E00E94FC0B80E180935C02E0916702B3
:10286000F0916802068CF78DE02D309789F009957C
:102870000FC080914E0290914F02892B49F4ECC019
:1028800080915C0280FFE8C087E08B8F1C8EE4C0E3
:1028900080E1D80191968C9388E290E090934F026A
:1028A00080934E0280E580932703888580932303DD
:1028B0008985809324038A85809325038B85809363
:1028C00026038C8580931F038D85809320038E853E
:1028D000809321038F858093220386E080931003E9
:1028E0008C819D8190931C0380931B038E819F811B
:1028F00090931E0380931D03A0911001B0911101CC
:10290000ED91FC91119780819181909314038093B4
:102910001303ED91FC918281938190931603809330
:1029200015038881998190931803809317038A81F6
:102930009B8190931A03809319038B8D84FF05C0AC
:1029400010922A03109229030EC08A899B8900974E
:1029500021F0909329038A8904C085E0809329039C
:1029600086EA80932A0380E480930F0380914F02CC
:102970008093090380914E0280930A0310922E03E4
:1029800010922D0310922C0310922B0386E00E94CC
:10299000960B8095909590932C0380932B0385E460
:1029A000809307031092080310920E0310920D03F8
:1029B00080912101909122010196909322018093B0
:1029C000210190930B0380930C0310921203109239
:1029D00011030E94370C8095909590931203809379
:1029E000110300D000D02CE433E0EDB7FEB7328302
:1029F0002183948383830E942F1C0F900F900F904C
:102A00000F9000D000D000D0EDB7FEB7319685E230
:102A100093E0ADB7BEB712969C938E9311978091B9
:102A20004E0290914F02938382839091090380E03C
:102A300020910A0330E0822B932B958384830E949C
:102A40002F1C10925C02EDB7FEB736960FB6F894C5
:102A5000FEBF0FBEEDBF06C010924F0210924E0295
:102A600010925C02DF91CF911F910F910895EF9228
:102A7000FF920F931F93CF93DF93EC018B017A01A9
:102A800020915D0230915E026BE070E02F5F3F4F5E
:102A90008DE72030380710F020E030E1B22FA32F6F
:102AA00040E011C0842F90E0869FF001879FF00DD9
:102AB000969FF00D1124E752F74F848195814F5F67
:102AC0008A179B0719F3453069F720935D0230930D
:102AD0005E0210922301A0E04BE050E01CC0BA2F30
:102AE000BF5F8A2F90E0849FF001859FF00D949F37
:102AF000F00D1124E752F74F84819581892B51F411
:102B0000A09323018BE0A89FF0011124E752F74F17
:102B100049F428C0AB2FA53010F3A0932301E0E0C7
:102B2000F0E020C03483258317830683209729F49F
:102B3000108211821282138208C088819981918348
:102B400080838A819B8193838283F186E086809152
:102B50001001909111018850914095958795959518
:102B600087958287CF01DF91CF911F910F91FF90C1
:102B7000EF9008950F931F93CF93DF93DC01C8E08C
:102B8000D1E060E0D0931101C09310010881198158
:102B90001097A1F42091170330911803F801808158
:102BA00091812817390759F52091190330911A039B
:102BB000828193812817390711F52FC04A815B81E3
:102BC000F801808191812D913C9111978227932763
:102BD000FA012081318182239323892B81F4F8012A
:102BE0008281938112962D913C911397822793278E
:102BF000FA012281338182239323892B71F06F5F45
:102C00002496623009F0BECF109731F0A55FB24034
:102C100019F0A5EFB2E0B3CF6FEF862FDF91CF9120
:102C20001F910F910895282F90E0880F991F880F0A
:102C3000991F885F9E4F909311018093100122236A
:102C400039F0213059F40E94DF170E948A0706C02C
:102C500080914E0290914F020E94E80880E0089512
:102C600087E193E00E94BA158F3F29F410924F023A
:102C700010924E0208950E941316089580E090E08D
:102C80000E94BA158F3F79F090E0880F991F880F46
:102C9000991F885F9E4F909311018093100181E0EE
:102CA0000E945D0C089510924F0210924E020895FA
:102CB000DF92EF92FF920F931F93CF93DF93DC018C
:102CC000062FD72E10928701E0E0F0E060E01BE0D5
:102CD0002BC0619FF0011124E55DFE4F40815181C1
:102CE0004115510501F12281338121153105D9F0BA
:102CF0008D919C91119784179507A9F412968D9147
:102D00009C9113978217930771F460938701EF01E9
:102D10002496802F9D2D9C01D90186E00D9009926B
:102D20008150E1F767C06F5F683098F210928701B9
:102D300020E03BE011C0239FF0011124E55DFE4F30
:102D400080819181892B39F482819381892B19F4B7
:102D5000209387013CC02F5F283068F320938701C0
:102D60002830A9F510928A011092880110918901EA
:102D7000C12FD0E060E070E040E08BE0E82EF12C65
:102D800018C0842F90E08E9DF0018F9DF00D9E9DC8
:102D9000F00D1124E55DFE4F52859E01251B310982
:102DA000872F90E0821793071CF4712F751B642FF7
:102DB0004F5F483030F36093880170938A016093CD
:102DC00087018BE0689FF0011124E55DFE4F8D9136
:102DD0009D910D90BC91A02DEF0189939993A9939A
:102DE000B993202F3D2DC901DC0186E00D90099299
:102DF0008150E1F7809189018287DF91CF911F9106
:102E00000F91FF90EF90DF9008958CE091E0909308
:102E1000110180931001E0910C01F0910D01A0913E
:102E20000E01B0910F018091130390911403208142
:102E30003181822793272D913C91119782239323EF
:102E4000892BB1F48091150390911603228133816F
:102E50008227932712962D913C91139782239323D7
:102E6000892B31F483E193E06FEF72E00E945816F2
:102E70000895CF93DF9380914E0290914F028A97ED
:102E800028F410924F0210924E0296C010924F02F8
:102E900010924E02C9EFD2E080910D0390910E0383
:102EA00021E08030920729F08050924009F084C0E0
:102EB00063C0E0911001F09111010190F081E02DCB
:102EC00020911F03309120038081918128173907B9
:102ED00009F072C0209121033091220382819381F5
:102EE0002817390709F068C0CE014C96BE016A5E0A
:102EF0007F4F0E94581680E092E090930E038093DB
:102F00000D03DE019096FE01769686E001900D920B
:102F10008150E1F7AFE0B3E0E0E5F2E086E0019058
:102F20000D928150E1F7AFEFB2E0E0E5F2E086E02C
:102F300001900D928150E1F7E9EFF2E0DF01909608
:102F400086E00D9001928150E1F7E5E1F3E0928592
:102F500080818287919383E0E931F807C1F788E0A7
:102F600096E090930603809305038AE290E09093A5
:102F70004F0280934E0220C0E0911001F0911101A8
:102F80000190F081E02D20911F033091200380817A
:102F900091812817390781F4209121033091220370
:102FA000828193812817390739F4CE014C96BE01EE
:102FB0006A5E7F4F0E945816DF91CF910895CF939C
:102FC000DF9380911703805E8031B0F481E08093BD
:102FD000F9021092FA028EE58093FB0280911803A9
:102FE0008F778093FC02809119038093FD0280917A
:102FF0001A038093FE0204C1E0911001F0911101C7
:10300000A081B1814D915C9111970280F381E02DF7
:10301000C081D181CE0180959095842B952B2091F4
:103020001703309118032817390789F48281938197
:103030008095909512962D913C911397822B932B0E
:103040002091190330911A032817390791F06091E4
:10305000170370911803809116019091170168175A
:10306000790789F48091190390911A038F5F9F4F1C
:1030700051F4A9EFB2E0EAE1F1E086E001900D92AF
:103080008150E1F7BDC0462757274C235D23452BD0
:1030900081F44091190350911A0312968D919C91DD
:1030A0001397842795272281338182239323892BA9
:1030B00089F08091F5029091F602909384018093BB
:1030C00083018091F7029091F8029093860180939A
:1030D000850108C070938401609383015093860139
:1030E0004093850140918301509184012091850195
:1030F00030918601EBE2F1E0808191814817590718
:1031000029F4828193812817390731F03B9681E0B9
:10311000E338F80789F703C0309709F069C089EFF1
:1031200092E06FEF70E046E050E00E94DC1BE9E1C6
:10313000F3E086E0DF011D928A95E9F77A97A0E532
:10314000B2E086E00D9001928150E1F7AFE0B3E08C
:10315000E0E5F2E086E001900D928150E1F7809188
:103160008301909184019093200380931F038091A9
:103170008501909186019093220380932103A09171
:103180001001B0911101ED91FC9111978081918115
:103190009093160380931503ED91FC9182819381A6
:1031A000909318038093170380E091E090930E03AF
:1031B00080930D03909308038093070388E090E0C9
:1031C00090930A038093090386E080930B0384E0C5
:1031D00080930C0388E096E09093060380930503A8
:1031E0008AE290E090934F0280934E0281E021C0EA
:1031F000A9EFB2E0349686E001900D928150E1F79C
:10320000AFEFB2E0E0E5F2E086E001900D92815090
:10321000E1F788E090E090930603809305038091A6
:103220004E0290914F020E9690934F0280934E0261
:1032300080E0DF91CF910895809189018F5F809325
:103240008901109287014BE01FC0249FF0011124D7
:10325000E55DFE4F8281938120813181822B932B0A
:10326000892B69F08091890190E02285821B910968
:103270008837910524F01082118212821382809186
:1032800087018F5F80938701209187012830E8F2C2
:103290000895109287019BE00CC0899FF0011124D2
:1032A000E55DFE4F10821182128213828F5F809340
:1032B000870180918701883080F30895E0911001A3
:1032C000F09111010190F081E02D8AE091E091836D
:1032D0008083E0911001F09111010190F081E02DC7
:1032E00080E098EE93838283E0911001F0911101C8
:1032F0000280F381E02D8FEF9FEF91838083E09137
:103300001001F09111010280F381E02D8FEF9CEF0D
:1033100093838283089580915C0283FF02C00E94A0
:10332000671A80915C0281FF02C00E94981908957B
:10333000E0916502F0916602618160938E016430D4
:1033400008F07DC08BE2689FD0011124AD56BE4FBE
:103350008C91823009F073C083E08C9383818F70ED
:1033600014968C931497882329F42681378121158C
:10337000310571F484E08C939996ED91FC919A97C4
:10338000309709F45CC0CD01059660E070E049C05B
:10339000858180939001432F30938F013C969191CA
:1033A000892F807C29F4E90FF11D80818823B9F7EA
:1033B000359640C08081807C11F032960AC0919190
:1033C000892F807C29F4E90FF11D80818823B9F7CA
:1033D0003196808191818050914029F5828193813D
:1033E0008050914001F58085918580509440D9F4BA
:1033F00040938F018285938596969C938E939597A3
:103400008485958598969C938E9397979996ED9140
:10341000FC919A97309799F0BD016B5D7F4FCD017C
:1034200005960995089530852185265F3F4FE20F67
:10343000F31F4150442309F0BDCF10928F0108952E
:10344000E0918C01F0918D01309711F0158214827A
:1034500060E075E34BE859E10E94371590938D01C8
:1034600080938C0108950F931F93DF93CF9300D027
:1034700000D0CDB7DEB78E010F5F1F4FC80162E1EC
:1034800070E044E050E00E94591FC8010E94201AD9
:1034900020E04BE250E033E00DC0822F90E0849FAB
:1034A000F001859FF00D949FF00D1124ED56FE4F15
:1034B00030832F5F243088F320938B010F900F907F
:1034C0000F900F90CF91DF911F910F9108950F935F
:1034D0001F93CF93DF93109292010BE214E087C009
:1034E000809FD0011124AD56BE4F9C91892F8150F1
:1034F000823008F077C0923029F511968C9111979F
:10350000815011968C931197882309F06BC0129605
:103510008C9112978F5F12968C931297883071F46A
:103520001C939996ED91FC919A97309709F45AC0A3
:10353000CD01059660E070E0099554C011968C931A
:10354000119709C082E08C9381E011968C931197BA
:1035500012961C921297E0916502F09166028CE03F
:10356000EF0119928A95E9F7809192011082818387
:1035700081E0828380E1838380E091E0958384838E
:1035800080916502909166020C96FD013496319609
:10359000EC01219630E003C029933196342F20812D
:1035A0002E3221F0432F4F5F2223B1F7DC013C93F1
:1035B0008081882311F0CE01EACF30939101CE01B2
:1035C00063E675E045E050E00E94CA1B8091650209
:1035D00025969E01281B622F9091660270E00E9442
:1035E000210C0AC0809192018F5F8093920180919B
:1035F0009201843008F474CFDF91CF911F910F9125
:1036000008950895CF93DF9380918A09882309F460
:10361000A4C010928A0980913F02909140020196C5
:103620009093400280933F029FB7F8948091CC0220
:10363000882311F081E004C088E08093CC0280E010
:103640009FBF8823C9F08091CC0281508093CC0227
:103650009FB7F8948091CC02882311F081E004C0D8
:1036600088E08093CC0280E09FBF882309F075C07A
:10367000109241020E94E90880913F02909140021D
:103680006AE070E00E945A21892B09F044C0C9E623
:10369000D2E088A190E0880F991F880F991F885F5A
:1036A0009E4F9093110180931001D0936802C093B4
:1036B000670282E00E945D0C80914E0290914F0261
:1036C000892B11F00E943016A19682E0CC3CD807DD
:1036D00001F7C9EDD8E08A8590E0880F991F880F1F
:1036E000991F885F9E4F9093110180931001D09392
:1036F0006002C0935F0285E00E945D0C80914E02E3
:1037000090914F02892B11F00E9430162B9689E080
:10371000C031D80701F780913F029091400262E3E7
:1037200070E00E945A21892B11F40E942C0680918E
:103730003F029091400264EF71E00E945A21892B70
:1037400031F41092400210923F020E941C198091A5
:103750004102833010F41092CC02DF91CF91089592
:103760000E94D6030E94FF060E9440090E94160B89
:103770000E94021B08950E9489050E94331A089531
:103780000E94A4030E94F6030E94EE080895F89494
:103790000C94E221FB01DC0102C005900D92415026
:1037A0005040D8F70895FB01DC0102C001900D9252
:1037B00041505040D8F70895DC0101C06D9341504D
:1037C0005040E0F708950F931F93CF93DF938C0140
:1037D000EB01009731F46115710519F420E030E038
:1037E00038C081E090E06EE070E00E94691FFC014B
:1037F0009C01009771F180E88383209771F0D38753
:10380000C28781E8838380918B0990918C09892BF1
:1038100021F4F0938C09E0938B0901151105C9F08F
:103820001187008783818260838380918D099091C5
:103830008E09892B71F4F0938E09E0938D098091A4
:103840008F0990919009892B21F4F0939009E093CE
:103850008F09C901DF91CF911F910F910895A0E0C9
:10386000B0E0E5E3FCE10C94BB21FE0135966191EB
:103870007191A0918D09B0918E0913968C91139737
:10388000886013968C9380918D0990918E09AF0179
:103890000E947C1DE0918D09F0918E092381277F84
:1038A00023832096E2E00C94D7210CD0EBC0E3D028
:1038B00040F0DAD030F021F45F3F19F0CCC0511164
:1038C00015C1CFC0F0D098F39923C9F35523B1F3B4
:1038D000951B550BBB27AA2762177307840738F07F
:1038E0009F5F5F4F220F331F441FAA1FA9F333D0DE
:1038F0000E2E3AF0E0E830D091505040E695001C92
:10390000CAF729D0FE2F27D0660F771F881FBB1F4D
:10391000261737074807AB07B0E809F0BB0B802D27
:10392000BF01FF2793585F4F2AF09E3F510568F073
:1039300092C0DCC05F3FECF3983EDCF38695779550
:103940006795B795F7959F5FC9F7880F911D969575
:10395000879597F90895E1E0660F771F881FBB1FD1
:10396000621773078407BA0720F0621B730B840B7E
:10397000BA0BEE1F88F7E095089504D06894B11152
:10398000B5C0089598D088F09F5790F0B92F992727
:10399000B751A0F0D1F0660F771F881F991F1AF05A
:1039A000BA95C9F712C0B13081F09FD0B1E0089547
:1039B0009CC0672F782F8827B85F39F0B93FCCF3C8
:1039C000869577956795B395D9F73EF49095809550
:1039D000709561957F4F8F4F9F4F0895E89409C070
:1039E00097FB3EF490958095709561957F4F8F4F32
:1039F0009F4F9923A9F0F92F96E9BB279395F69548
:103A0000879577956795B795F111F8CFFAF4BB0FC5
:103A100011F460FF1BC06F5F7F4F8F4F9F4F16C029
:103A2000882311F096E911C0772321F09EE8872FB3
:103A3000762F05C0662371F096E8862F70E060E06F
:103A40002AF09A95660F771F881FDAF7880F9695E8
:103A5000879597F9089597F99F6780E870E060E08F
:103A600008959FEF80EC089500240A941616170617
:103A700018060906089500240A941216130614065F
:103A800005060895092E0394000C11F4882352F0C2
:103A9000BB0F40F4BF2B11F460FF04C06F5F7F4F7A
:103AA0008F4F9F4F089557FD9058440F551F59F061
:103AB0005F3F71F04795880F97FB991F61F09F3F1B
:103AC00079F087950895121613061406551FF2CF44
:103AD0004695F1DF08C0161617061806991FF1CF94
:103AE00086957105610508940895E894BB276627BB
:103AF0007727CB0197F90895ABE0B0E0E2E8FDE16C
:103B00000C94AB213C012B015A01FC011782168257
:103B1000838181FD03C06FEF7FEFC6C19AE0892EDC
:103B20001E010894211C311CF3012381F20123FDA5
:103B3000859123FF81912F01882309F4B2C1853239
:103B400039F423FD859123FF81912F01853229F4DA
:103B500090E0B3010E94D020E7CF982FFF24EE24FD
:103B60009924FFE1FF15D0F09B3269F09C3228F4D4
:103B7000903259F0933291F40EC09D3249F0903357
:103B800069F441E024C052E0F52A84E0F82A28C014
:103B900098E0F92A25C0E0E1FE2A22C0F7FC29C0FE
:103BA000892F80538A3070F4F6FE05C0989C902CC3
:103BB0001124980E15C0E89CE02C1124E80EF0E2C8
:103BC000FF2A0EC09E3229F4F6FC6BC140E4F42AB1
:103BD00007C09C3619F450E8F52A02C0983649F41B
:103BE000F20123FD959123FF91912F01992309F073
:103BF000B8CF892F8554833018F08052833038F441
:103C000044E050E0A40EB51E5FE359830FC0933625
:103C100031F0933779F0933509F056C020C0F501A3
:103C20008081898342E050E0A40EB51E610101E06D
:103C300010E012C0F501C080D180F6FC03C06FEF28
:103C40007FEF02C0692D70E042E050E0A40EB51E87
:103C5000C6010E94C5208C015FE7F52214C0F50162
:103C6000C080D180F6FC03C06FEF7FEF02C0692DEA
:103C700070E042E050E0A40EB51EC6010E94BA20DA
:103C80008C0150E8F52AF3FE07C01AC080E290E0EC
:103C9000B3010E94D020EA948E2D90E008171907F6
:103CA000A8F30EC0F601F7FC8591F7FE81916F0134
:103CB00090E0B3010E94D020E110EA94015010403E
:103CC0000115110579F7EAC0943611F0993669F5B6
:103CD000F7FE08C0F501208131814281538184E0E3
:103CE00090E00AC0F501808191819C01442737FD55
:103CF0004095542F82E090E0A80EB91E9FE6F9226D
:103D000057FF09C050954095309521953F4F4F4F33
:103D10005F4FE0E8FE2ACA01B901A1012AE030E0C4
:103D20000E94FC20D82ED21840C0953729F41F2DB0
:103D30001F7E2AE030E01DC01F2D197F9F3661F0E5
:103D4000903720F4983509F0ACC00FC0903739F0A7
:103D5000983709F0A6C004C028E030E00AC010611E
:103D600014FD146020E130E004C014FD166020E171
:103D700032E017FF08C0F501608171818281938173
:103D800044E050E008C0F50180819181BC0180E0F1
:103D900090E042E050E0A40EB51EA1010E94FC207C
:103DA000D82ED2188FE7F82EF122F6FE0BC05EEF68
:103DB000F522D91438F4F4FE07C0F2FC05C08FEEEA
:103DC000F82202C01D2D01C0192DF4FE0DC0FE0108
:103DD000ED0DF11D8081803319F499EEF92208C0B0
:103DE0001F5FF2FE05C003C08F2D867809F01F5FAC
:103DF0000F2DF3FC14C0F0FE0FC01E1510F09D2C0B
:103E00000BC09D2C9E0C911A1E2D06C080E290E0E6
:103E1000B3010E94D0201F5F1E15C0F304C01E1501
:103E200010F4E11A01C0EE2404FF0FC080E390E01B
:103E3000B3010E94D02002FF1DC001FD03C088E72E
:103E400090E00EC088E590E00BC0802F867891F05E
:103E500001FF02C08BE201C080E2F7FC8DE290E03E
:103E6000B3010E94D02006C080E390E0B3010E941D
:103E7000D0209A94D914C0F3DA94F101ED0DF11D1C
:103E8000808190E0B3010E94D020DD20A9F706C018
:103E900080E290E0B3010E94D020EA94EE20C1F7C6
:103EA00043CEF30166817781CB012B96E2E10C943E
:103EB000C721DC01CB01FC01F999FECF06C0F2BDA0
:103EC000E1BDF89A319600B40D9241505040B8F7D8
:103ED00008950F931F93CF93DF93689F8001699F8D
:103EE000100D789F100D1124C8010E94851FEC0150
:103EF000009729F060E070E0A8010E94DC1BCE0171
:103F0000DF91CF911F910F9108950F931F93CF933E
:103F1000DF93BC018230910510F462E070E0E09123
:103F20009309F091940940E050E0A0E0B0E024C093
:103F30008081918186179707D0F08617970771F4D3
:103F400082819381109729F013969C938E931297F8
:103F50002CC0909394098093930927C04115510573
:103F600019F08417950718F4EF018D01AC01DF01FA
:103F7000828193819C01F9013097D1F64115510559
:103F8000F9F0CA01861B970B8430910580F48A8171
:103F90009B810115110521F0F8019383828304C0F0
:103FA0009093940980939309FE01329645C0FE01D7
:103FB000E80FF91F619371930297998388833CC03E
:103FC0008091910990919209892B41F4809102018D
:103FD000909103019093920980939109409104017B
:103FE000509105014115510541F44DB75EB78091DF
:103FF000000190910101481B590B209191093091CA
:10400000920924173507B0F4CA01821B930B861757
:10401000970780F0AB014E5F5F4F8417950750F014
:10402000420F531F5093920940939109F9016193F4
:10403000719302C0E0E0F0E0CF01DF91CF911F91DA
:104040000F910895CF93DF939C01009709F48FC0DF
:10405000EC0122971B821A82609193097091940956
:104060006115710581F488819981820F931F2091D8
:104070009109309192092817390739F5D09392099F
:10408000C093910974C0DB0140E050E0AC17BD075C
:1040900008F1BB83AA83FE0121913191E20FF31F46
:1040A000AE17BF0779F48D919C911197280F391F96
:1040B0002E5F3F4F3983288312968D919C911397E1
:1040C0009B838A834115510571F4D0939409C09361
:1040D00093094DC012968D919C911397AD01009755
:1040E00011F0DC01D3CFDA011396DC93CE93129753
:1040F000FA0121913191E20FF31FCE17DF0769F426
:1041000088819981280F391F2E5F3F4FFA01318333
:1041100020838A819B8193838283E0E0F0E0DB014E
:1041200012968D919C911397009719F0BC01FD0197
:10413000F6CFAB014E5F5F4FDB018D919C91840FF9
:10414000951F20919109309192092817390779F428
:10415000309729F4109294091092930902C01382A7
:104160001282425050405093920940939109DF913E
:10417000CF910895FC010590615070400110D8F76F
:10418000809590958E0F9F1F0895FC01615070409F
:1041900001900110D8F7809590958E0F9F1F08957C
:1041A0000F931F93CF93DF938C01EB018B8181FFE2
:1041B0001BC082FF0DC02E813F818C819D812817FD
:1041C000390764F4E881F9810193F983E88306C033
:1041D000E885F985802F0995892B31F48E819F819F
:1041E00001969F838E8302C00FEF1FEFC801DF91FE
:1041F000CF911F910F910895FA01AA27283051F10C
:10420000203181F1E8946F936E7F6E5F7F4F8F4F07
:104210009F4FAF4FB1E03ED0B4E03CD0670F781F66
:10422000891F9A1FA11D680F791F8A1F911DA11D4B
:104230006A0F711D811D911DA11D20D009F4689484
:104240003F912AE0269F11243019305D3193DEF62C
:10425000CF010895462F4770405D4193B3E00FD0E2
:10426000C9F7F6CF462F4F70405D4A3318F0495DCD
:1042700031FD4052419302D0A9F7EACFB4E0A695B0
:104280009795879577956795BA95C9F700976105D2
:10429000710508959B01AC010A2E06945795479528
:1042A00037952795BA95C9F7620F731F841F951F1D
:1042B000A01D0895AA1BBB1B51E107C0AA1FBB1F6D
:1042C000A617B70710F0A61BB70B881F991F5A95A2
:1042D000A9F780959095BC01CD010895A1E21A2E11
:1042E000AA1BBB1BFD010DC0AA1FBB1FEE1FFF1F9A
:1042F000A217B307E407F50720F0A21BB30BE40BEA
:10430000F50B661F771F881F991F1A9469F7609530
:104310007095809590959B01AC01BD01CF010895EA
:1043200097FB092E05260ED057FD04D0D7DF0AD003
:10433000001C38F450954095309521953F4F4F4FD4
:104340005F4F0895F6F790958095709561957F4F32
:104350008F4F9F4F08952F923F924F925F926F928F
:104360007F928F929F92AF92BF92CF92DF92EF9205
:10437000FF920F931F93CF93DF93CDB7DEB7CA1B86
:10438000DB0B0FB6F894DEBF0FBECDBF09942A88B1
:10439000398848885F846E847D848C849B84AA8459
:1043A000B984C884DF80EE80FD800C811B81AA81E6
:1043B000B981CE0FD11D0FB6F894DEBF0FBECDBFB1
:0843C000ED010895F894FFCF10
:1043C80020009509000000E051094D09100949092C
:1043D8000801FFFFFFFFFFFFFFFFFFFFFFFFFFFFDA
:00000001FF
